:100000000C94340018950000189500001895000015
:10001000189500001895000018950000189500002C
:10002000189500001895000018950000189500001C
:10003000189500001895000018950000189500000C
:1000400018950000189500001895000018950000FC
:1000500018950000189500001895000018950000EC
:1000600018950000189500008FEF8DBFCCE3E0E9F4
:100070004E2E88E08EBFD8E0F6E05F2EA89584B7BC
:10008000082E877F84BF88E1992780936000909332
:100090006000EEEFF7E0A0E0B1E088278D933197A4
:1000A000E9F78CE08093C40080E08093C50088E18C
:1000B0008093C10072E07093C00066248FEF84B912
:1000C00080E38093000100910001003818F011F0E6
:1000D0000C948900A0E0B1E08C918093660084EFDD
:1000E00091E00E94AE00E4E5F2E00E949400E0E0BE
:1000F000F1E0A8E7B6E00E94E4000E948C000E94B4
:100100009B00A0E0B1E08C918F5F8C9310F40C9475
:1001100063007EE170936600A8E7B6E08D918823C6
:1001200011F00CD0FBCF08950E94C200802D11F079
:1001300005D0FACF08958DE001D08AE00090C0008C
:1001400005FEFCCF8093C60008953197F1F708951E
:10015000689462F80895E89462F80895EF93FF9325
:10016000EE27E82BE92B31F0EAEFF0E03197F1F7D9
:100170000197D1F7FF91EF9108950191119121918C
:1001800030810895C895319600200895000F111F01
:10019000221F331F089500951095209530950F5F0D
:1001A0001F4F2F4F3F4F0895019110810FC00E94A4
:1001B000BD000EC00E94BD0010C00191108117FF4C
:1001C00005C03FEF2FEF04C00081112722273327FE
:1001D00037FF03C0E0DF8DE28D93CF92DF92EF9285
:1001E000AA24BB24CC24DD24EE2440E2EAE0FF274D
:1001F00055E093E38081890F87FD9F7083FD907F99
:10020000891B81935A95A9F7C1DFAA1CBB1CCC1C82
:10021000DD1CEE1C4A9551F7E894EFE0FF27829130
:100220000CD0EB30E0F71EF068948A2D0AD08827B6
:100230008D93EF90DF90CF900895982F829501D005
:10024000892F8F70805D26F0803309F408956894BB
:100250008D9308954B616C696272696572756E6702
:10026000206465722042617564726174652C20415E
:1002700075736761626520646573204F5343414C19
:0C028000205265676973746572203A00B3
:00000001FF
