:100000000C94340018950000189500001895000015
:10001000189500001895000018950000189500002C
:10002000189500001895000018950000189500001C
:10003000189500001895000018950000189500000C
:100040000C94000218950000189500001895000007
:1000500018950000189500001895000018950000EC
:1000600018950000189500008FEF8DBFC0E8E4E5FB
:100070004E2E88E08EBFD8E0F7E05F2EA89584B7BB
:10008000082E877F84BF88E1992780936000909332
:100090006000EEEFF7E0A0E0B1E088278D933197A4
:1000A000E9F78CE08093C40080E08093C50088E18C
:1000B0008093C10072E07093C0000E945D1C6624B2
:1000C0007FE774B97FEF75B970E077B97FEF78B9E2
:1000D000539A559A529AABE0B1E0EEE2F8E50E94ED
:1000E0006428A3E1B1E0EEE2F8E50E946428ABE108
:1000F000B1E0EEE2F8E50E946428A3E2B1E0EEE2AE
:10010000F8E50E946428ABE2B1E0EEE2F8E50E9477
:10011000642880E08093570180E090E0A1E0B1E0A6
:100120008D939C93709100017F7B7093000170917F
:1001300000017F7D70930001709100017F777093C3
:100140000001ADECB1E0E6E3F8E50E946428E0E5EB
:10015000F0E0A0E1B0E00E94E32B013081E009F47F
:1001600080E08F93E0E5F0E0A0E1B0E00E94E32BB7
:10017000023081E009F480E09F9189238F93E0E5CC
:10018000F0E0A0E1B0E00E94E32B033081E009F44D
:1001900080E09F918923882311F40C94D800E0E536
:1001A000F0E0A0E1BB2780E08C937BE70E94D22B9C
:1001B000EAE1F1E0A0E1B0E00E94E32B013011F4AC
:1001C0000C940E01EAE1F1E0A0E1BB2781E08C9301
:1001D0007BE70E94D22B81E0809359010091590165
:1001E000043618F011F00C940E01E9E5F1E0A1904D
:1001F000BB24E0E5F0E0AA0CBB1CEA0DFB1D00E00F
:1002000010E0A0E1BB277BE70E94D42BA9E5B1E079
:100210008C918F5F8C9310F40C94EE0081E08093AE
:100220005901009159010A3018F011F00C94640141
:10023000ABE0B1E0E9E5F1E0A190BB24E8EFFFEF2E
:100240000E94F92AEA0DFB1D98E00E94E62BEBE0E4
:10025000F1E00E94EE24A5E6B1E08C9300916501E7
:1002600045E00423A6E6B1E00C930091660100305E
:1002700018F011F00C943E010C944401ABE0B1E095
:10028000EEE2F8E50E946428EBE0F1E0A9E5B1E0D8
:10029000AD90BB24A3E6B1E00E94F92AAA0DBB1DD4
:1002A0000E94832880E0A9E5B1E0AD90BB24AAEBD1
:1002B000B1E0AA0DBB1D8C93A9E5B1E08C918F5FD5
:1002C0008C9310F40C941101ABE0B1E0EEE2F8E590
:1002D0000E946428E1E5F0E0A0E1B0E00E94E32B99
:1002E000013011F40C947D01E1E5F0E0A0E1BB27C1
:1002F00088E08C937BE70E94D22BE5ECF1E00E9432
:10030000EE24A5E6B1E08C930091650145E004235D
:10031000A6E6B1E00C9300916601003018F011F0F0
:100320000C9494010C94A301A5ECB1E0BA93AA93A8
:10033000EEE3F8E5A3E0B1E00E946428EDECF1E023
:100340000E94C0252296A5ECB1E0EEE2F8E50E94FD
:100350003D2811F00C94BB01A5ECB1E0BA93AA932F
:10036000EEE3F8E5A3E0B1E00E946428EDECF1E0F3
:100370000E94C025229680E08093D50181E0809381
:10038000E50180E08093E601709100017F7E70932B
:10039000000170910001777F7093000180E08093ED
:1003A000E70185E085BD80E084BD77EE76BD709184
:1003B0006E00716070936E0078940E948A050E94AE
:1003C00053050E94F7120E944F190E94C91888EE27
:1003D00093E00E942C1D0E943B0C0E94C91888EEDD
:1003E00093E00E942C1DA0ECB0E00C9107FB16F0EE
:1003F0000C94FC010E94031C0C94EF01F894FFCFB5
:100400000F921F922F923F924F925F927F92AF92E4
:10041000BF920F931F932F933F934F935F936F93CD
:100420007F938F939F93AF93BF93CF93DF93EF937C
:10043000FF938FB78F9381E00E94F32A81E00E949F
:10044000F32A81E00E94F32A82E00E94F32A81E0ED
:100450000E94F32A81E00E94F32A81E00E94F32A9D
:1004600081E00E94F32A0091E60141E0040FA88197
:10047000B9810C93AE85BF85BA93AA930E94B91532
:100480002296A6E5B1E0BA93AA93A889B989BA934E
:10049000AA930E949B142496A0E0B1E08C9183FB68
:1004A00016F00C94DF0200915601003011F40C9408
:1004B000640270910001777F709300010E943B0CF1
:1004C0000E94C9180C948904E881F981A190BB2489
:1004D000E0E5F0E0AA0CBB1CEA0DFB1DA885B98580
:1004E0000E94E52BA885B98511968C91ACE5B1E009
:1004F0008C93A885B9858C91ABE5B1E08C93809104
:10050000E601AC81BD818C93AC85BD85BA93AA937D
:10051000ACE5B1E0BA93AA930E94B7042496AC85E7
:10052000BD850C91013011F00C949E0280915C010C
:10053000809356010E94D5050C94AE02AA81BB811E
:10054000BA93AA930E94D8062296AA81BB810C91E5
:10055000003011F40C94AE020C9489044091E60131
:10056000AC81BD810C91041711F00C94BC02A6EE75
:10057000B1E08C918F5F8C930091E601033618F007
:1005800011F00C94C5020C94D3028AE1D2018C9331
:1005900081E00E94F32A0E94D512229681E00E94F7
:1005A000EF2A0C9489040E943B0C0E94C91880E039
:1005B00090E0A1E0B1E08D939C930C945B040091DA
:1005C0005601003080E010F009F081E08F93A1E047
:1005D000B1E00D911C91003B54E0150780E014F050
:1005E00009F081E09F918923882311F40C9405037D
:1005F00080E08093560180E090E0A1E0B1E08D932F
:100600009C930E94FB170C948904009156010030C2
:1006100011F00C940D030C945D0400915601003808
:1006200011F00C942403A0E0B1E08C9186FB8827A4
:1006300080F9809580FBA0E0B1E08C9186F98C93E5
:100640000E94B1050E94C91800915601003811F0AE
:100650000C942C030C948904A0E0B1E08C9186FBEF
:1006600081E00EF080E08F9300915601003080E031
:1006700010F009F081E09F918923882311F40C94F4
:100680004B03A6E5B1E08C91805C8C9370910001E6
:100690007F7B70930001AC85BD85BA93AA93A6E5D4
:1006A000B1E0BA93AA930E94B7042496AC85BD85A5
:1006B0000C91013011F00C94940300915A01003018
:1006C00011F00C946A0380E080935B010E94D505D1
:1006D0000C94920300915601053011F40C9492038E
:1006E000ABE5B1E00C914AE0049F0C9200915B01F4
:1006F00040915601040FABE5B1E00C93ABE5B1E0DE
:100700008C9180538C9380915A01815080935A012F
:1007100000915A01003011F00C94920380E0AC85F6
:10072000BD858C930C94AE03AAE5B1E0BA93AA936D
:10073000A6E5B1E0BA93AA930E94E1042496009141
:100740005A01003011F40C94A7030E94001880E0B5
:1007500080935B018091560180935C0100915A0166
:10076000003011F40C94B6030C948904AA85BB855F
:10077000BA93AA93A6E5B1E0BA93AA930E942D0575
:100780002496A0E0B1E08C9184FB81E00EF480E03F
:100790008F93AA85BB850C91013081E009F080E040
:1007A0009F91892B882311F40C94EF03AC85BD85B0
:1007B0000C91003011F00C94ED03AA81BB81BA9327
:1007C000AA930E94D8062296AA81BB810C91003080
:1007D00011F40C94ED030C9489040C945304AC852F
:1007E000BD850C91003011F00C941B0400915C014C
:1007F0000F3411F00C94FF0380E080935C01ACE5B2
:10080000B1E00D91112740E051E00E94002BA88536
:10081000B9850D931C93A885B9850D911C91ABE505
:10082000B1E04D915527040F151FA885B9850D938B
:100830001C930C942704A6E5B1E00D91112740E02C
:1008400051E00E94002BA885B9850D931C93E88187
:10085000F981A190BB24E0E5F0E0AA0CBB1CEA0DF5
:10086000FB1DA885B9857BE70E94D42BF8940E94D4
:100870003B0C0E94C9188CEB92E00E942C1DA6EE46
:10088000B1E08C918F5F8C930091E601033618F0F4
:1008900011F00C944D040C94500483E68093E6010F
:1008A00078940E943B0C0E94C91880E090E0A1E07F
:1008B000B1E08D939C930C9489040E947A18A0E077
:1008C000B1E08C9186FB16F40C948904A1E0B1E0B0
:1008D0000D911C91003B54E0150711F00C9472042B
:1008E0000E949C17A1E0B1E00E94561CA1E0B1E07B
:1008F0000D911C91003B54E015071CF011F00C9475
:1009000083040C94890481EB94E0A1E0B1E08D9321
:100910009C93A0E0B1E08C9183FB16F00C949404BE
:100920007DEF76BD0C94960477EE76BD89E0481A8B
:1009300080E0580A60968F918FBFFF91EF91DF9111
:10094000CF91BF91AF919F918F917F916F915F9167
:100950004F913F912F911F910F91BF90AF907F903A
:100960005F904F903F902F901F900F90189580E0D0
:10097000AA81BB818C93A881B9810C910F3280E050
:1009800010F009F081E08F93A881B9810C910A33AE
:1009900081E008F080E09F918923882311F40C9472
:1009A000D50481E0AA81BB818C93A881B9810C9187
:1009B000053011F00C94E00481E0AA81BB818C9396
:1009C000089580E0AA81BB818C93A881B9810C91A4
:1009D000073011F00C94F20481E0AA81BB818C9362
:1009E0000C942C05083011F00C94FC0481E0AA81D1
:1009F000BB818C930C942C050A3011F00C940605E5
:100A000082E0AA81BB818C930C942C050B3011F0F1
:100A10000C94100582E0AA81BB818C930C942C0568
:100A20000C3411F00C941A0582E0AA81BB818C93DE
:100A30000C942C050B3411F00C94240582E0AA814F
:100A4000BB818C930C942C050A3411F00C942C056A
:100A500082E0AA81BB818C93089580E0AA81BB814A
:100A60008C93A881B9810C91073411F00C943C054A
:100A700081E0AA81BB818C93A881B9810C91083453
:100A800011F00C94470581E0AA81BB818C93A88169
:100A9000B9810C910E3411F00C94520581E0AA81B9
:100AA000BB818C93089581E00E94F32A81E0A881A4
:100AB000B9818C93A881B9810C91003118F011F0A3
:100AC0000C94740580E0A881B981AD90BB24A2E3A9
:100AD000B1E0AA0DBB1D8C93A881B9818C918F5F69
:100AE0008C9310F40C945A0581E08093550180E0BA
:100AF0008093580180E3A5E5B1E0AD90BB24A2E36B
:100B0000B1E0AA0DBB1D8C9381E0481A80E0580A21
:100B10002296089581E00E94F32A81E0A881B9819C
:100B20008C93A881B9810C91083018F011F00C94C5
:100B3000AB058DE0A881B981AD90BB24A2E4B1E002
:100B4000AA0DBB1D8C93A881B9818C918F5F8C936A
:100B500010F40C94910581E0481A80E0580A22961E
:100B60000895A0E0B1E08C9186FB16F00C94D205BC
:100B70000E946D170E948A058DE880934A01A5ECBA
:100B8000B1E0E6E4F8E50E943D2811F00C94CD05B3
:100B90008DE8809346010C94D0058DE88093470141
:100BA0000C94D4050E94CC17089581E00E94F32A8A
:100BB000709100017068709300010091550102303E
:100BC00081E009F080E08F9300913301003081E0F3
:100BD00009F080E09F9189238F93009156010530A1
:100BE00080E010F009F081E09F918923882311F4BF
:100BF0000C94FD0581E08093550100915501093069
:100C000010F00C94410600915601053011F00C943F
:100C10002F0600915501013011F00C94190680E85F
:100C200080933301A5E5B1E08C918F5F8C930C9498
:100C30002D06A5E5B1E0AD90BB24A1E3B1E0AA0D7E
:100C4000BB1D0C9140E8040FA5E5B1E0AD90BB24BD
:100C5000A1E3B1E0AA0DBB1D0C930C9441060091D9
:100C6000560140E3041BA5E5B1E0AD90BB24A2E32F
:100C7000B1E0AA0DBB1D0C93A5E5B1E08C918F5F8F
:100C80008C93A0E0B1E08C9184FB16F40C94910657
:100C900081E0A881B9818C9340915501A881B981E7
:100CA0000C91041718F011F00C947006A881B9810A
:100CB000AD90BB24A2E3B1E0AA0DBB1D8C91A8812D
:100CC000B981AD90BB24ABE4B1E0AA19BB098C9308
:100CD000A881B9818C918F5F8C9310F40C944C0691
:100CE00080915501A881B9818C93A881B9810C911B
:100CF000083018F011F00C948F068DE0A881B981AE
:100D0000AD90BB24ABE4B1E0AA19BB098C93A881D8
:100D1000B9818C918F5F8C9310F40C9475060C94B0
:100D200093060E94001881E0481A80E0580A229633
:100D3000089588E00E94F32AEDE5F1E0ABE0B1E030
:100D40000E948328E0E5F0E0A0E1B0E00E94E32B00
:100D5000033011F00C94D206EBE0F1E0A881B981E8
:100D60000E941026EBE0F1E0ABE0B1E00E947126BA
:100D7000A881B981BA93AA93EEE4F8E5A3E0B1E0C3
:100D80000E946428EA81FB810E94C0252296ABE084
:100D9000B1E0BA93AA93AA81BB81EBE0F1E00E9493
:100DA0001925229688E0481A80E0580A229608956C
:100DB00081E00E94F32A81E00E94F32A82E00E94EF
:100DC000F32A81E00E94F32A81E00E94F32A80E066
:100DD000AA85BB858C93A0E0B1E08C9187FB16F0CF
:100DE0000C94080700915C010F3011F00C9402077D
:100DF0000E9453050E948A050E94C9180C940C0C8D
:100E00000C9408070E94C8130E941B0C0E949906AC
:100E100000915C01013011F00C942307EBE0F1E04C
:100E2000ABE2B1E00E948328ABE0B1E0BA93AA93B1
:100E3000A3E1B1E0EBE0F1E00E94192522960E94C7
:100E40002E0C0C94060C013411F00C942B070E940C
:100E500012180C94060C023011F00C944407EBE0CD
:100E6000F1E0ABE2B1E00E948328ABE0B1E0BA93DD
:100E7000AA93ABE0B1E0E3E1F1E00E940425229601
:100E80000E942E0C0C94060C023411F00C94610795
:100E9000EBE0F1E0ABE2B1E00E948328ABE0B1E02F
:100EA000BA93AA93EEE2F8E5A3E0B1E00E946428C9
:100EB000E3E0F1E0ABE0B1E00E94042522960C945F
:100EC000060C033011F00C947A07EBE0F1E0ABE292
:100ED000B1E00E948328ABE0B1E0BA93AA93ABE003
:100EE000B1E0E3E1F1E00E94542522960E942E0C2D
:100EF0000C94060C033411F00C94B907EBE0F1E00C
:100F0000ABE2B1E00E948328A0E0B1E08C9185FBC8
:100F100016F40C949807A1E0B1E08D919C91A7E69E
:100F2000B1E08D939C937091000170627093000109
:100F300080E197E28A939A930E94641CA9E6B1E04B
:100F40000D931C93A9E6B1E0EBE0F1E00E94C82903
:100F5000ABE0B1E0BA93AA93E6E5F8E5A3E0B1E02F
:100F60000E946428EBE0F1E00E94C02522960C94D8
:100F7000060C043011F00C94D207EBE0F1E0ABE288
:100F8000B1E00E948328ABE0B1E0BA93AA93ABE052
:100F9000B1E0E3E1F1E00E94C02522960E942E0C10
:100FA0000C94060C043411F00C94EF07EBE0F1E024
:100FB000ABE2B1E00E948328ABE0B1E0BA93AA9320
:100FC000E6E4F8E5A3E0B1E00E946428E3E0F1E0A4
:100FD000ABE0B1E00E94C02522960C94060C0630CE
:100FE00011F00C940008A0E0B1E08C9187FB16F49E
:100FF0000C94FC070E941B0C0E9400180C94060C19
:10100000053411F00C942808E0E5F0E0A0E1B0E030
:101010000E94E32B41E0040FA885B9850C93A885B5
:10102000B9850C91033018F011F00C9419080C9448
:101030001D0880E0A885B9858C93E0E5F0E0A885DF
:10104000B9857BE70E94D22B0E9400180C94060CF5
:10105000063411F00C944C08EBE0F1E0ABE2B1E0A7
:101060000E948328E3E1F1E0ABE0B1E00E94832835
:10107000EBE1F1E0A3E1B1E00E948328E3E2F1E0DB
:10108000ABE1B1E00E948328EBE2F1E0A3E2B1E042
:101090000E9483280C94060C073011F00C949A08D7
:1010A00000915B0141E0040FAE81BF810C93AE81E2
:1010B000BF810C91003080E010F009F081E08F9347
:1010C00000915B010B3081E008F080E09F91892363
:1010D000882311F40C948608EBE0F1E0AE81BF8127
:1010E000AD90BB24A3E6B1E00E94F92AAA0DBB1D76
:1010F0000E94832881E0AE81BF81AD90BB24AAEB22
:10110000B1E0AA0DBB1D8C930C94960884E1D2012A
:101110008C9381E00E94F32A0E94D512229681E0EE
:101120000E94EF2A81E0AA85BB858C930E9400185B
:101130000C94060C083011F00C94E00800915B014F
:1011400041E0040FAE81BF810C93AE81BF810C9151
:10115000003080E010F009F081E08F9300915B0196
:101160000B3081E008F080E09F918923882311F4FF
:101170000C94CC080E941B0CEE81FF81A190BB2433
:10118000E3E6F1E00E94F92AEA0DFB1DABE0B1E0D5
:101190000E9483280C94DC0884E1D2018C9381E0C6
:1011A0000E94F32A0E94D512229681E00E94EF2A23
:1011B00081E0AA85BB858C930E9400180C94060CD4
:1011C000093011F00C94F208EBE0F1E0ABE2B1E091
:1011D0000E948328EBE0F1E0ABE0B1E00E94242024
:1011E0000C94060C093411F00C940909EBE0F1E0C1
:1011F000ABE2B1E00E948328ABE0B1E0BA93AA93DE
:10120000ABE0B1E0EBE0F1E00E94542522960C94B3
:10121000060C073711F00C942609EBE0F1E0ABE285
:10122000B1E00E948328ABE0B1E0BA93AA93A5ECA9
:10123000B1E0EBE0F1E00E9454252296EBE0F1E012
:10124000ABE0B1E00E94111E0C94060C043711F0C3
:101250000C944309EBE0F1E0ABE2B1E00E9483289B
:10126000EBE0F1E0ABE0B1E00E94BB1EABE0B1E02F
:10127000BA93AA93A5ECB1E0EBE0F1E00E94C0259F
:1012800022960C94060C083711F00C946009EBE0E0
:10129000F1E0ABE2B1E00E948328ABE0B1E0BA93A9
:1012A000AA93A5ECB1E0EBE0F1E00E945425229670
:1012B000EBE0F1E0ABE0B1E00E940D1E0C94060CF7
:1012C000053711F00C947D09EBE0F1E0ABE2B1E001
:1012D0000E948328EBE0F1E0ABE0B1E00E94471F01
:1012E000ABE0B1E0BA93AA93A5ECB1E0EBE0F1E09A
:1012F0000E94C02522960C94060C093711F00C941C
:101300009A09EBE0F1E0ABE2B1E00E948328ABE0A8
:10131000B1E0BA93AA93A5ECB1E0EBE0F1E00E9452
:1013200054252296EBE0F1E0ABE0B1E00E94731EA1
:101330000C94060C063711F00C94B709EBE0F1E0C1
:10134000ABE2B1E00E948328EBE0F1E0ABE0B1E07A
:101350000E949E1FABE0B1E0BA93AA93A5ECB1E066
:10136000EBE0F1E00E94C02522960C94060C0D30B3
:1013700011F00C94C909EBE0F1E0ABE2B1E00E949E
:101380008328EBE0F1E0ABE0B1E00E941A210C947D
:10139000060C0D3411F00C94DB09EBE0F1E0ABE24C
:1013A000B1E00E948328EBE0F1E0ABE0B1E00E9405
:1013B0007A200C94060C0F3011F00C94F609A0E082
:1013C000B1E08C9187FB16F40C94F409EBE0F1E0AA
:1013D000ABE2B1E00E948328ABE0B1E0EEE2F8E5D9
:1013E0000E9464280E9400180C94060C003111F031
:1013F0000C940F0AEBE0F1E0ABE2B1E00E9483282D
:10140000ABE0B1E0BA93AA93A3E1B1E0EBE0F1E085
:101410000E942A2222960E942E0C0C94060C013166
:1014200011F00C94270AEBE0F1E0ABE2B1E00E948E
:101430008328E3E1F1E0ABE0B1E00E948328EBE236
:10144000F1E0A3E1B1E00E9483280C94060C013581
:1014500011F00C943B0A0E941B0CEBE2F1E0ABE0B4
:10146000B1E00E948328E3E1F1E0ABE2B1E00E9449
:1014700083280C94060C003711F00C94610AA5EC3B
:10148000B1E0E6E4F8E50E943D2811F00C94590A19
:10149000A5ECB1E0BA93AA93EEE3F8E5A3E0B1E0DE
:1014A0000E946428EDECF1E00E94C02522960C9485
:1014B0005F0AA5ECB1E0E6E4F8E50E9464280C942C
:1014C000060C003511F00C94750A0E941B0CEBE021
:1014D000F1E0ABE2B1E00E948328EDECF1E0ABE09B
:1014E000B1E00E9483280C94060C013711F00C9493
:1014F000870AEBE0F1E0ABE2B1E00E948328EBE089
:10150000F1E0ABE0B1E00E9471260C94060C0237CA
:1015100011F00C94990AEBE0F1E0ABE2B1E00E942B
:101520008328EBE0F1E0ABE0B1E00E9410260C94E0
:10153000060C033711F00C94AB0AEBE0F1E0ABE2E0
:10154000B1E00E948328EBE0F1E0ABE0B1E00E9463
:101550000B260C94060C0E3411F00C94BE0AA0E07D
:10156000B1E08C9184FB882780F9809580FBA0E016
:10157000B1E08C9184F98C930C94060C073411F033
:101580000C94DB0A0091E601003011F00C94CB0AB8
:1015900084E68093E6010091E601003018F011F036
:1015A0000C94D40A0C94D90A8091E601815080935E
:1015B000E6010C94060C083411F00C94F20AA6EE25
:1015C000B1E08C918F5F8C930091E601033618F0A7
:1015D00011F00C94ED0A0C94F00A80E08093E6017F
:1015E0000C94060C0A3011F00C94FE0A80915B01F9
:1015F0008093E6010E9400180C94060C0B3011F049
:101600000C94350B0091E501003110F00C941E0B89
:10161000A5EEB1E08C918F5F8C938091E601A5EEF1
:10162000B1E0AD90BB24A4EDB1E0AA0DBB1D8C933D
:1016300080915B018093E6010C94310B8CE1D20127
:101640008C9381E00E94F32A0E94D512229681E0B9
:101650000E94EF2A81E08093E50181E0AA85BB85A5
:101660008C930E9400180C94060C0C3011F00C9412
:101670006D0BA5EEB1E0AD90BB24A4EDB1E0AA0DD9
:10168000BB1D8C918093E601A6EEB1E08C918F5F3B
:101690008C930091E501013018F011F00C94520B7D
:1016A0000C94590B8091E50181508093E5010C94D5
:1016B000690B8CE1D2018C9381E00E94F32A0E9495
:1016C000D512229681E00E94EF2A81E0AA85BB858F
:1016D0008C930E9400180C94060C0C3411F00C949E
:1016E000800BABE0B1E0EEE2F8E50E943D2810F09F
:1016F0000C947E0B80915B018093E6010C94060CA8
:101700000B3411F00C94930BABE0B1E0EEE2F8E592
:101710000E943D2811F00C94910B80915B01809305
:10172000E6010C94060C0A3411F00C94A90BABE002
:10173000B1E0EEE2F8E50E943D2818F011F00C94BB
:10174000A30B0C94A70B80915B018093E6010C9492
:10175000060C0E3011F00C94F80BA0E0B1E08C9167
:1017600083FB882780F9809580FBA0E0B1E08C9115
:1017700083F98C93A0E0B1E08C9183FB16F00C947C
:10178000F40B0091E60141E0040FA881B9810C93AC
:10179000E881F981A190BB24E0E5F0E0AA0CBB1C34
:1017A000EA0DFB1DAC81BD810E94E52BAC81BD81A2
:1017B00011968C91AA81BB818C93AA81BB810C91DB
:1017C0000E3011F00C94F10BA6EEB1E08C918F5F0E
:1017D0008C930E943B0C81E0AA85BB858C930C9472
:1017E000F40B81E08093E5010E9400180C94060C34
:1017F000003011F00C94000C0E9400180C94060CA0
:101800000F3411F00C94060C0E94001880E08093B5
:101810005C018FEF80935B010E943B0C7091000193
:101820007F77709300010E94530586E0481A80E09C
:10183000580A2A960895EBE1F1E0A3E2B1E00E9494
:101840008328E3E1F1E0ABE1B1E00E948328EBE023
:10185000F1E0A3E1B1E00E9483280895EBE1F1E01B
:10186000A3E1B1E00E948328E3E2F1E0ABE1B1E063
:101870000E948328089581E00E94F32A81E00E945B
:10188000F32A81E20E94F32A81E00E94F32A82E097
:101890000E94F32A81E00E94F32A88E00E94F32A42
:1018A00084E00E94F32A84E00E94F32A88E00E94E8
:1018B000F32A88E00E94F32A84E00E94F32A84E05D
:1018C0000E94F32A81E00E94F32A82E00E94F32A18
:1018D00082E00E94F32A81E00E94F32A81E00E94C4
:1018E000F32A81E00E94F32A81E0ACA1BDA18C9390
:1018F000ACA1BDA10C91083018F011F00C94920C21
:101900008DE0ACA1BDA1AD90BB24A2E4B1E0AA0DD5
:10191000BB1D8C93ACA1BDA18C918F5F8C9310F4F7
:101920000C94780CA0E0B1E08C9183FB16F40C943D
:101930000E11A0E0B1E08C9184FB16F40C947310AE
:10194000EBE0F1E00E94EE24A5E6B1E08C9300917B
:10195000650145E00423A6E6B1E00C93E0E5F0E084
:10196000A0E1B0E00E94E32B013011F00C94D50C03
:10197000ABE0B1E0EEE5F8E50E943D2818F011F08B
:101980000C94C70CA6E6B1E08C918F5F8C93ABE012
:10199000B1E0E6E6F8E50E943D2810F40C94D50C81
:1019A000A6E6B1E08C918F5F8C93E0E5F0E0A0E1DA
:1019B000B0E00E94E32B033011F00C94FC0CABE080
:1019C000B1E0EEE6F8E50E943D2818F011F00C9425
:1019D000EE0CA6E6B1E08C918F5F8C93ABE0B1E0AA
:1019E000E6E5F8E50E943D2810F40C94FC0CA6E610
:1019F000B1E08C918F5F8C9300916601003011F003
:101A00000C946510EBE0F1E0A889B9890E940B26DF
:101A1000E0E5F0E0A0E1B0E00E94E32B013011F03E
:101A20000C94C10DA889B989BA93AA93E6E7F8E5A1
:101A3000A3E0B1E00E946428E3E0F1E0AA89BB8959
:101A40000E9454252296E889F989A88DB98D0E94B3
:101A50007126E88DF98DAE89BF890E94FA29AA897D
:101A6000BB89BA93AA93AA8DBB8DEA89FB890E9490
:101A700004252296AA89BB89EEE7F8E50E943D2855
:101A800018F011F00C94460D0C944A0DAE89BF89E4
:101A90000E94491C81E0ACA1BDA18C93ACA1BDA169
:101AA0000C91083018F011F00C94B00DAE89BF897C
:101AB0000D911D912D913C914AE050E060E070E065
:101AC0000E94CF1CAC89BD890D931D932D933D932E
:101AD000AC89BD898C91ACA1BDA1AD90BB24A2E421
:101AE000B1E0AA0DBB1D8C93AE89BF890D911D91EC
:101AF0002D913C914AE050E060E070E00E94CF1CE4
:101B0000AE89BF894D935D936D937D9340E050E026
:101B100060E070E0AE89BF890D911D912D913C91DF
:101B20000E94212B81E009F080E08F93ACA1BDA140
:101B30000C91023080E010F009F081E09F91892340
:101B4000882311F40C94A80D88E0ACA1BDA18C935E
:101B5000ACA1BDA18C918F5F8C9310F40C944E0DB1
:101B6000A5E4B1E08C9180588C93ABE0B1E0EEE25B
:101B7000F8E50E943D2810F00C94C10D8AE0809396
:101B80004A01E0E5F0E0A0E1B0E00E94E32B003084
:101B900011F00C94430FABE0B1E0EEE2F8E50E94E7
:101BA0003D2810F00C94DA0D87E0AAA1BBA18C931C
:101BB0000C94DE0D88E0AAA1BBA18C93A889B989F9
:101BC000E6E8F8E50E943D2881E008F080E08F9388
:101BD000A889B989EEE8F8E50E943D2880E010F078
:101BE00009F081E09F918923882311F40C941D0F43
:101BF000A889B989BA93AA93EA89FB89D2010E947C
:101C0000832888E00E94F32AAEA1BFA1BA93AA93C9
:101C10000E943612269688E00E94EF2AE889F98908
:101C2000A88DB98D0E947126E88DF98DAE89BF8986
:101C30000E94FA29AA89BB89BA93AA93AA8DBB8D5F
:101C4000EA89FB890E940425229640E050E060E08A
:101C500070E0AE89BF890D911D912D913C910E943C
:101C6000212B1CF011F00C94370E0C94B10EEE8960
:101C7000FF89A8A1B9A10E94372BA8A1B9A10E94F0
:101C8000FD2BAE8DBF8D8C93AAA1BBA10C91AE8D07
:101C9000BF8D4C91041BAE8DBF8D0C93AE8DBF8D4F
:101CA0008C918F5F8C93AE8DBF8D8C91ACA1BDA1BB
:101CB0008C93AAA1BBA14C91ACA1BDA10C9104171E
:101CC00018F011F00C949C0EAE89BF890D911D91F6
:101CD0002D913C914AE050E060E070E00E94CF1C02
:101CE000AC89BD890D931D932D933D93AC89BD891E
:101CF0008C91ACA1BDA1AD90BB24A2E4B1E0AA0D32
:101D0000BB1D8C93AE89BF890D911D912D913C9186
:101D10004AE050E060E070E00E94CF1CAE89BF89CD
:101D20004D935D936D937D93ACA1BDA18C918F5F1D
:101D30008C9310F40C94590EAE8DBF8DAD90BB24D6
:101D4000A2E4B1E0AA0DBB1D8C9180588C93AE8D9E
:101D5000BF8D0C9141E0041BAAA1BBA10C930C9474
:101D6000CA0E80E0AAA1BBA1AD90BB24A2E4B1E061
:101D7000AA0DBB1D8C93AAA1BBA1AD90BB24A2E46C
:101D8000B1E0AA0DBB1D8C9180588C93AAA1BBA178
:101D90000E94451CAAA1BBA10C91003080E010F06C
:101DA00009F081E08F93AA89BB89EEE2F8E50E94F1
:101DB0003D2880E010F009F081E09F91892388237D
:101DC00011F40C941B0FAA89BB89BA93AA93E6E974
:101DD000F8E5A3E0B1E00E946428EC89FD890E9447
:101DE00054252296EA89FB89A88DB98D0E94712617
:101DF000E88DF98DAE89BF890E94FA29AE89BF8925
:101E00008C91AAA1BBA1AD90BB24A2E4B1E0AA0D24
:101E1000BB1D8C93AA89BB89BA93AA93AA8DBB8D4B
:101E2000EC89FD890E9404252296AAA1BBA10E94EB
:101E3000451C0C94CA0E0C942B0FE889F989D20129
:101E40000E94832888E00E94F32A0E94591122965A
:101E500088E00E94EF2AABE0B1E0EEE2F8E50E94F4
:101E60003D2810F00C94370F8AE080934A01ABE0D4
:101E7000B1E0EEE2F8E50E943D2811F00C94430F2A
:101E800080E880934A01E0E5F0E0A0E1B0E00E9444
:101E9000E32B023011F00C94730FE889F989D20119
:101EA0000E94832888E00E94F32A0E9459112296FA
:101EB00088E00E94EF2AABE0B1E0EEE2F8E50E9494
:101EC0003D2810F00C94670F8AE080934A01ABE044
:101ED000B1E0EEE2F8E50E943D2811F00C94730F9A
:101EE00080E880934A01E0E5F0E0A0E1B0E00E94E4
:101EF000E32B033011F00C946310A889B989BA93CD
:101F0000AA93EEE9F8E5A3E0B1E00E946428EA892B
:101F1000FB890E9454252296E889F989A88DB98DFC
:101F20000E947126E88DF98DAE89BF890E94FA2939
:101F3000AA89BB89BA93AA93AA8DBB8DEA89FB892A
:101F40000E9404252296AA89BB89EEE7F8E50E9443
:101F50003D2818F011F00C94AF0F0C94B30FAE891C
:101F6000BF890E94491CAE89BF890D911D912D9199
:101F70003C914CE350E060E070E00E94CF1CAE85E5
:101F8000BF854D935D936D937D93AE89BF890D9110
:101F90001D912D913C914CE350E060E070E00E9477
:101FA000CF1CAC85BD850D931D932D933D93AC85C2
:101FB000BD850C914AE00E94ED2BA3E4B1E08C9327
:101FC000AC85BD850C914AE00E94ED2BA4E4B1E004
:101FD0000C9383E0ACA1BDA18C93ACA1BDA10C91ED
:101FE000063018F011F00C944F10AE85BF850D919E
:101FF0001D912D913C914AE050E060E070E00E941C
:10200000CF1CAC89BD890D931D932D933D93AC8955
:10201000BD898C91ACA1BDA1AD90BB24A2E4B1E07F
:10202000AA0DBB1D8C93AE85BF850D911D912D9181
:102030003C914AE050E060E070E00E94CF1CAE8529
:10204000BF854D935D936D937D9340E050E060E0DC
:1020500070E0AE85BF850D911D912D913C910E9440
:10206000212B81E009F080E08F93ACA1BDA10C9100
:10207000033080E010F009F081E09F9189238823EC
:1020800011F40C94471088E0ACA1BDA18C93ACA1D5
:10209000BDA18C918F5F8C9310F40C94ED0FA5E48F
:1020A000B1E08C9180588C93ABE0B1E0EEE2F8E5C2
:1020B0000E943D2810F00C9460108AE08093490142
:1020C00088E180934A010C9471108DE0D2018C93C9
:1020D00081E00E94F32A0E94D512229681E00E949C
:1020E000EF2A0C940C110091E601033618F011F060
:1020F0000C947C100C947F1080E08093E60100919A
:10210000E60141E0040FA9E5B1E00C93E9E5F1E057
:10211000A190BB24E0E5F0E0AA0CBB1CEA0DFB1D7E
:10212000AE81BF810E94E52BAE81BF8111968C915B
:10213000AC81BD818C930091E6014AE00E94ED2BB9
:10214000AAE4B1E00C930091E6014AE00E94ED2B75
:10215000A9E4B1E08C938DE080934801AC81BD810E
:102160000C914AE00E94ED2BA5E4B1E08C93AC8188
:10217000BD810C914AE00E94ED2BAA85BB850C9392
:10218000AA85BB850C914AE00E94ED2BA6E4B1E044
:102190008C93AA85BB850C914AE00E94ED2BA7E4A5
:1021A000B1E00C93AA81BB81BA93AA93AE81BF819F
:1021B000BA93AA930E94E1042496AA81BB810C9150
:1021C000003018F011F00C94E7100C940611AE8159
:1021D000BF818C91AA81BB818C93A5E4B1E08C91E5
:1021E00080588C93AA81BB810C914AE00E94ED2B10
:1021F000A4E4B1E00C93AA81BB810C914AE00E9457
:10220000ED2BA3E4B1E08C930C940C118DE0809342
:1022100044018DE0809343010C945311A7EEB1E08B
:102220008C918F5F8C930091E7010F3318F011F0C0
:102230000C941C110C941F1180E08093E701009115
:10224000E70148E00E94ED2BA881B9810C93A88199
:10225000B9818C918F5F8C938DE0A881B981AD900D
:10226000BB24A2E4B1E0AA0DBB1D8C93A881B98167
:102270008C918F5F8C93A881B9810C91083018F0F4
:1022800011F00C9445110C94491181E0A881B98199
:102290008C938DE8A881B981AD90BB24A2E4B1E014
:1022A000AA0DBB1D8C9387E5481A80E0580AA696B4
:1022B000089581E00E94F32A81E00E94F32A81E2DE
:1022C0000E94F32A81E00E94F32A82E00E94F32A0E
:1022D00081E00E94F32AEC85FD850027AE81BF8155
:1022E0000E94C426AE81BF810E94FD2BAC81BD81BE
:1022F0008C93ABE0B1E0EEE2F8E50E943D2810F0EF
:102300000C94881187E0A885B9858C930C948C1166
:1023100088E0A885B9858C9381E0AA85BB858C93DC
:10232000AC81BD814C91AA85BB850C91041718F036
:1023300011F00C943012AA85BB858C91EE81FF813F
:1023400001E00A93AB81BC810E94BC2BAA81BB81B6
:10235000EEEBF8E50E94032C11F00C94B5118AE025
:10236000A881B9818C930C940E12E0ECF8E50E94E0
:10237000032C11F00C94D11185E1A881B9818C93C3
:10238000AC81BD810C91AA85BB854C91041BA885AD
:10239000B9850C93A885B9858C918F5F8C930C942B
:1023A0000E12E2ECF8E50E94032C11F00C94ED11F2
:1023B000A885B9858C918F5F8C93A885B985AD90E0
:1023C000BB24A2E4B1E0AA0DBB1D0C9140E8040FB0
:1023D000A881B9810C930C940E12AA81BB81E4EC04
:1023E000F8E50E94032C81E008F480E08F93AA8135
:1023F000BB81E6ECF8E50E94032C81E010F009F0C7
:1024000080E09F918923882311F40C940E12AA81F5
:10241000BB810E948A2BA881B9810C93A885B985BC
:102420000C91003018F011F00C9418120C94281232
:10243000A881B9818C91A885B985AD90BB24A2E40F
:10244000B1E0AA0DBB1D8C93A885B9850E94451CDF
:10245000AA85BB858C918F5F8C9310F40C9490119E
:1024600087E2481A80E0580A2C96089581E20E947B
:10247000F32A88E00E94F32A84E00E94F32A81E094
:102480000E94F32A88E00E94F32A81E00E94F32A46
:1024900081E00E94F32A81E00E94F32AEA89FB8905
:1024A000AC85BD850E947126EC85FD85AA85BB851E
:1024B0000E94FA29EA85FB85AE85BF850E94372BED
:1024C000AE85BF850E94FD2BAC81BD818C93A88910
:1024D000B9890C91AC81BD814C91041BAA81BB814F
:1024E0000C93EA89FB89AE81BF810E94832881E039
:1024F000A881B9818C93AA81BB814C91A881B981B3
:102500000C91041718F011F00C949D12AE81BF814C
:10251000BA93AA93E6E9F8E5A3E0B1E00E94642843
:10252000E885F9850E9454252296A881B9818C916D
:102530008F5F8C9310F40C947B12EE81FF81AE813F
:10254000BF810E947F2681E0A881B9818C93AA81F6
:10255000BB814C91A881B9810C91041718F011F03E
:102560000C94C912AE81BF81BA93AA93E6EAF8E54A
:10257000A3E0B1E00E946428E885F9850E94542513
:102580002296A881B9818C918F5F8C9310F40C9462
:10259000A712EE81FF81AC89BD890E94832889E35F
:1025A000481A80E0580A609608958DE080934A01A9
:1025B00085E18093490186E18093480186E180931B
:1025C000470187E18093460186E1809345018DE0D4
:1025D00080934401A881B9818C91809343017091CB
:1025E0000001777F709300010E94C918089581E26D
:1025F0000E94F32A81E00E94F32A81E00E94F32ADC
:1026000082E00E94F32A81E00E94F32A81E00E9486
:10261000F32AAA85BB85E8ECF8E50E940A2B89E13C
:1026200080934A0185E0AE81BF818C93AA85BB85EA
:102630000E94FD2BA881B9818C9381E0A885B98582
:102640008C93A881B9814C91A885B9850C91041708
:1026500018F011F00C94C213A885B9858C91EA8505
:10266000FB8501E00A93AD81BE810E94BC2BAC8149
:10267000BD81EEEBF8E50E94032C11F00C9446139B
:102680008AE0AA81BB818C930C949F13E0ECF8E55F
:102690000E94032C11F00C94621385E1AA81BB8186
:1026A0008C93A881B9810C91A885B9854C91041BA4
:1026B000AE81BF810C93AE81BF818C918F5F8C9373
:1026C0000C949F13E2ECF8E50E94032C11F00C949B
:1026D0007E13AE81BF818C918F5F8C93AE81BF8161
:1026E000AD90BB24A2E4B1E0AA0DBB1D0C9140E863
:1026F000040FAA81BB810C930C949F13AC81BD8104
:10270000E4ECF8E50E94032C81E008F480E08F936C
:10271000AC81BD81E6ECF8E50E94032C81E010F06D
:1027200009F080E09F918923882311F40C949F1372
:10273000AC81BD810E948A2BAA81BB810C93AE81A2
:10274000BF810C91003018F011F00C94A9130C9477
:10275000BA13AA81BB818C91AE81BF81AD90BB249D
:10276000A2E4B1E0AA0DBB1D8C93AE81BF818C9118
:1027700081508C93A885B9858C918F5F8C9310F4D0
:102780000C94211387E2481A80E0580A2C96089589
:1027900088E00E94F32A88E00E94F32A81E00E94E8
:1027A000F32A81E00E94F32A81E00E94F32AADE53A
:1027B000B1E0EEE2F8E50E946428AE81BF81EEE26E
:1027C000F8E50E94642880E0AC81BD818C9381E0B3
:1027D0000E94F32A0091550141E0041BA881B981B0
:1027E0000C9381E0AC81BD818C93A881B9814C911F
:1027F000AC81BD810C91041718F011F00C94901469
:10280000AC81BD81AD90BB24A2E3B1E0AA0DBB1D9C
:10281000EA85FB850E94BB2980E0AA81BB818C935D
:10282000AA85BB85EEEAF8E50E943D2818F011F074
:102830000C941C140C942F14AA85BB85BA93AA93EC
:10284000E6EBF8E5A3E0B1E00E946428EC85FD85A5
:102850000E940425229681E0AA81BB818C93AE81DF
:10286000BF810C91003011F00C945214ADE5B1E031
:10287000BA93AA93E6E9F8E5A3E0B1E00E946428E0
:10288000EDE5F1E00E9454252296ADE5B1E0BA9362
:10289000AA93AC85BD85EDE5F1E00E94192522964D
:1028A0000C947714A885B985BA93AA93E6E9F8E55C
:1028B000A3E0B1E00E946428EA85FB850E94C02560
:1028C0002296AA85BB85BA93AA93AA85BB85EC8577
:1028D000FD850E9454252296ADE5B1E0BA93AA93F6
:1028E000AC85BD85EDE5F1E00E9419252296AA810F
:1028F000BB810C91013011F00C948814A885B98526
:10290000E6E4F8E50E94642881E0AE81BF818C9303
:10291000AC81BD818C918F5F8C9310F40C94F51376
:1029200081E0481A80E0580A229683E1481A80E044
:10293000580A2A96089580E0AA81BB818C93A881C9
:10294000B9810C91023011F00C94AC1480E3AA818F
:10295000BB818C930C94B815093011F00C94B6140B
:1029600081E3AA81BB818C930C94B8150A3011F0D5
:102970000C94C01482E3AA81BB818C930C94B8158B
:102980000C3011F00C94CA1483E3AA81BB818C93A0
:102990000C94B815013111F00C94D41484E3AA817D
:1029A000BB818C930C94B815023111F00C94DE1499
:1029B00085E3AA81BB818C930C94B815043111F086
:1029C0000C94E81486E3AA81BB818C930C94B8150F
:1029D000093111F00C94F21487E3AA81BB818C9326
:1029E0000C94B8150A3111F00C94FC1488E3AA81F8
:1029F000BB818C930C94B8150C3111F00C94061516
:102A000089E3AA81BB818C930C94B815013011F035
:102A10000C94101585E0AA81BB818C930C94B81599
:102A2000083311F00C941A1586E0AA81BB818C93AF
:102A30000C94B815083011F00C94241581E0AA818B
:102A4000BB818C930C94B815003111F00C942E15A9
:102A500082E0AA81BB818C930C94B815083111F0E7
:102A60000C94381583E0AA81BB818C930C94B81523
:102A7000003211F00C94421584E0AA81BB818C9342
:102A80000C94B815093211F00C944C1580E8AA8109
:102A9000BB818C930C94B8150A3211F00C94561526
:102AA00087E0AA81BB818C930C94B8150C3211F08D
:102AB0000C94601588E0AA81BB818C930C94B815A6
:102AC000023311F00C946A1589E0AA81BB818C93C2
:102AD0000C94B815013211F00C9474158AE0AA8197
:102AE000BB818C930C94B815023211F00C947E15B6
:102AF0008BE0AA81BB818C930C94B815043211F041
:102B00000C9488158CE0AA81BB818C930C94B81529
:102B1000083211F00C9492158DE0AA81BB818C9340
:102B20000C94B815003311F00C949C158EE0AA811A
:102B3000BB818C930C94B815043011F00C94A6153D
:102B40008FE0AA81BB818C930C94B815013311F0EE
:102B50000C94B01580E1AA81BB818C930C94B815BC
:102B6000043311F00C94B81581E1AA81BB818C93D8
:102B7000089581E00E94F32A81E00E94F32A81E017
:102B80000E94F32A81E0AA81BB818C9380E0AE8110
:102B9000BF818C9380E0AC81BD818C93AC81BD8181
:102BA0000C91063018F011F00C941216AA81BB811A
:102BB000E5E2F0E08C9180958083A881B98186B1AF
:102BC0008C93A881B9818C9180958C93A881B981CF
:102BD0008C918F708C93A881B9810C91003018F082
:102BE00011F00C94F5150C940516AC81BD810C9177
:102BF00048E0049F0C92A881B9810C91AC81BD8101
:102C00004C91040FAE81BF810C9391E0AA81BB81EE
:102C10000E94102BAC81BD818C918F5F8C9310F43E
:102C20000C94CE1540915701AE81BF810C910417D1
:102C300011F00C94211680E0AE81BF818C930C942E
:102C40002616AE81BF818C918093570183E0481A8C
:102C500080E0580A2696089581E00E94F32A80E0D9
:102C6000A881B9818C9380E0AC81BD818C93AA81CD
:102C7000BB810C91003810F40C94471681E0A881B8
:102C8000B9818C93AA81BB818C9180588C93AA8145
:102C9000BB810C91003011F00C9454168EE7AC817E
:102CA000BD818C930C945617013011F00C945E1674
:102CB00080E3AC81BD818C930C945617023011F0E7
:102CC0000C9468168DE6AC81BD818C930C945617DC
:102CD000033011F00C94721689E7AC81BD818C939E
:102CE0000C945617043011F00C947C1683E3AC81DD
:102CF000BD818C930C945617053011F00C948616F8
:102D00008BE5AC81BD818C930C945617063011F085
:102D10000C9490168FE5AC81BD818C930C94561762
:102D2000073011F00C949A1680E7AC81BD818C932A
:102D30000C945617083011F00C94A4168FE7AC8150
:102D4000BD818C930C945617093011F00C94AE167B
:102D50008BE7AC81BD818C930C9456170A3011F02F
:102D60000C94B81681E0AC81BD818C930C945617FD
:102D70000B3011F00C94C21688E0AC81BD818C93AD
:102D80000C9456170D3011F00C94CC1680E0AC81E9
:102D9000BD818C930C9456170E3011F00C94D616FE
:102DA00083E6AC81BD818C930C945617043111F0ED
:102DB0000C94E01687E7AC81BD818C930C94561778
:102DC000053111F00C94EA168FE4AC81BD818C932F
:102DD0000C945617063111F00C94F41685E0AC8172
:102DE000BD818C930C945617073111F00C94FE168C
:102DF0008DE1AC81BD818C930C945617083111F094
:102E00000C94081787E1AC81BD818C930C94561704
:102E1000093111F00C9412178DE0AC81BD818C93B7
:102E20000C9456170A3111F00C941C1787E6AC81EC
:102E3000BD818C930C9456170B3111F00C9426170E
:102E400085E1AC81BD818C930C9456170C3111F047
:102E50000C9430178BE5AC81BD818C930C94561784
:102E60000E3111F00C943A178EE4AC81BD818C9335
:102E70000C9456170F3111F00C9444178EE0AC816E
:102E8000BD818C930C9456170D3111F00C944E1794
:102E90008DE3AC81BD818C930C945617013211F0F7
:102EA0000C9456178EE3AC81BD818C93A881B981B7
:102EB0000C91013011F00C946717AC81BD818C919D
:102EC00080588C93AA81BB818C9180588C9381E02F
:102ED000481A80E0580A2296089581E00E94F32A59
:102EE00081E0A881B9818C93A881B9810C910830C7
:102EF00018F011F00C949617A881B981AD90BB24FD
:102F0000A2E4B1E0AA0DBB1D8C91A881B981AD905E
:102F1000BB24AAE4B1E0AA0DBB1D8C93A881B981A2
:102F20008C918F5F8C9310F40C94741781E0481A85
:102F300080E0580A2296089581E00E94F32A0E94B8
:102F40006D1781E0A881B9818C93A881B9810C911A
:102F5000083018F011F00C94BF178DE0A881B981EA
:102F6000AD90BB24A2E4B1E0AA0DBB1D8C93A88157
:102F7000B9818C918F5F8C9310F40C94A517A3E406
:102F8000B1E08C9180588C930E94C91881E0481A56
:102F900080E0580A2296089581E00E94F32A81E099
:102FA000A881B9818C93A881B9810C91083018F05F
:102FB00011F00C94F517A881B981AD90BB24AAE457
:102FC000B1E0AA0DBB1D8C91A881B981AD90BB2445
:102FD000A2E4B1E0AA0DBB1D8C93A881B9818C91AC
:102FE0008F5F8C9310F40C94D31781E0481A80E023
:102FF000580A229608950E94CC170E94C918089575
:10300000A0E0B1E08C9183FB16F40C941118F894B5
:103010000E949C1784E690E00E942C1D0E94FB17E2
:1030200078940895E1E5F0E0A0E1B0E00E94E32BA0
:10303000083011F00C942718E1E5F0E0A0E1BB277F
:1030400081E08C937BE70E94D22B0C943018E1E551
:10305000F0E0A0E1BB2788E08C937BE70E94D22BB5
:103060008AE080935301E1E5F0E0A4E5B1E00E943D
:10307000E32B5A98539A559A5D98A3E5B1E01196BF
:1030800098E08E91983018F4392F992702C038E0D3
:103090009850881F5B9808F45B9A000000005D9AC6
:1030A000000000005D98000000003A9591F7992318
:1030B00041F7539A559A5D98A4E5B1E0119698E0CE
:1030C0008E91983018F4392F992702C038E0985023
:1030D000881F5B9808F45B9A000000005D9A00006E
:1030E00000005D98000000003A9591F7992341F7A0
:1030F0005A9A089588E00E94F32A81E00E94F32AF8
:1031000081E0A881B9818C93A881B9810C910A30A2
:1031100018F011F00C94C318A881B981AD90BB24AC
:10312000AAEBB1E0AA0DBB1D0C91013011F00C947B
:10313000BB18E881F981A190BB24E8EFFFEF0E9462
:10314000F92AEA0DFB1DA881B981AD90BB24A3E645
:10315000B1E00E94F92AAA0DBB1D98E07BE70E940E
:10316000D52B80E0A881B981AD90BB24AAEBB1E05A
:10317000AA0DBB1D8C93A881B9818C918F5F8C9314
:1031800010F40C94841889E0481A80E0580A2496B8
:10319000089581E00E94F32A81E00E94F32A81E0F1
:1031A0000E94F32A81E0AA81BB818C93AA81BB8112
:1031B0000C91083018F011F00C94491909E0AA811B
:1031C000BB814C91041BA881B9810C93AC81BD815A
:1031D000BA93AA93AA81BB81AD90BB24A2E4B1E0CB
:1031E000AA0DBB1DBA93AA930E942C162496AA81FD
:1031F000BB818C9180935301AC81BD818C91809374
:1032000054015A98539A559A5D98A3E5B1E01196E6
:1032100098E08E91983018F4392F992702C038E041
:103220009850881F5B9808F45B9A000000005D9A34
:10323000000000005D98000000003A9591F7992386
:1032400041F7539A559A5D98A4E5B1E0119698E03C
:103250008E91983018F4392F992702C038E0985091
:10326000881F5B9808F45B9A000000005D9A0000DC
:1032700000005D98000000003A9591F7992341F70E
:103280005A9AAA81BB818C918F5F8C9310F40C9415
:10329000D61883E0481A80E0580A269608958CE0F4
:1032A0008093530180E0809354015A98539A559A21
:1032B0005D98A3E5B1E0119698E08E91983018F4EE
:1032C000392F992702C038E09850881F5B9808F47E
:1032D0005B9A000000005D9A000000005D9800000D
:1032E00000003A9591F7992341F7539A559A5D98C2
:1032F000A4E5B1E0119698E08E91983018F4392F3A
:10330000992702C038E09850881F5B9808F45B9AB0
:10331000000000005D9A000000005D9800000000C1
:103320003A9591F7992341F75A9A89E0809353018E
:1033300080E0809354015A98539A559A5D98A3E57A
:10334000B1E0119698E08E91983018F4392F9927B2
:1033500002C038E09850881F5B9808F45B9A000020
:1033600000005D9A000000005D98000000003A95A2
:1033700091F7992341F7539A559A5D98A4E5B1E0E6
:10338000119698E08E91983018F4392F992702C041
:1033900038E09850881F5B9808F45B9A00000000A2
:1033A0005D9A000000005D98000000003A9591F7DA
:1033B000992341F75A9A8AE080935301E1E5F0E0BE
:1033C000A4E5B1E00E94E32B5A98539A559A5D9870
:1033D000A3E5B1E0119698E08E91983018F4392F5A
:1033E000992702C038E09850881F5B9808F45B9AD0
:1033F000000000005D9A000000005D9800000000E1
:103400003A9591F7992341F7539A559A5D98A4E517
:10341000B1E0119698E08E91983018F4392F9927E1
:1034200002C038E09850881F5B9808F45B9A00004F
:1034300000005D9A000000005D98000000003A95D1
:1034400091F7992341F75A9A8BE08093530187E0D3
:10345000809354015A98539A559A5D98A3E5B1E028
:10346000119698E08E91983018F4392F992702C060
:1034700038E09850881F5B9808F45B9A00000000C1
:103480005D9A000000005D98000000003A9591F7F9
:10349000992341F7539A559A5D98A4E5B1E01196A6
:1034A00098E08E91983018F4392F992702C038E0AF
:1034B0009850881F5B9808F45B9A000000005D9AA2
:1034C000000000005D98000000003A9591F79923F4
:1034D00041F75A9A8FE08093530180E08093540122
:1034E0005A98539A559A5D98A3E5B1E0119698E0E1
:1034F0008E91983018F4392F992702C038E09850EF
:10350000881F5B9808F45B9A000000005D9A000039
:1035100000005D98000000003A9591F7992341F76B
:10352000539A559A5D98A4E5B1E0119698E08E9172
:10353000983018F4392F992702C038E09850881F26
:103540005B9808F45B9A000000005D9A00000000A0
:103550005D98000000003A9591F7992341F75A9A37
:103560008CE08093530181E0809354015A98539AE0
:10357000559A5D98A3E5B1E0119698E08E91983048
:1035800018F4392F992702C038E09850881F5B98AB
:1035900008F45B9A000000005D9A000000005D984E
:1035A000000000003A9591F7992341F7539A559AF4
:1035B0005D98A4E5B1E0119698E08E91983018F4EA
:1035C000392F992702C038E09850881F5B9808F47B
:1035D0005B9A000000005D9A000000005D9800000A
:1035E00000003A9591F7992341F75A9A08958EE190
:1035F00080934A0187E1809349018BE180934801E0
:103600000E94C91808958FE180934A0180E0809359
:10361000490184E1809348018DE1809347010E9434
:10362000C91808958CE180934A0184E1809349018F
:1036300081E28093480185E1809347010E94C91887
:10364000089581E00E94F32A82E00E94F32A81E03B
:103650000E94F32A0E94121B81E0AC81BD818C93F1
:10366000AC81BD810C91043618F011F00C94651BEF
:10367000EC81FD81A190BB24E0E5F0E0AA0CBB1C2D
:10368000EA0DFB1DAA81BB810E94E52BAA81BB81AB
:1036900011968C91A881B9818C9331E0A881B98170
:1036A0000E94BD1CAA81BB818C91A881B9818C9399
:1036B00031E0A881B9810E94BD1CAC81BD818C9193
:1036C0008F5F8C9310F40C94301B84E0481A80E0D8
:1036D000580A2696089581E00E94F32A82E00E940B
:1036E000F32A81E00E94F32A0E94031B81E0AC814F
:1036F000BD818C93AC81BD810C91043618F011F022
:103700000C94CC1BA0ECB0E00C9107FB16F00C94D1
:10371000821BA881B9818091C6008C93A881B98150
:103720000D91112740E051E00E94002BAA81BB813E
:103730000D931C93A0ECB0E00C9107FB16F00C94D9
:103740009A1BA881B9818091C6008C93AA81BB8104
:103750000D911C91A881B9814D915527040F151F1A
:10376000AA81BB810D931C93AA81BB818D919C91F1
:10377000AC81BD81AD90BB24A6EEB1E0AA0CBB1C10
:10378000AA0DBB1D8D939C93AC81BD818C918F5FE5
:103790008C9310F40C947A1B81E0AC81BD818C93E6
:1037A000AC81BD810C91043618F011F00C94F71B1C
:1037B000EC81FD81A190BB24E0E5F0E0AA0CBB1CEC
:1037C000EA0DFB1DAC81BD81AD90BB24A6EEB1E03E
:1037D000AA0CBB1CAA0DBB1D7BE70E94D42BAC819D
:1037E000BD818C918F5F8C9310F40C94D01BE0ED15
:1037F000F8E50E94B61C0E94C21C84E0481A80E0D2
:10380000580A2696089581E00E94F32AF8940E94AF
:103810006D17A881B9818091C6008C93A881B98168
:103820000C910A3A11F00C943A1CE8ECF8E50E946D
:10383000B61C0E94C21C0E94F71AA0ECB0E00C91CA
:1038400007FB16F00C941D1CA881B9818091C6005D
:103850008C93A881B9810C91033511F00C94341C20
:103860000E946B1B0C943A1C023511F00C943A1C0C
:103870000E94211B0E94CC170E94C918789481E0F5
:10388000481A80E0580A229608958C9181508C93B2
:1038900008950D911D912D913C910F5F1F4F2F4F5A
:1038A0003F4F3C932E931E930E930895ED91FC9100
:1038B000EF5FFF4FFC93EE93089515E000E0009357
:1038C0006701109368010895409167015091680164
:1038D0000DEF13E40E94002B0D5311460093670176
:1038E000109368015991499127D0089509D00E94F9
:1038F000002B00FC10D0089503D01ED001F8F9CFA2
:103900000024E89457FF02C009D0689400F80BD057
:1039100010F80124089502D009D0089550954095DB
:103920004F5F5F4F0895E89417FF08950095109535
:103930000F5F1F4F68940895352F242FE894452B6F
:1039400011F468940895512F402F0027112780E12A
:10395000440F551F001F111F021B130B416018F469
:10396000020F131F4E7F8A9599F708950E94182B16
:10397000802D11F00AD0FACF08958D9106D03A9596
:10398000E1F708958DE001D08AE00090C00005FEC7
:10399000FCCF8093C600089500FC05D0089530D078
:1039A00005D001F8F9CF37D03FD00895842F952F57
:1039B000A62FB72FE894452B462B472B11F468947C
:1039C0000895402F512F622F732F00271127222790
:1039D0003327F0E2440F551F661F771F001F111F8A
:1039E000221F331F081B190B2A0B3B0B416028F4C5
:1039F000080F191F2A1F3B1F4E7FFA9559F708958C
:103A00000024E89477FF02C006D0689400F809D03B
:103A100010F80124089512D04F5F5F4F6F4F7F4F12
:103A20000895E89437FF08950095109520953095F6
:103A30000F5F1F4F2F4F3F4F68940895409550954B
:103A40006095709508953197F1F70895689462F83C
:103A50000895E89462F80895EF93FF93EE27E82B1A
:103A6000E92B31F0EAEFF0E03197F1F70197D1F768
:103A7000FF91EF9108954E414E00496E66696E695F
:103A800074790000302E30008A930E948328FD0153
:103A90009BD5888187F98883FA93EA93ECEFF6E463
:103AA0000E943D28A8F188E2ABD0FA93EA93AA8558
:103AB000BB85ECEBF9E494E003D6AA85BB85EC85E5
:103AC000FD850E945425AA85BB85FD010E944626DE
:103AD000ACE0BB27EA85FB850E94FA299C2D9770F4
:103AE0008E85890F8E87969520F4AA85BB850E94C6
:103AF0009F26A885B9850FD0AE81BF810CD0AC813F
:103B0000BD8109D0EC85FD855FD52A960E94E12A0A
:103B10008A8123960895EA81FB81E883F983EA8507
:103B2000FB850E945425AA81BB81EC85FD85E88335
:103B3000F9830C940425BA93AA930E94182B0A9235
:103B40000E94182B0A92FA93EA93BA93AA9307FC5D
:103B500009C0EC85FD85E883F983E885F985DF01F7
:103B60000E9454258C8180FD3CC0AE81BF81EA81DA
:103B7000FB810E946428EA83FB838D818A958D8373
:103B8000AE81BF81A883B983AC85BD85E881F98109
:103B90000E945425EA81FB81AA85BB850E94642886
:103BA000EA83FB83E881F9810E9419258D818A953A
:103BB0008D8351F78C8181FD1DD08C8182FD1AD0BF
:103BC0008C8183FF03C0A885B98516D08C8184FFC2
:103BD00006C0A885B985E881F9810E941925289633
:103BE0000895AE81BF81A883B983EC85FD850E94CD
:103BF0008328D0CFAC85BD85E881F9810C9454250C
:103C00008F930E94D42A8F91885021F01896BA93EE
:103C1000AA93FACF08950E94052682E003C00E946D
:103C2000052680E48F930CE050D58F9109F008951C
:103C30008F93B7D48F9108F032C58A93BA93AA9321
:103C400023DF82FB839582F98A8388E1D9DFDF0154
:103C5000EE81FF81FA93EA938A85A6D481FD06C09E
:103C600008F434C0EEE4F7E4EBD418C0B0F1ECE1B2
:103C7000F7E4E6D4EC81FD81B8D482F0AAD4AE8119
:103C8000BF81A883B9830E941925A885B985BCD4B2
:103C9000A885B985EE81FF810E941925EE81FF81FB
:103CA0000E948B288A8531FD06C082FB97D486FF4F
:103CB00002C087FD84D4EE81FF81A885B9850E946A
:103CC000832826960E94E12A23960895E885F9859F
:103CD000AE81BF810E948328E1CFAE81BF8194D4A1
:103CE000DDCF0E9405260EE0F0D409F0089559D4E6
:103CF00008F0D5C4882737FB86F98A93BA93AA932C
:103D0000C3DE81FB839582F98A8380E279DFA8850F
:103D1000B985BA93AA93DF01EA85FB8545D478F08B
:103D2000E0EEF8E4A2D4EAEFF8E491D4ACD4EA856A
:103D3000FB85E883F983A885B9850E9419258C85C0
:103D400081FF0BC0A885B9855FD4AA85BB85A883F0
:103D5000B983E885F9850E94C025EA85FB858C85B5
:103D600082FB3CD487FD2BD428960E94E12A23961F
:103D700008950E94052606E0A8D409F0089514D4F9
:103D800008F4089521D487F98A93BA93AA9350D45A
:103D900040F019F02396FD017EC4A881B9813CD47E
:103DA00022C080E22DDFE885F985FA93EA931FE3CC
:103DB00004EEFDD3E8F4E0E8F7E457D4E2EBF7E4EF
:103DC00046D461D4E885F985AA85BB850E9454252F
:103DD000EA85FB85E883F983A885B9850E941925C2
:103DE00028960E94E12AE991F991899187FBF6C30F
:103DF000AA81BB8109D4AC81BD81A883B983EA8142
:103E0000FB81AA85BB850E940425ECEDF7E42DD447
:103E1000E6E0F8E41CD437D4EC81FD81EED3DF0179
:103E200013D1AA81BB8100D4AE81BF81A883B9839D
:103E3000AC81BD81EA81FB810E940425EC81FD817A
:103E4000E883F983A885B9850E945425A885B9859A
:103E5000E8E2F8E40E946428A885B985E881F98140
:103E60000E940425EE81FF81E883F983AC81BD8146
:103E70000E940425EA85FB85E883F983EE81FF81B2
:103E8000AA81BB810E941925ABCF0E9405260CE0B8
:103E90001CD409F00895A6D387F98A93BA93AA93FC
:103EA000C7D378F019F02396FD01F5C38A818823E2
:103EB00022F0E881F981F3D323C0A881B981B0D37E
:103EC0001FC00E94D32AAA93BA938E8187FD06C091
:103ED000EC81FD811FE300EE6AD3A0F4EC81FD814B
:103EE000DF0149DFAA81BB8197D3AC81BD81A88363
:103EF000B983EA81FB810E94042522960E94E12A6F
:103F000023960895EC81FD81E883F9836ED3AA811D
:103F1000BB817ED3EA81FB81AC81BD810E940425F7
:103F2000EC81FD81DF0190D0EC81FD81DF0123DF99
:103F3000EC81FD8162D3E1CF0E94052606E0C5D366
:103F400009F0089531D308F408953ED3882787F9FE
:103F50008A93BA93AA9380E253DEE885F985FA93AF
:103F6000EA931FE305EE23D380E048F110E403E079
:103F7000AC81BD811CD3C8F447D3E885F985E883BB
:103F8000F983EA85FB850E941925EA85FB85E8838C
:103F9000F983AC81BD810E940425EA85FB85A88553
:103FA000B9850E94C02581E00AC02ED3FD0107D348
:103FB000AA85BB85A883B9830E94C02582E09C8521
:103FC000982B9C87E0E3F8E450D3EAE5F8E43FD38C
:103FD0005AD3E885F985AA85BB85A883B9830E9451
:103FE00019258C858F7719F1AE81BF81E8E2F8E45D
:103FF0000E9464288C8580FF06C0EE81FF81F5D287
:10400000ECEFF6E404C081FF02C0E4E0F7E4AA812B
:10401000BB810E946428E881F981AE81BF810E9442
:104020001925E881F981AA81BB810E9419258C8517
:1040300087FF03C0EA85FB85C2D228960E94E12A49
:10404000239608950E94052607E13FD309F00895BD
:10405000BA93AA930E94B02880E1D2DDFA93EA9342
:1040600041505C4F40FB569547950695F79403F9F0
:104070008F2D902F93FF04C0809590958F5F9F4F59
:104080009F702ED02DD0006166270E941529EC81EB
:10409000FD810E946B2883E08F93AA81BB81A88356
:1040A000B983EE81FF81AC81BD810E94C025AC81C6
:1040B000BD81A883B983EA81FB810E941925EC8127
:1040C000FD8193D28F918A9539F7EC81FD81AE8184
:1040D000BF810E94832824960E94E12A2296089597
:1040E00033E0969587953A95E1F7F81A090B08950C
:1040F0000E94052604E0E9D209F0089531FDDBC2F3
:1041000030FF03C037FF0895CAC2BA93AA9388E26A
:1041100077DDAA85BB85BA93AA93E0EDF8E40E9407
:104120003D2820F0EC85FD85C0D26DC018970E9417
:104130003D2820F4EC85FD85B2D265C0AA85BB85FB
:10414000ECE0F7E40E946428A883B983EC85FD8540
:104150000E945425AA85BB85FD010E947F26A88563
:10416000B985E0ECF8E492E0ABD2A885B98550D0EF
:10417000AE81BF814DD0E4E8F8E47ED2EEE9F8E408
:104180006DD2EE81FF81E883F983A885B9850E940D
:104190000425EC85FD85E883F983E885F985AE8102
:1041A000BF810E94C025EC85FD8527D2A885B985F1
:1041B000E6E6F5E50E946428EC85FD850E94192558
:1041C000EA85FB850E948B2831FD1DC0F5800681A4
:1041D00011270F7000618F5F9340A8F031F0FF0C42
:1041E000001F111F81509040D1F7007FEC85FD85A5
:1041F0008681978137FD03C0800F911F02C0801B0D
:10420000910B868397832A960E94E12A229608952D
:10421000EC81FD81E883F983EA85FB850E945425C2
:10422000AC81BD81EC85FD85E883F9830C94042580
:104230000E94052605E149D209F0089531FD33C2F7
:104240008A93BA93AA93AC0186818F70806E86831D
:104250008FE3878388E2D4DCFA93EA934E5F53407E
:104260003327CA01992322F4809590958F5F9F4F41
:1042700083509040331FAC85BD85E4E1F7E40E9494
:104280003D28331F3E87832F8170480B504069F0D3
:1042900030683E87C42ED52EEE24D7FCE094000073
:1042A000FE2CEE81FF810E94D1298E8581FD3BC0CD
:1042B000AC81BD81ADD1EA85FB85E883F983AC8112
:1042C000FD81EC85FD850E940425EA85FB858E85B0
:1042D000869540F0AC81BD81EA85FB850E9404256E
:1042E000EC85FD85A885B9850E948328FD017DD1D7
:1042F000A885B985A883B983AC81BD810E941925A1
:10430000EC85FD85E883F983EA85FB85A885B98579
:104310000E94C025AA85BB85ECE1F9E40CDCE6E34C
:10432000F9E4AAD139C0AC81BD816ED18E8580FF00
:1043300009C0EC85FD85AA85BB850E948328EA8596
:10434000FB855BD1EC85FD85E883F983AC81BD817C
:104350008E8580FF02C0EA85FB850E940425EC85DE
:10436000FD85AC81BD810E948328AA85BB85E0E5DF
:10437000F9E4E1DBE2E8F9E47FD1EC81FD81E88357
:10438000F983DF010E945425EA85FB85E883F983E0
:10439000AC81BD810E945425EA85FB85E883F983C1
:1043A000A885BF810E94C0258E8581FF07C0EC8152
:1043B000FD811BD1A885B9850E9483288E8587FF42
:1043C00016C0ECEAF9E4AC81BD8192E079D1AC8110
:1043D000BD81A883B983EE81FF810E945425EA85BF
:1043E000FB85E883F983AC81BD810E9404258E851D
:1043F00081FF08C0EA85FB85E883F983A885F985F4
:104400000E940425EC85FD85E883F983AA85BB8598
:104410000E9419258E8587FF10C0EA81FB81E88301
:10442000F983AE81BF810E945425EC85FD85E88328
:10443000F983AA81BB810E9419252A960E94E12A4C
:1044400023960895A881B981EA81FB81249602D040
:1044500024970895FA93EA93BA93AA930E948B281B
:104460003F93E881F9810E948B289F91892F832BAC
:10447000877079F0EC81FD8182FD5BC080FD59C0C1
:10448000892F832381FD55C031FD59C037FD54C0AC
:104490005BC0A881B981E6E6F5E50E943D2809F4F4
:1044A00056C0AA81BB81E6E6F5E50E943D2809F4E5
:1044B00046C00E94D32AEA81FB810E948328EC81B6
:1044C000FD81AE81BF810E948328EE81FF817CD077
:1044D000AEF4E881F981DF010E944626E881F98186
:1044E000AA81BB810E94482829F0EE81FF810E94A9
:1044F0004B231BC0E881F9810E94AE22882787F9EF
:104500008F93EE81FF81DF0195DEA881B981EE8175
:10451000FF810E945425E881F981AE81BF81EADDE7
:104520008F91EE81FF8187FB59D00E94E12A24966A
:1045300008950E944B23FBCF0E945523F8CFEC81B6
:10454000FD810E945B23F3CF0E944F23F0CFAC810B
:10455000BD81EA81FB810E948328E9CF0E948B28DC
:10456000AC0199273F77D1F44F5F5340C2F05523F8
:10457000A9F44533A0F441954C5C9927483018F0D4
:1045800031964850FBCF71E08081442319F0770FBA
:104590004A95FBCFE894782309F068940895E8944D
:1045A00008950FEC11E403C006E41EE300C0368159
:1045B000301737810FB63F770FBE31070895178147
:1045C00030E8132717830895178117FB1F77178388
:1045D0000895178117FB106817830895178117F93D
:1045E00017830895178117FB0895068117810051DD
:1045F000104010F006831783089506811781005F2D
:104600001F4F068317830895E6E6F5E50C946428AA
:10461000EEE6F5E50C946428E4E0F7E40C946428F5
:10462000E4EFF6E40C946428ECEFF6E40C946428D0
:10463000E6E6F5E50E943D288FB718978FBF0895ED
:10464000A885B985A883B983AE81BF8174CAAA85BC
:10465000BB85A883B983AE81BF816DCAAC85BD859A
:10466000A883B983AE81BF8166CAAA85BB85A883AA
:10467000B983A885B9855FCAAC85BD85A883B98390
:10468000A885B98558CAE885F985E883F983AE819C
:10469000BF810C94C0250E9477290C946B280E943E
:1046A00068290C946B28689401C0E8940E946F29D3
:1046B00017F90C946B280E9473290C946B28189698
:1046C0000E9464289A95D9F708950E948328FD01D5
:1046D0000E948B2804FF02C037FD09C003FF02C0FF
:1046E00030FD05C00770032319F4AC010895D3DF32
:1046F00098940895182D4454FB210940182D4454D2
:10470000FB21E93F182D4454FB21F93FFE822B6524
:104710004715F73FCD3B7F669EA0E63F0606D4389F
:1047200088BEE9FAA8BDC4B1B4BD9EEE213EAD522B
:104730009C804F7E92BE9015CB19A001FA3E775116
:10474000C1166CC156BF4C5555555555A53F061A57
:104750007CD5CF5A3AD9E53DEB9C2B8AE6E55ABE8B
:104760007DFEB157E31DC73ED561C119A0012ABF27
:10477000A6F810111111813F495555555555C5BF22
:104780000602D38AD40B9B6B713F165C3E334143C8
:10479000E3BFD92D8A174BC715407B9027DE3143E5
:1047A00030C0599277DA07903340D5AFCE066C65AA
:1047B00020C00581AB0E5E0B597B2DC05490FE25A9
:1047C000C09F5140D776356DBB6562C09DBFFF84E9
:1047D00056706140AC07360A229848C00582089F8F
:1047E0008E98C34F683F0F29F9599207E2BF6A3E7E
:1047F000F3BAF5DF1B4068AB01ACAA9139C01D08C4
:10480000F34062893C4004818C5DBFB6A2F235C0A2
:10481000427F6AAF19626240EE63909508FE77C0EE
:10482000BE44B6B009677540075C143326A6913CB8
:10483000050A9425F7A17F00ECBF7A806B5B5428B2
:1048400030C0730288368CC052C025BA052DBFB85F
:104850005EC08EEC28FD693650C005813C60145B5B
:10486000C4DB384025FAB843DDA064403BBEE2D249
:10487000180E7B40EA49B0133F567E40EC62BDFB08
:104880009E5168400308E84BE4D5CD89203F7E2C3B
:10489000CA0CD1069F3F000000000000F03F0480DA
:1048A000A05F36BCB62EC93EC0B608B539AE643F6F
:1048B00074E087980917CD3F000000000000004019
:1048C00000000000402EE63FCAAB79CFD1F7B73EDB
:1048D000EF39FAFE422E8640D2BC7ADD2B2386C009
:1048E000030A383F4FD2D892C9C0DD9DFCA5EC9990
:1048F0003141769129D3EA1F71C104817265B3EE0B
:10490000A5B8CA4096BC2A58BC2734C1EFD8EAC221
:104910008FD97741315ABE3CE0AF89C1030A840E7A
:104920006CDC3D44E9BF6B7B0273FC623040202AA3
:104930002211060950C003810A6DEC430DD641C017
:104940000EE42A11808173403B3FB319890D88C062
:104950000682B01BC393C2B41A3FF252563FF5D63B
:10496000DF3F116992EDBAD212402EEB3EC672FFC4
:104970002C404DC84B92D6EF3140F8DC7E7D63D59C
:104980001E4005818EEF97AE2093264033C0194E0E
:104990002C9D4640BDBD26A333BF544021AE5EEBE7
:1049A000E2C95140B2251F9E0A203740A80C615C25
:1049B00010D02B3F000000000030E63F83C8C96DD7
:1049C000305FF43F00000040FB21E93F00000000A1
:1049D0002D44643E7051CC989846E83C8827668107
:1049E000778177FB87F97F776050704011F48260A0
:1049F00007C0605F7F4722F011F4816001C08460CE
:104A0000089560D404D079C30F0101D079C3FD01AA
:104A1000FF93EF9387818F9390E889278783F00135
:104A20000BD08F91EF91FF91878308954BD404D0E1
:104A300064C30F0101D064C300E05FD409F008959E
:104A40009A01281B390B1AF4D0010F01F5CF00276A
:104A50002733300708F084C4822F82D396D3A4D39F
:104A6000372F36270AF4C8D3F0018081A80E818140
:104A7000B81E8281C81E8381D81E8481E81E85816C
:104A8000F81E86818F708061081F1AF4B5D380E804
:104A9000682705FF02C081E085D304FD01C0E8D38B
:104AA0009DC310D404D029C30F0101D029C308E14C
:104AB00024D409F00895480F591F4F5F53406727CA
:104AC0006F935F934F9304D42227F00154D393E064
:104AD000110F331F441F551F661F771F881F9A959C
:104AE000B9F7FD01A7E0BB279191A13011F49F70A8
:104AF0009061992301F1939FA00CB11CBB1F959F5E
:104B0000B695C01CD11CBB1F979FB695E01CF11C2D
:104B10000B1F919F200DA11CBB1F949FB695B01C2D
:104B2000C11CBB1F969FB695D01CE11CBB1F989F54
:104B3000B695F01C011DAA9549F02A2DAB2CBC2C72
:104B4000CD2CDE2CEF2CF02E0027CECF4F915F9195
:104B50006F9104FB16F039D302C04F5F5F4F3EC325
:104B6000FF9309901124F8E0069408F4190E1794A5
:104B70000794FA95D1F7FF910895A4D304D0BDC24C
:104B80000F0101D0BDC204E2B8D309F00895481B5B
:104B9000590B41505C4F67276F935F934F93F00120
:104BA000DFD22FEFFD01E7D2ADE3BA2FB77019F4D2
:104BB00020952F932FEFA116B306C406D506E6065F
:104BC000F706080738F0A11AB30AC40AD50AE60A9C
:104BD000F70A080B221FAA0CBB1CCC1CDD1CEE1C08
:104BE000FF1C001FAA9509F72095AF90BF90CF90AA
:104BF000DF90EF90FF900F914F915F916F9104FBC9
:104C00001EF0E3D241505040E9C2E881F981AA8107
:104C1000BB810895FADF68D21F77FD015CC2F5DF22
:104C200002D0FD0158C277D29BD2AC01632F61FD47
:104C30004FC360FD4DC362FD5AC34E5F534022F126
:104C400019F15523A9F7463398F7483048F00F2D4E
:104C5000FE2CED2CDC2CCB2CBA2CAA244850A8F727
:104C6000413048F0AA0CBB1CCC1CDD1CEE1CFF1C08
:104C7000001F4150A9F7702F707E0F714EEF53E067
:104C8000F7D214D3A9F2D1C22FC2BFDF3CD2FD01AB
:104C900042D2AC0199273F7711F54F5F53401AF488
:104CA00017D39FEF18C25523D1F44533C0F4419573
:104CB0004C5C9927483030F08081982B882781936D
:104CC0004850F8CF7FEF8081442319F0770F4A9541
:104CD000FBCF672F60956823962B872380830895E9
:104CE00094DF878187FFD2CFBF93AF93CFDFEF9160
:104CF000FF91992311F0DF0128C0089586DF03D2C8
:104D0000FD0109D2AC013F77C9F48E5F934012F4E4
:104D1000DFD2E1C1992391F4863380F487818F93A8
:104D20008F778783FF93EF930DD0EF91FF9187816A
:104D30009F919078892B8783DF01A8CF0895E6E6BD
:104D4000F5E506C0EEE6F5E503C0E6E6F5E50EC0DE
:104D50005D01FF93EF930E94D32AEF91FF91B4D1AD
:104D6000F501FA93EA9365DE22962BC45D01FF9369
:104D7000EF930E94D32AEF91FF91A6D1F501FA9308
:104D8000EA9342DE22961DC4BA93AA93FA93EA9359
:104D900088278A930A93229702D028960895BBD138
:104DA0008C013323E9F0AE81BF8137FF02C08DE271
:104DB0008D9331FF05C080E38D9388278D930895EF
:104DC00030FF05C0EAE7FAE30E940A2BF6CF32FF74
:104DD00005C0E6E7FAE30E940A2BEFCFAE83BF835C
:104DE00080E10E94D42A2497AA83BB833896E88363
:104DF000F983EA85FB8587D1EC81FD8187818F77F7
:104E000087832FEF33E00217130738F5E8E2F5E563
:104E100087E099279B878A87AC81BD812ED19B85AE
:104E200001F4991F9B8790FF0BC0B097B097A881A2
:104E3000B9814AD1F896EE83FF8333DEEE81FF819C
:104E40008A858A9541F7A881B981B097B0973CD1FE
:104E500028DE9B85939591951DC0E0EFF4E587E0F2
:104E60009FEF9B878A87AC81BD8107D19B85991F66
:104E70009B8790FD0AC0F096A881B98125D1F8974B
:104E8000EE83FF830EDEEE81FF818A858A9551F7DE
:104E90009B8590959B878C859D858A839B83EC81E0
:104EA000FD8139D1AC015CD111274D5F53404830B1
:104EB00048F0102F0F2DFE2CED2CDC2CCB2CBA2C17
:104EC000AA244850442351F0AA0CBB1CCC1CDD1C66
:104ED000EE1CFF1C001F111F4A95F4CFAC85BD8549
:104EE0001196AC87BD87AA83BB83AFE8AF8330E858
:104EF000E0E6F4E53E83B3D1BFEFA4E0A216B3062B
:104F0000C406D506E606F7060807190740F0A21AF8
:104F1000B30AC40AD50AE60AF70A080B190BBB1F25
:104F200096958795779567955795479537952795E2
:104F300048F40024201D301D401D501D601D701DB3
:104F4000801D901DAA95D1F6B0952B2F20633E8130
:104F50004F8133231AF4203309F060D0AC85BD852E
:104F60002D93AC87BD8733954317B0F430D015D05F
:104F70008B85882371F095E49D931AF481959DE2C9
:104F80009D93982F880F890F9927991F8A879B8750
:104F900054D024960C94E12AADCFAA81BB81FD01A7
:104FA000119793E081919A9511F08033D9F39395FD
:104FB00001C081918D939A95E1F78081882309F052
:104FC0008EE28D9388238191E1F71197089598855A
:104FD000992309F090E3882732508E93253350F4BB
:104FE0009923D9F432508E918033B9F49C933A9539
:104FF000D1F708958E9183958A3311F08C9308959B
:105000009C933A95323009F490E33F3F99F781E35E
:1050100012968C938B8583958B8708953F7748856F
:10502000442311F04F3008F04EE04D5F532F515F95
:10503000451708F0452F4F830895E0E6F5E568949D
:1050400023E004E01FEF659175918617970710F034
:10505000861B970B111F769567950A95B1F71095EA
:105060001EF4112319F0E89410631D932A9549F753
:1050700011271C930895A881B981661778E06FB74E
:105080008D9195917A9599F06FBF89076FB7F8CF99
:10509000E881F981AA81BB81661778E06FB78D91AD
:1050A00091917A9521F06FBF89076FB7F8CF70E8BB
:1050B000872797276FBF890731F06FB7892B12F0C9
:1050C00071E067276FBF089588E005900D928A957B
:1050D000E1F718970895A082B182C282D382E48258
:1050E000F582068317830895A080B180C280D380A3
:1050F000E480F580068117810895EC81FD81EBCF76
:10510000E881F981E8CF88E091919D938A95E1F754
:1051100018973897089586819781332797FB37F939
:1051200088949F7721F4882311F4326008952FEE3C
:1051300028172FE7290740F42FE02823089411F4BB
:105140003160089534600895807F9695879596958F
:1051500087959695879596958795989488940895C0
:10516000A080B180C280D380E480F58006810F707A
:105170000061222708951081318142815381648129
:10518000758186818F7080610895883050F02A2D56
:10519000AB2CBC2CCD2CDE2CEF2CF02E0027885015
:1051A000F4CF0895689401C0E894882369F00595C8
:1051B000F794E794D794C794B794A794279516F4D7
:1051C0004F5F5F4F8A95F1CF0895220FAA1CBB1C39
:1051D000CC1CDD1CEE1CFF1C001F089501D025C057
:1051E000203848F011F4A0FE06C0089412D005FF44
:1051F000089581E0D7CF08952095A094B094C094ED
:10520000D094E094F09400950F9200240894201D0F
:105210000F9050F40F920024A01CB01CC01CD01C96
:10522000E01CF01C001D0F9008955523B2F0352F9F
:10523000342B99F03FEF431737E0530778F4440FCE
:10524000551F440F551F440F551F440F551F0F7E08
:10525000042B152F67FB17F908953AC040C025911C
:1052600035914591559165917591859195910895E7
:1052700087E03F2D303230E0030778F40F2DFE2C0D
:10528000ED2CDC2CCB2CBA2CA22E222748505040DF
:105290008A9579F7442755271BC088E004FD05C08F
:1052A00094DF415050408A95C9F708950F92002429
:1052B0000A280B280C280D280E280F28002A002069
:1052C0000F900895EA81FB81A881B9810F010895AB
:1052D000AA24BB2465017501850198940895F8DF1F
:1052E00000EF1FE70895F4DF00EF1FE308958FEF4D
:1052F000A82EB82EEFDF1F7708950DDF632FAC01C6
:10530000FD0109DF732F00C0372F362B3F7709F4DB
:10531000089532FDECCF262F2727372F60FB32F977
:1053200061FB33F93F70E6E7F5E5002311F427FD53
:105330003C96030FE00F0027F01F849187FDD7CF25
:1053400086FDCDDF85FDC4DF84FD0AD083FD0AD054
:1053500082FD0AD081FD0BD080FD0BD0989408957A
:10536000F001C2CEFD01C0CE67FB17F9089577FBAF
:10537000FCCF27FBFACFCD90DD2402C0CD90DD908D
:10538000EE24FF24D7FA6EF48FEFE82EF82E09C032
:10539000CD90DD90EE24FF2417C0CD90DD90ED90F0
:1053A000FD90AA24BB240027112722276627FF206F
:1053B00012F415D0606843E254E05ADF36DF8BCE3A
:1053C000CD90DD90ED90FD90AA24BB2400271127FD
:1053D0002227662743E254E04BDF27DF7CCEC094D0
:1053E000D094E094F09481E0C80E8827D81EE81E7F
:1053F000F81E089590DE31FD19C032FD17C030FD52
:105400002AC08E5F934092F0992329F5803238F4B8
:10541000A7DE81958B5DB9DEE894C6DE0CC0CC2496
:10542000C094DC2CEC2CFC2CF69412C0CC24DD2493
:10543000EE24FF2410C080E8B81650F031F4BA28EA
:10544000B22AB81611F4C0FC03C0CDDFF7FCE7CFD9
:1054500037FF01C0C4DFCD92DD92ED92FD92089539
:1054600000000000000000C8000000000000001460
:1054700000000000000000023333333333333300C5
:105480001F85EB51B81E0500508D976E12830000EA
:10549000228E75711B0D0000378E588B4F01000056
:1054A0006C41EF8D210000005853FE5A03000000AC
:1054B000893BE65500000000F40597080000000055
:1054C000FFE6DB000000000080FD1500000000008A
:1054D000F3320200000000004C3800000000000021
:1054E000A105000000000000900000000000000086
:1054F000EB24A7F11E0ECC6763B3D86275F6DD53BB
:1055000073C8A1A031E5E549B49DD9794378EA444F
:10551000000000A2941A6D420000000080842E4119
:105520000000000000408F407A84EA6EF03F1218BD
:10553000AAAEFF5E8016012CD82F768A4F62F7350F
:10554000A78EA899C257F33A11EA2D819997713D18
:105550008DEDB5A0F7C6B03EFCA9F1D24D62503F2B
:10556000200350000800000000000000F03F000091
:1055700000000000E03F00081000101010000808B4
:1055800020000008100010801000080820000041D2
:105590002000414180002080200000204400418004
:1055A00044002020800088E00FB6F8945A924A9276
:1055B000E42DF52DA42DB52D480E8827581E0FBEBD
:1055C00008950FB6F894499059900FBE089501912F
:1055D0001191219130810895481A590A0895481A65
:1055E0008827580A089599275A924A92480E591EB8
:1055F0000895AA0CBB1CAA0CBB1CAA0CBB1C0895CA
:105600000F92B801469F8001479F100D569F100DC5
:105610000F9008950E94182B0D920020D9F708953D
:10562000903029F08C91880F9A95E9F78C93089522
:10563000C895319600200895040F151F261F371FA7
:10564000089504171507260737070895000F111F3F
:10565000221F331F089500951095209530950F5FF8
:105660001F4F2F4F3F4F0895019110810FC00E948F
:10567000E72A0EC00E94E72A10C00191108117FF8F
:1056800005C03FEF2FEF04C00081112722273327E9
:1056900037FF03C0E0DF8DE28D93CF92DF92EF9270
:1056A000AA24BB24CC24DD24EE2440E2EAE0FF2738
:1056B00055E093E38081890F87FD9F7083FD907F84
:1056C000891B81935A95A9F7C1DFAA1CBB1CCC1C6E
:1056D000DD1CEE1C4A9551F7E894EFE0FF2782911C
:1056E0000CD0EB30E0F71EF068948A2D0AD08827A2
:1056F0008D93EF90DF90CF900895982F829501D0F1
:10570000892F8F70805D26F0803309F408956894A6
:105710008D93089500271127222733271DD08A3320
:1057200028F4803318F005D015D0F9CF0EF493CFBC
:10573000089580538F93402F512F622F732F86DF50
:1057400085DF7ADF83DF8F919927080F191F291FC3
:10575000391F08958D910895E894FCDF8032E9F3B4
:105760008B32D9F38930C9F38D3211F46894F2CFBA
:10577000089588278D93089509919191992359F05F
:105780008A95D9F73197002331F081918D930A954D
:105790008823C9F70895EDCFF999FECFE1BDF2BD99
:1057A0003196089591E001C092E07B3751F47FB7C4
:1057B000F894F2DF8D9180BDFA9AF99A9A95C9F71B
:1057C0007FBF7727089591E001C092E0E5DFF89A66
:1057D00080B58D939A95D1F70895FF93881BF9E0D2
:1057E000001FFA9511F4FF910895881F841B18F487
:1057F000840F8894F5CF0894F3CF8FEF83959D9114
:105800009923E1F70895689401C0E894AF93BF939A
:105810008D9116F0919103C00E94182B902D89173D
:1058200018F011F48823A1F7BF91AF9108950000FB
:10583000000000000000182D4454FB210940000026
:10584000000000806640000000000000F03F33339D
:1058500033333333E33F000000000088C3400000CF
:105860000000006AF8C00000000080842E410000A3
:10587000000000408FC00000000000005940000000
:1058800000000000E03F00000000D0126341F1681A
:10589000E388B5F8E43E000000000000244000006A
:1058A000000000004E409A9999999999B93F0000DB
:1058B000000000C05F4000000000000060402D00BC
:1058C00045002E0030003900342E322E31340000D5
:0658D000726561647900BD
:00000001FF
