:100000000C94340018950000189500001895000015
:10001000189500001895000018950000189500002C
:10002000189500001895000018950000189500001C
:10003000189500001895000018950000189500000C
:100040000C94050218950000189500001895000002
:1000500018950000189500001895000018950000EC
:1000600018950000189500008FEF8DBFCCE3E0E9F4
:100070004E2E88E08EBFD8E0F6E05F2EA89584B7BC
:10008000082E877F84BF88E1992780936000909332
:100090006000EEEFF7E0A0E0B1E088278D933197A4
:1000A000E9F78CE08093C40080E08093C50088E18C
:1000B0008093C10072E07093C0000E94441E6624C9
:1000C0007FE774B97FEF75B970E077B97FEF78B9E2
:1000D000539A559A529AABE0B1E0ECEFFBE50E94DF
:1000E0004B2AA3E1B1E0ECEFFBE50E944B2AABE128
:1000F000B1E0ECEFFBE50E944B2AA3E2B1E0ECEFAC
:10010000FBE50E944B2AABE2B1E0ECEFFBE50E947D
:100110004B2A80E08093570180E090E0A1E0B1E0BD
:100120008D939C93709100017F7D7093000170917D
:1001300000017F7E70930001709100017F777093C2
:100140000001709100017F7B70930001ADECB1E084
:10015000E4E0FCE50E944B2AE0E5F0E0A0E1B0E03D
:100160000E94CA2D013081E009F480E08F93E0E520
:10017000F0E0A0E1B0E00E94CA2D023081E009F475
:1001800080E09F9189238F93E0E5F0E0A0E1B0E06B
:100190000E94CA2D033081E009F480E09F918923F9
:1001A000882311F40C94DD00E0E5F0E0A0E1BB272A
:1001B00080E08C937BE70E94B92DEAE1F1E0A0E1B9
:1001C000B0E00E94CA2D013011F40C941301EAE151
:1001D000F1E0A0E1BB2781E08C937BE70E94B92D81
:1001E00081E08093590100915901043618F011F013
:1001F0000C941301E9E5F1E0A190BB24E0E5F0E007
:10020000AA0CBB1CEA0DFB1D00E010E0A0E1BB271F
:100210007BE70E94BB2DA9E5B1E08C918F5F8C93A9
:1002200010F40C94F30081E080935901009159017E
:100230000A3018F011F00C946901ABE0B1E0E9E587
:10024000F1E0A190BB24E8EFFFEF0E94E02CEA0D63
:10025000FB1D98E00E94CD2DEBE0F1E00E94D52639
:10026000A5E6B1E08C930091650145E00423A6E684
:10027000B1E00C9300916601003018F011F00C947D
:1002800043010C944901ABE0B1E0ECEFFBE50E94C7
:100290004B2AEBE0F1E0A9E5B1E0AD90BB24A3E689
:1002A000B1E00E94E02CAA0DBB1D0E946A2A80E0EA
:1002B000A9E5B1E0AD90BB24AAEBB1E0AA0DBB1D4E
:1002C0008C93A9E5B1E08C918F5F8C9310F40C9422
:1002D0001601ABE0B1E0ECEFFBE50E944B2AE1E553
:1002E000F0E0A0E1B0E00E94CA2D013011F40C94BE
:1002F0008201E1E5F0E0A0E1BB2788E08C937BE799
:100300000E94B92DE5ECF1E00E94D526A5E6B1E00A
:100310008C930091650145E00423A6E6B1E00C93BF
:1003200000916601003018F011F00C9499010C94C2
:10033000A801A5ECB1E0BA93AA93ECE0FCE5A3E038
:10034000B1E00E944B2AEDECF1E00E94A727229633
:10035000A5ECB1E0ECEFFBE50E94242A11F00C942F
:10036000C001A5ECB1E0BA93AA93ECE0FCE5A3E0F0
:10037000B1E00E944B2AEDECF1E00E94A727229603
:1003800080E08093D50181E08093E50180E0809357
:10039000E60170910001777F709300017091000178
:1003A0007B7F7093000180E08093E70185E085BD4D
:1003B00080E084BD77EE76BD70916E0071607093C1
:1003C0006E0078940E9404060E94CD050E94DE14FF
:1003D0000E94361B0E94B01A88EE93E00E94131F01
:1003E0000E94220E0E94B01A88EE93E00E94131F12
:1003F000A0ECB0E00C9107FB16F00C9401020E94F7
:10040000EA1D0C94F401F894FFCF0F921F922F92E3
:100410003F924F925F927F92AF92BF920F931F9342
:100420002F933F934F935F936F937F938F939F93FC
:10043000AF93BF93CF93DF93EF93FF938FB78F93D8
:1004400081E00E94DA2C81E00E94DA2C81E00E9497
:10045000DA2C82E00E94DA2C81E00E94DA2C81E022
:100460000E94DA2C81E00E94DA2C0091E60141E042
:10047000040FA881B9810C93AC85BD85BA93AA936A
:100480000E94A0172296A6E5B1E0BA93AA93AE8582
:10049000BF85BA93AA930E9482162496A0E0B1E089
:1004A0008C9182FB16F00C94E6020091560100300C
:1004B00011F40C946602709100017B7F709300012F
:1004C0000E94220E0E94B01A0C94C7047091000181
:1004D0007F7B70930001E881F981A190BB24E0E566
:1004E000F0E0AA0CBB1CEA0DFB1DAE81BF810E948F
:1004F000CC2DAE81BF8111968C91ACE5B1E08C938F
:10050000AE81BF818C91ABE5B1E08C938091E60127
:10051000AC81BD818C93AA85BB85BA93AA93ACE5C7
:10052000B1E0BA93AA930E94F5042496AA85BB85EC
:100530000C91013011F00C94A50280915C01809324
:1005400056010E944F060C94B502AA81BB81BA9352
:10055000AA930E9452072296AA81BB810C91003077
:1005600011F40C94B5020C94C7044091E601AC81DF
:10057000BD810C91041711F00C94C302A6EEB1E0FA
:100580008C918F5F8C930091E601033618F011F087
:100590000C94CC020C94DA028AE1D2018C9381E0B3
:1005A0000E94DA2C0E94BC14229681E00E94D62C74
:1005B0000C94C7040E94220E0E94B01A80E090E0C2
:1005C000A1E0B1E08D939C930C94990400915601A5
:1005D000003080E010F009F081E08F93A1E0B1E0FD
:1005E0000D911C91003B54E0150780E014F009F0D8
:1005F00081E09F918923882311F40C940C0380E0FF
:100600008093560180E090E0A1E0B1E08D939C934F
:100610000E94E2190C94C70400915601003011F0B9
:100620000C9414030C949B0400915601003811F0B3
:100630000C942B03A0E0B1E08C9185FB882780F916
:10064000809580FBA0E0B1E08C9185F98C930E94AD
:100650002B060E94B01A00915601003811F00C943C
:1006600033030C94C704A0E0B1E08C9185FB81E0DA
:100670000EF080E08F9300915601003080E010F082
:1006800009F081E09F918923882311F40C9452038F
:10069000A6E5B1E08C91805C8C93709100017F7D28
:1006A00070930001AA85BB85BA93AA93A6E5B1E031
:1006B000BA93AA930E94F5042496AA85BB850C914F
:1006C000013011F00C94A00300915A01003011F098
:1006D0000C94710380E080935B010E944F060C94A0
:1006E000990300915601053011F40C949903ABE580
:1006F000B1E00C914AE0049F0C9200915B014091A3
:100700005601040FABE5B1E00C93ABE5B1E08C9181
:1007100080538C9380915A01815080935A010091AB
:100720005A01003011F00C94990380E0AA85BB8532
:100730008C93709100017F7B709300010C94EC030B
:1007400000915601073011F00C94AB037091000139
:1007500070647093000100915601013081E008F44B
:1007600080E08F9300915601043081E010F009F091
:1007700080E09F918923882311F40C94D203A0E098
:10078000B1E08C9186FB16F00C94D20301E140910C
:100790005601040FA6E5B1E00C93709100017F7B38
:1007A00070930001AAE5B1E0BA93AA93A6E5B1E07F
:1007B000BA93AA930E941F05249600915A01003013
:1007C00011F40C94E5030E94E71980E080935B012B
:1007D0008091560180935C0100915A01003011F420
:1007E0000C94F4030C94C704A885B985BA93AA9312
:1007F000A6E5B1E0BA93AA930E94A7052496A0E0CB
:10080000B1E08C9183FB81E00EF480E08F93A885AA
:10081000B9850C91013081E009F080E09F91892B2E
:10082000882311F40C942D04AA85BB850C9100300B
:1008300011F00C942B04AA81BB81BA93AA930E9455
:1008400052072296AA81BB810C91003011F40C94BE
:100850002B040C94C7040C949104AA85BB850C91BD
:10086000003011F00C94590400915C010F3411F028
:100870000C943D0480E080935C01ACE5B1E00D9107
:10088000112740E051E00E94E72CAE81BF810D931B
:100890001C93AE81BF810D911C91ABE5B1E04D91F0
:1008A0005527040F151FAE81BF810D931C930C9427
:1008B0006504A6E5B1E00D91112740E051E00E94EA
:1008C000E72CAE81BF810D931C93E881F981A19043
:1008D000BB24E0E5F0E0AA0CBB1CEA0DFB1DAE81D9
:1008E000BF817BE70E94BB2DF8940E94220E0E94DC
:1008F000B01A8CEB92E00E94131FA6EEB1E08C912F
:100900008F5F8C930091E601033618F011F00C9480
:100910008B040C948E0483E68093E60178940E9405
:10092000220E0E94B01A80E090E0A1E0B1E08D9329
:100930009C930C94C7040E94611AA0E0B1E08C91D2
:1009400085FB16F40C94C704A1E0B1E00D911C9155
:10095000003B54E0150711F00C94B0040E94831979
:10096000A1E0B1E00E943D1EA1E0B1E00D911C911B
:10097000003B54E015071CF011F00C94C1040C94DA
:10098000C70481EB94E0A1E0B1E08D939C93A0E0DB
:10099000B1E08C9182FB16F00C94D2047DEF76BD11
:1009A0000C94D40477EE76BD88E0481A80E0580AAB
:1009B0002E968F918FBFFF91EF91DF91CF91BF91D5
:1009C000AF919F918F917F916F915F914F913F91E7
:1009D0002F911F910F91BF90AF907F905F904F909C
:1009E0003F902F901F900F90189580E0AA81BB81B7
:1009F0008C93A881B9810C910F3280E010F009F03E
:100A000081E08F93A881B9810C910A3381E008F0CD
:100A100080E09F918923882311F40C94130581E0D1
:100A2000AA81BB818C93A881B9810C91053011F00A
:100A30000C941E0581E0AA81BB818C93089580E00F
:100A4000AA81BB818C93A881B9810C91073011F0E8
:100A50000C94300581E0AA81BB818C930C94A6058F
:100A6000083011F00C943A0581E0AA81BB818C9387
:100A70000C94A605023111F00C94440581E0AA8182
:100A8000BB818C930C94A605033111F00C944E0598
:100A900081E0AA81BB818C930C94A605043111F0EE
:100AA0000C94580581E0AA81BB818C930C94A60517
:100AB000053111F00C94620581E0AA81BB818C9311
:100AC0000C94A6050A3011F00C946C0582E0AA8102
:100AD000BB818C930C94A6050B3011F00C94760519
:100AE00082E0AA81BB818C930C94A6050C3411F092
:100AF0000C94800582E0AA81BB818C930C94A6059E
:100B00000B3411F00C948A0582E0AA81BB818C938E
:100B10000C94A6050A3411F00C94940582E0AA8185
:100B2000BB818C930C94A605053411F00C949E05A2
:100B300081E0AA81BB818C930C94A605003711F04B
:100B40000C94A60581E0AA81BB818C93089580E076
:100B5000AA81BB818C93A881B9810C91073411F0D3
:100B60000C94B60581E0AA81BB818C93A881B981E0
:100B70000C91083411F00C94C10581E0AA81BB816D
:100B80008C93A881B9810C910E3411F00C94CC0592
:100B900081E0AA81BB818C93089581E00E94DA2CC8
:100BA00081E0A881B9818C93A881B9810C91003131
:100BB00018F011F00C94EE0580E0A881B981AD9099
:100BC000BB24A2E3B1E0AA0DBB1D8C93A881B9811F
:100BD0008C918F5F8C9310F40C94D40581E08093FA
:100BE000550180E08093580180E3A5E5B1E0AD9028
:100BF000BB24A2E3B1E0AA0DBB1D8C9381E0481A8F
:100C000080E0580A2296089581E00E94DA2C81E063
:100C1000A881B9818C93A881B9810C91083018F012
:100C200011F00C9425068DE0A881B981AD90BB240C
:100C3000A2E4B1E0AA0DBB1D8C93A881B9818C916F
:100C40008F5F8C9310F40C940B0681E0481A80E0BF
:100C5000580A22960895A0E0B1E08C9185FB16F029
:100C60000C944C060E9454190E9404068DE880934F
:100C70004A01A5ECB1E0E4E1FCE50E94242A11F070
:100C80000C9447068DE8809346010C944A068DE843
:100C9000809347010C944E060E94B319089581E099
:100CA0000E94DA2C7091000170687093000100912D
:100CB0005501023081E009F080E08F93009133010B
:100CC000003081E009F080E09F9189238F930091AB
:100CD0005601053080E010F009F081E09F918923F2
:100CE000882311F40C94770681E0809355010091DC
:100CF0005501093010F00C94BB06009156010530E7
:100D000011F00C94A90600915501013011F00C94DA
:100D1000930680E880933301A5E5B1E08C918F5F65
:100D20008C930C94A706A5E5B1E0AD90BB24A1E39C
:100D3000B1E0AA0DBB1D0C9140E8040FA5E5B1E0A0
:100D4000AD90BB24A1E3B1E0AA0DBB1D0C930C94A4
:100D5000BB060091560140E3041BA5E5B1E0AD9050
:100D6000BB24A2E3B1E0AA0DBB1D0C93A5E5B1E045
:100D70008C918F5F8C93A0E0B1E08C9183FB16F493
:100D80000C940B0781E0A881B9818C9340915501A7
:100D9000A881B9810C91041718F011F00C94EA069F
:100DA000A881B981AD90BB24A2E3B1E0AA0DBB1D1F
:100DB0008C91A881B981AD90BB24ABE4B1E0AA19B4
:100DC000BB098C93A881B9818C918F5F8C9310F4AF
:100DD0000C94C60680915501A881B9818C93A88195
:100DE000B9810C91083018F011F00C9409078DE0CE
:100DF000A881B981AD90BB24ABE4B1E0AA19BB09CD
:100E00008C93A881B9818C918F5F8C9310F40C9492
:100E1000EF060C940D070E94E71981E0481A80E064
:100E2000580A2296089588E00E94DA2CEDE5F1E058
:100E3000ABE0B1E00E946A2AE0E5F0E0A0E1B0E0BA
:100E40000E94CA2D033011F00C944C07EBE0F1E046
:100E5000A881B9810E94F727EBE0F1E0ABE0B1E0B7
:100E60000E945828A881B981BA93AA93ECE1FCE5C5
:100E7000A3E0B1E00E944B2AEA81FB810E94A727F0
:100E80002296ABE0B1E0BA93AA93AA81BB81EBE0D2
:100E9000F1E00E940027229688E0481A80E0580A74
:100EA0002296089581E00E94DA2C81E00E94DA2CDB
:100EB00082E00E94DA2C81E00E94DA2C81E00E941C
:100EC000DA2C88E00E94DA2C80E0AC85BD858C931A
:100ED00000915B0141E0040FA885B9850C93A0E067
:100EE000B1E08C9187FB16F00C948C0700915C01AB
:100EF0000F3011F00C9486070E94CD050E94040665
:100F00000E94B01A0C94EE0D0C948C070E94AF1541
:100F10000E94020E0E94130700915C01013011F043
:100F20000C94A707EBE0F1E0ABE2B1E00E946A2A83
:100F3000ABE0B1E0BA93AA93A3E1B1E0EBE0F1E05A
:100F40000E94002722960E94150E0C94E80D013491
:100F500011F00C94AF070E94F9190C94E80D0230BF
:100F600011F00C94C807EBE0F1E0ABE2B1E00E94B5
:100F70006A2AABE0B1E0BA93AA93ABE0B1E0E3E157
:100F8000F1E00E94EB2622960E94150E0C94E80DCB
:100F9000023411F00C94E507EBE0F1E0ABE2B1E0D4
:100FA0000E946A2AABE0B1E0BA93AA93ECEFFBE5AA
:100FB000A3E0B1E00E944B2AE3E0F1E0ABE0B1E056
:100FC0000E94EB2622960C94E80D033011F00C944D
:100FD000FE07EBE0F1E0ABE2B1E00E946A2AABE091
:100FE000B1E0BA93AA93ABE0B1E0E3E1F1E00E9493
:100FF0003B2722960E94150E0C94E80D033411F045
:101000000C943D08EBE0F1E0ABE2B1E00E946A2A0B
:10101000A0E0B1E08C9184FB16F40C941C08A1E0D4
:10102000B1E08D919C91A7E6B1E08D939C93709176
:10103000000170617093000180E197E28A939A93B6
:101040000E944B1EA9E6B1E00D931C93A9E6B1E006
:10105000EBE0F1E00E94AF2BABE0B1E0BA93AA93D2
:10106000E4E2FCE5A3E0B1E00E944B2AEBE0F1E012
:101070000E94A72722960C94E80D043011F00C94DE
:101080005608EBE0F1E0ABE2B1E00E946A2AABE087
:10109000B1E0BA93AA93ABE0B1E0E3E1F1E00E94E2
:1010A000A72722960E94150E0C94E80D043411F027
:1010B0000C947308EBE0F1E0ABE2B1E00E946A2A25
:1010C000ABE0B1E0BA93AA93E4E1FCE5A3E0B1E0C0
:1010D0000E944B2AE3E0F1E0ABE0B1E00E94A727D9
:1010E00022960C94E80D063011F00C948408A0E0D0
:1010F000B1E08C9187FB16F40C9480080E94020EDC
:101100000E94E7190C94E80D053411F00C949F0827
:1011100000915B01033018F011F00C9491080C94CD
:10112000940880E080935B01E0E5F0E0ABE5B1E09E
:101130007BE70E94B92D0E94E7190C94E80D063454
:1011400011F00C94C308EBE0F1E0ABE2B1E00E94D7
:101150006A2AE3E1F1E0ABE0B1E00E946A2AEBE148
:10116000F1E0A3E1B1E00E946A2AE3E2F1E0ABE141
:10117000B1E00E946A2AEBE2F1E0A3E2B1E00E9452
:101180006A2A0C94E80D073011F00C940B09A8851D
:10119000B9850C91003080E010F009F081E08F9368
:1011A000A885B9850C910B3081E008F080E09F9113
:1011B0008923882311F40C94F708EBE0F1E0A8856B
:1011C000B985AD90BB24A3E6B1E00E94E02CAA0D46
:1011D000BB1D0E946A2A81E0A885B985AD90BB2419
:1011E000AAEBB1E0AA0DBB1D8C930C94070984E116
:1011F000D2018C9381E00E94DA2C0E94BC142296CA
:1012000081E00E94D62C81E0AC85BD858C930E9444
:10121000E7190C94E80D023111F00C946609A885C9
:10122000B9850C91003080E010F009F081E08F93D7
:10123000A885B9850C910B3081E008F080E09F9182
:101240008923882311F40C945209A881B981BA9397
:10125000AA93ABE0B1E0EA85FB85A190BB24E3E66D
:10126000F1E00E94E02CEA0DFB1D0E94002722966F
:10127000E881F981A885B985AD90BB24A3E6B1E0EA
:101280000E94E02CAA0DBB1D0E946A2A81E0A8855D
:10129000B985AD90BB24AAEBB1E0AA0DBB1D8C9320
:1012A0000C94620984E1D2018C9381E00E94DA2CD3
:1012B0000E94BC14229681E00E94D62C81E0AC856D
:1012C000BD858C930E94E7190C94E80D033111F051
:1012D0000C94C109A885B9850C91003080E010F00C
:1012E00009F081E08F93A885B9850C910B3081E0DE
:1012F00008F080E09F918923882311F40C94AD09B4
:10130000A881B981BA93AA93ABE0B1E0EA85FB85E5
:10131000A190BB24E3E6F1E00E94E02CEA0DFB1D66
:101320000E94EB262296E881F981A885B985AD90C7
:10133000BB24A3E6B1E00E94E02CAA0DBB1D0E94D5
:101340006A2A81E0A885B985AD90BB24AAEBB1E0FB
:10135000AA0DBB1D8C930C94BD0984E1D2018C9322
:1013600081E00E94DA2C0E94BC14229681E00E9447
:10137000D62C81E0AC85BD858C930E94E7190C9436
:10138000E80D043111F00C941C0AA885B9850C9164
:10139000003080E010F009F081E08F93A885B985D6
:1013A0000C910B3081E008F080E09F918923882325
:1013B00011F40C94080AA881B981BA93AA93ABE0FE
:1013C000B1E0EA85FB85A190BB24E3E6F1E00E9451
:1013D000E02CEA0DFB1D0E943B272296E881F98153
:1013E000A885B985AD90BB24A3E6B1E00E94E02CAE
:1013F000AA0DBB1D0E946A2A81E0A885B985AD901F
:10140000BB24AAEBB1E0AA0DBB1D8C930C94180A67
:1014100084E1D2018C9381E00E94DA2C0E94BC14FA
:10142000229681E00E94D62C81E0AC85BD858C930C
:101430000E94E7190C94E80D053111F00C94770A1D
:10144000A885B9850C91003080E010F009F081E0AA
:101450008F93A885B9850C910B3081E008F080E06E
:101460009F918923882311F40C94630AA881B98180
:10147000BA93AA93ABE0B1E0EA85FB85A190BB24C7
:10148000E3E6F1E00E94E02CEA0DFB1D0E94A72795
:101490002296E881F981A885B985AD90BB24A3E6A1
:1014A000B1E00E94E02CAA0DBB1D0E946A2A81E0D7
:1014B000A885B985AD90BB24AAEBB1E0AA0DBB1DF0
:1014C0008C930C94730A84E1D2018C9381E00E9486
:1014D000DA2C0E94BC14229681E00E94D62C81E076
:1014E000AC85BD858C930E94E7190C94E80D0830FB
:1014F00011F00C94B70AA885B9850C91003080E0F2
:1015000010F009F081E08F93A885B9850C910B301C
:1015100081E008F080E09F918923882311F40C94E6
:10152000A30A0E94020EE885F985A190BB24E3E698
:10153000F1E00E94E02CEA0DFB1DABE0B1E00E945F
:101540006A2A0C94B30A84E1D2018C9381E00E9450
:10155000DA2C0E94BC14229681E00E94D62C81E0F5
:10156000AC85BD858C930E94E7190C94E80D093079
:1015700011F00C94C90AEBE0F1E0ABE2B1E00E949B
:101580006A2AEBE0F1E0ABE0B1E00E940B220C94A0
:10159000E80D093411F00C94E00AEBE0F1E0ABE265
:1015A000B1E00E946A2AABE0B1E0BA93AA93ABE043
:1015B000B1E0EBE0F1E00E943B2722960C94E80DAD
:1015C000073711F00C94FD0AEBE0F1E0ABE2B1E07B
:1015D0000E946A2AABE0B1E0BA93AA93A5ECB1E00D
:1015E000EBE0F1E00E943B272296EBE0F1E0ABE07C
:1015F000B1E00E94F81F0C94E80D043711F00C9430
:101600001A0BEBE0F1E0ABE2B1E00E946A2AEBE0FA
:10161000F1E0ABE0B1E00E94A220ABE0B1E0BA9310
:10162000AA93A5ECB1E0EBE0F1E00E94A727229697
:101630000C94E80D083711F00C94370BEBE0F1E057
:10164000ABE2B1E00E946A2AABE0B1E0BA93AA93A0
:10165000A5ECB1E0EBE0F1E00E943B272296EBE045
:10166000F1E0ABE0B1E00E94F41F0C94E80D053707
:1016700011F00C94540BEBE0F1E0ABE2B1E00E940E
:101680006A2AEBE0F1E0ABE0B1E00E942E21ABE092
:10169000B1E0BA93AA93A5ECB1E0EBE0F1E00E94CF
:1016A000A72722960C94E80D093711F00C94710BC2
:1016B000EBE0F1E0ABE2B1E00E946A2AABE0B1E01E
:1016C000BA93AA93A5ECB1E0EBE0F1E00E943B27CE
:1016D0002296EBE0F1E0ABE0B1E00E945A200C94DE
:1016E000E80D063711F00C948E0BEBE0F1E0ABE265
:1016F000B1E00E946A2AEBE0F1E0ABE0B1E00E94C9
:101700008521ABE0B1E0BA93AA93A5ECB1E0EBE0A0
:10171000F1E00E94A72722960C94E80D0D3011F0FD
:101720000C94A00BEBE0F1E0ABE2B1E00E946A2A7E
:10173000EBE0F1E0ABE0B1E00E9401230C94E80D96
:101740000D3411F00C94B20BEBE0F1E0ABE2B1E040
:101750000E946A2AEBE0F1E0ABE0B1E00E94612276
:101760000C94E80D0F3011F00C94CD0BA0E0B1E01B
:101770008C9187FB16F40C94CB0BEBE0F1E0ABE221
:10178000B1E00E946A2AABE0B1E0ECEFFBE50E9419
:101790004B2A0E94E7190C94E80D003111F00C94CB
:1017A000E60BEBE0F1E0ABE2B1E00E946A2AABE0CD
:1017B000B1E0BA93AA93A3E1B1E0EBE0F1E00E94BB
:1017C000112422960E94150E0C94E80D013111F09F
:1017D0000C94FE0BEBE0F1E0ABE2B1E00E946A2A70
:1017E000E3E1F1E0ABE0B1E00E946A2AEBE2F1E074
:1017F000A3E1B1E00E946A2A0C94E80D013511F0D2
:101800000C94120C0E94020EEBE2F1E0ABE0B1E0AE
:101810000E946A2AE3E1F1E0ABE2B1E00E946A2AA9
:101820000C94E80D003711F00C94430C00915B010F
:10183000013018F011F00C941F0C0C94220C80E075
:1018400080935B0100915B01003011F00C94390C26
:10185000A5ECB1E0BA93AA93ECE0FCE5A3E0B1E01B
:101860000E944B2AEDECF1E00E94A72722960C94EF
:101870003F0CA5ECB1E0E4E1FCE50E944B2A0E949C
:10188000E7190C94E80D003511F00C94570C0E94E8
:10189000020EEBE0F1E0ABE2B1E00E946A2AEDEC6F
:1018A000F1E0ABE0B1E00E946A2A0C94E80D013748
:1018B00011F00C94690CEBE0F1E0ABE2B1E00E94B6
:1018C0006A2AEBE0F1E0ABE0B1E00E9458280C940A
:1018D000E80D023711F00C947B0CEBE0F1E0ABE289
:1018E000B1E00E946A2AEBE0F1E0ABE0B1E00E94D7
:1018F000F7270C94E80D033711F00C948D0CEBE0F6
:10190000F1E0ABE2B1E00E946A2AEBE0F1E0ABE08B
:10191000B1E00E94F2270C94E80D0E3411F00C9403
:10192000A00CA0E0B1E08C9183FB882780F9809522
:1019300080FBA0E0B1E08C9183F98C930C94E80DCE
:10194000073411F00C94BD0C0091E601003011F049
:101950000C94AD0C84E68093E6010091E601003022
:1019600018F011F00C94B60C0C94BB0C8091E601AD
:1019700081508093E6010C94E80D083411F00C942A
:10198000D40CA6EEB1E08C918F5F8C930091E601B0
:10199000033618F011F00C94CF0C0C94D20C80E0AC
:1019A0008093E6010C94E80D0A3011F00C94E00CE1
:1019B00080915B018093E6010E94E7190C94E80D89
:1019C0000B3011F00C94170D0091E501003110F06F
:1019D0000C94000DA5EEB1E08C918F5F8C938091FB
:1019E000E601A5EEB1E0AD90BB24A4EDB1E0AA0DF7
:1019F000BB1D8C9380915B018093E6010C94130DC9
:101A00008CE1D2018C9381E00E94DA2C0E94BC14FC
:101A1000229681E00E94D62C81E08093E50181E04E
:101A2000AC85BD858C930E94E7190C94E80D0C30B1
:101A300011F00C944F0DA5EEB1E0AD90BB24A4EDD8
:101A4000B1E0AA0DBB1D8C918093E601A6EEB1E03A
:101A50008C918F5F8C930091E501013018F011F0AB
:101A60000C94340D0C943B0D8091E50181508093D2
:101A7000E5010C944B0D8CE1D2018C9381E00E9426
:101A8000DA2C0E94BC14229681E00E94D62C81E0C0
:101A9000AC85BD858C930E94E7190C94E80D0C343D
:101AA00011F00C94620DABE0B1E0ECEFFBE50E94AD
:101AB000242A10F00C94600D80915B018093E60164
:101AC0000C94E80D0B3411F00C94750DABE0B1E003
:101AD000ECEFFBE50E94242A11F00C94730D809129
:101AE0005B018093E6010C94E80D0A3411F00C942C
:101AF0008B0DABE0B1E0ECEFFBE50E94242A18F07F
:101B000011F00C94850D0C94890D80915B018093EC
:101B1000E6010C94E80D0E3011F00C94DA0DA0E003
:101B2000B1E08C9182FB882780F9809580FBA0E052
:101B3000B1E08C9182F98C93A0E0B1E08C9182FBB2
:101B400016F00C94D60D0091E60141E0040FAA8135
:101B5000BB810C93EA81FB81A190BB24E0E5F0E01E
:101B6000AA0CBB1CEA0DFB1DAE81BF810E94CC2DCF
:101B7000AE81BF8111968C91AC81BD818C93AC817B
:101B8000BD810C910E3011F00C94D30DA6EEB1E096
:101B90008C918F5F8C930E94220E81E0AC85BD8575
:101BA0008C930C94D60D81E08093E5010E94E71997
:101BB0000C94E80D003011F00C94E20D0E94E7192E
:101BC0000C94E80D0F3411F00C94E80D0E94E71905
:101BD00080E080935C018FEF80935B010E94220E76
:101BE000709100017F7770930001709100017F7BFD
:101BF000709300010E94CD058EE0481A80E0580ADB
:101C00002C960895EBE1F1E0A3E2B1E00E946A2A8C
:101C1000E3E1F1E0ABE1B1E00E946A2AEBE0F1E040
:101C2000A3E1B1E00E946A2A0895EBE1F1E0A3E1AB
:101C3000B1E00E946A2AE3E2F1E0ABE1B1E00E9488
:101C40006A2A089581E00E94DA2C81E00E94DA2C51
:101C500081E20E94DA2C81E00E94DA2C82E00E946C
:101C6000DA2C81E00E94DA2C88E00E94DA2C84E0F1
:101C70000E94DA2C84E00E94DA2C88E00E94DA2CA0
:101C800088E00E94DA2C84E00E94DA2C84E00E9432
:101C9000DA2C81E00E94DA2C82E00E94DA2C82E0C9
:101CA0000E94DA2C81E00E94DA2C81E00E94DA2C7A
:101CB00081E00E94DA2C81E0ACA1BDA18C93ACA1A3
:101CC000BDA10C91083018F011F00C94790E8DE044
:101CD000ACA1BDA1AD90BB24A2E4B1E0AA0DBB1D97
:101CE0008C93ACA1BDA18C918F5F8C9310F40C945C
:101CF0005F0EA0E0B1E08C9182FB16F40C94F5121B
:101D0000A0E0B1E08C9183FB16F40C945A12EBE046
:101D1000F1E00E94D526A5E6B1E08C930091650123
:101D200045E00423A6E6B1E00C93E0E5F0E0A0E195
:101D3000B0E00E94CA2D013011F00C94BC0EABE053
:101D4000B1E0ECE2FCE50E94242A18F011F00C94BA
:101D5000AE0EA6E6B1E08C918F5F8C93ABE0B1E064
:101D6000E4E3FCE50E94242A10F40C94BC0EA6E6E1
:101D7000B1E08C918F5F8C93E0E5F0E0A0E1B0E002
:101D80000E94CA2D033011F00C94E30EABE0B1E0D9
:101D9000ECE3FCE50E94242A18F011F00C94D50E17
:101DA000A6E6B1E08C918F5F8C93ABE0B1E0E4E20A
:101DB000FCE50E94242A10F40C94E30EA6E6B1E0A0
:101DC0008C918F5F8C9300916601003011F00C9420
:101DD0004C12EBE0F1E0A889B9890E94F227E0E516
:101DE000F0E0A0E1B0E00E94CA2D013011F00C94A7
:101DF000A80FA889B989BA93AA93E4E4FCE5A3E003
:101E0000B1E00E944B2AE3E0F1E0AA89BB890E947D
:101E10003B272296E889F989A88DB98D0E94582818
:101E2000E88DF98DAE89BF890E94E12BAA89BB8913
:101E3000BA93AA93AA8DBB8DEA89FB890E94EB26EF
:101E40002296AA89BB89ECE4FCE50E94242A18F0BA
:101E500011F00C942D0F0C94310FAE89BF890E94A4
:101E6000301E81E0ACA1BDA18C93ACA1BDA10C91B1
:101E7000083018F011F00C94970FAE89BF890D91BE
:101E80001D912D913C914AE050E060E070E00E948D
:101E9000B61EAC89BD890D931D932D933D93AC89DE
:101EA000BD898C91ACA1BDA1AD90BB24A2E4B1E0F1
:101EB000AA0DBB1D8C93AE89BF890D911D912D91EB
:101EC0003C914AE050E060E070E00E94B61EAE89AE
:101ED000BF894D935D936D937D9340E050E060E04A
:101EE00070E0AE89BF890D911D912D913C910E94AA
:101EF000082D81E009F080E08F93ACA1BDA10C9189
:101F0000023080E010F009F081E09F91892388235E
:101F100011F40C948F0F88E0ACA1BDA18C93ACA1FF
:101F2000BDA18C918F5F8C9310F40C94350FA5E4B8
:101F3000B1E08C9180588C93ABE0B1E0ECEFFBE525
:101F40000E94242A10F00C94A80F8AE080934A0182
:101F5000E0E5F0E0A0E1B0E00E94CA2D003011F011
:101F60000C942A11ABE0B1E0ECEFFBE50E94242ACF
:101F700010F00C94C10F87E0AAA1BBA18C930C9424
:101F8000C50F88E0AAA1BBA18C93A889B989E4E513
:101F9000FCE50E94242A81E008F080E08F93A88964
:101FA000B989ECE5FCE50E94242A80E010F009F0F4
:101FB00081E09F918923882311F40C940411A8894E
:101FC000B989BA93AA93EA89FB89D2010E946A2A45
:101FD00088E00E94DA2CAEA1BFA1BA93AA930E9416
:101FE0001D14269688E00E94D62CE889F989A88DD0
:101FF000B98D0E945828E88DF98DAE89BF890E945D
:10200000E12BAA89BB89BA93AA93AA8DBB8DEA89D1
:10201000FB890E94EB26229640E050E060E070E0F1
:10202000AE89BF890D911D912D913C910E94082D83
:102030001CF011F00C941E100C949810EE89FF897E
:10204000A8A1B9A10E941E2DA8A1B9A10E94E42DAA
:10205000AE8DBF8D8C93AAA1BBA10C91AE8DBF8D0F
:102060004C91041BAE8DBF8D0C93AE8DBF8D8C91AA
:102070008F5F8C93AE8DBF8D8C91ACA1BDA18C93E5
:10208000AAA1BBA14C91ACA1BDA10C91041718F061
:1020900011F00C948310AE89BF890D911D912D9183
:1020A0003C914AE050E060E070E00E94B61EAC89CE
:1020B000BD890D931D932D933D93AC89BD898C9162
:1020C000ACA1BDA1AD90BB24A2E4B1E0AA0DBB1DA3
:1020D0008C93AE89BF890D911D912D913C914AE061
:1020E00050E060E070E00E94B61EAE89BF894D935B
:1020F0005D936D937D93ACA1BDA18C918F5F8C930B
:1021000010F40C944010AE8DBF8DAD90BB24A2E4B2
:10211000B1E0AA0DBB1D8C9180588C93AE8DBF8D04
:102120000C9141E0041BAAA1BBA10C930C94B1102B
:1021300080E0AAA1BBA1AD90BB24A2E4B1E0AA0DAE
:10214000BB1D8C93AAA1BBA1AD90BB24A2E4B1E0BE
:10215000AA0DBB1D8C9180588C93AAA1BBA10E9493
:102160002C1EAAA1BBA10C91003080E010F009F058
:1021700081E08F93AA89BB89ECEFFBE50E94242ABA
:1021800080E010F009F081E09F918923882311F409
:102190000C940211AA89BB89BA93AA93E4E6FCE5E0
:1021A000A3E0B1E00E944B2AEC89FD890E943B2705
:1021B0002296EA89FB89A88DB98D0E945828E88D5E
:1021C000F98DAE89BF890E94E12BAE89BF898C91C0
:1021D000AAA1BBA1AD90BB24A2E4B1E0AA0DBB1D96
:1021E0008C93AA89BB89BA93AA93AA8DBB8DEC89DB
:1021F000FD890E94EB262296AAA1BBA10E942C1E5B
:102200000C94B1100C941211E889F989D2010E9442
:102210006A2A88E00E94DA2C0E944013229688E005
:102220000E94D62CABE0B1E0ECEFFBE50E94242A43
:1022300010F00C941E118AE080934A01ABE0B1E0EB
:10224000ECEFFBE50E94242A11F00C942A1180E89F
:1022500080934A01E0E5F0E0A0E1B0E00E94CA2DE1
:10226000023011F00C945A11E889F989D2010E94C8
:102270006A2A88E00E94DA2C0E944013229688E0A5
:102280000E94D62CABE0B1E0ECEFFBE50E94242AE3
:1022900010F00C944E118AE080934A01ABE0B1E05B
:1022A000ECEFFBE50E94242A11F00C945A1180E80F
:1022B00080934A01E0E5F0E0A0E1B0E00E94CA2D81
:1022C000033011F00C944A12A889B989BA93AA93E1
:1022D000ECE6FCE5A3E0B1E00E944B2AEA89FB8929
:1022E0000E943B272296E889F989A88DB98D0E9422
:1022F0005828E88DF98DAE89BF890E94E12BAA8903
:10230000BB89BA93AA93AA8DBB8DEA89FB890E94E7
:10231000EB262296AA89BB89ECE4FCE50E94242ADC
:1023200018F011F00C9496110C949A11AE89BF8993
:102330000E94301EAE89BF890D911D912D913C9157
:102340004CE350E060E070E00E94B61EAE85BF85B1
:102350004D935D936D937D93AE89BF890D911D91D2
:102360002D913C914CE350E060E070E00E94B61E7D
:10237000AC85BD850D931D932D933D93AC85BD8597
:102380000C914AE00E94D42DA3E4B1E08C93AC857B
:10239000BD850C914AE00E94D42DA4E4B1E00C93D9
:1023A00083E0ACA1BDA18C93ACA1BDA10C91063082
:1023B00018F011F00C943612AE85BF850D911D9169
:1023C0002D913C914AE050E060E070E00E94B61E22
:1023D000AC89BD890D931D932D933D93AC89BD8927
:1023E0008C91ACA1BDA1AD90BB24A2E4B1E0AA0D3B
:1023F000BB1D8C93AE85BF850D911D912D913C9198
:102400004AE050E060E070E00E94B61EAE85BF85F5
:102410004D935D936D937D9340E050E060E070E0FC
:10242000AE85BF850D911D912D913C910E94082D87
:1024300081E009F080E08F93ACA1BDA10C91033045
:1024400080E010F009F081E09F918923882311F446
:102450000C942E1288E0ACA1BDA18C93ACA1BDA1BF
:102460008C918F5F8C9310F40C94D411A5E4B1E09F
:102470008C9180588C93ABE0B1E0ECEFFBE50E94CF
:10248000242A10F00C9447128AE08093490188E1D5
:1024900080934A010C9458128DE0D2018C9381E014
:1024A0000E94DA2C0E94BC14229681E00E94D62C55
:1024B0000C94F3120091E601033618F011F00C941D
:1024C00063120C94661280E08093E6010091E601AD
:1024D00041E0040FA9E5B1E00C93E9E5F1E0A1903A
:1024E000BB24E0E5F0E0AA0CBB1CEA0DFB1DAE81AD
:1024F000BF810E94CC2DAE81BF8111968C91AC81A1
:10250000BD818C930091E6014AE00E94D42DAAE49B
:10251000B1E00C930091E6014AE00E94D42DA9E4B9
:10252000B1E08C938DE080934801AC81BD810C912A
:102530004AE00E94D42DA5E4B1E08C93AC81BD812A
:102540000C914AE00E94D42DAA85BB850C93AA85E4
:10255000BB850C914AE00E94D42DA6E4B1E08C9397
:10256000AA85BB850C914AE00E94D42DA7E4B1E076
:102570000C93AA81BB81BA93AA93AE81BF81BA930F
:10258000AA930E941F052496AA81BB810C9100305A
:1025900018F011F00C94CE120C94ED12AE81BF81A4
:1025A0008C91AA81BB818C93A5E4B1E08C91805879
:1025B0008C93AA81BB810C914AE00E94D42DA4E4A3
:1025C000B1E00C93AA81BB810C914AE00E94D42D0A
:1025D000A3E4B1E08C930C94F3128DE0809344015A
:1025E0008DE0809343010C943A13A7EEB1E08C91F7
:1025F0008F5F8C930091E7010F3318F011F00C946A
:1026000003130C94061380E08093E7010091E70127
:1026100048E00E94D42DA881B9810C93A881B9818A
:102620008C918F5F8C938DE0A881B981AD90BB2494
:10263000A2E4B1E0AA0DBB1D8C93A881B9818C9155
:102640008F5F8C93A881B9810C91083018F011F03C
:102650000C942C130C94301381E0A881B9818C93D5
:102660008DE8A881B981AD90BB24A2E4B1E0AA0DA8
:10267000BB1D8C9387E5481A80E0580AA6960895FA
:1026800081E00E94DA2C81E00E94DA2C81E20E9433
:10269000DA2C81E00E94DA2C82E00E94DA2C81E0C0
:1026A0000E94DA2CEC85FD850027AE81BF810E9457
:1026B000AB28AE81BF810E94E42DAC81BD818C939B
:1026C000ABE0B1E0ECEFFBE50E94242A10F00C94A3
:1026D0006F1387E0A885B9858C930C94731388E0F9
:1026E000A885B9858C9381E0AA85BB858C93AC8144
:1026F000BD814C91AA85BB850C91041718F011F08F
:102700000C941714AA85BB858C91EE81FF8101E0A2
:102710000A93AB81BC810E94A32DAA81BB81ECE806
:10272000FCE50E94EA2D11F00C949C138AE0A8812C
:10273000B9818C930C94F513EEE8FCE50E94EA2D28
:1027400011F00C94B81385E1A881B9818C93AC8108
:10275000BD810C91AA85BB854C91041BA885B985C8
:102760000C93A885B9858C918F5F8C930C94F5138D
:10277000E0E9FCE50E94EA2D11F00C94D413A88541
:10278000B9858C918F5F8C93A885B985AD90BB245A
:10279000A2E4B1E0AA0DBB1D0C9140E8040FA88192
:1027A000B9810C930C94F513AA81BB81E2E9FCE595
:1027B0000E94EA2D81E008F480E08F93AA81BB811A
:1027C000E4E9FCE50E94EA2D81E010F009F080E0E8
:1027D0009F918923882311F40C94F513AA81BB815E
:1027E0000E94712DA881B9810C93A885B9850C919F
:1027F000003018F011F00C94FF130C940F14A88102
:10280000B9818C91A885B985AD90BB24A2E4B1E0D3
:10281000AA0DBB1D8C93A885B9850E942C1EAA8584
:10282000BB858C918F5F8C9310F40C94771387E2A7
:10283000481A80E0580A2C96089581E20E94DA2C0A
:1028400088E00E94DA2C84E00E94DA2C81E00E9469
:10285000DA2C88E00E94DA2C81E00E94DA2C81E0F8
:102860000E94DA2C81E00E94DA2CEA89FB89AC858F
:10287000BD850E945828EC85FD85AA85BB850E94F0
:10288000E12BEA85FB85AE85BF850E941E2DAE85B6
:10289000BF850E94E42DAC81BD818C93A889B98944
:1028A0000C91AC81BD814C91041BAA81BB810C931E
:1028B000EA89FB89AE81BF810E946A2A81E0A881F2
:1028C000B9818C93AA81BB814C91A881B9810C916B
:1028D000041718F011F00C948414AE81BF81BA93E0
:1028E000AA93E4E6FCE5A3E0B1E00E944B2AE88568
:1028F000F9850E943B272296A881B9818C918F5F30
:102900008C9310F40C946214EE81FF81AE81BF8130
:102910000E94662881E0A881B9818C93AA81BB813D
:102920004C91A881B9810C91041718F011F00C9406
:10293000B014AE81BF81BA93AA93E4E7FCE5A3E0AB
:10294000B1E00E944B2AE885F9850E943B27229638
:10295000A881B9818C918F5F8C9310F40C948E14A4
:10296000EE81FF81AC89BD890E946A2A89E3481AF9
:1029700080E0580A609608958DE080934A0185E1D1
:102980008093490186E18093480186E18093470165
:1029900087E18093460186E1809345018DE0809335
:1029A0004401A881B9818C91809343017091000109
:1029B0007B7F709300010E94B01A089581E20E940B
:1029C000DA2C81E00E94DA2C81E00E94DA2C82E08D
:1029D0000E94DA2C81E00E94DA2C81E00E94DA2C3D
:1029E000AA85BB85E6E9FCE50E94F12C89E180938C
:1029F0004A0185E0AE81BF818C93AA85BB850E9488
:102A0000E42DA881B9818C9381E0A885B9858C9348
:102A1000A881B9814C91A885B9850C91041718F04B
:102A200011F00C94A915A885B9858C91EA85FB85D0
:102A300001E00A93AD81BE810E94A32DAC81BD81CE
:102A4000ECE8FCE50E94EA2D11F00C942D158AE0CB
:102A5000AA81BB818C930C948615EEE8FCE50E945C
:102A6000EA2D11F00C94491585E1AA81BB818C9364
:102A7000A881B9810C91A885B9854C91041BAE81C0
:102A8000BF810C93AE81BF818C918F5F8C930C942E
:102A90008615E0E9FCE50E94EA2D11F00C9465151D
:102AA000AE81BF818C918F5F8C93AE81BF81AD90E1
:102AB000BB24A2E4B1E0AA0DBB1D0C9140E8040FB9
:102AC000AA81BB810C930C948615AC81BD81E2E98F
:102AD000FCE50E94EA2D81E008F480E08F93AC8150
:102AE000BD81E4E9FCE50E94EA2D81E010F009F0E7
:102AF00080E09F918923882311F40C948615AC8182
:102B0000BD810E94712DAA81BB810C93AE81BF81D2
:102B10000C91003018F011F00C9490150C94A11544
:102B2000AA81BB818C91AE81BF81AD90BB24A2E410
:102B3000B1E0AA0DBB1D8C93AE81BF818C918150F9
:102B40008C93A885B9858C918F5F8C9310F40C942D
:102B5000081587E2481A80E0580A2C96089588E004
:102B60000E94DA2C88E00E94DA2C81E00E94DA2CA4
:102B700081E00E94DA2C81E00E94DA2CADE5B1E020
:102B8000ECEFFBE50E944B2AAE81BF81ECEFFBE549
:102B90000E944B2A80E0AC81BD818C9381E00E9431
:102BA000DA2C0091550141E0041BA881B9810C93F6
:102BB00081E0AC81BD818C93A881B9814C91AC81BD
:102BC000BD810C91041718F011F00C947716AC81AC
:102BD000BD81AD90BB24A2E3B1E0AA0DBB1DEA8587
:102BE000FB850E94A22B80E0AA81BB818C93AA85E1
:102BF000BB85ECE7FCE50E94242A18F011F00C9448
:102C000003160C941616AA85BB85BA93AA93E4E81A
:102C1000FCE5A3E0B1E00E944B2AEC85FD850E9413
:102C2000EB26229681E0AA81BB818C93AE81BF8185
:102C30000C91003011F00C943916ADE5B1E0BA9367
:102C4000AA93E4E6FCE5A3E0B1E00E944B2AEDE59F
:102C5000F1E00E943B272296ADE5B1E0BA93AA933A
:102C6000AC85BD85EDE5F1E00E94002722960C942D
:102C70005E16A885B985BA93AA93E4E6FCE5A3E0BD
:102C8000B1E00E944B2AEA85FB850E94A727229685
:102C9000AA85BB85BA93AA93AA85BB85EC85FD85D9
:102CA0000E943B272296ADE5B1E0BA93AA93AC858A
:102CB000BD85EDE5F1E00E9400272296AA81BB8147
:102CC0000C91013011F00C946F16A885B985E4E1E0
:102CD000FCE50E944B2A81E0AE81BF818C93AC81E0
:102CE000BD818C918F5F8C9310F40C94DC1581E086
:102CF000481A80E0580A229683E1481A80E0580A70
:102D00002A96089580E0AA81BB818C93A881B9811D
:102D10000C91023011F00C94931680E3AA81BB81D0
:102D20008C930C949F17093011F00C949D1681E33D
:102D3000AA81BB818C930C949F170A3011F00C94DC
:102D4000A71682E3AA81BB818C930C949F170C3049
:102D500011F00C94B11683E3AA81BB818C930C947F
:102D60009F17013111F00C94BB1684E3AA81BB813B
:102D70008C930C949F17023111F00C94C51685E3C7
:102D8000AA81BB818C930C949F17043111F00C9491
:102D9000CF1686E3AA81BB818C930C949F170931CF
:102DA00011F00C94D91687E3AA81BB818C930C9403
:102DB0009F170A3111F00C94E31688E3AA81BB81B6
:102DC0008C930C949F170C3111F00C94ED1689E341
:102DD000AA81BB818C930C949F17013011F00C9445
:102DE000F71685E0AA81BB818C930C949F1708335A
:102DF00011F00C94011786E0AA81BB818C930C948E
:102E00009F17083011F00C940B1781E0AA81BB8149
:102E10008C930C949F17003111F00C94151782E0DD
:102E2000AA81BB818C930C949F17083111F00C94EC
:102E30001F1783E0AA81BB818C930C949F170032EB
:102E400011F00C94291784E0AA81BB818C930C9417
:102E50009F17093211F00C94331780E8AA81BB81C7
:102E60008C930C949F170A3211F00C943D1787E055
:102E7000AA81BB818C930C949F170C3211F00C9497
:102E8000471788E0AA81BB818C930C949F1702336B
:102E900011F00C94511789E0AA81BB818C930C949A
:102EA0009F17013211F00C945B178AE0AA81BB8155
:102EB0008C930C949F17023211F00C9465178BE0E1
:102EC000AA81BB818C930C949F17043211F00C944F
:102ED0006F178CE0AA81BB818C930C949F170832EA
:102EE00011F00C9479178DE0AA81BB818C930C941E
:102EF0009F17003311F00C9483178EE0AA81BB81D9
:102F00008C930C949F17043011F00C948D178FE064
:102F1000AA81BB818C930C949F17013311F00C9400
:102F2000971780E1AA81BB818C930C949F1704337F
:102F300011F00C949F1781E1AA81BB818C930895B5
:102F400081E00E94DA2C81E00E94DA2C81E00E946C
:102F5000DA2C81E0AA81BB818C9380E0AE81BF81B5
:102F60008C9380E0AC81BD818C93AC81BD810C9150
:102F7000063018F011F00C94F917AA81BB81E5E234
:102F8000F0E08C9180958083A881B98186B18C9383
:102F9000A881B9818C9180958C93A881B9818C91FD
:102FA0008F708C93A881B9810C91003018F011F0CA
:102FB0000C94DC170C94EC17AC81BD810C9148E0AB
:102FC000049F0C92A881B9810C91AC81BD814C9178
:102FD000040FAE81BF810C9391E0AA81BB810E9456
:102FE000F72CAC81BD818C918F5F8C9310F40C9485
:102FF000B51740915701AE81BF810C91041711F0B4
:103000000C94081880E0AE81BF818C930C940D184D
:10301000AE81BF818C918093570183E0481A80E094
:10302000580A2696089581E00E94DA2C80E0A88153
:10303000B9818C9380E0AC81BD818C93AA81BB81E6
:103040000C91003810F40C942E1881E0A881B981FD
:103050008C93AA81BB818C9180588C93AA81BB816F
:103060000C91003011F00C943B188DE1AC81BD81C6
:103070008C930C943D19013011F00C94451880E3A9
:10308000AC81BD818C930C943D19023011F00C94ED
:103090004F188DE6AC81BD818C930C943D190330A3
:1030A00011F00C94591889E7AC81BD818C930C9474
:1030B0003D19043011F00C94631883E3AC81BD8199
:1030C0008C930C943D19053011F00C946D188BE520
:1030D000AC81BD818C930C943D19063011F00C9499
:1030E00077188FE1AC81BD818C930C943D1907302A
:1030F00011F00C94811880E7AC81BD818C930C9405
:103100003D19083011F00C948B188FE7AC81BD810C
:103110008C930C943D19093011F00C94951883E7A9
:10312000AC81BD818C930C943D190A3011F00C9444
:103130009F1881E0AC81BD818C930C943D190B30BC
:1031400011F00C94A91888E0AC81BD818C930C948B
:103150003D190D3011F00C94B31880E0AC81BD81A5
:103160008C930C943D190E3011F00C94BD1883E62D
:10317000AC81BD818C930C943D19043111F00C94F9
:10318000C71887E7AC81BD818C930C943D1905313C
:1031900011F00C94D1188FE4AC81BD818C930C9408
:1031A0003D19063111F00C94DB1885E0AC81BD812E
:1031B0008C930C943D19073111F00C94E5188DE1B6
:1031C000AC81BD818C930C943D19083111F00C94A5
:1031D000EF1887E1AC81BD818C930C943D190931C6
:1031E00011F00C94F9188DE0AC81BD818C930C9496
:1031F0003D190A3111F00C94031987E6AC81BD81A9
:103200008C930C943D190B3111F00C940D1985E140
:10321000AC81BD818C930C943D190C3111F00C9450
:1032200017198BE5AC81BD818C930C943D190E313F
:1032300011F00C9421198EE4AC81BD818C930C9417
:103240003D190F3111F00C942B198EE0AC81BD812A
:103250008C930C943D190D3111F00C9435198DE3BC
:10326000AC81BD818C930C943D19013211F00C940A
:103270003D198EE3AC81BD818C93A881B9810C91FD
:10328000013011F00C944E19AC81BD818C918058A5
:103290008C93AA81BB818C9180588C9381E0481AD1
:1032A00080E0580A2296089581E00E94DA2C81E09D
:1032B000A881B9818C93A881B9810C91083018F04C
:1032C00011F00C947D19A881B981AD90BB24A2E4C2
:1032D000B1E0AA0DBB1D8C91A881B981AD90BB2432
:1032E000AAE4B1E0AA0DBB1D8C93A881B9818C9191
:1032F0008F5F8C9310F40C945B1981E0481A80E086
:10330000580A2296089581E00E94DA2C0E945419EE
:1033100081E0A881B9818C93A881B9810C91083092
:1033200018F011F00C94A6198DE0A881B981AD9028
:10333000BB24A2E4B1E0AA0DBB1D8C93A881B98186
:103340008C918F5F8C9310F40C948C19A3E4B1E0F2
:103350008C9180588C930E94B01A81E0481A80E0CA
:10336000580A2296089581E00E94DA2C81E0A88113
:10337000B9818C93A881B9810C91083018F011F0B3
:103380000C94DC19A881B981AD90BB24AAE4B1E00A
:10339000AA0DBB1D8C91A881B981AD90BB24A2E47C
:1033A000B1E0AA0DBB1D8C93A881B9818C918F5F70
:1033B0008C9310F40C94BA1981E0481A80E0580AF2
:1033C000229608950E94B3190E94B01A0895A0E0B1
:1033D000B1E08C9182FB16F40C94F819F8940E94D9
:1033E000831984E690E00E94131F0E94E2197894EA
:1033F0000895E1E5F0E0A0E1B0E00E94CA2D0830B8
:1034000011F00C940E1AE1E5F0E0A0E1BB2781E099
:103410008C937BE70E94B92D0C94171AE1E5F0E03C
:10342000A0E1BB2788E08C937BE70E94B92D8AE05E
:1034300080935301E1E5F0E0A4E5B1E00E94CA2DDC
:103440005A98539A559A5D98A3E5B1E0119698E081
:103450008E91983018F4392F992702C038E098508F
:10346000881F5B9808F45B9A000000005D9A0000DA
:1034700000005D98000000003A9591F7992341F70C
:10348000539A559A5D98A4E5B1E0119698E08E9113
:10349000983018F4392F992702C038E09850881FC7
:1034A0005B9808F45B9A000000005D9A0000000041
:1034B0005D98000000003A9591F7992341F75A9AD8
:1034C000089588E00E94DA2C81E00E94DA2C81E0E5
:1034D000A881B9818C93A881B9810C910A3018F028
:1034E00011F00C94AA1AA881B981AD90BB24AAEB63
:1034F000B1E0AA0DBB1D0C91013011F00C94A21A81
:10350000E881F981A190BB24E8EFFFEF0E94E02C55
:10351000EA0DFB1DA881B981AD90BB24A3E6B1E003
:103520000E94E02CAA0DBB1D98E07BE70E94BC2DF9
:1035300080E0A881B981AD90BB24AAEBB1E0AA0DCF
:10354000BB1D8C93A881B9818C918F5F8C9310F4F3
:103550000C946B1A89E0481A80E0580A2496089562
:1035600081E00E94DA2C81E00E94DA2C81E00E9446
:10357000DA2C81E0AA81BB818C93AA81BB810C915A
:10358000083018F011F00C94301B09E0AA81BB81BF
:103590004C91041BA881B9810C93AC81BD81BA9375
:1035A000AA93AA81BB81AD90BB24A2E4B1E0AA0D8D
:1035B000BB1DBA93AA930E9413182496AA81BB81BB
:1035C0008C9180935301AC81BD818C918093540187
:1035D0005A98539A559A5D98A3E5B1E0119698E0F0
:1035E0008E91983018F4392F992702C038E09850FE
:1035F000881F5B9808F45B9A000000005D9A000049
:1036000000005D98000000003A9591F7992341F77A
:10361000539A559A5D98A4E5B1E0119698E08E9181
:10362000983018F4392F992702C038E09850881F35
:103630005B9808F45B9A000000005D9A00000000AF
:103640005D98000000003A9591F7992341F75A9A46
:10365000AA81BB818C918F5F8C9310F40C94BD1A5E
:1036600083E0481A80E0580A269608958CE08093FB
:10367000530180E0809354015A98539A559A5D986B
:10368000A3E5B1E0119698E08E91983018F4392FA7
:10369000992702C038E09850881F5B9808F45B9A1D
:1036A000000000005D9A000000005D98000000002E
:1036B0003A9591F7992341F7539A559A5D98A4E565
:1036C000B1E0119698E08E91983018F4392F99272F
:1036D00002C038E09850881F5B9808F45B9A00009D
:1036E00000005D9A000000005D98000000003A951F
:1036F00091F7992341F75A9A89E08093530180E02A
:10370000809354015A98539A559A5D98A3E5B1E075
:10371000119698E08E91983018F4392F992702C0AD
:1037200038E09850881F5B9808F45B9A000000000E
:103730005D9A000000005D98000000003A9591F746
:10374000992341F7539A559A5D98A4E5B1E01196F3
:1037500098E08E91983018F4392F992702C038E0FC
:103760009850881F5B9808F45B9A000000005D9AEF
:10377000000000005D98000000003A9591F7992341
:1037800041F75A9A8AE080935301E1E5F0E0A4E51D
:10379000B1E00E94CA2D5A98539A559A5D98A3E5B4
:1037A000B1E0119698E08E91983018F4392F99274E
:1037B00002C038E09850881F5B9808F45B9A0000BC
:1037C00000005D9A000000005D98000000003A953E
:1037D00091F7992341F7539A559A5D98A4E5B1E082
:1037E000119698E08E91983018F4392F992702C0DD
:1037F00038E09850881F5B9808F45B9A000000003E
:103800005D9A000000005D98000000003A9591F775
:10381000992341F75A9A8BE08093530187E0809374
:1038200054015A98539A559A5D98A3E5B1E01196C0
:1038300098E08E91983018F4392F992702C038E01B
:103840009850881F5B9808F45B9A000000005D9A0E
:10385000000000005D98000000003A9591F7992360
:1038600041F7539A559A5D98A4E5B1E0119698E016
:103870008E91983018F4392F992702C038E098506B
:10388000881F5B9808F45B9A000000005D9A0000B6
:1038900000005D98000000003A9591F7992341F7E8
:1038A0005A9A8FE08093530180E0809354015A9894
:1038B000539A559A5D98A3E5B1E0119698E08E91E0
:1038C000983018F4392F992702C038E09850881F93
:1038D0005B9808F45B9A000000005D9A000000000D
:1038E0005D98000000003A9591F7992341F7539AAB
:1038F000559A5D98A4E5B1E0119698E08E919830C4
:1039000018F4392F992702C038E09850881F5B9827
:1039100008F45B9A000000005D9A000000005D98CA
:10392000000000003A9591F7992341F75A9A8CE0EC
:103930008093530181E0809354015A98539A559A89
:103940005D98A3E5B1E0119698E08E91983018F457
:10395000392F992702C038E09850881F5B9808F4E7
:103960005B9A000000005D9A000000005D98000076
:1039700000003A9591F7992341F7539A559A5D982B
:10398000A4E5B1E0119698E08E91983018F4392FA3
:10399000992702C038E09850881F5B9808F45B9A1A
:1039A000000000005D9A000000005D98000000002B
:1039B0003A9591F7992341F75A9A08958EE18093A9
:1039C0004A0187E1809349018BE1809348010E947D
:1039D000B01A08958FE180934A0180E080934901F5
:1039E00084E1809348018DE1809347010E94B01AE1
:1039F00008958CE180934A0184E18093490181E23A
:103A00008093480185E1809347010E94B01A089590
:103A100081E00E94DA2C82E00E94DA2C81E00E9490
:103A2000DA2C0E94F91C81E0AC81BD818C93AC81C1
:103A3000BD810C91043618F011F00C944C1DEC81F2
:103A4000FD81A190BB24E0E5F0E0AA0CBB1CEA0DCF
:103A5000FB1DAA81BB810E94CC2DAA81BB8111963E
:103A60008C91A881B9818C9331E0A881B9810E94A1
:103A7000A41EAA81BB818C91A881B9818C9331E06D
:103A8000A881B9810E94A41EAC81BD818C918F5FF9
:103A90008C9310F40C94171D84E0481A80E0580AA7
:103AA0002696089581E00E94DA2C82E00E94DA2CAA
:103AB00081E00E94DA2C0E94EA1C81E0AC81BD8189
:103AC0008C93AC81BD810C91043618F011F00C94EC
:103AD000B31DA0ECB0E00C9107FB16F00C94691D2F
:103AE000A881B9818091C6008C93A881B9810D917C
:103AF000112740E051E00E94E72CAA81BB810D9381
:103B00001C93A0ECB0E00C9107FB16F00C94811D07
:103B1000A881B9818091C6008C93AA81BB810D9147
:103B20001C91A881B9814D915527040F151FAA81B9
:103B3000BB810D931C93AA81BB818D919C91AC811B
:103B4000BD81AD90BB24A6EEB1E0AA0CBB1CAA0DB2
:103B5000BB1D8D939C93AC81BD818C918F5F8C93A9
:103B600010F40C94611D81E0AC81BD818C93AC811B
:103B7000BD810C91043618F011F00C94DE1DEC811F
:103B8000FD81A190BB24E0E5F0E0AA0CBB1CEA0D8E
:103B9000FB1DAC81BD81AD90BB24A6EEB1E0AA0CAB
:103BA000BB1CAA0DBB1D7BE70E94BB2DAC81BD8158
:103BB0008C918F5F8C9310F40C94B71DEEE9FCE5AB
:103BC0000E949D1E0E94A91E84E0481A80E0580AA7
:103BD0002696089581E00E94DA2CF8940E945419E8
:103BE000A881B9818091C6008C93A881B9810C917C
:103BF0000A3A11F00C94211EE6E9FCE50E949D1E94
:103C00000E94A91E0E94DE1CA0ECB0E00C9107FBF4
:103C100016F00C94041EA881B9818091C6008C9383
:103C2000A881B9810C91033511F00C941B1E0E94E0
:103C3000521D0C94211E023511F00C94211E0E947D
:103C4000081D0E94B3190E94B01A789481E0481AA6
:103C500080E0580A229608958C9181508C930895A3
:103C60000D911D912D913C910F5F1F4F2F4F3F4F95
:103C70003C932E931E930E930895ED91FC91EF5F6C
:103C8000FF4FFC93EE93089515E000E00093670169
:103C900010936801089540916701509168010DEFFC
:103CA00013E40E94E72C0D53114600936701109313
:103CB00068015991499127D0089509D00E94E72CB5
:103CC00000FC10D0089503D01ED001F8F9CF0024D5
:103CD000E89457FF02C009D0689400F80BD010F8A0
:103CE0000124089502D009D00895509540954F5F62
:103CF0005F4F0895E89417FF0895009510950F5FA2
:103D00001F4F68940895352F242FE894452B11F404
:103D100068940895512F402F0027112780E1440F08
:103D2000551F001F111F021B130B416018F4020FD7
:103D3000131F4E7F8A9599F708950E94FF2C802DBE
:103D400011F00AD0FACF08958D9106D03A95E1F797
:103D500008958DE001D08AE00090C00005FEFCCF00
:103D60008093C600089500FC05D0089530D005D09A
:103D700001F8F9CF37D03FD00895842F952FA62F83
:103D8000B72FE894452B462B472B11F468940895E0
:103D9000402F512F622F732F0027112722273327FF
:103DA000F0E2440F551F661F771F001F111F221FCF
:103DB000331F081B190B2A0B3B0B416028F4080F1B
:103DC000191F2A1F3B1F4E7FFA9559F708950024AB
:103DD000E89477FF02C006D0689400F809D010F884
:103DE0000124089512D04F5F5F4F6F4F7F4F0895AA
:103DF000E89437FF089500951095209530950F5F52
:103E00001F4F2F4F3F4F68940895409550956095F0
:103E1000709508953197F1F70895689462F80895C0
:103E2000E89462F80895EF93FF93EE27E82BE92BCF
:103E300031F0EAEFF0E03197F1F70197D1F7FF9118
:103E4000EF9108954E414E00496E66696E6974792E
:103E50000000302E30008A930E946A2AFD019BD513
:103E6000888187F98883FA93EA93EAECFAE40E945E
:103E7000242AA8F188E2ABD0FA93EA93AA85BB85FD
:103E8000EAE8FDE494E003D6AA85BB85EC85FD85D0
:103E90000E943B27AA85BB85FD010E942D28ACE02E
:103EA000BB27EA85FB850E94E12B9C2D97708E85B0
:103EB000890F8E87969520F4AA85BB850E94862857
:103EC000A885B9850FD0AE81BF810CD0AC81BD81F2
:103ED00009D0EC85FD855FD52A960E94C82C8A8181
:103EE00023960895EA81FB81E883F983EA85FB85BF
:103EF0000E943B27AA81BB81EC85FD85E883F9837D
:103F00000C94EB26BA93AA930E94FF2C0A920E946B
:103F1000FF2C0A92FA93EA93BA93AA9307FC09C07A
:103F2000EC85FD85E883F983E885F985DF010E944A
:103F30003B278C8180FD3CC0AE81BF81EA81FB8143
:103F40000E944B2AEA83FB838D818A958D83AE8103
:103F5000BF81A883B983AC85BD85E881F9810E94C2
:103F60003B27EA81FB81AA85BB850E944B2AEA8315
:103F7000FB83E881F9810E9400278D818A958D83DA
:103F800051F78C8181FD1DD08C8182FD1AD08C81EE
:103F900083FF03C0A885B98516D08C8184FF06C035
:103FA000A885B985E881F9810E940027289608959F
:103FB000AE81BF81A883B983EC85FD850E946A2A02
:103FC000D0CFAC85BD85E881F9810C943B278F93D8
:103FD0000E94BB2C8F91885021F01896BA93AA9317
:103FE000FACF08950E94EC2782E003C00E94EC27DC
:103FF00080E48F930CE050D58F9109F008958F9352
:10400000B7D48F9108F032C58A93BA93AA9323DF6D
:1040100082FB839582F98A8388E1D9DFDF01EE8113
:10402000FF81FA93EA938A85A6D481FD06C008F43D
:1040300034C0ECE1FBE4EBD418C0B0F1EAEEFAE4F2
:10404000E6D4EC81FD81B8D482F0AAD4AE81BF81E0
:10405000A883B9830E940027A885B985BCD4A88508
:10406000B985EE81FF810E940027EE81FF810E94C9
:10407000722A8A8531FD06C082FB97D486FF02C072
:1040800087FD84D4EE81FF81A885B9850E946A2AC4
:1040900026960E94C82C23960895E885F985AE815E
:1040A000BF810E946A2AE1CFAE81BF8194D4DDCF67
:1040B0000E94EC270EE0F0D409F0089559D408F0DE
:1040C000D5C4882737FB86F98A93BA93AA93C3DEAF
:1040D00081FB839582F98A8380E279DFA885B9859F
:1040E000BA93AA93DF01EA85FB8545D478F0EEEA1E
:1040F000FCE4A2D4E8ECFCE491D4ACD4EA85FB85E2
:10410000E883F983A885B9850E9400278C8581FF03
:104110000BC0A885B9855FD4AA85BB85A883B98360
:10412000E885F9850E94A727EA85FB858C8582FBB7
:104130003CD487FD2BD428960E94C82C2396089542
:104140000E94EC2706E0A8D409F0089514D408F4DE
:10415000089521D487F98A93BA93AA9350D440F052
:1041600019F02396FD017EC4A881B9813CD422C0F8
:1041700080E22DDFE885F985FA93EA931FE304EEE8
:10418000FDD3E8F4EEE4FBE457D4E0E8FBE446D4E6
:1041900061D4E885F985AA85BB850E943B27EA851D
:1041A000FB85E883F983A885B9850E9400272896B6
:1041B0000E94C82CE991F991899187FBF6C3AA81E5
:1041C000BB8109D4AC81BD81A883B983EA81FB811D
:1041D000AA85BB850E94EB26EAEAFBE42DD4E4ED38
:1041E000FBE41CD437D4EC81FD81EED3DF0113D185
:1041F000AA81BB8100D4AE81BF81A883B983AC8181
:10420000BD81EA81FB810E94EB26EC81FD81E88380
:10421000F983A885B9850E943B27A885B985E6EF73
:10422000FBE40E944B2AA885B985E881F9810E94A8
:10423000EB26EE81FF81E883F983AC81BD810E948A
:10424000EB26EA85FB85E883F983EE81FF81AA816D
:10425000BB810E940027ABCF0E94EC270CE01CD44E
:1042600009F00895A6D387F98A93BA93AA93C7D37E
:1042700078F019F02396FD01F5C38A81882322F096
:10428000E881F981F3D323C0A881B981B0D31FC0DD
:104290000E94BA2CAA93BA938E8187FD06C0EC8146
:1042A000FD811FE300EE6AD3A0F4EC81FD81DF0104
:1042B00049DFAA81BB8197D3AC81BD81A883B98333
:1042C000EA81FB810E94EB2622960E94C82C23964D
:1042D0000895EC81FD81E883F9836ED3AA81BB81C7
:1042E0007ED3EA81FB81AC81BD810E94EB26EC810B
:1042F000FD81DF0190D0EC81FD81DF0123DFEC81C6
:10430000FD8162D3E1CF0E94EC2706E0C5D309F01E
:10431000089531D308F408953ED3882787F98A9306
:10432000BA93AA9380E253DEE885F985FA93EA937B
:104330001FE305EE23D380E048F110E403E0AC81F5
:10434000BD811CD3C8F447D3E885F985E883F98398
:10435000EA85FB850E940027EA85FB85E883F983CF
:10436000AC81BD810E94EB26EA85FB85A885B985D5
:104370000E94A72781E00AC02ED3FD0107D3AA859A
:10438000BB85A883B9830E94A72782E09C85982BD0
:104390009C87EEEFFBE450D3E8E2FCE43FD35AD332
:1043A000E885F985AA85BB85A883B9830E94002783
:1043B0008C858F7719F1AE81BF81E6EFFBE40E9417
:1043C0004B2A8C8580FF06C0EE81FF81F5D2EAEC96
:1043D000FAE404C081FF02C0E2EDFAE4AA81BB81E5
:1043E0000E944B2AE881F981AE81BF810E9400279B
:1043F000E881F981AA81BB810E9400278C8587FF13
:1044000003C0EA85FB85C2D228960E94C82C239659
:1044100008950E94EC2707E13FD309F00895BA936D
:10442000AA930E94972A80E1D2DDFA93EA93415041
:104430005C4F40FB569547950695F79403F98F2DF1
:10444000902F93FF04C0809590958F5F9F4F9F7032
:104450002ED02DD0006166270E94FC2AEC81FD81C0
:104460000E94522A83E08F93AA81BB81A883B983DB
:10447000EE81FF81AC81BD810E94A727AC81BD8107
:10448000A883B983EA81FB810E940027EC81FD812A
:1044900093D28F918A9539F7EC81FD81AE81BF81EE
:1044A0000E946A2A24960E94C82C2296089533E01E
:1044B000969587953A95E1F7F81A090B08950E94A9
:1044C000EC2704E0E9D209F0089531FDDBC230FFAA
:1044D00003C037FF0895CAC2BA93AA9388E277DD72
:1044E000AA85BB85BA93AA93EEE9FCE40E94242A2C
:1044F00020F0EC85FD85C0D26DC018970E94242A5B
:1045000020F4EC85FD85B2D265C0AA85BB85EAEDB5
:10451000FAE40E944B2AA883B983EC85FD850E94AA
:104520003B27AA85BB85FD010E946628A885B98521
:10453000EEE8FCE492E0ABD2A885B98550D0AE811C
:10454000BF814DD0E2E5FCE47ED2ECE6FCE46DD226
:10455000EE81FF81E883F983A885B9850E94EB2667
:10456000EC85FD85E883F983E885F985AE81BF8117
:104570000E94A727EC85FD8527D2A885B985E4E3AD
:10458000F9E50E944B2AEC85FD850E940027EA850B
:10459000FB850E94722A31FD1DC0F580068111271E
:1045A0000F7000618F5F9340A8F031F0FF0C001F87
:1045B000111F81509040D1F7007FEC85FD858681E9
:1045C000978137FD03C0800F911F02C0801B910BA4
:1045D000868397832A960E94C82C22960895EC81A0
:1045E000FD81E883F983EA85FB850E943B27AC8146
:1045F000BD81EC85FD85E883F9830C94EB260E9450
:10460000EC2705E149D209F0089531FD33C28A93C0
:10461000BA93AA93AC0186818F70806E86838FE3F4
:10462000878388E2D4DCFA93EA934E5F53403327C2
:10463000CA01992322F4809590958F5F9F4F8350F4
:104640009040331FAC85BD85E2EEFAE40E94242A37
:10465000331F3E87832F8170480B504069F03068CC
:104660003E87C42ED52EEE24D7FCE0940000FE2C0D
:10467000EE81FF810E94B82B8E8581FD3BC0AC810D
:10468000BD81ADD1EA85FB85E883F983AC81FD81ED
:10469000EC85FD850E94EB26EA85FB858E85869557
:1046A00040F0AC81BD81EA85FB850E94EB26EC855C
:1046B000FD85A885B9850E946A2AFD017DD1A8855E
:1046C000B985A883B983AC81BD810E940027EC85A0
:1046D000FD85E883F983EA85FB85A885B9850E9475
:1046E000A727AA85BB85EAEEFCE40CDCE4E0FDE448
:1046F000AAD139C0AC81BD816ED18E8580FF09C041
:10470000EC85FD85AA85BB850E946A2AEA85FB8522
:104710005BD1EC85FD85E883F983AC81BD818E8515
:1047200080FF02C0EA85FB850E94EB26EC85FD85B3
:10473000AC81BD810E946A2AAA85BB85EEE1FDE4B9
:10474000E1DBE0E5FDE47FD1EC81FD81E883F983E5
:10475000DF010E943B27EA85FB85E883F983AC8172
:10476000BD810E943B27EA85FB85E883F983A88504
:10477000BF810E94A7278E8581FF07C0EC81FD8144
:104780001BD1A885B9850E946A2A8E8587FF16C02D
:10479000EAE7FDE4AC81BD8192E079D1AC81BD81D5
:1047A000A883B983EE81FF810E943B27EA85FB85C0
:1047B000E883F983AC81BD810E94EB268E8581FF61
:1047C00008C0EA85FB85E883F983A885F9850E94FE
:1047D000EB26EC85FD85E883F983AA85BB850E94DD
:1047E00000278E8587FF10C0EA81FB81E883F9836B
:1047F000AE81BF810E943B27EC85FD85E883F9836C
:10480000AA81BB810E9400272A960E94C82C239669
:104810000895A881B981EA81FB81249602D024976A
:104820000895FA93EA93BA93AA930E94722A3F9347
:10483000E881F9810E94722A9F91892F832B8770CA
:1048400079F0EC81FD8182FD5BC080FD59C0892F2C
:10485000832381FD55C031FD59C037FD54C05BC075
:10486000A881B981E4E3F9E50E94242A09F456C03D
:10487000AA81BB81E4E3F9E50E94242A09F446C039
:104880000E94BA2CEA81FB810E946A2AEC81FD8198
:10489000AE81BF810E946A2AEE81FF817CD0AEF496
:1048A000E881F981DF010E942D28E881F981AA8140
:1048B000BB810E942F2A29F0EE81FF810E943225C0
:1048C0001BC0E881F9810E949524882787F98F937E
:1048D000EE81FF81DF0195DEA881B981EE81FF8144
:1048E0000E943B27E881F981AE81BF81EADD8F918B
:1048F000EE81FF8187FB59D00E94C82C2496089531
:104900000E943225FBCF0E943C25F8CFEC81FD812F
:104910000E944225F3CF0E943625F0CFAC81BD81A5
:10492000EA81FB810E946A2AE9CF0E94722AAC01C7
:1049300099273F77D1F44F5F5340C2F05523A9F434
:104940004533A0F441954C5C9927483018F03196D6
:104950004850FBCF71E08081442319F0770F4A95CE
:10496000FBCFE894782309F068940895E8940895BB
:104970000FEC11E403C006E41EE300C036813017DB
:1049800037810FB63F770FBE31070895178130E8A2
:10499000132717830895178117FB1F77178308952F
:1049A000178117FB106817830895178117F917836C
:1049B0000895178117FB0895068117810051104053
:1049C00010F006831783089506811781005F1F4F3B
:1049D000068317830895E4E3F9E50C944B2AECE38E
:1049E000F9E50C944B2AE2EDFAE40C944B2AE2EC44
:1049F000FAE40C944B2AEAECFAE40C944B2AE4E334
:104A0000F9E50E94242A8FB718978FBF0895A885CB
:104A1000B985A883B983AE81BF8174CAAA85BB85D5
:104A2000A883B983AE81BF816DCAAC85BD85A883DB
:104A3000B983AE81BF8166CAAA85BB85A883B983C5
:104A4000A885B9855FCAAC85BD85A883B983A885CB
:104A5000B98558CAE885F985E883F983AE81BF81B5
:104A60000C94A7270E945E2B0C94522A0E944F2B75
:104A70000C94522A689401C0E8940E94562B17F9AE
:104A80000C94522A0E945A2B0C94522A18960E9477
:104A90004B2A9A95D9F708950E946A2AFD010E942F
:104AA000722A04FF02C037FD09C003FF02C030FDB7
:104AB00005C00770032319F4AC010895D3DF98945F
:104AC0000895182D4454FB210940182D4454FB210E
:104AD000E93F182D4454FB21F93FFE822B65471511
:104AE000F73FCD3B7F669EA0E63F0606D43888BEE2
:104AF000E9FAA8BDC4B1B4BD9EEE213EAD529C8082
:104B00004F7E92BE9015CB19A001FA3E7751C11687
:104B10006CC156BF4C5555555555A53F061A7CD509
:104B2000CF5A3AD9E53DEB9C2B8AE6E55ABE7DFE8D
:104B3000B157E31DC73ED561C119A0012ABFA6F830
:104B400010111111813F495555555555C5BF0602E4
:104B5000D38AD40B9B6B713F165C3E334143E3BF5A
:104B6000D92D8A174BC715407B9027DE314330C0C3
:104B7000599277DA07903340D5AFCE066C6520C0E6
:104B80000581AB0E5E0B597B2DC05490FE25C09F56
:104B90005140D776356DBB6562C09DBFFF845670AE
:104BA0006140AC07360A229848C00582089F8E985B
:104BB000C34F683F0F29F9599207E2BF6A3EF3BA23
:104BC000F5DF1B4068AB01ACAA9139C01D08F3406A
:104BD00062893C4004818C5DBFB6A2F235C0427F41
:104BE0006AAF19626240EE63909508FE77C0BE44DA
:104BF000B6B009677540075C143326A6913C050AD8
:104C00009425F7A17F00ECBF7A806B5B542830C0FD
:104C1000730288368CC052C025BA052DBFB85EC05D
:104C20008EEC28FD693650C005813C60145BC4DB06
:104C3000384025FAB843DDA064403BBEE2D2180EEE
:104C40007B40EA49B0133F567E40EC62BDFB9E516B
:104C500068400308E84BE4D5CD89203F7E2CCA0C80
:104C6000D1069F3F000000000000F03F0480A05FDD
:104C700036BCB62EC93EC0B608B539AE643F74E046
:104C800087980917CD3F0000000000000040000099
:104C90000000402EE63FCAAB79CFD1F7B73EEF39DF
:104CA000FAFE422E8640D2BC7ADD2B2386C0030A50
:104CB000383F4FD2D892C9C0DD9DFCA5EC99314157
:104CC000769129D3EA1F71C104817265B3EEA5B84C
:104CD000CA4096BC2A58BC2734C1EFD8EAC28FD943
:104CE0007741315ABE3CE0AF89C1030A840E6CDCC7
:104CF0003D44E9BF6B7B0273FC623040202A2211E5
:104D0000060950C003810A6DEC430DD641C00EE484
:104D10002A11808173403B3FB319890D88C00682F8
:104D2000B01BC393C2B41A3FF252563FF5D6DF3FD1
:104D3000116992EDBAD212402EEB3EC672FF2C40A2
:104D40004DC84B92D6EF3140F8DC7E7D63D51E40D6
:104D500005818EEF97AE2093264033C0194E2C9DCF
:104D60004640BDBD26A333BF544021AE5EEBE2C931
:104D70005140B2251F9E0A203740A80C615C10D01C
:104D80002B3F000000000030E63F83C8C96D305F54
:104D9000F43F00000040FB21E93F000000002D44EB
:104DA000643E7051CC989846E83C882766817781AC
:104DB00077FB87F97F776050704011F4826007C0FD
:104DC000605F7F4722F011F4816001C08460089524
:104DD00060D404D079C30F0101D079C3FD01FF93E2
:104DE000EF9387818F9390E889278783F0010BD019
:104DF0008F91EF91FF91878308954BD404D064C3C2
:104E00000F0101D064C300E05FD409F008959A0156
:104E1000281B390B1AF4D0010F01F5CF00272733D7
:104E2000300708F084C4822F82D396D3A4D3372FBF
:104E300036270AF4C8D3F0018081A80E8181B81EFC
:104E40008281C81E8381D81E8481E81E8581F81E58
:104E500086818F708061081F1AF4B5D380E86827B7
:104E600005FF02C081E085D304FD01C0E8D39DC3E6
:104E700010D404D029C30F0101D029C308E124D4E0
:104E800009F00895480F591F4F5F534067276F93EC
:104E90005F934F9304D42227F00154D393E0110F72
:104EA000331F441F551F661F771F881F9A95B9F738
:104EB000FD01A7E0BB279191A13011F49F70906193
:104EC000992301F1939FA00CB11CBB1F959FB69530
:104ED000C01CD11CBB1F979FB695E01CF11C0B1F7B
:104EE000919F200DA11CBB1F949FB695B01CC11CA7
:104EF000BB1F969FB695D01CE11CBB1F989FB69513
:104F0000F01C011DAA9549F02A2DAB2CBC2CCD2CF0
:104F1000DE2CEF2CF02E0027CECF4F915F916F91BA
:104F200004FB16F039D302C04F5F5F4F3EC3FF93BF
:104F300009901124F8E0069408F4190E17940794C8
:104F4000FA95D1F7FF910895A4D304D0BDC20F0103
:104F500001D0BDC204E2B8D309F00895481B590B33
:104F600041505C4F67276F935F934F93F001DFD2FF
:104F70002FEFFD01E7D2ADE3BA2FB77019F42095FA
:104F80002F932FEFA116B306C406D506E606F70643
:104F9000080738F0A11AB30AC40AD50AE60AF70AC4
:104FA000080B221FAA0CBB1CCC1CDD1CEE1CFF1C1A
:104FB000001FAA9509F72095AF90BF90CF90DF9082
:104FC000EF90FF900F914F915F916F9104FB1EF056
:104FD000E3D241505040E9C2E881F981AA81BB8106
:104FE0000895FADF68D21F77FD015CC2F5DF02D0B9
:104FF000FD0158C277D29BD2AC01632F61FD4FC334
:1050000060FD4DC362FD5AC34E5F534022F119F15A
:105010005523A9F7463398F7483048F00F2DFE2C5A
:10502000ED2CDC2CCB2CBA2CAA244850A8F741300C
:1050300048F0AA0CBB1CCC1CDD1CEE1CFF1C001F86
:105040004150A9F7702F707E0F714EEF53E0F7D2E9
:1050500014D3A9F2D1C22FC2BFDF3CD2FD0142D28C
:10506000AC0199273F7711F54F5F53401AF417D3DE
:105070009FEF18C25523D1F44533C0F441954C5CE1
:105080009927483030F08081982B882781934850A9
:10509000F8CF7FEF8081442319F0770F4A95FBCF3B
:1050A000672F60956823962B87238083089594DF6C
:1050B000878187FFD2CFBF93AF93CFDFEF91FF916F
:1050C000992311F0DF0128C0089586DF03D2FD0186
:1050D00009D2AC013F77C9F48E5F934012F4DFD25E
:1050E000E1C1992391F4863380F487818F938F7780
:1050F0008783FF93EF930DD0EF91FF9187819F916D
:105100009078892B8783DF01A8CF0895E4E3F9E540
:1051100006C0ECE3F9E503C0E4E3F9E50EC05D0188
:10512000FF93EF930E94BA2CEF91FF91B4D1F50158
:10513000FA93EA9365DE22962BC45D01FF93EF9309
:105140000E94BA2CEF91FF91A6D1F501FA93EA9350
:1051500042DE22961DC4BA93AA93FA93EA93882753
:105160008A930A93229702D028960895BBD18C0186
:105170003323E9F0AE81BF8137FF02C08DE28D930A
:1051800031FF05C080E38D9388278D93089530FF0C
:1051900005C0E8E4FEE30E94F12CF6CF32FF05C023
:1051A000E4E4FEE30E94F12CEFCFAE83BF8380E105
:1051B0000E94BB2C2497AA83BB833896E883F9838B
:1051C000EA85FB8587D1EC81FD8187818F77878395
:1051D0002FEF33E00217130738F5E6EFF8E587E025
:1051E00099279B878A87AC81BD812ED19B8501F44D
:1051F000991F9B8790FF0BC0B097B097A881B9818A
:105200004AD1F896EE83FF8333DEEE81FF818A85F3
:105210008A9541F7A881B981B097B0973CD128DE33
:105220009B85939591951DC0EEEBF8E587E09FEF88
:105230009B878A87AC81BD8107D19B85991F9B87FE
:1052400090FD0AC0F096A881B98125D1F897EE8328
:10525000FF830EDEEE81FF818A858A9551F79B855B
:1052600090959B878C859D858A839B83EC81FD81AE
:1052700039D1AC015CD111274D5F5340483048F023
:10528000102F0F2DFE2CED2CDC2CCB2CBA2CAA24AD
:105290004850442351F0AA0CBB1CCC1CDD1CEE1C56
:1052A000FF1C001F111F4A95F4CFAC85BD851196D8
:1052B000AC87BD87AA83BB83AFE8AF8330E8EEE25B
:1052C000F8E53E83B3D1BFEFA4E0A216B306C4064F
:1052D000D506E606F7060807190740F0A21AB30A32
:1052E000C40AD50AE60AF70A080B190BBB1F9695E4
:1052F000879577956795579547953795279548F4FE
:105300000024201D301D401D501D601D701D801D7E
:10531000901DAA95D1F6B0952B2F20633E814F8129
:1053200033231AF4203309F060D0AC85BD852D936A
:10533000AC87BD8733954317B0F430D015D08B853B
:10534000882371F095E49D931AF481959DE29D93D5
:10535000982F880F890F9927991F8A879B8754D088
:1053600024960C94C82CADCFAA81BB81FD01119766
:1053700093E081919A9511F08033D9F3939501C010
:1053800081918D939A95E1F78081882309F08EE2CF
:105390008D9388238191E1F711970895988599233A
:1053A00009F090E3882732508E93253350F49923E7
:1053B000D9F432508E918033B9F49C933A95D1F759
:1053C00008958E9183958A3311F08C9308959C9360
:1053D0003A95323009F490E33F3F99F781E3129612
:1053E0008C938B8583958B8708953F7748854423DD
:1053F00011F04F3008F04EE04D5F532F515F4517CD
:1054000008F0452F4F830895EEE2F9E5689423E014
:1054100004E01FEF659175918617970710F0861BC2
:10542000970B111F769567950A95B1F710951EF4A5
:10543000112319F0E89410631D932A9549F7112759
:105440001C930895A881B981661778E06FB78D9194
:1054500095917A9599F06FBF89076FB7F8CFE8817A
:10546000F981AA81BB81661778E06FB78D91919120
:105470007A9521F06FBF89076FB7F8CF70E887275B
:1054800097276FBF890731F06FB7892B12F071E052
:1054900067276FBF089588E005900D928A95E1F720
:1054A00018970895A082B182C282D382E482F582E5
:1054B000068317830895A080B180C280D380E480E2
:1054C000F580068117810895EC81FD81EBCFE8819D
:1054D000F981E8CF88E091919D938A95E1F718973B
:1054E0003897089586819781332797FB37F98894F9
:1054F0009F7721F4882311F4326008952FEE281746
:105500002FE7290740F42FE02823089411F4316095
:10551000089534600895807F969587959695879530
:105520009695879596958795989488940895A080E8
:10553000B180C280D380E480F58006810F70006165
:1055400022270895108131814281538164817581C0
:1055500086818F7080610895883050F02A2DAB2CA1
:10556000BC2CCD2CDE2CEF2CF02E00278850F4CF55
:105570000895689401C0E894882369F00595F7942C
:10558000E794D794C794B794A794279516F44F5FE0
:105590005F4F8A95F1CF0895220FAA1CBB1CCC1C2B
:1055A000DD1CEE1CFF1C001F089501D025C0203813
:1055B00048F011F4A0FE06C0089412D005FF08952B
:1055C00081E0D7CF08952095A094B094C094D09452
:1055D000E094F09400950F9200240894201D0F9001
:1055E00050F40F920024A01CB01CC01CD01CE01C66
:1055F000F01C001D0F9008955523B2F0352F342B69
:1056000099F03FEF431737E0530778F4440F551FE5
:10561000440F551F440F551F440F551F0F7E042B79
:10562000152F67FB17F908953AC040C025913591B1
:10563000459155916591759185919591089587E072
:105640003F2D303230E0030778F40F2DFE2CED2C87
:10565000DC2CCB2CBA2CA22E2227485050408A9505
:1056600079F7442755271BC088E004FD05C094DF67
:10567000415050408A95C9F708950F9200240A2896
:105680000B280C280D280E280F28002A00200F9028
:105690000895EA81FB81A881B9810F010895AA24A8
:1056A000BB2465017501850198940895F8DF00EF2A
:1056B0001FE70895F4DF00EF1FE308958FEFA82E92
:1056C000B82EEFDF1F7708950DDF632FAC01FD01CA
:1056D00009DF732F00C0372F362B3F7709F4089569
:1056E00032FDECCF262F2727372F60FB32F961FBE5
:1056F00033F93F70E4E4F9E5002311F427FD3C960B
:10570000030FE00F0027F01F849187FDD7CF86FDA0
:10571000CDDF85FDC4DF84FD0AD083FD0AD082FD84
:105720000AD081FD0BD080FD0BD098940895F00134
:10573000C2CEFD01C0CE67FB17F9089577FBFCCF01
:1057400027FBFACFCD90DD2402C0CD90DD90EE2472
:10575000FF24D7FA6EF48FEFE82EF82E09C0CD9013
:10576000DD90EE24FF2417C0CD90DD90ED90FD90EC
:10577000AA24BB240027112722276627FF2012F422
:1057800015D0606843E254E05ADF36DF8BCECD900F
:10579000DD90ED90FD90AA24BB240027112722273D
:1057A000662743E254E04BDF27DF7CCEC094D094E1
:1057B000E094F09481E0C80E8827D81EE81EF81EF9
:1057C000089590DE31FD19C032FD17C030FD2AC0AA
:1057D0008E5F934092F0992329F5803238F4A7DE4A
:1057E00081958B5DB9DEE894C6DE0CC0CC24C094F4
:1057F000DC2CEC2CFC2CF69412C0CC24DD24EE2402
:10580000FF2410C080E8B81650F031F4BA28B22A4C
:10581000B81611F4C0FC03C0CDDFF7FCE7CF37FFAB
:1058200001C0C4DFCD92DD92ED92FD92089500009B
:105830000000000000C8000000000000001400008C
:1058400000000000000233333333333333001F854D
:10585000EB51B81E0500508D976E12830000228E0A
:1058600075711B0D0000378E588B4F0100006C4185
:10587000EF8D210000005853FE5A03000000893BC1
:10588000E65500000000F405970800000000FFE660
:10589000DB000000000080FD150000000000F33276
:1058A0000200000000004C38000000000000A105CC
:1058B0000000000000009000000000000000EB2449
:1058C000A7F11E0ECC6763B3D86275F6DD5373C8BB
:1058D000A1A031E5E549B49DD9794378EA440000B7
:1058E00000A2941A6D420000000080842E41000046
:1058F000000000408F407A84EA6EF03F1218AAAE92
:10590000FF5E8016012CD82F768A4F62F735A78E5E
:10591000A899C257F33A11EA2D819997713D8DEDFF
:10592000B5A0F7C6B03EFCA9F1D24D62503F2003AE
:1059300050000800000000000000F03F00000000E0
:105940000000E03F000810001010100008082000C0
:1059500000081000108010000808200000412000FE
:10596000414180002080200000204400418044000C
:105970002020800088E00FB6F8945A924A92E42DD5
:10598000F52DA42DB52D480E8827581E0FBE08955D
:105990000FB6F894499059900FBE08950191119156
:1059A000219130810895481A590A0895481A882784
:1059B000580A089599275A924A92480E591E0895F6
:1059C000AA0CBB1CAA0CBB1CAA0CBB1C08950F92F2
:1059D000B801469F8001479F100D569F100D0F90F4
:1059E00008950E94FF2C0D920020D9F70895903061
:1059F00029F08C91880F9A95E9F78C930895C895B2
:105A0000319600200895040F151F261F371F089593
:105A100004171507260737070895000F111F221FC7
:105A2000331F089500951095209530950F5F1F4FF7
:105A30002F4F3F4F0895019110810FC00E94CE2C2F
:105A40000EC00E94CE2C10C00191108117FF05C01E
:105A50003FEF2FEF04C0008111272227332737FFA4
:105A600003C0E0DF8DE28D93CF92DF92EF92AA2404
:105A7000BB24CC24DD24EE2440E2EAE0FF2755E0FD
:105A800093E38081890F87FD9F7083FD907F891B41
:105A900081935A95A9F7C1DFAA1CBB1CCC1CDD1C45
:105AA000EE1C4A9551F7E894EFE0FF2782910CD065
:105AB000EB30E0F71EF068948A2D0AD088278D938A
:105AC000EF90DF90CF900895982F829501D0892F85
:105AD0008F70805D26F0803309F4089568948D936B
