:100000000C94340018950000189500001895000015
:10001000189500001895000018950000189500002C
:10002000189500001895000018950000189500001C
:10003000189500001895000018950000189500000C
:100040000C94050218950000189500001895000002
:1000500018950000189500001895000018950000EC
:1000600018950000189500008FEF8DBFCCE3E0E9F4
:100070004E2E88E08EBFD8E0F6E05F2EA89584B7BC
:10008000082E877F84BF88E1992780936000909332
:100090006000EEEFF7E0A0E0B1E088278D933197A4
:1000A000E9F78CE08093C40080E08093C50088E18C
:1000B0008093C10072E07093C0000E94891E662484
:1000C0007FE774B97FEF75B970E077B97FEF78B9E2
:1000D000539A559A529AABE0B1E0E6E8FCE50E94EB
:1000E000902AA3E1B1E0E6E8FCE50E94902AABE1AA
:1000F000B1E0E6E8FCE50E94902AA3E2B1E0E6E880
:10010000FCE50E94902AABE2B1E0E6E8FCE50E9443
:10011000902A80E08093570180E090E0A1E0B1E078
:100120008D939C93709100017F7D7093000170917D
:1001300000017F7E70930001709100017F777093C2
:100140000001709100017F7B70930001ADECB1E084
:10015000EEE8FCE50E94902AE0E5F0E0A0E1B0E0E6
:100160000E940F2E013081E009F480E08F93E0E5DA
:10017000F0E0A0E1B0E00E940F2E023081E009F42F
:1001800080E09F9189238F93E0E5F0E0A0E1B0E06B
:100190000E940F2E033081E009F480E09F918923B3
:1001A000882311F40C94DD00E0E5F0E0A0E1BB272A
:1001B00080E08C937BE70E94FE2DEAE1F1E0A0E174
:1001C000B0E00E940F2E013011F40C941301EAE10B
:1001D000F1E0A0E1BB2781E08C937BE70E94FE2D3C
:1001E00081E08093590100915901043618F011F013
:1001F0000C941301E9E5F1E0A190BB24E0E5F0E007
:10020000AA0CBB1CEA0DFB1D00E010E0A0E1BB271F
:100210007BE70E94002EA9E5B1E08C918F5F8C9363
:1002200010F40C94F30081E080935901009159017E
:100230000A3018F011F00C946901ABE0B1E0E9E587
:10024000F1E0A190BB24E8EFFFEF0E94252DEA0D1D
:10025000FB1D98E00E94122EEBE0F1E00E941A27AD
:10026000A5E6B1E08C930091650145E00423A6E684
:10027000B1E00C9300916601003018F011F00C947D
:1002800043010C944901ABE0B1E0E6E8FCE50E94D3
:10029000902AEBE0F1E0A9E5B1E0AD90BB24A3E644
:1002A000B1E00E94252DAA0DBB1D0E94AF2A80E05F
:1002B000A9E5B1E0AD90BB24AAEBB1E0AA0DBB1D4E
:1002C0008C93A9E5B1E08C918F5F8C9310F40C9422
:1002D0001601ABE0B1E0E6E8FCE50E94902AE1E51A
:1002E000F0E0A0E1B0E00E940F2E013011F40C9478
:1002F0008201E1E5F0E0A0E1BB2788E08C937BE799
:100300000E94FE2DE5ECF1E00E941A27A5E6B1E07F
:100310008C930091650145E00423A6E6B1E00C93BF
:1003200000916601003018F011F00C9499010C94C2
:10033000A801A5ECB1E0BA93AA93E6E9FCE5A3E035
:10034000B1E00E94902AEDECF1E00E94EC272296A9
:10035000A5ECB1E0E6E8FCE50E94692A11F00C94F6
:10036000C001A5ECB1E0BA93AA93E6E9FCE5A3E0ED
:10037000B1E00E94902AEDECF1E00E94EC27229679
:1003800080E08093D50181E08093E50180E0809357
:10039000E60170910001777F709300017091000178
:1003A0007B7F7093000180E08093E70185E085BD4D
:1003B00080E084BD77EE76BD70916E0071607093C1
:1003C0006E0078940E9404060E94CD050E942315B9
:1003D0000E947B1B0E94F51A88EE93E00E94581F32
:1003E0000E94670E0E94F51A88EE93E00E94581F43
:1003F000A0ECB0E00C9107FB16F00C9401020E94F7
:100400002F1E0C94F401F894FFCF0F921F922F929D
:100410003F924F925F927F92AF92BF920F931F9342
:100420002F933F934F935F936F937F938F939F93FC
:10043000AF93BF93CF93DF93EF93FF938FB78F93D8
:1004400081E00E941F2D81E00E941F2D81E00E940B
:100450001F2D82E00E941F2D81E00E941F2D81E050
:100460000E941F2D81E00E941F2D0091E60141E0B6
:10047000040FA881B9810C93AC85BD85BA93AA936A
:100480000E94E5172296A6E5B1E0BA93AA93AE853D
:10049000BF85BA93AA930E94C7162496A0E0B1E044
:1004A0008C9182FB16F00C94E6020091560100300C
:1004B00011F40C946602709100017B7F709300012F
:1004C0000E94670E0E94F51A0C94C70470910001F7
:1004D0007F7B70930001E881F981A190BB24E0E566
:1004E000F0E0AA0CBB1CEA0DFB1DAE81BF810E948F
:1004F000112EAE81BF8111968C91ACE5B1E08C9349
:10050000AE81BF818C91ABE5B1E08C938091E60127
:10051000AC81BD818C93AA85BB85BA93AA93ACE5C7
:10052000B1E0BA93AA930E94F5042496AA85BB85EC
:100530000C91013011F00C94A50280915C01809324
:1005400056010E944F060C94B502AA81BB81BA9352
:10055000AA930E9497072296AA81BB810C91003032
:1005600011F40C94B5020C94C7044091E601AC81DF
:10057000BD810C91041711F00C94C302A6EEB1E0FA
:100580008C918F5F8C930091E601033618F011F087
:100590000C94CC020C94DA028AE1D2018C9381E0B3
:1005A0000E941F2D0E940115229681E00E941B2DA2
:1005B0000C94C7040E94670E0E94F51A80E090E038
:1005C000A1E0B1E08D939C930C94990400915601A5
:1005D000003080E010F009F081E08F93A1E0B1E0FD
:1005E0000D911C91003B54E0150780E014F009F0D8
:1005F00081E09F918923882311F40C940C0380E0FF
:100600008093560180E090E0A1E0B1E08D939C934F
:100610000E94271A0C94C70400915601003011F073
:100620000C9414030C949B0400915601003811F0B3
:100630000C942B03A0E0B1E08C9185FB882780F916
:10064000809580FBA0E0B1E08C9185F98C930E94AD
:100650002B060E94F51A00915601003811F00C94F7
:1006600033030C94C704A0E0B1E08C9185FB81E0DA
:100670000EF080E08F9300915601003080E010F082
:1006800009F081E09F918923882311F40C9452038F
:10069000A6E5B1E08C91805C8C93709100017F7D28
:1006A00070930001AA85BB85BA93AA93A6E5B1E031
:1006B000BA93AA930E94F5042496AA85BB850C914F
:1006C000013011F00C94A00300915A01003011F098
:1006D0000C94710380E080935B010E944F060C94A0
:1006E000990300915601053011F40C949903ABE580
:1006F000B1E00C914AE0049F0C9200915B014091A3
:100700005601040FABE5B1E00C93ABE5B1E08C9181
:1007100080538C9380915A01815080935A010091AB
:100720005A01003011F00C94990380E0AA85BB8532
:100730008C93709100017F7B709300010C94EC030B
:1007400000915601073011F00C94AB037091000139
:1007500070647093000100915601013081E008F44B
:1007600080E08F9300915601043081E010F009F091
:1007700080E09F918923882311F40C94D203A0E098
:10078000B1E08C9186FB16F00C94D20301E140910C
:100790005601040FA6E5B1E00C93709100017F7B38
:1007A00070930001AAE5B1E0BA93AA93A6E5B1E07F
:1007B000BA93AA930E941F05249600915A01003013
:1007C00011F40C94E5030E942C1A80E080935B01E5
:1007D0008091560180935C0100915A01003011F420
:1007E0000C94F4030C94C704A885B985BA93AA9312
:1007F000A6E5B1E0BA93AA930E94A7052496A0E0CB
:10080000B1E08C9183FB81E00EF480E08F93A885AA
:10081000B9850C91013081E009F080E09F91892B2E
:10082000882311F40C942D04AA85BB850C9100300B
:1008300011F00C942B04AA81BB81BA93AA930E9455
:1008400097072296AA81BB810C91003011F40C9479
:100850002B040C94C7040C949104AA85BB850C91BD
:10086000003011F00C94590400915C010F3411F028
:100870000C943D0480E080935C01ACE5B1E00D9107
:10088000112740E051E00E942C2DAE81BF810D93D5
:100890001C93AE81BF810D911C91ABE5B1E04D91F0
:1008A0005527040F151FAE81BF810D931C930C9427
:1008B0006504A6E5B1E00D91112740E051E00E94EA
:1008C0002C2DAE81BF810D931C93E881F981A190FD
:1008D000BB24E0E5F0E0AA0CBB1CEA0DFB1DAE81D9
:1008E000BF817BE70E94002EF8940E94670E0E9451
:1008F000F51A8CEB92E00E94581FA6EEB1E08C91A5
:100900008F5F8C930091E601033618F011F00C9480
:100910008B040C948E0483E68093E60178940E9405
:10092000670E0E94F51A80E090E0A1E0B1E08D939F
:100930009C930C94C7040E94A61AA0E0B1E08C918D
:1009400085FB16F40C94C704A1E0B1E00D911C9155
:10095000003B54E0150711F00C94B0040E94C81934
:10096000A1E0B1E00E94821EA1E0B1E00D911C91D6
:10097000003B54E015071CF011F00C94C1040C94DA
:10098000C70481EB94E0A1E0B1E08D939C93A0E0DB
:10099000B1E08C9182FB16F00C94D2047DEF76BD11
:1009A0000C94D40477EE76BD88E0481A80E0580AAB
:1009B0002E968F918FBFFF91EF91DF91CF91BF91D5
:1009C000AF919F918F917F916F915F914F913F91E7
:1009D0002F911F910F91BF90AF907F905F904F909C
:1009E0003F902F901F900F90189580E0AA81BB81B7
:1009F0008C93A881B9810C910F3280E010F009F03E
:100A000081E08F93A881B9810C910A3381E008F0CD
:100A100080E09F918923882311F40C94130581E0D1
:100A2000AA81BB818C93A881B9810C91053011F00A
:100A30000C941E0581E0AA81BB818C93089580E00F
:100A4000AA81BB818C93A881B9810C91073011F0E8
:100A50000C94300581E0AA81BB818C930C94A6058F
:100A6000083011F00C943A0581E0AA81BB818C9387
:100A70000C94A605023111F00C94440581E0AA8182
:100A8000BB818C930C94A605033111F00C944E0598
:100A900081E0AA81BB818C930C94A605043111F0EE
:100AA0000C94580581E0AA81BB818C930C94A60517
:100AB000053111F00C94620581E0AA81BB818C9311
:100AC0000C94A6050A3011F00C946C0582E0AA8102
:100AD000BB818C930C94A6050B3011F00C94760519
:100AE00082E0AA81BB818C930C94A6050C3411F092
:100AF0000C94800582E0AA81BB818C930C94A6059E
:100B00000B3411F00C948A0582E0AA81BB818C938E
:100B10000C94A6050A3411F00C94940582E0AA8185
:100B2000BB818C930C94A605053411F00C949E05A2
:100B300081E0AA81BB818C930C94A605003711F04B
:100B40000C94A60581E0AA81BB818C93089580E076
:100B5000AA81BB818C93A881B9810C91073411F0D3
:100B60000C94B60581E0AA81BB818C93A881B981E0
:100B70000C91083411F00C94C10581E0AA81BB816D
:100B80008C93A881B9810C910E3411F00C94CC0592
:100B900081E0AA81BB818C93089581E00E941F2D82
:100BA00081E0A881B9818C93A881B9810C91003131
:100BB00018F011F00C94EE0580E0A881B981AD9099
:100BC000BB24A2E3B1E0AA0DBB1D8C93A881B9811F
:100BD0008C918F5F8C9310F40C94D40581E08093FA
:100BE000550180E08093580180E3A5E5B1E0AD9028
:100BF000BB24A2E3B1E0AA0DBB1D8C9381E0481A8F
:100C000080E0580A2296089581E00E941F2D81E01D
:100C1000A881B9818C93A881B9810C91083018F012
:100C200011F00C9425068DE0A881B981AD90BB240C
:100C3000A2E4B1E0AA0DBB1D8C93A881B9818C916F
:100C40008F5F8C9310F40C940B0681E0481A80E0BF
:100C5000580A22960895A0E0B1E08C9185FB16F029
:100C60000C944C060E9499190E9404068DE880930A
:100C70004A01A5ECB1E0EEE9FCE50E94692A11F019
:100C80000C9447068DE8809346010C944A068DE843
:100C9000809347010C944E060E94F819089581E054
:100CA0000E941F2D709100017068709300010091E7
:100CB0005501023081E009F080E08F93009133010B
:100CC000003081E009F080E09F9189238F930091AB
:100CD0005601053080E010F009F081E09F918923F2
:100CE000882311F40C94770681E0809355010091DC
:100CF0005501093010F00C94C806009156010530DA
:100D000011F00C94B60680915501D2018C9381E0CC
:100D10000E941F2D0E942007229681E00E941B2D19
:100D200000915501013011F00C94A00680E88093E9
:100D30003301A5E5B1E08C918F5F8C930C94B406E0
:100D4000A5E5B1E0AD90BB24A1E3B1E0AA0DBB1DC8
:100D50000C9140E8040FA5E5B1E0AD90BB24A1E300
:100D6000B1E0AA0DBB1D0C930C94C806009156016E
:100D700040E3041BA5E5B1E0AD90BB24A2E3B1E0E4
:100D8000AA0DBB1D0C93A5E5B1E08C918F5F8C93F0
:100D9000A0E0B1E08C9183FB16F40C94180781E07D
:100DA000A881B9818C9340915501A881B9810C919A
:100DB000041718F011F00C94F706A881B981AD90D2
:100DC000BB24A2E3B1E0AA0DBB1D8C91A881B9811F
:100DD000AD90BB24ABE4B1E0AA19BB098C93A88108
:100DE000B9818C918F5F8C9310F40C94D306809111
:100DF0005501A881B9818C93A881B9810C910830E3
:100E000018F011F00C9416078DE0A881B981AD900F
:100E1000BB24ABE4B1E0AA19BB098C93A881B981CA
:100E20008C918F5F8C9310F40C94FC060C941A0731
:100E30000E942C1A81E0481A80E0580A22960895F0
:100E400081E00E941F2D81E0A881B9818C93AA8145
:100E5000BB814C91A881B9810C91041718F011F055
:100E60000C945207A881B981AD90BB24A2E3B1E0F4
:100E7000AA0DBB1D0C91003810F40C944A07A881F0
:100E8000B981AD90BB24A2E3B1E0AA0DBB1D8C914A
:100E900080588C93A881B9818C918F5F8C9310F4CA
:100EA0000C94270781E0481A80E0580A229608959A
:100EB00088E00E941F2DEDE5F1E0ABE0B1E00E947B
:100EC000AF2AE0E5F0E0A0E1B0E00E940F2E033091
:100ED00011F00C949107EBE0F1E0A881B9810E9438
:100EE0003C28EBE0F1E0ABE0B1E00E949D28A88156
:100EF000B981BA93AA93E6EAFCE5A3E0B1E00E94C7
:100F0000902AEA81FB810E94EC272296ABE0B1E0B7
:100F1000BA93AA93AA81BB81EBE0F1E00E94452736
:100F2000229688E0481A80E0580A2296089581E0C7
:100F30000E941F2D81E00E941F2D82E00E941F2D24
:100F400081E00E941F2D81E00E941F2D88E00E94F9
:100F50001F2D80E0AC85BD858C9300915B0141E045
:100F6000040FA885B9850C93A0E0B1E08C9187FBB4
:100F700016F00C94D10700915C010F3011F00C9425
:100F8000CB070E94CD050E9404060E94F51A0C941E
:100F9000330E0C94D1070E94F4150E94470E0E9454
:100FA000580700915C01013011F00C94EC07EBE064
:100FB000F1E0ABE2B1E00E94AF2AABE0B1E0BA935E
:100FC000AA93A3E1B1E0EBE0F1E00E94452722966D
:100FD0000E945A0E0C942D0E013411F00C94F4075B
:100FE0000E943E1A0C942D0E023011F00C940D0844
:100FF000EBE0F1E0ABE2B1E00E94AF2AABE0B1E0A0
:10100000BA93AA93ABE0B1E0E3E1F1E00E943027AC
:1010100022960E945A0E0C942D0E023411F00C945C
:101020002A08EBE0F1E0ABE2B1E00E94AF2AABE0CE
:10103000B1E0BA93AA93E6E8FCE5A3E0B1E00E9430
:10104000902AE3E0F1E0ABE0B1E00E943027229685
:101050000C942D0E033011F00C944308EBE0F1E0FA
:10106000ABE2B1E00E94AF2AABE0B1E0BA93AA9341
:10107000ABE0B1E0E3E1F1E00E94802722960E941C
:101080005A0E0C942D0E033411F00C948208EBE0F0
:10109000F1E0ABE2B1E00E94AF2AA0E0B1E08C91B8
:1010A00084FB16F40C946108A1E0B1E08D919C9151
:1010B000A7E6B1E08D939C937091000170617093ED
:1010C000000180E197E28A939A930E94901EA9E61C
:1010D000B1E00D931C93A9E6B1E0EBE0F1E00E94D2
:1010E000F42BABE0B1E0BA93AA93EEEAFCE5A3E0FF
:1010F000B1E00E94902AEBE0F1E00E94EC272296FA
:101100000C942D0E043011F00C949B08EBE0F1E0F0
:10111000ABE2B1E00E94AF2AABE0B1E0BA93AA9390
:10112000ABE0B1E0E3E1F1E00E94EC2722960E94FF
:101130005A0E0C942D0E043411F00C94B808EBE008
:10114000F1E0ABE2B1E00E94AF2AABE0B1E0BA93CC
:10115000AA93EEE9FCE5A3E0B1E00E94902AE3E067
:10116000F1E0ABE0B1E00E94EC2722960C942D0E4A
:10117000063011F00C94C908A0E0B1E08C9187FB17
:1011800016F40C94C5080E94470E0E942C1A0C9469
:101190002D0E053411F00C94E40800915B0103302E
:1011A00018F011F00C94D6080C94D90880E08093C4
:1011B0005B01E0E5F0E0ABE5B1E07BE70E94FE2DEE
:1011C0000E942C1A0C942D0E063411F00C94080970
:1011D000EBE0F1E0ABE2B1E00E94AF2AE3E1F1E045
:1011E000ABE0B1E00E94AF2AEBE1F1E0A3E1B1E0B6
:1011F0000E94AF2AE3E2F1E0ABE1B1E00E94AF2A46
:10120000EBE2F1E0A3E2B1E00E94AF2A0C942D0ED4
:10121000073011F00C945009A885B9850C91003065
:1012200080E010F009F081E08F93A885B9850C91DA
:101230000B3081E008F080E09F918923882311F42E
:101240000C943C09EBE0F1E0A885B985AD90BB2496
:10125000A3E6B1E00E94252DAA0DBB1D0E94AF2A76
:1012600081E0A885B985AD90BB24AAEBB1E0AA0DB9
:10127000BB1D8C930C944C0984E1D2018C9381E0CA
:101280000E941F2D0E940115229681E00E941B2DB5
:1012900081E0AC85BD858C930E942C1A0C942D0E98
:1012A000023111F00C94AB09A885B9850C9100307E
:1012B00080E010F009F081E08F93A885B9850C914A
:1012C0000B3081E008F080E09F918923882311F49E
:1012D0000C949709A881B981BA93AA93ABE0B1E0C5
:1012E000EA85FB85A190BB24E3E6F1E00E94252D71
:1012F000EA0DFB1D0E9445272296E881F981A88509
:10130000B985AD90BB24A3E6B1E00E94252DAA0DBE
:10131000BB1D0E94AF2A81E0A885B985AD90BB2492
:10132000AAEBB1E0AA0DBB1D8C930C94A70984E134
:10133000D2018C9381E00E941F2D0E9401152296FC
:1013400081E00E941B2D81E0AC85BD858C930E94BD
:101350002C1A0C942D0E033111F00C94060AA8855A
:10136000B9850C91003080E010F009F081E08F9396
:10137000A885B9850C910B3081E008F080E09F9141
:101380008923882311F40C94F209A881B981BA93B6
:10139000AA93ABE0B1E0EA85FB85A190BB24E3E62C
:1013A000F1E00E94252DEA0DFB1D0E9430272296B8
:1013B000E881F981A885B985AD90BB24A3E6B1E0A9
:1013C0000E94252DAA0DBB1D0E94AF2A81E0A88591
:1013D000B985AD90BB24AAEBB1E0AA0DBB1D8C93DF
:1013E0000C94020A84E1D2018C9381E00E941F2DAB
:1013F0000E940115229681E00E941B2D81E0AC85A0
:10140000BD858C930E942C1A0C942D0E043111F082
:101410000C94610AA885B9850C91003080E010F029
:1014200009F081E08F93A885B9850C910B3081E09C
:1014300008F080E09F918923882311F40C944D0AD1
:10144000A881B981BA93AA93ABE0B1E0EA85FB85A4
:10145000A190BB24E3E6F1E00E94252DEA0DFB1DDF
:101460000E9480272296E881F981A885B985AD90F0
:10147000BB24A3E6B1E00E94252DAA0DBB1D0E944E
:10148000AF2A81E0A885B985AD90BB24AAEBB1E075
:10149000AA0DBB1D8C930C945D0A84E1D2018C9340
:1014A00081E00E941F2D0E940115229681E00E947A
:1014B0001B2D81E0AC85BD858C930E942C1A0C9469
:1014C0002D0E053111F00C94BC0AA885B9850C913C
:1014D000003080E010F009F081E08F93A885B98595
:1014E0000C910B3081E008F080E09F9189238823E4
:1014F00011F40C94A80AA881B981BA93AA93ABE01D
:10150000B1E0EA85FB85A190BB24E3E6F1E00E940F
:10151000252DEA0DFB1D0E94EC272296E881F9811A
:10152000A885B985AD90BB24A3E6B1E00E94252D26
:10153000AA0DBB1D0E94AF2A81E0A885B985AD9098
:10154000BB24AAEBB1E0AA0DBB1D8C930C94B80A86
:1015500084E1D2018C9381E00E941F2D0E9401152D
:10156000229681E00E941B2D81E0AC85BD858C9385
:101570000E942C1A0C942D0E083011F00C94FC0AC9
:10158000A885B9850C91003080E010F009F081E069
:101590008F93A885B9850C910B3081E008F080E02D
:1015A0009F918923882311F40C94E80A0E94470E26
:1015B000E885F985A190BB24E3E6F1E00E94252DA2
:1015C000EA0DFB1DABE0B1E00E94AF2A0C94F80AD3
:1015D00084E1D2018C9381E00E941F2D0E940115AD
:1015E000229681E00E941B2D81E0AC85BD858C9305
:1015F0000E942C1A0C942D0E093011F00C940E0B35
:10160000EBE0F1E0ABE2B1E00E94AF2AEBE0F1E009
:10161000ABE0B1E00E9450220C942D0E093411F081
:101620000C94250BEBE0F1E0ABE2B1E00E94AF2AB5
:10163000ABE0B1E0BA93AA93ABE0B1E0EBE0F1E04C
:101640000E94802722960C942D0E073711F00C94DF
:10165000420BEBE0F1E0ABE2B1E00E94AF2AABE07D
:10166000B1E0BA93AA93A5ECB1E0EBE0F1E00E94FF
:1016700080272296EBE0F1E0ABE0B1E00E943D2054
:101680000C942D0E043711F00C945F0BEBE0F1E09D
:10169000ABE2B1E00E94AF2AEBE0F1E0ABE0B1E0F9
:1016A0000E94E720ABE0B1E0BA93AA93A5ECB1E0C9
:1016B000EBE0F1E00E94EC2722960C942D0E083707
:1016C00011F00C947C0BEBE0F1E0ABE2B1E00E9496
:1016D000AF2AABE0B1E0BA93AA93A5ECB1E0EBE09E
:1016E000F1E00E9480272296EBE0F1E0ABE0B1E070
:1016F0000E9439200C942D0E053711F00C94990B93
:10170000EBE0F1E0ABE2B1E00E94AF2AEBE0F1E008
:10171000ABE0B1E00E947321ABE0B1E0BA93AA93D1
:10172000A5ECB1E0EBE0F1E00E94EC2722960C94EE
:101730002D0E093711F00C94B60BEBE0F1E0ABE2A3
:10174000B1E00E94AF2AABE0B1E0BA93AA93A5EC56
:10175000B1E0EBE0F1E00E9480272296EBE0F1E0BF
:10176000ABE0B1E00E949F200C942D0E063711F0E3
:101770000C94D30BEBE0F1E0ABE2B1E00E94AF2AB6
:10178000EBE0F1E0ABE0B1E00E94CA21ABE0B1E0F8
:10179000BA93AA93A5ECB1E0EBE0F1E00E94EC274C
:1017A00022960C942D0E0D3011F00C94E50BEBE00D
:1017B000F1E0ABE2B1E00E94AF2AEBE0F1E0ABE098
:1017C000B1E00E9446230C942D0E0D3411F00C94C0
:1017D000F70BEBE0F1E0ABE2B1E00E94AF2AEBE007
:1017E000F1E0ABE0B1E00E94A6220C942D0E0F3088
:1017F00011F00C94120CA0E0B1E08C9187FB16F470
:101800000C94100CEBE0F1E0ABE2B1E00E94AF2AE7
:10181000ABE0B1E0E6E8FCE50E94902A0E942C1AB9
:101820000C942D0E003111F00C942B0CEBE0F1E038
:10183000ABE2B1E00E94AF2AABE0B1E0BA93AA9369
:10184000A3E1B1E0EBE0F1E00E94562422960E9471
:101850005A0E0C942D0E013111F00C94430CEBE058
:10186000F1E0ABE2B1E00E94AF2AE3E1F1E0ABE0EE
:10187000B1E00E94AF2AEBE2F1E0A3E1B1E00E9407
:10188000AF2A0C942D0E013511F00C94570C0E94C8
:10189000470EEBE2F1E0ABE0B1E00E94AF2AE3E1FA
:1018A000F1E0ABE2B1E00E94AF2A0C942D0E0037BC
:1018B00011F00C94880C00915B01013018F011F0CC
:1018C0000C94640C0C94670C80E080935B01009195
:1018D0005B01003011F00C947E0CA5ECB1E0BA93E2
:1018E000AA93E6E9FCE5A3E0B1E00E94902AEDECC2
:1018F000F1E00E94EC2722960C94840CA5ECB1E058
:10190000EEE9FCE50E94902A0E942C1A0C942D0E00
:10191000003511F00C949C0C0E94470EEBE0F1E0B6
:10192000ABE2B1E00E94AF2AEDECF1E0ABE0B1E058
:101930000E94AF2A0C942D0E013711F00C94AE0CBE
:10194000EBE0F1E0ABE2B1E00E94AF2AEBE0F1E0C6
:10195000ABE0B1E00E949D280C942D0E023711F0EF
:101960000C94C00CEBE0F1E0ABE2B1E00E94AF2AD6
:10197000EBE0F1E0ABE0B1E00E943C280C942D0ECE
:10198000033711F00C94D20CEBE0F1E0ABE2B1E0E4
:101990000E94AF2AEBE0F1E0ABE0B1E00E94372813
:1019A0000C942D0E0E3411F00C94E50CA0E0B1E077
:1019B0008C9183FB882780F9809580FBA0E0B1E0C3
:1019C0008C9183F98C930C942D0E073411F00C94A8
:1019D000020D0091E601003011F00C94F20C84E647
:1019E0008093E6010091E601003018F011F00C94AC
:1019F000FB0C0C94000D8091E60181508093E60170
:101A00000C942D0E083411F00C94190DA6EEB1E0D3
:101A10008C918F5F8C930091E601033618F011F0E2
:101A20000C94140D0C94170D80E08093E6010C9437
:101A30002D0E0A3011F00C94250D80915B018093DE
:101A4000E6010E942C1A0C942D0E0B3011F00C9410
:101A50005C0D0091E501003110F00C94450DA5EEF0
:101A6000B1E08C918F5F8C938091E601A5EEB1E09F
:101A7000AD90BB24A4EDB1E0AA0DBB1D8C93809169
:101A80005B018093E6010C94580D8CE1D2018C939C
:101A900081E00E941F2D0E940115229681E00E9484
:101AA0001B2D81E08093E50181E0AC85BD858C93A1
:101AB0000E942C1A0C942D0E0C3011F00C94940DE5
:101AC000A5EEB1E0AD90BB24A4EDB1E0AA0DBB1D25
:101AD0008C918093E601A6EEB1E08C918F5F8C93A0
:101AE0000091E501013018F011F00C94790D0C947F
:101AF000800D8091E50181508093E5010C94900D5B
:101B00008CE1D2018C9381E00E941F2D0E9401156F
:101B1000229681E00E941B2D81E0AC85BD858C93CF
:101B20000E942C1A0C942D0E0C3411F00C94A70D5D
:101B3000ABE0B1E0E6E8FCE50E94692A10F00C9405
:101B4000A50D80915B018093E6010C942D0E0B3462
:101B500011F00C94BA0DABE0B1E0E6E8FCE50E94B0
:101B6000692A11F00C94B80D80915B018093E60115
:101B70000C942D0E0A3411F00C94D00DABE0B1E0B2
:101B8000E6E8FCE50E94692A18F011F00C94CA0DF1
:101B90000C94CE0D80915B018093E6010C942D0E88
:101BA0000E3011F00C941F0EA0E0B1E08C9182FB7E
:101BB000882780F9809580FBA0E0B1E08C9182F9C4
:101BC0008C93A0E0B1E08C9182FB16F00C941B0E7C
:101BD0000091E60141E0040FAA81BB810C93EA81E8
:101BE000FB81A190BB24E0E5F0E0AA0CBB1CEA0D50
:101BF000FB1DAE81BF810E94112EAE81BF81119667
:101C00008C91AC81BD818C93AC81BD810C910E30E7
:101C100011F00C94180EA6EEB1E08C918F5F8C93AE
:101C20000E94670E81E0AC85BD858C930C941B0EE1
:101C300081E08093E5010E942C1A0C942D0E003057
:101C400011F00C94270E0E942C1A0C942D0E0F34B8
:101C500011F00C942D0E0E942C1A80E080935C01F0
:101C60008FEF80935B010E94670E709100017F7778
:101C700070930001709100017F7B709300010E94BE
:101C8000CD058EE0481A80E0580A2C960895EBE1C5
:101C9000F1E0A3E2B1E00E94AF2AE3E1F1E0ABE1C1
:101CA000B1E00E94AF2AEBE0F1E0A3E1B1E00E94D5
:101CB000AF2A0895EBE1F1E0A3E1B1E00E94AF2A81
:101CC000E3E2F1E0ABE1B1E00E94AF2A089581E0E8
:101CD0000E941F2D81E00E941F2D81E20E941F2D76
:101CE00081E00E941F2D82E00E941F2D81E00E9452
:101CF0001F2D88E00E941F2D84E00E941F2D84E08C
:101D00000E941F2D88E00E941F2D88E00E941F2D39
:101D100084E00E941F2D84E00E941F2D81E00E941C
:101D20001F2D82E00E941F2D82E00E941F2D81E066
:101D30000E941F2D81E00E941F2D81E00E941F2D17
:101D400081E0ACA1BDA18C93ACA1BDA10C910830E8
:101D500018F011F00C94BE0E8DE0ACA1BDA1AD90B9
:101D6000BB24A2E4B1E0AA0DBB1D8C93ACA1BDA124
:101D70008C918F5F8C9310F40C94A40EA0E0B1E0D2
:101D80008C9182FB16F40C943A13A0E0B1E08C9194
:101D900083FB16F40C949F12EBE0F1E00E941A27EB
:101DA000A5E6B1E08C930091650145E00423A6E629
:101DB000B1E00C93E0E5F0E0A0E1B0E00E940F2E6E
:101DC000013011F00C94010FABE0B1E0E6EBFCE563
:101DD0000E94692A18F011F00C94F30EA6E6B1E007
:101DE0008C918F5F8C93ABE0B1E0EEEBFCE50E9451
:101DF000692A10F40C94010FA6E6B1E08C918F5F74
:101E00008C93E0E5F0E0A0E1B0E00E940F2E0330FB
:101E100011F00C94280FABE0B1E0E6ECFCE50E9479
:101E2000692A18F011F00C941A0FA6E6B1E08C9113
:101E30008F5F8C93ABE0B1E0EEEAFCE50E94692A8B
:101E400010F40C94280FA6E6B1E08C918F5F8C9370
:101E500000916601003011F00C949112EBE0F1E07A
:101E6000A889B9890E943728E0E5F0E0A0E1B0E058
:101E70000E940F2E013011F00C94ED0FA889B98942
:101E8000BA93AA93EEECFCE5A3E0B1E00E94902A9D
:101E9000E3E0F1E0AA89BB890E9480272296E889C5
:101EA000F989A88DB98D0E949D28E88DF98DAE899C
:101EB000BF890E94262CAA89BB89BA93AA93AA8DAE
:101EC000BB8DEA89FB890E9430272296AA89BB89AB
:101ED000E6EDFCE50E94692A18F011F00C94720FEF
:101EE0000C94760FAE89BF890E94751E81E0ACA16B
:101EF000BDA18C93ACA1BDA10C91083018F011F0DC
:101F00000C94DC0FAE89BF890D911D912D913C91F0
:101F10004AE050E060E070E00E94FB1EAC89BD89A1
:101F20000D931D932D933D93AC89BD898C91ACA1EC
:101F3000BDA1AD90BB24A2E4B1E0AA0DBB1D8C9362
:101F4000AE89BF890D911D912D913C914AE050E0E1
:101F500060E070E00E94FB1EAE89BF894D935D93E7
:101F60006D937D9340E050E060E070E0AE89BF8902
:101F70000D911D912D913C910E944D2D81E009F014
:101F800080E08F93ACA1BDA10C91023080E010F0F5
:101F900009F081E09F918923882311F40C94D40FD8
:101FA00088E0ACA1BDA18C93ACA1BDA18C918F5F49
:101FB0008C9310F40C947A0FA5E4B1E08C918058C6
:101FC0008C93ABE0B1E0E6E8FCE50E94692A10F0F2
:101FD0000C94ED0F8AE080934A01E0E5F0E0A0E187
:101FE000B0E00E940F2E003011F00C946F11ABE0A6
:101FF000B1E0E6E8FCE50E94692A10F00C940610B6
:1020000087E0AAA1BBA18C930C940A1088E0AAA136
:10201000BBA18C93A889B989EEEDFCE50E94692AE1
:1020200081E008F080E08F93A889B989E6EEFCE5AD
:102030000E94692A80E010F009F081E09F918923D5
:10204000882311F40C944911A889B989BA93AA93E9
:10205000EA89FB89D2010E94AF2A88E00E941F2DE5
:10206000AEA1BFA1BA93AA930E946214269688E0FB
:102070000E941B2DE889F989A88DB98D0E949D28A1
:10208000E88DF98DAE89BF890E94262CAA89BB896B
:10209000BA93AA93AA8DBB8DEA89FB890E94302747
:1020A000229640E050E060E070E0AE89BF890D917B
:1020B0001D912D913C910E944D2D1CF011F00C941E
:1020C00063100C94DD10EE89FF89A8A1B9A10E94CC
:1020D000632DA8A1B9A10E94292EAE8DBF8D8C932E
:1020E000AAA1BBA10C91AE8DBF8D4C91041BAE8DEE
:1020F000BF8D0C93AE8DBF8D8C918F5F8C93AE8D09
:10210000BF8D8C91ACA1BDA18C93AAA1BBA14C9118
:10211000ACA1BDA10C91041718F011F00C94C810DB
:10212000AE89BF890D911D912D913C914AE050E0FF
:1021300060E070E00E94FB1EAC89BD890D931D9389
:102140002D933D93AC89BD898C91ACA1BDA1AD907F
:10215000BB24A2E4B1E0AA0DBB1D8C93AE89BF895C
:102160000D911D912D913C914AE050E060E070E0AE
:102170000E94FB1EAE89BF894D935D936D937D9345
:10218000ACA1BDA18C918F5F8C9310F40C94851041
:10219000AE8DBF8DAD90BB24A2E4B1E0AA0DBB1DF6
:1021A0008C9180588C93AE8DBF8D0C9141E0041BB7
:1021B000AAA1BBA10C930C94F61080E0AAA1BBA12C
:1021C000AD90BB24A2E4B1E0AA0DBB1D8C93AAA1E3
:1021D000BBA1AD90BB24A2E4B1E0AA0DBB1D8C91C4
:1021E00080588C93AAA1BBA10E94711EAAA1BBA179
:1021F0000C91003080E010F009F081E08F93AA8903
:10220000BB89E6E8FCE50E94692A80E010F009F04D
:1022100081E09F918923882311F40C944711AA89A6
:10222000BB89BA93AA93EEEEFCE5A3E0B1E00E946D
:10223000902AEC89FD890E9480272296EA89FB89F1
:10224000A88DB98D0E949D28E88DF98DAE89BF8932
:102250000E94262CAE89BF898C91AAA1BBA1AD900A
:10226000BB24A2E4B1E0AA0DBB1D8C93AA89BB8953
:10227000BA93AA93AA8DBB8DEC89FD890E94302761
:102280002296AAA1BBA10E94711E0C94F6100C9478
:102290005711E889F989D2010E94AF2A88E00E948B
:1022A0001F2D0E948513229688E00E941B2DABE013
:1022B000B1E0E6E8FCE50E94692A10F00C94631195
:1022C0008AE080934A01ABE0B1E0E6E8FCE50E94D9
:1022D000692A11F00C946F1180E880934A01E0E5BF
:1022E000F0E0A0E1B0E00E940F2E023011F00C945B
:1022F0009F11E889F989D2010E94AF2A88E00E94E3
:102300001F2D0E948513229688E00E941B2DABE0B2
:10231000B1E0E6E8FCE50E94692A10F00C94931104
:102320008AE080934A01ABE0B1E0E6E8FCE50E9478
:10233000692A11F00C949F1180E880934A01E0E52E
:10234000F0E0A0E1B0E00E940F2E033011F00C94F9
:102350008F12A889B989BA93AA93E6EFFCE5A3E0A6
:10236000B1E00E94902AEA89FB890E948027229688
:10237000E889F989A88DB98D0E949D28E88DF98D8D
:10238000AE89BF890E94262CAA89BB89BA93AA93D9
:10239000AA8DBB8DEA89FB890E9430272296AA89E3
:1023A000BB89E6EDFCE50E94692A18F011F00C9457
:1023B000DB110C94DF11AE89BF890E94751EAE89B6
:1023C000BF890D911D912D913C914CE350E060E04F
:1023D00070E00E94FB1EAE85BF854D935D936D93AB
:1023E0007D93AE89BF890D911D912D913C914CE358
:1023F00050E060E070E00E94FB1EAC85BD850D934F
:102400001D932D933D93AC85BD850C914AE00E94B0
:10241000192EA3E4B1E08C93AC85BD850C914AE004
:102420000E94192EA4E4B1E00C9383E0ACA1BDA1FD
:102430008C93ACA1BDA10C91063018F011F00C9456
:102440007B12AE85BF850D911D912D913C914AE087
:1024500050E060E070E00E94FB1EAC89BD890D93E6
:102460001D932D933D93AC89BD898C91ACA1BDA1E9
:10247000AD90BB24A2E4B1E0AA0DBB1D8C93AE8548
:10248000BF850D911D912D913C914AE050E060E097
:1024900070E00E94FB1EAE85BF854D935D936D93EA
:1024A0007D9340E050E060E070E0AE85BF850D9127
:1024B0001D912D913C910E944D2D81E009F080E00D
:1024C0008F93ACA1BDA10C91033080E010F009F016
:1024D00081E09F918923882311F40C94731288E082
:1024E000ACA1BDA18C93ACA1BDA18C918F5F8C934D
:1024F00010F40C941912A5E4B1E08C9180588C93DF
:10250000ABE0B1E0E6E8FCE50E94692A10F00C942B
:102510008C128AE08093490188E180934A010C94EF
:102520009D128DE0D2018C9381E00E941F2D0E94AC
:102530000115229681E00E941B2D0C943813009106
:10254000E601033618F011F00C94A8120C94AB12AB
:1025500080E08093E6010091E60141E0040FA9E5E7
:10256000B1E00C93E9E5F1E0A190BB24E0E5F0E0F7
:10257000AA0CBB1CEA0DFB1DAE81BF810E94112E6F
:10258000AE81BF8111968C91AC81BD818C930091FD
:10259000E6014AE00E94192EAAE4B1E00C930091F2
:1025A000E6014AE00E94192EA9E4B1E08C938DE087
:1025B00080934801AC81BD810C914AE00E94192EA4
:1025C000A5E4B1E08C93AC81BD810C914AE00E94FE
:1025D000192EAA85BB850C93AA85BB850C914AE070
:1025E0000E94192EA6E4B1E08C93AA85BB850C91BC
:1025F0004AE00E94192EA7E4B1E00C93AA81BB81A6
:10260000BA93AA93AE81BF81BA93AA930E941F0581
:102610002496AA81BB810C91003018F011F00C9423
:1026200013130C943213AE81BF818C91AA81BB81AC
:102630008C93A5E4B1E08C9180588C93AA81BB81E6
:102640000C914AE00E94192EA4E4B1E00C93AA81F7
:10265000BB810C914AE00E94192EA3E4B1E08C9357
:102660000C9438138DE0809344018DE080934301F6
:102670000C947F13A7EEB1E08C918F5F8C93009147
:10268000E7010F3318F011F00C9448130C944B131E
:1026900080E08093E7010091E70148E00E94192E55
:1026A000A881B9810C93A881B9818C918F5F8C939B
:1026B0008DE0A881B981AD90BB24A2E4B1E0AA0D60
:1026C000BB1D8C93A881B9818C918F5F8C93A8815D
:1026D000B9810C91083018F011F00C9471130C941E
:1026E000751381E0A881B9818C938DE8A881B981A7
:1026F000AD90BB24A2E4B1E0AA0DBB1D8C9387E58D
:10270000481A80E0580AA696089581E00E941F2D7D
:1027100081E00E941F2D81E20E941F2D81E00E9416
:102720001F2D82E00E941F2D81E00E941F2DEC854D
:10273000FD850027AE81BF810E94F028AE81BF8158
:102740000E94292EAC81BD818C93ABE0B1E0E6E81C
:10275000FCE50E94692A10F00C94B41387E0A88568
:10276000B9858C930C94B81388E0A885B9858C93AF
:1027700081E0AA85BB858C93AC81BD814C91AA85F3
:10278000BB850C91041718F011F00C945C14AA8509
:10279000BB858C91EE81FF8101E00A93AB81BC8106
:1027A0000E94E82DAA81BB81E6E1FDE50E942F2E63
:1027B00011F00C94E1138AE0A881B9818C930C94F8
:1027C0003A14E8E1FDE50E942F2E11F00C94FD1360
:1027D00085E1A881B9818C93AC81BD810C91AA85DA
:1027E000BB854C91041BA885B9850C93A885B98538
:1027F0008C918F5F8C930C943A14EAE1FDE50E9472
:102800002F2E11F00C941914A885B9858C918F5F27
:102810008C93A885B985AD90BB24A2E4B1E0AA0D44
:10282000BB1D0C9140E8040FA881B9810C930C9456
:102830003A14AA81BB81ECE1FDE50E942F2E81E0D4
:1028400008F480E08F93AA81BB81EEE1FDE50E9450
:102850002F2E81E010F009F080E09F9189238823DA
:1028600011F40C943A14AA81BB810E94B62DA88160
:10287000B9810C93A885B9850C91003018F011F03E
:102880000C9444140C945414A881B9818C91A8859B
:10289000B985AD90BB24A2E4B1E0AA0DBB1D8C9319
:1028A000A885B9850E94711EAA85BB858C918F5F12
:1028B0008C9310F40C94BC1387E2481A80E0580AF9
:1028C0002C96089581E20E941F2D88E00E941F2D02
:1028D00084E00E941F2D81E00E941F2D88E00E944D
:1028E0001F2D81E00E941F2D81E00E941F2D81E09D
:1028F0000E941F2DEA89FB89AC85BD850E949D2819
:10290000EC85FD85AA85BB850E94262CEA85FB8582
:10291000AE85BF850E94632DAE85BF850E94292E9E
:10292000AC81BD818C93A889B9890C91AC81BD81A2
:102930004C91041BAA81BB810C93EA89FB89AE816F
:10294000BF810E94AF2A81E0A881B9818C93AA81BE
:10295000BB814C91A881B9810C91041718F011F03A
:102960000C94C914AE81BF81BA93AA93EEEEFCE534
:10297000A3E0B1E00E94902AE885F9850E948027B3
:102980002296A881B9818C918F5F8C9310F40C945E
:10299000A714EE81FF81AE81BF810E94AB2881E048
:1029A000A881B9818C93AA81BB814C91A881B981FE
:1029B0000C91041718F011F00C94F514AE81BF813E
:1029C000BA93AA93EEEFFCE5A3E0B1E00E94902A4F
:1029D000E885F9850E9480272296A881B9818C918B
:1029E0008F5F8C9310F40C94D314EE81FF81AC892B
:1029F000BD890E94AF2A89E3481A80E0580A609690
:102A000008958DE080934A0185E18093490186E134
:102A10008093480186E18093470187E180934601D6
:102A200086E1809345018DE080934401A881B981BE
:102A30008C9180934301709100017B7F7093000122
:102A40000E94F51A089581E20E941F2D81E00E94E4
:102A50001F2D81E00E941F2D82E00E941F2D81E02A
:102A60000E941F2D81E00E941F2DAA85BB85E0E2F8
:102A7000FDE50E94362D89E180934A0185E0AE8113
:102A8000BF818C93AA85BB850E94292EA881B9811C
:102A90008C9381E0A885B9858C93A881B9814C91EC
:102AA000A885B9850C91041718F011F00C94EE1557
:102AB000A885B9858C91EA85FB8501E00A93AD81F3
:102AC000BE810E94E82DAC81BD81E6E1FDE50E945A
:102AD0002F2E11F00C9472158AE0AA81BB818C9381
:102AE0000C94CB15E8E1FDE50E942F2E11F00C941B
:102AF0008E1585E1AA81BB818C93A881B9810C9147
:102B0000A885B9854C91041BAE81BF810C93AE8121
:102B1000BF818C918F5F8C930C94CB15EAE1FDE51E
:102B20000E942F2E11F00C94AA15AE81BF818C91BA
:102B30008F5F8C93AE81BF81AD90BB24A2E4B1E0E6
:102B4000AA0DBB1D0C9140E8040FAA81BB810C9318
:102B50000C94CB15AC81BD81ECE1FDE50E942F2EDC
:102B600081E008F480E08F93AC81BD81EEE1FDE56A
:102B70000E942F2E81E010F009F080E09F918923C0
:102B8000882311F40C94CB15AC81BD810E94B62D25
:102B9000AA81BB810C93AE81BF810C91003018F0EB
:102BA00011F00C94D5150C94E615AA81BB818C917B
:102BB000AE81BF81AD90BB24A2E4B1E0AA0DBB1DE4
:102BC0008C93AE81BF818C9181508C93A885B985FF
:102BD0008C918F5F8C9310F40C944D1587E2481AFA
:102BE00080E0580A2C96089588E00E941F2D88E006
:102BF0000E941F2D81E00E941F2D81E00E941F2D49
:102C000081E00E941F2DADE5B1E0E6E8FCE50E9401
:102C1000902AAE81BF81E6E8FCE50E94902A80E020
:102C2000AC81BD818C9381E00E941F2D00915501E4
:102C300041E0041BA881B9810C9381E0AC81BD8186
:102C40008C93A881B9814C91AC81BD810C91041702
:102C500018F011F00C94BC16AC81BD81AD90BB2472
:102C6000A2E3B1E0AA0DBB1DEA85FB850E94E72B1C
:102C700080E0AA81BB818C93AA85BB85E6E0FDE557
:102C80000E94692A18F011F00C9448160C945B16F7
:102C9000AA85BB85BA93AA93EEE0FDE5A3E0B1E077
:102CA0000E94902AEC85FD850E943027229681E0C3
:102CB000AA81BB818C93AE81BF810C91003011F051
:102CC0000C947E16ADE5B1E0BA93AA93EEEEFCE566
:102CD000A3E0B1E00E94902AEDE5F1E00E94802798
:102CE0002296ADE5B1E0BA93AA93AC85BD85EDE53A
:102CF000F1E00E94452722960C94A316A885B98579
:102D0000BA93AA93EEEEFCE5A3E0B1E00E94902A0C
:102D1000EA85FB850E94EC272296AA85BB85BA939B
:102D2000AA93AA85BB85EC85FD850E948027229603
:102D3000ADE5B1E0BA93AA93AC85BD85EDE5F1E0D0
:102D40000E9445272296AA81BB810C91013011F087
:102D50000C94B416A885B985EEE9FCE50E94902A8A
:102D600081E0AE81BF818C93AC81BD818C918F5FFE
:102D70008C9310F40C94211681E0481A80E0580AD4
:102D8000229683E1481A80E0580A2A96089580E046
:102D9000AA81BB818C93A881B9810C91023011F07A
:102DA0000C94D81680E3AA81BB818C930C94E41711
:102DB000093011F00C94E21681E3AA81BB818C9357
:102DC0000C94E4170A3011F00C94EC1682E3AA81FB
:102DD000BB818C930C94E4170C3011F00C94F61614
:102DE00083E3AA81BB818C930C94E417013111F029
:102DF0000C94001784E3AA81BB818C930C94E41794
:102E0000023111F00C940A1785E3AA81BB818C93DF
:102E10000C94E417043111F00C94141786E3AA8182
:102E2000BB818C930C94E417093111F00C941E179C
:102E300087E3AA81BB818C930C94E4170A3111F0CB
:102E40000C94281788E3AA81BB818C930C94E41717
:102E50000C3111F00C94321789E3AA81BB818C9359
:102E60000C94E417013011F00C943C1785E0AA8112
:102E7000BB818C930C94E417083311F00C94461723
:102E800086E0AA81BB818C930C94E417083011F082
:102E90000C94501781E0AA81BB818C930C94E417A9
:102EA000003111F00C945A1782E0AA81BB818C93F7
:102EB0000C94E417083111F00C94641783E0AA8194
:102EC000BB818C930C94E417003211F00C946E17B4
:102ED00084E0AA81BB818C930C94E417093211F031
:102EE0000C94781780E8AA81BB818C930C94E4172A
:102EF0000A3211F00C94821787E0AA81BB818C936F
:102F00000C94E4170C3211F00C948C1788E0AA8111
:102F1000BB818C930C94E417023311F00C94961738
:102F200089E0AA81BB818C930C94E417013211F0E3
:102F30000C94A0178AE0AA81BB818C930C94E417AF
:102F4000023211F00C94AA178BE0AA81BB818C93FA
:102F50000C94E417043211F00C94B4178CE0AA819D
:102F6000BB818C930C94E417083211F00C94BE17BB
:102F70008DE0AA81BB818C930C94E417003311F08F
:102F80000C94C8178EE0AA81BB818C930C94E41733
:102F9000043011F00C94D2178FE0AA81BB818C937E
:102FA0000C94E417013311F00C94DC1780E1AA8132
:102FB000BB818C930C94E417043311F00C94E41748
:102FC00081E1AA81BB818C93089581E00E941F2D2D
:102FD00081E00E941F2D81E00E941F2D81E0AA81C7
:102FE000BB818C9380E0AE81BF818C9380E0AC810B
:102FF000BD818C93AC81BD810C91063018F011F02D
:103000000C943E18AA81BB81E5E2F0E08C9180959A
:103010008083A881B98186B18C93A881B9818C9174
:1030200080958C93A881B9818C918F708C93A881A5
:10303000B9810C91003018F011F00C9421180C9407
:103040003118AC81BD810C9148E0049F0C92A8819D
:10305000B9810C91AC81BD814C91040FAE81BF81CF
:103060000C9391E0AA81BB810E943C2DAC81BD8173
:103070008C918F5F8C9310F40C94FA174091570148
:10308000AE81BF810C91041711F00C944D1880E0B3
:10309000AE81BF818C930C945218AE81BF818C910C
:1030A0008093570183E0481A80E0580A26960895D5
:1030B00081E00E941F2D80E0A881B9818C9380E07F
:1030C000AC81BD818C93AA81BB810C91003810F436
:1030D0000C94731881E0A881B9818C93AA81BB817B
:1030E0008C9180588C93AA81BB810C91003011F097
:1030F0000C9480188DE1AC81BD818C930C94821965
:10310000013011F00C948A1880E3AC81BD818C935E
:103110000C948219023011F00C9494188DE6AC8155
:10312000BD818C930C948219033011F00C949E187D
:1031300089E7AC81BD818C930C948219043011F025
:103140000C94A81883E3AC81BD818C930C948219F4
:10315000053011F00C94B2188BE5AC81BD818C93D5
:103160000C948219063011F00C94BC188FE1AC81DC
:10317000BD818C930C948219073011F00C94C61801
:1031800080E7AC81BD818C930C948219083011F0DA
:103190000C94D0188FE7AC81BD818C930C9482196C
:1031A000093011F00C94DA1883E7AC81BD818C935F
:1031B0000C9482190A3011F00C94E41881E0AC816F
:1031C000BD818C930C9482190B3011F00C94EE1885
:1031D00088E0AC81BD818C930C9482190D3011F084
:1031E0000C94F81880E0AC81BD818C930C9482190A
:1031F0000E3011F00C94021983E6AC81BD818C93E2
:103200000C948219043111F00C940C1987E7AC81ED
:10321000BD818C930C948219053111F00C94161910
:103220008FE4AC81BD818C930C948219063111F02E
:103230000C94201985E0AC81BD818C930C9482198B
:10324000073111F00C942A198DE1AC81BD818C936A
:103250000C948219083111F00C94341987E1AC8177
:10326000BD818C930C948219093111F00C943E1994
:103270008DE0AC81BD818C930C9482190A3111F0E0
:103280000C94481987E6AC81BD818C930C9482190B
:103290000B3111F00C94521985E1AC81BD818C93F6
:1032A0000C9482190C3111F00C945C198BE5AC81F3
:1032B000BD818C930C9482190E3111F00C94661917
:1032C0008EE4AC81BD818C930C9482190F3111F086
:1032D0000C9470198EE0AC81BD818C930C94821992
:1032E0000D3111F00C947A198DE3AC81BD818C9372
:1032F0000C948219013211F00C9482198EE3AC8186
:10330000BD818C93A881B9810C91013011F00C948E
:103310009319AC81BD818C9180588C93AA81BB811B
:103320008C9180588C9381E0481A80E0580A22964C
:10333000089581E00E941F2D81E0A881B9818C93BE
:10334000A881B9810C91083018F011F00C94C219C1
:10335000A881B981AD90BB24A2E4B1E0AA0DBB1D48
:103360008C91A881B981AD90BB24AAE4B1E0AA0DEB
:10337000BB1D8C93A881B9818C918F5F8C9310F4C5
:103380000C94A01981E0481A80E0580A229608950A
:1033900081E00E941F2D0E94991981E0A881B981C6
:1033A0008C93A881B9810C91083018F011F00C941D
:1033B000EB198DE0A881B981AD90BB24A2E4B1E006
:1033C000AA0DBB1D8C93A881B9818C918F5F8C93C2
:1033D00010F40C94D119A3E4B1E08C9180588C9333
:1033E0000E94F51A81E0481A80E0580A2296089552
:1033F00081E00E941F2D81E0A881B9818C93A88172
:10340000B9810C91083018F011F00C94211AA881A0
:10341000B981AD90BB24AAE4B1E0AA0DBB1D8C918B
:10342000A881B981AD90BB24A2E4B1E0AA0DBB1D77
:103430008C93A881B9818C918F5F8C9310F40C943C
:10344000FF1981E0481A80E0580A229608950E94E8
:10345000F8190E94F51A0895A0E0B1E08C9182FB62
:1034600016F40C943D1AF8940E94C81984E690E072
:103470000E94581F0E94271A78940895E1E5F0E011
:10348000A0E1B0E00E940F2E083011F00C94531A06
:10349000E1E5F0E0A0E1BB2781E08C937BE70E94AF
:1034A000FE2D0C945C1AE1E5F0E0A0E1BB2788E07A
:1034B0008C937BE70E94FE2D8AE080935301E1E527
:1034C000F0E0A4E5B1E00E940F2E5A98539A559A65
:1034D0005D98A3E5B1E0119698E08E91983018F4CC
:1034E000392F992702C038E09850881F5B9808F45C
:1034F0005B9A000000005D9A000000005D980000EB
:1035000000003A9591F7992341F7539A559A5D989F
:10351000A4E5B1E0119698E08E91983018F4392F17
:10352000992702C038E09850881F5B9808F45B9A8E
:10353000000000005D9A000000005D98000000009F
:103540003A9591F7992341F75A9A089588E00E9495
:103550001F2D81E00E941F2D81E0A881B9818C93ED
:10356000A881B9810C910A3018F011F00C94EF1A6F
:10357000A881B981AD90BB24AAEBB1E0AA0DBB1D17
:103580000C91013011F00C94E71AE881F981A190B7
:10359000BB24E8EFFFEF0E94252DEA0DFB1DA8815B
:1035A000B981AD90BB24A3E6B1E00E94252DAA0D00
:1035B000BB1D98E07BE70E94012E80E0A881B981C5
:1035C000AD90BB24AAEBB1E0AA0DBB1D8C93A881E2
:1035D000B9818C918F5F8C9310F40C94B01A89E0B0
:1035E000481A80E0580A2496089581E00E941F2D11
:1035F00081E00E941F2D81E00E941F2D81E0AA81A1
:10360000BB818C93AA81BB810C91083018F011F01A
:103610000C94751B09E0AA81BB814C91041BA88105
:10362000B9810C93AC81BD81BA93AA93AA81BB8165
:10363000AD90BB24A2E4B1E0AA0DBB1DBA93AA933E
:103640000E9458182496AA81BB818C9180935301C3
:10365000AC81BD818C91809354015A98539A559AAC
:103660005D98A3E5B1E0119698E08E91983018F43A
:10367000392F992702C038E09850881F5B9808F4CA
:103680005B9A000000005D9A000000005D98000059
:1036900000003A9591F7992341F7539A559A5D980E
:1036A000A4E5B1E0119698E08E91983018F4392F86
:1036B000992702C038E09850881F5B9808F45B9AFD
:1036C000000000005D9A000000005D98000000000E
:1036D0003A9591F7992341F75A9AAA81BB818C9127
:1036E0008F5F8C9310F40C94021B83E0481A80E0E7
:1036F000580A269608958CE08093530180E08093C9
:1037000054015A98539A559A5D98A3E5B1E01196E1
:1037100098E08E91983018F4392F992702C038E03C
:103720009850881F5B9808F45B9A000000005D9A2F
:10373000000000005D98000000003A9591F7992381
:1037400041F7539A559A5D98A4E5B1E0119698E037
:103750008E91983018F4392F992702C038E098508C
:10376000881F5B9808F45B9A000000005D9A0000D7
:1037700000005D98000000003A9591F7992341F709
:103780005A9A89E08093530180E0809354015A98BB
:10379000539A559A5D98A3E5B1E0119698E08E9101
:1037A000983018F4392F992702C038E09850881FB4
:1037B0005B9808F45B9A000000005D9A000000002E
:1037C0005D98000000003A9591F7992341F7539ACC
:1037D000559A5D98A4E5B1E0119698E08E919830E5
:1037E00018F4392F992702C038E09850881F5B9849
:1037F00008F45B9A000000005D9A000000005D98EC
:10380000000000003A9591F7992341F75A9A8AE00F
:1038100080935301E1E5F0E0A4E5B1E00E940F2EB2
:103820005A98539A559A5D98A3E5B1E0119698E09D
:103830008E91983018F4392F992702C038E09850AB
:10384000881F5B9808F45B9A000000005D9A0000F6
:1038500000005D98000000003A9591F7992341F728
:10386000539A559A5D98A4E5B1E0119698E08E912F
:10387000983018F4392F992702C038E09850881FE3
:103880005B9808F45B9A000000005D9A000000005D
:103890005D98000000003A9591F7992341F75A9AF4
:1038A0008BE08093530187E0809354015A98539A98
:1038B000559A5D98A3E5B1E0119698E08E91983005
:1038C00018F4392F992702C038E09850881F5B9868
:1038D00008F45B9A000000005D9A000000005D980B
:1038E000000000003A9591F7992341F7539A559AB1
:1038F0005D98A4E5B1E0119698E08E91983018F4A7
:10390000392F992702C038E09850881F5B9808F437
:103910005B9A000000005D9A000000005D980000C6
:1039200000003A9591F7992341F75A9A8FE08093D6
:10393000530180E0809354015A98539A559A5D98A8
:10394000A3E5B1E0119698E08E91983018F4392FE4
:10395000992702C038E09850881F5B9808F45B9A5A
:10396000000000005D9A000000005D98000000006B
:103970003A9591F7992341F7539A559A5D98A4E5A2
:10398000B1E0119698E08E91983018F4392F99276C
:1039900002C038E09850881F5B9808F45B9A0000DA
:1039A00000005D9A000000005D98000000003A955C
:1039B00091F7992341F75A9A8CE08093530181E063
:1039C000809354015A98539A559A5D98A3E5B1E0B3
:1039D000119698E08E91983018F4392F992702C0EB
:1039E00038E09850881F5B9808F45B9A000000004C
:1039F0005D9A000000005D98000000003A9591F784
:103A0000992341F7539A559A5D98A4E5B1E0119630
:103A100098E08E91983018F4392F992702C038E039
:103A20009850881F5B9808F45B9A000000005D9A2C
:103A3000000000005D98000000003A9591F799237E
:103A400041F75A9A08958EE180934A0187E1809365
:103A500049018BE1809348010E94F51A08958FE196
:103A600080934A0180E08093490184E1809348017A
:103A70008DE1809347010E94F51A08958CE18093AF
:103A80004A0184E18093490181E28093480185E104
:103A9000809347010E94F51A089581E00E941F2D2E
:103AA00082E00E941F2D81E00E941F2D0E943E1D7A
:103AB00081E0AC81BD818C93AC81BD810C910436D9
:103AC00018F011F00C94911DEC81FD81A190BB24A4
:103AD000E0E5F0E0AA0CBB1CEA0DFB1DAA81BB814E
:103AE0000E94112EAA81BB8111968C91A881B98167
:103AF0008C9331E0A881B9810E94E91EAA81BB8123
:103B00008C91A881B9818C9331E0A881B9810E9400
:103B1000E91EAC81BD818C918F5F8C9310F40C9465
:103B20005C1D84E0481A80E0580A2696089581E0DA
:103B30000E941F2D82E00E941F2D81E00E941F2DF8
:103B40000E942F1D81E0AC81BD818C93AC81BD8131
:103B50000C91043618F011F00C94F81DA0ECB0E0B4
:103B60000C9107FB16F00C94AE1DA881B9818091D1
:103B7000C6008C93A881B9810D91112740E051E0D6
:103B80000E942C2DAA81BB810D931C93A0ECB0E068
:103B90000C9107FB16F00C94C61DA881B981809189
:103BA000C6008C93AA81BB810D911C91A881B9811B
:103BB0004D915527040F151FAA81BB810D931C93AE
:103BC000AA81BB818D919C91AC81BD81AD90BB24BC
:103BD000A6EEB1E0AA0CBB1CAA0DBB1D8D939C9355
:103BE000AC81BD818C918F5F8C9310F40C94A61DD9
:103BF00081E0AC81BD818C93AC81BD810C91043698
:103C000018F011F00C94231EEC81FD81A190BB24CF
:103C1000E0E5F0E0AA0CBB1CEA0DFB1DAC81BD8108
:103C2000AD90BB24A6EEB1E0AA0CBB1CAA0DBB1D37
:103C30007BE70E94002EAC81BD818C918F5F8C93BD
:103C400010F40C94FC1DE8E2FDE50E94E21E0E94C7
:103C5000EE1E84E0481A80E0580A2696089581E016
:103C60000E941F2DF8940E949919A881B981809112
:103C7000C6008C93A881B9810C910A3A11F00C947A
:103C8000661EE0E2FDE50E94E21E0E94EE1E0E941A
:103C9000231DA0ECB0E00C9107FB16F00C94491E1C
:103CA000A881B9818091C6008C93A881B9810C91BB
:103CB000033511F00C94601E0E94971D0C94661E33
:103CC000023511F00C94661E0E944D1D0E94F819D9
:103CD0000E94F51A789481E0481A80E0580A2296EA
:103CE00008958C9181508C9308950D911D912D9183
:103CF0003C910F5F1F4F2F4F3F4F3C932E931E93CE
:103D00000E930895ED91FC91EF5FFF4FFC93EE93BE
:103D1000089515E000E0009367011093680108958D
:103D200040916701509168010DEF13E40E942C2D22
:103D30000D53114600936701109368015991499101
:103D400027D0089509D00E942C2D00FC10D0089592
:103D500003D01ED001F8F9CF0024E89457FF02C029
:103D600009D0689400F80BD010F80124089502D00F
:103D700009D00895509540954F5F5F4F0895E8949E
:103D800017FF0895009510950F5F1F4F68940895D1
:103D9000352F242FE894452B11F468940895512F62
:103DA000402F0027112780E1440F551F001F111FCE
:103DB000021B130B416018F4020F131F4E7F8A95EC
:103DC00099F708950E94442D802D11F00AD0FACF62
:103DD00008958D9106D03A95E1F708958DE001D0D0
:103DE0008AE00090C00005FEFCCF8093C6000895D5
:103DF00000FC05D0089530D005D001F8F9CF37D0B8
:103E00003FD00895842F952FA62FB72FE894452BE8
:103E1000462B472B11F468940895402F512F622FA1
:103E2000732F0027112722273327F0E2440F551F55
:103E3000661F771F001F111F221F331F081B190B3E
:103E40002A0B3B0B416028F4080F191F2A1F3B1F48
:103E50004E7FFA9559F708950024E89477FF02C041
:103E600006D0689400F809D010F80124089512D003
:103E70004F5F5F4F6F4F7F4F0895E89437FF08956E
:103E800000951095209530950F5F1F4F2F4F3F4F96
:103E90006894089540955095609570950895319770
:103EA000F1F70895689462F80895E89462F8089527
:103EB000EF93FF93EE27E82BE92B31F0EAEFF0E0E8
:103EC0003197F1F70197D1F7FF91EF9108954E41A6
:103ED0004E00496E66696E6974790000302E3000BC
:103EE0008A930E94AF2AFD019BD5888187F9888338
:103EF000FA93EA93E4E5FBE40E94692AA8F188E2D8
:103F0000ABD0FA93EA93AA85BB85E4E1FEE494E0A2
:103F100003D6AA85BB85EC85FD850E948027AA85EE
:103F2000BB85FD010E947228ACE0BB27EA85FB85BA
:103F30000E94262C9C2D97708E85890F8E879695D2
:103F400020F4AA85BB850E94CB28A885B9850FD00F
:103F5000AE81BF810CD0AC81BD8109D0EC85FD85DF
:103F60005FD52A960E940D2D8A8123960895EA81B5
:103F7000FB81E883F983EA85FB850E948027AA817B
:103F8000BB81EC85FD85E883F9830C943027BA93D7
:103F9000AA930E94442D0A920E94442D0A92FA93F9
:103FA000EA93BA93AA9307FC09C0EC85FD85E883E0
:103FB000F983E885F985DF010E9480278C8180FDE7
:103FC0003CC0AE81BF81EA81FB810E94902AEA83D6
:103FD000FB838D818A958D83AE81BF81A883B98350
:103FE000AC85BD85E881F9810E948027EA81FB814B
:103FF000AA85BB850E94902AEA83FB83E881F98128
:104000000E9445278D818A958D8351F78C8181FD92
:104010001DD08C8182FD1AD08C8183FF03C0A885BE
:10402000B98516D08C8184FF06C0A885B985E88142
:10403000F9810E94452728960895AE81BF81A88303
:10404000B983EC85FD850E94AF2AD0CFAC85BD85B4
:10405000E881F9810C9480278F930E94002D8F9125
:10406000885021F01896BA93AA93FACF08950E9427
:10407000312882E003C00E94312880E48F930CE055
:1040800050D58F9109F008958F93B7D48F9108F090
:1040900032C58A93BA93AA9323DF82FB839582F970
:1040A0008A8388E1D9DFDF01EE81FF81FA93EA9309
:1040B0008A85A6D481FD06C008F434C0E6EAFBE494
:1040C000EBD418C0B0F1E4E7FBE4E6D4EC81FD8169
:1040D000B8D482F0AAD4AE81BF81A883B9830E94EC
:1040E0004527A885B985BCD4A885B985EE81FF810F
:1040F0000E944527EE81FF810E94B72A8A8531FD03
:1041000006C082FB97D486FF02C087FD84D4EE816F
:10411000FF81A885B9850E94AF2A26960E940D2DA1
:1041200023960895E885F985AE81BF810E94AF2A64
:10413000E1CFAE81BF8194D4DDCF0E9431280EE063
:10414000F0D409F0089559D408F0D5C4882737FB76
:1041500086F98A93BA93AA93C3DE81FB839582F989
:104160008A8380E279DFA885B985BA93AA93DF01B3
:10417000EA85FB8545D478F0E8E3FDE4A2D4E2E5E6
:10418000FDE491D4ACD4EA85FB85E883F983A88566
:10419000B9850E9445278C8581FF0BC0A885B9850C
:1041A0005FD4AA85BB85A883B983E885F9850E9479
:1041B000EC27EA85FB858C8582FB3CD487FD2BD4DC
:1041C00028960E940D2D239608950E94312806E01E
:1041D000A8D409F0089514D408F4089521D487F9D7
:1041E0008A93BA93AA9350D440F019F02396FD0114
:1041F0007EC4A881B9813CD422C080E22DDFE8854D
:10420000F985FA93EA931FE304EEFDD3E8F4E8EDB1
:10421000FBE457D4EAE0FCE446D461D4E885F985B0
:10422000AA85BB850E948027EA85FB85E883F98300
:10423000A885B9850E94452728960E940D2DE991F1
:10424000F991899187FBF6C3AA81BB8109D4AC811E
:10425000BD81A883B983EA81FB81AA85BB850E94C1
:104260003027E4E3FCE42DD4EEE5FCE41CD437D4A1
:10427000EC81FD81EED3DF0113D1AA81BB8100D493
:10428000AE81BF81A883B983AC81BD81EA81FB8106
:104290000E943027EC81FD81E883F983A885B985E8
:1042A0000E948027A885B985E0E8FCE40E94902A56
:1042B000A885B985E881F9810E943027EE81FF81C8
:1042C000E883F983AC81BD810E943027EA85FB85B4
:1042D000E883F983EE81FF81AA81BB810E94452793
:1042E000ABCF0E9431280CE01CD409F00895A6D36E
:1042F00087F98A93BA93AA93C7D378F019F02396D3
:10430000FD01F5C38A81882322F0E881F981F3D386
:1043100023C0A881B981B0D31FC00E94FF2CAA93EB
:10432000BA938E8187FD06C0EC81FD811FE300EE0C
:104330006AD3A0F4EC81FD81DF0149DFAA81BB8152
:1043400097D3AC81BD81A883B983EA81FB810E94A8
:10435000302722960E940D2D23960895EC81FD8131
:10436000E883F9836ED3AA81BB817ED3EA81FB8186
:10437000AC81BD810E943027EC81FD81DF0190D0AE
:10438000EC81FD81DF0123DFEC81FD8162D3E1CF90
:104390000E94312806E0C5D309F0089531D308F40E
:1043A00008953ED3882787F98A93BA93AA9380E227
:1043B00053DEE885F985FA93EA931FE305EE23D3EC
:1043C00080E048F110E403E0AC81BD811CD3C8F467
:1043D00047D3E885F985E883F983EA85FB850E9460
:1043E0004527EA85FB85E883F983AC81BD810E947E
:1043F0003027EA85FB85A885B9850E94EC2781E0F6
:104400000AC02ED3FD0107D3AA85BB85A883B98333
:104410000E94EC2782E09C85982B9C87E8E8FCE4CE
:1044200050D3E2EBFCE43FD35AD3E885F985AA8563
:10443000BB85A883B9830E9445278C858F7719F1A6
:10444000AE81BF81E0E8FCE40E94902A8C8580FF69
:1044500006C0EE81FF81F5D2E4E5FBE404C081FFF4
:1044600002C0ECE5FBE4AA81BB810E94902AE881AE
:10447000F981AE81BF810E944527E881F981AA8137
:10448000BB810E9445278C8587FF03C0EA85FB8599
:10449000C2D228960E940D2D239608950E9431289D
:1044A00007E13FD309F00895BA93AA930E94DC2A4A
:1044B00080E1D2DDFA93EA9341505C4F40FB569580
:1044C00047950695F79403F98F2D902F93FF04C01D
:1044D000809590958F5F9F4F9F702ED02DD000615B
:1044E00066270E94412BEC81FD810E94972A83E080
:1044F0008F93AA81BB81A883B983EE81FF81AC81B0
:10450000BD810E94EC27AC81BD81A883B983EA817B
:10451000FB810E944527EC81FD8193D28F918A9582
:1045200039F7EC81FD81AE81BF810E94AF2A2496CC
:104530000E940D2D2296089533E0969587953A9521
:10454000E1F7F81A090B08950E94312804E0E9D236
:1045500009F0089531FDDBC230FF03C037FF089535
:10456000CAC2BA93AA9388E277DDAA85BB85BA93BB
:10457000AA93E8E2FDE40E94692A20F0EC85FD851B
:10458000C0D26DC018970E94692A20F4EC85FD8581
:10459000B2D265C0AA85BB85E4E6FBE40E94902AFE
:1045A000A883B983EC85FD850E948027AA85BB85F9
:1045B000FD010E94AB28A885B985E8E1FDE492E001
:1045C000ABD2A885B98550D0AE81BF814DD0ECED7E
:1045D000FCE47ED2E6EFFCE46DD2EE81FF81E8835D
:1045E000F983A885B9850E943027EC85FD85E8838D
:1045F000F983E885F985AE81BF810E94EC27EC85BF
:10460000FD8527D2A885B985EEEBF9E50E94902AB1
:10461000EC85FD850E944527EA85FB850E94B72A27
:1046200031FD1DC0F580068111270F7000618F5F7D
:104630009340A8F031F0FF0C001F111F81509040F3
:10464000D1F7007FEC85FD858681978137FD03C01A
:10465000800F911F02C0801B910B868397832A963F
:104660000E940D2D22960895EC81FD81E883F98347
:10467000EA85FB850E948027AC81BD81EC85FD85A4
:10468000E883F9830C9430270E94312805E149D250
:1046900009F0089531FD33C28A93BA93AA93AC010D
:1046A00086818F70806E86838FE3878388E2D4DC77
:1046B000FA93EA934E5F53403327CA01992322F4B9
:1046C000809590958F5F9F4F83509040331FAC85AE
:1046D000BD85ECE6FBE40E94692A331F3E87832FE9
:1046E0008170480B504069F030683E87C42ED52E4B
:1046F000EE24D7FCE0940000FE2CEE81FF810E94A6
:10470000FD2B8E8581FD3BC0AC81BD81ADD1EA859D
:10471000FB85E883F983AC81FD81EC85FD850E94F2
:104720003027EA85FB858E85869540F0AC81BD817A
:10473000EA85FB850E943027EC85FD85A885B98533
:104740000E94AF2AFD017DD1A885B985A883B983D0
:10475000AC81BD810E944527EC85FD85E883F98306
:10476000EA85FB85A885B9850E94EC27AA85BB85CB
:10477000E4E7FDE40CDCEEE8FDE4AAD139C0AC814D
:10478000BD816ED18E8580FF09C0EC85FD85AA852F
:10479000BB850E94AF2AEA85FB855BD1EC85FD8550
:1047A000E883F983AC81BD818E8580FF02C0EA85F4
:1047B000FB850E943027EC85FD85AC81BD810E9480
:1047C000AF2AAA85BB85E8EAFDE4E1DBEAEDFDE47A
:1047D0007FD1EC81FD81E883F983DF010E9480278E
:1047E000EA85FB85E883F983AC81BD810E9480273F
:1047F000EA85FB85E883F983A885BF810E94EC27C1
:104800008E8581FF07C0EC81FD811BD1A885B9850C
:104810000E94AF2A8E8587FF16C0E4E0FEE4AC81DB
:10482000BD8192E079D1AC81BD81A883B983EE814D
:10483000FF810E948027EA85FB85E883F983AC81AC
:10484000BD810E9430278E8581FF08C0EA85FB85E7
:10485000E883F983A885F9850E943027EC85FD85DA
:10486000E883F983AA85BB850E9445278E8587FF4B
:1048700010C0EA81FB81E883F983AE81BF810E9489
:104880008027EC85FD85E883F983AA81BB810E949E
:1048900045272A960E940D2D23960895A881B98157
:1048A000EA81FB81249602D024970895FA93EA9333
:1048B000BA93AA930E94B72A3F93E881F9810E9494
:1048C000B72A9F91892F832B877079F0EC81FD8126
:1048D00082FD5BC080FD59C0892F832381FD55C0B7
:1048E00031FD59C037FD54C05BC0A881B981EEEBE2
:1048F000F9E50E94692A09F456C0AA81BB81EEEB52
:10490000F9E50E94692A09F446C00E94FF2CEA8159
:10491000FB810E94AF2AEC81FD81AE81BF810E94A4
:10492000AF2AEE81FF817CD0AEF4E881F981DF010E
:104930000E947228E881F981AA81BB810E94742AB1
:1049400029F0EE81FF810E9477251BC0E881F98163
:104950000E94DA24882787F98F93EE81FF81DF0197
:1049600095DEA881B981EE81FF810E948027E881D0
:10497000F981AE81BF81EADD8F91EE81FF8187FBF6
:1049800059D00E940D2D249608950E947725FBCFC3
:104990000E948125F8CFEC81FD810E948725F3CF0D
:1049A0000E947B25F0CFAC81BD81EA81FB810E9412
:1049B000AF2AE9CF0E94B72AAC0199273F77D1F4FB
:1049C0004F5F5340C2F05523A9F44533A0F44195FD
:1049D0004C5C9927483018F031964850FBCF71E075
:1049E0008081442319F0770F4A95FBCFE894782310
:1049F00009F068940895E89408950FEC11E403C059
:104A000006E41EE300C03681301737810FB63F77CA
:104A10000FBE31070895178130E8132717830895D3
:104A2000178117FB1F7717830895178117FB1068ED
:104A300017830895178117F917830895178117FBB6
:104A40000895068117810051104010F006831783E6
:104A5000089506811781005F1F4F0683178308950D
:104A6000EEEBF9E50C94902AE6ECF9E50C94902A2B
:104A7000ECE5FBE40C94902AECE4FBE40C94902A23
:104A8000E4E5FBE40C94902AEEEBF9E50E94692A38
:104A90008FB718978FBF0895A885B985A883B98364
:104AA000AE81BF8174CAAA85BB85A883B983AE8154
:104AB000BF816DCAAC85BD85A883B983AE81BF8136
:104AC00066CAAA85BB85A883B983A885B9855FCA4C
:104AD000AC85BD85A883B983A885B98558CAE88502
:104AE000F985E883F983AE81BF810C94EC270E949D
:104AF000A32B0C94972A0E94942B0C94972A6894C9
:104B000001C0E8940E949B2B17F90C94972A0E94ED
:104B10009F2B0C94972A18960E94902A9A95D9F761
:104B200008950E94AF2AFD010E94B72A04FF02C027
:104B300037FD09C003FF02C030FD05C00770032325
:104B400019F4AC010895D3DF98940895182D4454B6
:104B5000FB210940182D4454FB21E93F182D4454F2
:104B6000FB21F93FFE822B654715F73FCD3B7F6662
:104B70009EA0E63F0606D43888BEE9FAA8BDC4B1B7
:104B8000B4BD9EEE213EAD529C804F7E92BE9015EC
:104B9000CB19A001FA3E7751C1166CC156BF4C55D6
:104BA00055555555A53F061A7CD5CF5A3AD9E53DFE
:104BB000EB9C2B8AE6E55ABE7DFEB157E31DC73E4E
:104BC000D561C119A0012ABFA6F810111111813FAA
:104BD000495555555555C5BF0602D38AD40B9B6B15
:104BE000713F165C3E334143E3BFD92D8A174BC753
:104BF00015407B9027DE314330C0599277DA079019
:104C00003340D5AFCE066C6520C00581AB0E5E0B80
:104C1000597B2DC05490FE25C09F5140D776356DED
:104C2000BB6562C09DBFFF8456706140AC07360A09
:104C3000229848C00582089F8E98C34F683F0F296D
:104C4000F9599207E2BF6A3EF3BAF5DF1B4068AB41
:104C500001ACAA9139C01D08F34062893C4004812F
:104C60008C5DBFB6A2F235C0427F6AAF1962624066
:104C7000EE63909508FE77C0BE44B6B009677540F4
:104C8000075C143326A6913C050A9425F7A17F0002
:104C9000ECBF7A806B5B542830C0730288368CC0BE
:104CA00052C025BA052DBFB85EC08EEC28FD69360E
:104CB00050C005813C60145BC4DB384025FAB84322
:104CC000DDA064403BBEE2D2180E7B40EA49B0133F
:104CD0003F567E40EC62BDFB9E5168400308E84BA6
:104CE000E4D5CD89203F7E2CCA0CD1069F3F000021
:104CF00000000000F03F0480A05F36BCB62EC93E25
:104D0000C0B608B539AE643F74E087980917CD3F47
:104D1000000000000000004000000000402EE63FC0
:104D2000CAAB79CFD1F7B73EEF39FAFE422E8640B3
:104D3000D2BC7ADD2B2386C0030A383F4FD2D892EB
:104D4000C9C0DD9DFCA5EC993141769129D3EA1FBC
:104D500071C104817265B3EEA5B8CA4096BC2A58E9
:104D6000BC2734C1EFD8EAC28FD97741315ABE3C53
:104D7000E0AF89C1030A840E6CDC3D44E9BF6B7B64
:104D80000273FC623040202A2211060950C00381C0
:104D90000A6DEC430DD641C00EE42A1180817340A8
:104DA0003B3FB319890D88C00682B01BC393C2B4C0
:104DB0001A3FF252563FF5D6DF3F116992EDBAD253
:104DC00012402EEB3EC672FF2C404DC84B92D6EFE0
:104DD0003140F8DC7E7D63D51E4005818EEF97AEB5
:104DE0002093264033C0194E2C9D4640BDBD26A3BE
:104DF00033BF544021AE5EEBE2C95140B2251F9E45
:104E00000A203740A80C615C10D02B3F0000000046
:104E10000030E63F83C8C96D305FF43F00000040BA
:104E2000FB21E93F000000002D44643E7051CC9806
:104E30009846E83C88276681778177FB87F97F77FA
:104E40006050704011F4826007C0605F7F4722F0BD
:104E500011F4816001C08460089560D404D079C3E6
:104E60000F0101D079C3FD01FF93EF9387818F93E9
:104E700090E889278783F0010BD08F91EF91FF9104
:104E8000878308954BD404D064C30F0101D064C359
:104E900000E05FD409F008959A01281B390B1AF439
:104EA000D0010F01F5CF00272733300708F084C465
:104EB000822F82D396D3A4D3372F36270AF4C8D3B0
:104EC000F0018081A80E8181B81E8281C81E838175
:104ED000D81E8481E81E8581F81E86818F708061CE
:104EE000081F1AF4B5D380E8682705FF02C081E0E7
:104EF00085D304FD01C0E8D39DC310D404D029C3D9
:104F00000F0101D029C308E124D409F00895480F06
:104F1000591F4F5F534067276F935F934F9304D49C
:104F20002227F00154D393E0110F331F441F551F64
:104F3000661F771F881F9A95B9F7FD01A7E0BB2769
:104F40009191A13011F49F709061992301F1939F89
:104F5000A00CB11CBB1F959FB695C01CD11CBB1FDC
:104F6000979FB695E01CF11C0B1F919F200DA11C73
:104F7000BB1F949FB695B01CC11CBB1F969FB695D6
:104F8000D01CE11CBB1F989FB695F01C011DAA9573
:104F900049F02A2DAB2CBC2CCD2CDE2CEF2CF02E86
:104FA0000027CECF4F915F916F9104FB16F039D35C
:104FB00002C04F5F5F4F3EC3FF9309901124F8E09A
:104FC000069408F4190E17940794FA95D1F7FF91F7
:104FD0000895A4D304D0BDC20F0101D0BDC204E224
:104FE000B8D309F00895481B590B41505C4F67270F
:104FF0006F935F934F93F001DFD22FEFFD01E7D264
:10500000ADE3BA2FB77019F420952F932FEFA116A7
:10501000B306C406D506E606F706080738F0A11A57
:10502000B30AC40AD50AE60AF70A080B221FAA0C1B
:10503000BB1CCC1CDD1CEE1CFF1C001FAA9509F735
:105040002095AF90BF90CF90DF90EF90FF900F91A1
:105050004F915F916F9104FB1EF0E3D2415050409D
:10506000E9C2E881F981AA81BB810895FADF68D29B
:105070001F77FD015CC2F5DF02D0FD0158C277D277
:105080009BD2AC01632F61FD4FC360FD4DC362FD38
:105090005AC34E5F534022F119F15523A9F7463305
:1050A00098F7483048F00F2DFE2CED2CDC2CCB2C43
:1050B000BA2CAA244850A8F7413048F0AA0CBB1CCF
:1050C000CC1CDD1CEE1CFF1C001F4150A9F7702FEB
:1050D000707E0F714EEF53E0F7D214D3A9F2D1C214
:1050E0002FC2BFDF3CD2FD0142D2AC0199273F77EE
:1050F00011F54F5F53401AF417D39FEF18C2552391
:10510000D1F44533C0F441954C5C9927483030F0D8
:105110008081982B882781934850F8CF7FEF80813A
:10512000442319F0770F4A95FBCF672F60956823CA
:10513000962B87238083089594DF878187FFD2CFC2
:10514000BF93AF93CFDFEF91FF91992311F0DF0170
:1051500028C0089586DF03D2FD0109D2AC013F7754
:10516000C9F48E5F934012F4DFD2E1C1992391F428
:10517000863380F487818F938F778783FF93EF93B4
:105180000DD0EF91FF9187819F919078892B878334
:10519000DF01A8CF0895EEEBF9E506C0E6ECF9E5EE
:1051A00003C0EEEBF9E50EC05D01FF93EF930E94A3
:1051B000FF2CEF91FF91B4D1F501FA93EA9365DEEC
:1051C00022962BC45D01FF93EF930E94FF2CEF9179
:1051D000FF91A6D1F501FA93EA9342DE22961DC40F
:1051E000BA93AA93FA93EA9388278A930A93229709
:1051F00002D028960895BBD18C013323E9F0AE810B
:10520000BF8137FF02C08DE28D9331FF05C080E37F
:105210008D9388278D93089530FF05C0E2EDFEE35E
:105220000E94362DF6CF32FF05C0EEECFEE30E9461
:10523000362DEFCFAE83BF8380E10E94002D2497EF
:10524000AA83BB833896E883F983EA85FB8587D1F7
:10525000EC81FD8187818F7787832FEF33E0021701
:10526000130738F5E0E8F9E587E099279B878A87F7
:10527000AC81BD812ED19B8501F4991F9B8790FF46
:105280000BC0B097B097A881B9814AD1F896EE8348
:10529000FF8333DEEE81FF818A858A9541F7A881FD
:1052A000B981B097B0973CD128DE9B8593959195B5
:1052B0001DC0E8E4F9E587E09FEF9B878A87AC8112
:1052C000BD8107D19B85991F9B8790FD0AC0F096F1
:1052D000A881B98125D1F897EE83FF830EDEEE8198
:1052E000FF818A858A9551F79B8590959B878C8550
:1052F0009D858A839B83EC81FD8139D1AC015CD192
:1053000011274D5F5340483048F0102F0F2DFE2CD1
:10531000ED2CDC2CCB2CBA2CAA244850442351F081
:10532000AA0CBB1CCC1CDD1CEE1CFF1C001F111F9B
:105330004A95F4CFAC85BD851196AC87BD87AA830D
:10534000BB83AFE8AF8330E8E8EBF8E53E83B3D149
:10535000BFEFA4E0A216B306C406D506E606F7061C
:105360000807190740F0A21AB30AC40AD50AE60AC8
:10537000F70A080B190BBB1F9695879577956795CC
:10538000579547953795279548F40024201D301DE3
:10539000401D501D601D701D801D901DAA95D1F6E9
:1053A000B0952B2F20633E814F8133231AF4203395
:1053B00009F060D0AC85BD852D93AC87BD87339552
:1053C0004317B0F430D015D08B85882371F095E465
:1053D0009D931AF481959DE29D93982F880F890FD4
:1053E0009927991F8A879B8754D024960C940D2D5A
:1053F000ADCFAA81BB81FD01119793E081919A9570
:1054000011F08033D9F3939501C081918D939A95D2
:10541000E1F78081882309F08EE28D9388238191C2
:10542000E1F7119708959885992309F090E388276B
:1054300032508E93253350F49923D9F432508E9103
:105440008033B9F49C933A95D1F708958E91839562
:105450008A3311F08C9308959C933A95323009F475
:1054600090E33F3F99F781E312968C938B85839568
:105470008B8708953F774885442311F04F3008F01B
:105480004EE04D5F532F515F451708F0452F4F8376
:105490000895E8EBF9E5689423E004E01FEF6591D7
:1054A00075918617970710F0861B970B111F76953D
:1054B00067950A95B1F710951EF4112319F0E89439
:1054C00010631D932A9549F711271C930895A8810D
:1054D000B981661778E06FB78D9195917A9599F0BB
:1054E0006FBF89076FB7F8CFE881F981AA81BB81C7
:1054F000661778E06FB78D9191917A9521F06FBF23
:1055000089076FB7F8CF70E8872797276FBF89079C
:1055100031F06FB7892B12F071E067276FBF0895E4
:1055200088E005900D928A95E1F718970895A0827A
:10553000B182C282D382E482F58206831783089502
:10554000A080B180C280D380E480F580068117817D
:105550000895EC81FD81EBCFE881F981E8CF88E007
:1055600091919D938A95E1F71897389708958681D0
:105570009781332797FB37F988949F7721F4882305
:1055800011F4326008952FEE28172FE7290740F411
:105590002FE02823089411F43160089534600895B1
:1055A000807F9695879596958795969587959695FC
:1055B0008795989488940895A080B180C280D38004
:1055C000E480F58006810F70006122270895108124
:1055D0003181428153816481758186818F708061C0
:1055E0000895883050F02A2DAB2CBC2CCD2CDE2C0D
:1055F000EF2CF02E00278850F4CF0895689401C056
:10560000E894882369F00595F794E794D794C794B4
:10561000B794A794279516F44F5F5F4F8A95F1CF03
:105620000895220FAA1CBB1CCC1CDD1CEE1CFF1C09
:10563000001F089501D025C0203848F011F4A0FEC5
:1056400006C0089412D005FF089581E0D7CF0895D1
:105650002095A094B094C094D094E094F0940095D8
:105660000F9200240894201D0F9050F40F920024F4
:10567000A01CB01CC01CD01CE01CF01C001D0F9016
:1056800008955523B2F0352F342B99F03FEF43178F
:1056900037E0530778F4440F551F440F551F440F4C
:1056A000551F440F551F0F7E042B152F67FB17F94D
:1056B00008953AC040C02591359145915591659125
:1056C000759185919591089587E03F2D303230E0B6
:1056D000030778F40F2DFE2CED2CDC2CCB2CBA2CF0
:1056E000A22E2227485050408A9579F74427552703
:1056F0001BC088E004FD05C094DF415050408A95EE
:10570000C9F708950F9200240A280B280C280D28A9
:105710000E280F28002A00200F900895EA81FB81AF
:10572000A881B9810F010895AA24BB2465017501E0
:10573000850198940895F8DF00EF1FE70895F4DFDE
:1057400000EF1FE308958FEFA82EB82EEFDF1F772D
:1057500008950DDF632FAC01FD0109DF732F00C039
:10576000372F362B3F7709F4089532FDECCF262FE3
:105770002727372F60FB32F961FB33F93F70EEECDE
:10578000F9E5002311F427FD3C96030FE00F0027F5
:10579000F01F849187FDD7CF86FDCDDF85FDC4DF67
:1057A00084FD0AD083FD0AD082FD0AD081FD0BD092
:1057B00080FD0BD098940895F001C2CEFD01C0CEBB
:1057C00067FB17F9089577FBFCCF27FBFACFCD9045
:1057D000DD2402C0CD90DD90EE24FF24D7FA6EF4D4
:1057E0008FEFE82EF82E09C0CD90DD90EE24FF2437
:1057F00017C0CD90DD90ED90FD90AA24BB2400272A
:10580000112722276627FF2012F415D0606843E293
:1058100054E05ADF36DF8BCECD90DD90ED90FD90D9
:10582000AA24BB24002711272227662743E254E03D
:105830004BDF27DF7CCEC094D094E094F09481E0DD
:10584000C80E8827D81EE81EF81E089590DE31FD88
:1058500019C032FD17C030FD2AC08E5F934092F010
:10586000992329F5803238F4A7DE81958B5DB9DE66
:10587000E894C6DE0CC0CC24C094DC2CEC2CFC2CB0
:10588000F69412C0CC24DD24EE24FF2410C080E85E
:10589000B81650F031F4BA28B22AB81611F4C0FC88
:1058A00003C0CDDFF7FCE7CF37FF01C0C4DFCD92E7
:1058B000DD92ED92FD92089500000000000000C806
:1058C00000000000000000140000000000000002C2
:1058D00033333333333333001F85EB51B81E0500A8
:1058E000508D976E12830000228E75711B0D000083
:1058F000378E588B4F0100006C41EF8D2100000066
:105900005853FE5A03000000893BE6550000000092
:10591000F405970800000000FFE6DB00000000002F
:1059200080FD150000000000F332020000000000BE
:105930004C38000000000000A1050000000000003D
:105940009000000000000000EB24A7F11E0ECC67C1
:1059500063B3D86275F6DD5373C8A1A031E5E5499C
:10596000B49DD9794378EA44000000A2941A6D42AC
:105970000000000080842E410000000000408F40A5
:105980007A84EA6EF03F1218AAAEFF5E8016012CF0
:10599000D82F768A4F62F735A78EA899C257F33A67
:1059A00011EA2D819997713D8DEDB5A0F7C6B03EF6
:1059B000FCA9F1D24D62503F2003500008000000C6
:1059C00000000000F03F000000000000E03F000881
:1059D00010001010100008082000000810001080AF
:1059E0001000080820000041200041418000208074
:1059F000200000204400418044002020800088E0F6
:105A00000FB6F8945A924A92E42DF52DA42DB52D97
:105A1000480E8827581E0FBE08950FB6F894499077
:105A200059900FBE089501911191219130810895EF
:105A3000481A590A0895481A8827580A0895992734
:105A40005A924A92480E591E0895AA0CBB1CAA0CE1
:105A5000BB1CAA0CBB1C08950F92B801469F800185
:105A6000479F100D569F100D0F9008950E94442DD2
:105A70000D920020D9F70895903029F08C91880F6D
:105A80009A95E9F78C930895C8953196002008956A
:105A9000040F151F261F371F089504171507260723
:105AA00037070895000F111F221F331F0895009517
:105AB0001095209530950F5F1F4F2F4F3F4F089542
:105AC000019110810FC00E94132D0EC00E94132D52
:105AD00010C00191108117FF05C03FEF2FEF04C0E8
