:100000000C94340018950000189500001895000015
:10001000189500001895000018950000189500002C
:10002000189500001895000018950000189500001C
:10003000189500001895000018950000189500000C
:100040000C945201189500001895000018950000B6
:1000500018950000189500001895000018950000EC
:1000600018950000189500008FEF8DBFC0EAE8ECEE
:100070004E2E88E08EBFD8E0F7E05F2EA89584B7BB
:10008000082E877F84BF88E1992780936000909332
:100090006000EEEFF7E0A0E0B1E088278D933197A4
:1000A000E9F78CE08093C40080E08093C50088E18C
:1000B0008093C10072E07093C0000E94D215662444
:1000C0007FE774B97FEF75B970E077B97FEF78B9E2
:1000D00085E085BD80E084BD77EE76BD70916E00D1
:1000E000716070936E007894539A559A529AACE06E
:1000F000B1E0E6E2FBE40E94E021A4E1B1E0E6E247
:10010000FBE40E94E021ACE1B1E0E6E2FBE40E9406
:10011000E021A4E2B1E0E6E2FBE40E94E021ACE2EF
:10012000B1E0E6E2FBE40E94E02180E08093580128
:1001300080E090E0A2E0B1E08D939C93709100018B
:100140007F7B70930001709100017F7D70930001AF
:10015000709100017F777093000180E0809301012E
:10016000A0E7B1E0EEE2FBE40E94E021E0E5F0E090
:10017000A0E1B0E00E945F25013081E009F480E059
:100180008F93E0E5F0E0A0E1B0E00E945F2502304F
:1001900081E009F480E09F9189238F93E0E5F0E00E
:1001A000A0E1B0E00E945F25033081E009F480E027
:1001B0009F918923882311F40C94E700E0E5F0E097
:1001C000A0E1BB2780E08C937BE70E944E25E1E510
:1001D000F0E0A0E1B0E00E945F25013011F40C9442
:1001E000FA00E1E5F0E0A0E1BB2788E08C937BE733
:1001F0000E944E25E8E6F1E00E945C1EA2E6B1E016
:100200008C930091620145E00423A3E6B1E00C93D6
:1002100000916301003018F011F00C9411010C945E
:100220002001A8E6B1E0BA93AA93E6E3FBE4A4E0D8
:10023000B1E00E94E021E0E7F1E00E942E1F22964B
:10024000A8E6B1E0E6E2FBE40E94B92111F00C94CB
:100250003801A8E6B1E0BA93AA93E6E3FBE4A4E090
:10026000B1E00E94E021E0E7F1E00E942E1F22961B
:100270000E94D6020E949F020E942C0E0E9412141D
:100280000E948C1388EE93E00E948B160E948B08CC
:100290000E948C1388EE93E00E948B160C944A0106
:1002A000F894FFCF0F921F922F923F924F925F923E
:1002B0007F92AF92BF920F931F932F933F934F93D1
:1002C0005F936F937F938F939F93AF93BF93CF93DE
:1002D000DF93EF93FF938FB78F93A8E7B1E0BA93C3
:1002E000AA930E9418112296A7E5B1E0BA93AA93A7
:1002F000A8E7B1E0BA93AA930E94FA0F249600915E
:100300005701003080E010F009F081E08F93A2E007
:10031000B1E00D911C91003B54E0150780E014F012
:1003200009F081E09F918923882311F40C94A9019D
:10033000809157018093580180E08093570180E0BD
:1003400090E0A2E0B1E08D939C930E9414130C9472
:10035000810200915701003011F00C94B1010C940E
:10036000540200915701003881E009F080E08F933A
:1003700000915801003081E009F080E09F918923CD
:10038000882311F40C940202A0E0B1E08C9186FB6A
:10039000882780F9809580FBA0E0B1E08C9186F9F8
:1003A0008C938091570180935801A0E0B1E08C912B
:1003B00086FB16F00C94FE0180914B01809359014D
:1003C0000E9486120E94D6028DE880934B01809194
:1003D000590180935301A8E6B1E0EEE3FBE40E94EB
:1003E000B92111F00C94F9018DE8809347010C9428
:1003F000FC018DE8809348010C9400020E94E512F4
:100400000E948C1300915701003811F00C940A02DD
:100410000C948102A0E0B1E08C9186FB81E00EF0AB
:1004200080E08F9300915701003080E010F009F0D8
:1004300081E09F918923882311F40C942902A7E578
:10044000B1E08C91805C8C93709100017F7B709304
:10045000000100915801003011F00C94520280917B
:10046000570180935801A9E5B1E0BA93AA93A7E593
:10047000B1E0BA93AA930E94D00F2496009159013B
:10048000013011F00C9448020E9400030C944A02BF
:100490000E941B040E948C1380E090E0A2E0B1E077
:1004A0008D939C930C94810280E080935801A0E08E
:1004B000B1E08C9186FB16F40C948102A2E0B1E0CD
:1004C0000D911C91003B54E0150711F00C946A0249
:1004D0000E94B512A2E0B1E00E94CB15A2E0B1E00B
:1004E0000D911C91003B54E015071CF011F00C9489
:1004F0007B020C94810281EB94E0A2E0B1E08D9349
:100500009C9377EE76BD8F918FBFFF91EF91DF9136
:10051000CF91BF91AF919F918F917F916F915F919B
:100520004F913F912F911F910F91BF90AF907F906E
:100530005F904F903F902F901F900F90189581E003
:100540000E946F2481E0A881B9818C93A881B98130
:100550000C91003118F011F00C94C00280E0A881D9
:10056000B981AD90BB24A3E3B1E0AA0DBB1D8C9370
:10057000A881B9818C918F5F8C9310F40C94A602A2
:1005800081E08093560180E08093590180E3A6E5E5
:10059000B1E0AD90BB24A3E3B1E0AA0DBB1D8C93E9
:1005A00081E0481A80E0580A2296089581E00E946E
:1005B0006F2481E0A881B9818C93A881B9810C91C5
:1005C000083018F011F00C94F7028DE0A881B98181
:1005D000AD90BB24A3E4B1E0AA0DBB1D8C93A88110
:1005E000B9818C918F5F8C9310F40C94DD0280E0C4
:1005F00080934B0181E0481A80E0580A22960895C2
:1006000081E00E946F2400910101003011F00C94F0
:10061000BB03709100017068709300010091560156
:10062000023081E009F080E08F93009134010030C6
:1006300081E009F080E09F9189238F930091570119
:10064000053080E010F009F081E09F918923882334
:1006500011F40C942E0381E0809356010091560111
:10066000093010F00C94720300915701053011F01D
:100670000C94600300915601013011F00C944A0370
:1006800080E880933401A6E5B1E08C918F5F8C9374
:100690000C945E03A6E5B1E0AD90BB24A2E3B1E00B
:1006A000AA0DBB1D0C9140E8040FA6E5B1E0AD908A
:1006B000BB24A2E3B1E0AA0DBB1D0C930C94720302
:1006C0000091570140E3041BA6E5B1E0AD90BB24C7
:1006D000A3E3B1E0AA0DBB1D0C93A6E5B1E08C919C
:1006E0008F5F8C9381E0A881B9818C9340915601F2
:1006F000A881B9810C91041718F011F00C949A0399
:10070000A881B981AD90BB24A3E3B1E0AA0DBB1DC4
:100710008C91A881B981AD90BB24ACE4B1E0AA1959
:10072000BB098C93A881B9818C918F5F8C9310F455
:100730000C94760380915601A881B9818C93A8818D
:10074000B9810C91083018F011F00C94B9038DE0C8
:10075000A881B981AD90BB24ACE4B1E0AA19BB0972
:100760008C93A881B9818C918F5F8C9310F40C9439
:100770009F030C941504009157014FE2041BA881BC
:10078000B9810C9300910101013011F00C94DC034C
:10079000E881F981A190BB24E8EFFFEF0E94752466
:1007A000EA0DFB1DACE0B1E098E07BE70E9451252B
:1007B0000E9419130C941004023011F00C941004D0
:1007C0000E946508ACE0B1E0E881F981A190BB240A
:1007D000E8EFFFEF0E947524EA0DFB1D98E00E94F0
:1007E0006225ECE0F1E00E945C1EA2E6B1E08C9391
:1007F0000091620145E00423A3E6B1E00C9300916F
:100800006301003018F011F00C9408040C940E04ED
:10081000ACE0B1E0E6E2FBE40E94E0210E941913A3
:1008200080E0809301010E948B0881E0481A80E0FB
:10083000580A2296089588E00E946F2481E00E9461
:100840006F2481E00E946F24A0E0B1E08C9187FBCF
:1008500016F00C947304009157010F3011F00C94B2
:1008600039040E949F020E94D6020E948C130C94AD
:1008700073040E94FD0E0E946508EAE5F1E0ACE019
:10088000B1E00E94FF21E0E5F0E0A0E1B0E00E94CD
:100890005F25033011F00C947304ECE0F1E0AC81BF
:1008A000BD810E947E1FECE0F1E0ACE0B1E00E946F
:1008B000DF1FAC81BD81BA93AA93E6E4FBE4A4E018
:1008C000B1E00E94E021EE81FF810E942E1F22965E
:1008D000ACE0B1E0BA93AA93AE81BF81ECE0F1E065
:1008E0000E94871E229680E08093010100915701AB
:1008F000013011F00C949104ECE0F1E0ACE2B1E0D5
:100900000E94FF21ACE0B1E0BA93AA93A4E1B1E068
:10091000ECE0F1E00E94871E22960E9478080C9479
:100920005608013411F00C9499040E9424130C947D
:100930005608023011F00C94B204ECE0F1E0ACE2A5
:10094000B1E00E94FF21ACE0B1E0BA93AA93ACE021
:10095000B1E0E4E1F1E00E94721E22960E94780864
:100960000C945608023411F00C94CF04ECE0F1E042
:10097000ACE2B1E00E94FF21ACE0B1E0BA93AA93EF
:10098000E6E2FBE4A4E0B1E00E94E021E4E0F1E073
:10099000ACE0B1E00E94721E22960C94560803301F
:1009A00011F00C94E804ECE0F1E0ACE2B1E00E945C
:1009B000FF21ACE0B1E0BA93AA93ACE0B1E0E4E18E
:1009C000F1E00E94C21E22960E9478080C945608FC
:1009D000033411F00C942705ECE0F1E0ACE2B1E057
:1009E0000E94FF21A0E0B1E08C9185FB16F40C94ED
:1009F0000605A2E0B1E08D919C91A4E6B1E08D9353
:100A00009C937091000170627093000180E197E205
:100A10008A939A930E94D915A6E6B1E00D931C9390
:100A2000A6E6B1E0ECE0F1E00E944423ACE0B1E0E6
:100A3000BA93AA93EEE4FBE4A4E0B1E00E94E021C3
:100A4000ECE0F1E00E942E1F22960C945608043030
:100A500011F00C944005ECE0F1E0ACE2B1E00E9452
:100A6000FF21ACE0B1E0BA93AA93ACE0B1E0E4E1DD
:100A7000F1E00E942E1F22960E9478080C945608DE
:100A8000043411F00C945D05ECE0F1E0ACE2B1E06F
:100A90000E94FF21ACE0B1E0BA93AA93EEE3FBE43D
:100AA000A4E0B1E00E94E021E4E0F1E0ACE0B1E0DC
:100AB0000E942E1F22960C945608063011F00C94BA
:100AC0006E05A0E0B1E08C9187FB16F40C946A05EA
:100AD0000E9465080E9419130C945608053411F001
:100AE0000C949605E0E5F0E0A0E1B0E00E945F25FF
:100AF00041E0040FAA81BB810C93AA81BB810C91B8
:100B0000033018F011F00C9487050C948B0580E0ED
:100B1000AA81BB818C93E0E5F0E0AA81BB817BE7F1
:100B20000E944E250E9419130C945608063411F0A9
:100B30000C94BA05ECE0F1E0ACE2B1E00E94FF21D8
:100B4000E4E1F1E0ACE0B1E00E94FF21ECE1F1E092
:100B5000A4E1B1E00E94FF21E4E2F1E0ACE1B1E008
:100B60000E94FF21ECE2F1E0A4E2B1E00E94FF214B
:100B70000C945608073011F00C94C50581E0809361
:100B800001010E9419130C945608083011F00C94BE
:100B9000D00582E0809301010E9419130C9456083D
:100BA000093011F00C94E205ECE0F1E0ACE2B1E0C8
:100BB0000E94FF21ECE0F1E0ACE0B1E00E9483197B
:100BC0000C945608093411F00C94F905ECE0F1E0AE
:100BD000ACE2B1E00E94FF21ACE0B1E0BA93AA938D
:100BE000ACE0B1E0ECE0F1E00E94C21E22960C9471
:100BF00056080A3011F00C941606ECE0F1E0ACE275
:100C0000B1E00E94FF21ACE0B1E0BA93AA93A8E65C
:100C1000B1E0ECE0F1E00E94C21E2296ECE0F1E0CF
:100C2000ACE0B1E00E9470170C9456080A3411F041
:100C30000C943306ECE0F1E0ACE2B1E00E94FF215D
:100C4000ECE0F1E0ACE0B1E00E941A18ACE0B1E0F9
:100C5000BA93AA93A8E6B1E0ECE0F1E00E942E1F5F
:100C600022960C9456080B3011F00C945006ECE0D0
:100C7000F1E0ACE2B1E00E94FF21ACE0B1E0BA9358
:100C8000AA93A8E6B1E0ECE0F1E00E94C21E229631
:100C9000ECE0F1E0ACE0B1E00E946C170C94560877
:100CA0000B3411F00C946D06ECE0F1E0ACE2B1E035
:100CB0000E94FF21ECE0F1E0ACE0B1E00E94A61858
:100CC000ACE0B1E0BA93AA93A8E6B1E0ECE0F1E0C1
:100CD0000E942E1F22960C9456080C3011F00C9492
:100CE0008A06ECE0F1E0ACE2B1E00E94FF21ACE06A
:100CF000B1E0BA93AA93A8E6B1E0ECE0F1E00E947B
:100D0000C21E2296ECE0F1E0ACE0B1E00E94D21706
:100D10000C9456080C3411F00C94A706ECE0F1E0AA
:100D2000ACE2B1E00E94FF21ECE0F1E0ACE0B1E028
:100D30000E94FD18ACE0B1E0BA93AA93A8E6B1E036
:100D4000ECE0F1E00E942E1F22960C9456080D3024
:100D500011F00C94B906ECE0F1E0ACE2B1E00E94D5
:100D6000FF21ECE0F1E0ACE0B1E00E94791A0C94D4
:100D700056080D3411F00C94CB06ECE0F1E0ACE237
:100D8000B1E00E94FF21ECE0F1E0ACE0B1E00E94B4
:100D9000D9190C9456080E3011F00C94DD06ECE0D5
:100DA000F1E0ACE2B1E00E94FF21ECE0F1E0ACE068
:100DB000B1E00E94831B0C9456080E3411F00C9481
:100DC000FA06ECE0F1E0ACE2B1E00E94FF21ACE019
:100DD000B1E0BA93AA93E6E5FBE4A4E0B1E00E9497
:100DE000E021E4E0F1E0ACE0B1E00E94941B229647
:100DF0000C9456080F3011F00C941C07A0E0B1E0E1
:100E00008C9187FB16F40C941507ECE0F1E0ACE252
:100E1000B1E00E94FF21ACE0B1E0E6E2FBE40E9419
:100E2000E0210E9419130C941A07709100017F773A
:100E3000709300010C9456080F3411F00C946C0759
:100E4000ECE0F1E0ACE2B1E00E94FF21ACE0B1E007
:100E5000E6E2FBE40E94E021A4E1B1E0E6E2FBE48B
:100E60000E94E021ACE1B1E0E6E2FBE40E94E02177
:100E7000A4E2B1E0E6E2FBE40E94E02181E0A88187
:100E8000B9818C93A881B9810C910A3018F011F0C6
:100E90000C946807E6E2FBE4A4E0B1E00E94E021E4
:100EA000A4E0B1E0E881F981A190BB24E8EFFFEF75
:100EB0000E947524EA0DFB1D98E07BE70E945125F6
:100EC000A881B9818C918F5F8C9310F40C944207A8
:100ED0000E9419130C945608003111F00C948507E8
:100EE000ECE0F1E0ACE2B1E00E94FF21ACE0B1E067
:100EF000BA93AA93A4E1B1E0ECE0F1E00E94941B64
:100F000022960E9478080C945608013111F00C9436
:100F10009D07ECE0F1E0ACE2B1E00E94FF21E4E1EA
:100F2000F1E0ACE0B1E00E94FF21ECE2F1E0A4E1ED
:100F3000B1E00E94FF210C945608013511F00C9489
:100F4000B1070E946508ECE2F1E0ACE0B1E00E947C
:100F5000FF21E4E1F1E0ACE2B1E00E94FF210C945A
:100F60005608013711F00C94C607A8E6B1E0BA9311
:100F7000AA93E6E3FBE4A4E0B1E00E94E021E0E70D
:100F8000F1E00E942E1F22960C945608023711F0B1
:100F90000C94D207A8E6B1E0EEE3FBE40E94E02166
:100FA0000C945608033711F00C94E6070E9465086C
:100FB000ECE0F1E0ACE2B1E00E94FF21E0E7F1E01B
:100FC000ACE0B1E00E94FF210C945608043711F008
:100FD0000C94F807ECE0F1E0ACE2B1E00E94FF21F4
:100FE000ECE0F1E0ACE0B1E00E94DF1F0C945608A9
:100FF000053711F00C940A08ECE0F1E0ACE2B1E046
:101000000E94FF21ECE0F1E0ACE0B1E00E947E1F25
:101010000C945608063711F00C941C08ECE0F1E033
:10102000ACE2B1E00E94FF21ECE0F1E0ACE0B1E025
:101030000E94791F0C945608073711F00C94300861
:101040000E946508ECE0F1E0ACE2B1E00E94FF2113
:10105000ACE0B1E0EEE5FBE40E94E0210C94560820
:10106000083711F00C9444080E946508ECE0F1E0A8
:10107000ACE2B1E00E94FF21ACE0B1E0E6E6FBE4C7
:101080000E94E0210C945608093711F00C94560880
:101090000E946508ECE0F1E0ACE2B1E00E94FF21C3
:1010A000ACE0B1E0EEE6FBE40E94E0210E948B0898
:1010B000709100017F77709300010E949F028AE087
:1010C000481A80E0580A26960895ECE1F1E0A4E27F
:1010D000B1E00E94FF21E4E1F1E0ACE1B1E00E9467
:1010E000FF21ECE0F1E0A4E1B1E00E94FF210895CE
:1010F000ECE1F1E0A4E1B1E00E94FF21E4E2F1E0E3
:10110000ACE1B1E00E94FF21A4E2B1E0E6E2FBE441
:101110000E94E021089581E00E946F2481E00E94F6
:101120006F2481E20E946F2481E00E946F2482E09C
:101130000E946F2481E00E946F2488E00E946F2447
:1011400084E00E946F2484E00E946F2488E00E9463
:101150006F2488E00E946F2484E00E946F2484E062
:101160000E946F2481E0A88DB98D8C93A88DB98DD4
:101170000C91083018F011F00C94D0088DE0A88D77
:10118000B98DAD90BB24A3E4B1E0AA0DBB1D8C9337
:10119000A88DB98D8C918F5F8C9310F40C94B60848
:1011A000ECE0F1E00E945C1EA2E6B1E08C930091BD
:1011B000620145E00423A3E6B1E00C93E0E5F0E032
:1011C000A0E1B0E00E945F25013011F00C94050908
:1011D000ACE0B1E0E6E7FBE40E94B92118F011F0C1
:1011E0000C94F708A3E6B1E08C918F5F8C93ACE090
:1011F000B1E0EEE7FBE40E94B92110F40C9405097C
:10120000A3E6B1E08C918F5F8C93E0E5F0E0A0E184
:10121000B0E00E945F25033011F00C942C09ACE083
:10122000B1E0E6E8FBE40E94B92118F011F00C945B
:101230001E09A3E6B1E08C918F5F8C93ACE0B1E026
:10124000EEE4FBE40E94B92110F40C942C09A3E60F
:10125000B1E08C918F5F8C9300916301003011F0AD
:101260000C94950CECE0F1E0AC81BD810E94791FFB
:10127000E0E5F0E0A0E1B0E00E945F25013011F070
:101280000C94F109AC81BD81BA93AA93EEE8FBE41A
:10129000A4E0B1E00E94E021E4E0F1E0AE81BF8192
:1012A0000E94C21E2296EC81FD81AC85BD850E9404
:1012B000DF1FEC85FD85AA85BB850E947623AE8164
:1012C000BF81BA93AA93AE85BF85EE81FF810E944C
:1012D000721E2296AE81BF81E6E9FBE40E94B9212D
:1012E00018F011F00C9476090C947A09AA85BB8544
:1012F0000E94BE1581E0A88DB98D8C93A88DB98D03
:101300000C91083018F011F00C94E009AA85BB8507
:101310000D911D912D913C914AE050E060E070E00C
:101320000E942E16A885B9850D931D932D933D938C
:10133000A885B9858C91A88DB98DAD90BB24A3E407
:10134000B1E0AA0DBB1D8C93AA85BB850D911D91A3
:101350002D913C914AE050E060E070E00E942E1632
:10136000AA85BB854D935D936D937D9340E050E0DE
:1013700060E070E0AA85BB850D911D912D913C9197
:101380000E949D2481E009F080E08F93A88DB98DA3
:101390000C91023080E010F009F081E09F918923E8
:1013A000882311F40C94D80988E0A88DB98D8C930A
:1013B000A88DB98D8C918F5F8C9310F40C947E095D
:1013C000A6E4B1E08C9180588C93ACE0B1E0E6E209
:1013D000FBE40E94B92110F00C94F1098AE080939B
:1013E0004B01E0E5F0E0A0E1B0E00E945F250030B5
:1013F00011F00C94730BACE0B1E0E6E2FBE40E9468
:10140000B92110F00C940A0A87E0AE89BF898C9349
:101410000C940E0A88E0AE89BF898C93AC81BD81A3
:10142000EEE9FBE40E94B92181E008F080E08F93AF
:10143000AC81BD81E6EAFBE40E94B92180E010F0B6
:1014400009F081E09F918923882311F40C944D0BBE
:10145000AC81BD81BA93AA93EE81FF81D2010E9433
:10146000FF2188E00E946F24AA8DBB8DBA93AA93B6
:101470000E948D0D269688E00E946B24EC81FD81F0
:10148000AC85BD850E94DF1FEC85FD85AA85BB85E7
:101490000E947623AE81BF81BA93AA93AE85BF85A1
:1014A000EE81FF810E94721E229640E050E060E0D3
:1014B00070E0AA85BB850D911D912D913C910E94F4
:1014C0009D241CF011F00C94670A0C94E10AEA8543
:1014D000FB85AC89BD890E94B324AC89BD890E947B
:1014E0007925AA89BB898C93AE89BF890C91AA8979
:1014F000BB894C91041BAA89BB890C93AA89BB891F
:101500008C918F5F8C93AA89BB898C91A88DB98DA2
:101510008C93AE89BF894C91A88DB98D0C9104171D
:1015200018F011F00C94CC0AAA85BB850D911D9181
:101530002D913C914AE050E060E070E00E942E1650
:10154000A885B9850D931D932D933D93A885B985E5
:101550008C91A88DB98DAD90BB24A3E4B1E0AA0D08
:10156000BB1D8C93AA85BB850D911D912D913C913E
:101570004AE050E060E070E00E942E16AA85BB852C
:101580004D935D936D937D93A88DB98D8C918F5FF5
:101590008C9310F40C94890AAA89BB89AD90BB2462
:1015A000A3E4B1E0AA0DBB1D8C9180588C93AA894D
:1015B000BB890C9141E0041BAE89BF890C930C944C
:1015C000FA0A80E0AE89BF89AD90BB24A3E4B1E004
:1015D000AA0DBB1D8C93AE89BF89AD90BB24A3E43B
:1015E000B1E0AA0DBB1D8C9180588C93AE89BF8948
:1015F0000E94BA15AE89BF890C91003080E010F0CE
:1016000009F081E08F93AE81BF81E6E2FBE40E94A6
:10161000B92180E010F009F081E09F9189238823AF
:1016200011F40C944B0BAE81BF81BA93AA93E6E5FB
:10163000FBE4A4E0B1E00E94E021E885F9850E9486
:10164000C21E2296EE81FF81AC85BD850E94DF1F00
:10165000EC85FD85AA85BB850E947623AA85BB857E
:101660008C91AE89BF89AD90BB24A3E4B1E0AA0DF3
:10167000BB1D8C93AE81BF81BA93AA93AE85BF8503
:10168000E885F9850E94721E2296AE89BF890E9464
:10169000BA150C94FA0A0C945B0BEC81FD81D20113
:1016A0000E94FF2188E00E946F240E94B00C2296C5
:1016B00088E00E946B24ACE0B1E0E6E2FBE40E942B
:1016C000B92110F00C94670B8AE080934B01ACE0D9
:1016D000B1E0E6E2FBE40E94B92111F00C94730B37
:1016E00080E880934B01E0E5F0E0A0E1B0E00E94EB
:1016F0005F25023011F00C94A30BEC81FD81D20127
:101700000E94FF2188E00E946F240E94B00C229664
:1017100088E00E946B24ACE0B1E0E6E2FBE40E94CA
:10172000B92110F00C94970B8AE080934B01ACE048
:10173000B1E0E6E2FBE40E94B92111F00C94A30BA6
:1017400080E880934B01E0E5F0E0A0E1B0E00E948A
:101750005F25033011F00C94930CAC81BD81BA93DA
:10176000AA93EEEAFBE4A4E0B1E00E94E021EE815E
:10177000FF810E94C21E2296EC81FD81AC85BD8551
:101780000E94DF1FEC85FD85AA85BB850E9476231C
:10179000AE81BF81BA93AA93AE85BF85EE81FF81EA
:1017A0000E94721E2296AE81BF81E6E9FBE40E9490
:1017B000B92118F011F00C94DF0B0C94E30BAA85FF
:1017C000BB850E94BE15AA85BB850D911D912D91EB
:1017D0003C914CE350E060E070E00E942E16AA813C
:1017E000BB814D935D936D937D93AA85BB850D91D0
:1017F0001D912D913C914CE350E060E070E00E941F
:101800002E16A881B9810D931D932D933D93A88128
:10181000B9810C914AE00E946925A4E4B1E08C935F
:10182000A881B9810C914AE00E946925A5E4B1E044
:101830000C9383E0A88DB98D8C93A88DB98D0C91F4
:10184000063018F011F00C947F0CAA81BB810D9129
:101850001D912D913C914AE050E060E070E00E94C3
:101860002E16A885B9850D931D932D933D93A885BC
:10187000B9858C91A88DB98DAD90BB24A3E4B1E05E
:10188000AA0DBB1D8C93AA81BB810D911D912D9139
:101890003C914AE050E060E070E00E942E16AA8180
:1018A000BB814D935D936D937D9340E050E060E08C
:1018B00070E0AA81BB810D911D912D913C910E94F8
:1018C0009D2481E009F080E08F93A88DB98D0C9163
:1018D000033080E010F009F081E09F918923882394
:1018E00011F40C94770C88E0A88DB98D8C93A88D99
:1018F000B98D8C918F5F8C9310F40C941D0CA6E421
:10190000B1E08C9180588C93ACE0B1E0E6E2FBE46E
:101910000E94B92110F00C94900C8AE080934A0147
:1019200088E180934B010C94AA0C8DE080934B01CD
:1019300085E180934A0186E18093490186E18093A5
:10194000480187E18093470186E1809346018DE05D
:10195000809345018FE4481A80E0580A6A960895FA
:1019600081E00E946F2481E00E946F2481E20E9446
:101970006F2481E00E946F2482E00E946F2481E046
:101980000E946F24EC85FD850027AE81BF810E94F7
:101990004020AE81BF810E947925AC81BD818C93AE
:1019A000ACE0B1E0E6E2FBE40E94B92110F00C9457
:1019B000DF0C87E0A885B9858C930C94E30C88E054
:1019C000A885B9858C9381E0AA85BB858C93AC8171
:1019D000BD814C91AA85BB850C91041718F011F0BC
:1019E0000C94870DAA85BB858C91EE81FF8101E067
:1019F0000A93AB81BC810E943825AA81BB81EEECA1
:101A0000FBE40E947F2511F00C940C0D8AE0A88164
:101A1000B9818C930C94650DE0EDFBE40E947F2569
:101A200011F00C94280D85E1A881B9818C93AC81CB
:101A3000BD810C91AA85BB854C91041BA885B985F5
:101A40000C93A885B9858C918F5F8C930C94650D50
:101A5000E2EDFBE40E947F2511F00C94440DA88573
:101A6000B9858C918F5F8C93A885B985AD90BB2487
:101A7000A3E4B1E0AA0DBB1D0C9140E8040FA881BE
:101A8000B9810C930C94650DAA81BB81E4EDFBE454
:101A90000E947F2581E008F480E08F93AA81BB81BA
:101AA000E6EDFBE40E947F2581E010F009F080E084
:101AB0009F918923882311F40C94650DAA81BB8121
:101AC0000E940625A881B9810C93A885B9850C913F
:101AD000003018F011F00C946F0D0C947F0DA8815C
:101AE000B9818C91A885B985AD90BB24A3E4B1E000
:101AF000AA0DBB1D8C93A885B9850E94BA15AA852D
:101B0000BB858C918F5F8C9310F40C94E70C87E26B
:101B1000481A80E0580A2C96089581E20E946F24AA
:101B200088E00E946F2484E00E946F2481E00E947C
:101B30006F2488E00E946F2481E00E946F2481E07E
:101B40000E946F2481E00E946F24EA89FB89AC85A2
:101B5000BD850E94DF1FEC85FD85AA85BB850E949F
:101B60007623EA85FB85AE85BF850E94B324AE85CA
:101B7000BF850E947925AC81BD818C93A889B989E4
:101B80000C91AC81BD814C91041BAA81BB810C934B
:101B9000EA89FB89AE81BF810E94FF2181E0A88193
:101BA000B9818C93AA81BB814C91A881B9810C9198
:101BB000041718F011F00C94F40DAE81BF81BA93A4
:101BC000AA93E6E5FBE4A4E0B1E00E94E021E88509
:101BD000F9850E94C21E2296A881B9818C918F5FDF
:101BE0008C9310F40C94D20DEE81FF81AE81BF81F5
:101BF0000E94ED1F81E0A881B9818C93AA81BB81ED
:101C00004C91A881B9810C91041718F011F00C9433
:101C1000200EAE81BF81BA93AA93E6EBFBE4A4E069
:101C2000B1E00E94E021E885F9850E94C21E22965B
:101C3000A881B9818C918F5F8C9310F40C94FE0D68
:101C4000EE81FF81AC89BD890E94FF2189E3481A9A
:101C500080E0580A6096089581E20E946F2481E036
:101C60000E946F2481E00E946F2482E00E946F2412
:101C700081E00E946F2481E00E946F24AA85BB85C9
:101C8000E8EDFBE40E94862489E180934B0185E026
:101C9000AE81BF818C93AA85BB850E947925A881DE
:101CA000B9818C9381E0A885B9858C93A881B9818D
:101CB0004C91A885B9850C91041718F011F00C947B
:101CC000F70EA885B9858C91EA85FB8501E00A931A
:101CD000AD81BE810E943825AC81BD81EEECFBE474
:101CE0000E947F2511F00C947B0E8AE0AA81BB81B3
:101CF0008C930C94D40EE0EDFBE40E947F2511F050
:101D00000C94970E85E1AA81BB818C93A881B9813F
:101D10000C91A885B9854C91041BAE81BF810C93B1
:101D2000AE81BF818C918F5F8C930C94D40EE2EDC9
:101D3000FBE40E947F2511F00C94B30EAE81BF81AD
:101D40008C918F5F8C93AE81BF81AD90BB24A3E457
:101D5000B1E0AA0DBB1D0C9140E8040FAA81BB8124
:101D60000C930C94D40EAC81BD81E4EDFBE40E9495
:101D70007F2581E008F480E08F93AC81BD81E6EDA2
:101D8000FBE40E947F2581E010F009F080E09F9144
:101D90008923882311F40C94D40EAC81BD810E9458
:101DA0000625AA81BB810C93AE81BF810C910030C6
:101DB00018F011F00C94DE0E0C94EF0EAA81BB818A
:101DC0008C91AE81BF81AD90BB24A3E4B1E0AA0D9C
:101DD000BB1D8C93AE81BF818C9181508C93A88563
:101DE000B9858C918F5F8C9310F40C94560E87E21A
:101DF000481A80E0580A2C96089588E00E946F24C3
:101E000088E00E946F2481E00E946F2481E00E949C
:101E10006F2481E00E946F24AAE5B1E0E6E2FBE4D2
:101E20000E94E021AE81BF81E6E2FBE40E94E02156
:101E300080E0AC81BD818C9381E00E946F24009191
:101E4000560141E0041BA881B9810C9381E0AC816B
:101E5000BD818C93A881B9814C91AC81BD810C91DD
:101E6000041718F011F00C94C50FAC81BD81AD9032
:101E7000BB24A3E3B1E0AA0DBB1DEA85FB850E944C
:101E8000372380E0AA81BB818C93AA85BB85EEEBCA
:101E9000FBE40E94B92118F011F00C94510F0C943E
:101EA000640FAA85BB85BA93AA93E6ECFBE4A4E091
:101EB000B1E00E94E021EC85FD850E94721E229611
:101EC00081E0AA81BB818C93AE81BF810C910030EF
:101ED00011F00C94870FAAE5B1E0BA93AA93E6E556
:101EE000FBE4A4E0B1E00E94E021EAE5F1E00E9419
:101EF000C21E2296AAE5B1E0BA93AA93AC85BD852D
:101F0000EAE5F1E00E94871E22960C94AC0FA885AA
:101F1000B985BA93AA93E6E5FBE4A4E0B1E00E9498
:101F2000E021EA85FB850E942E1F2296AA85BB85AB
:101F3000BA93AA93AA85BB85EC85FD850E94C21E33
:101F40002296AAE5B1E0BA93AA93AC85BD85EAE5ED
:101F5000F1E00E94871E2296AA81BB810C9101307C
:101F600011F00C94BD0FA885B985EEE3FBE40E9447
:101F7000E02181E0AE81BF818C93AC81BD818C91E9
:101F80008F5F8C9310F40C942A0F81E0481A80E044
:101F9000580A229683E1481A80E0580A2A96089542
:101FA00080E0AA81BB818C93A881B9810C910F320A
:101FB00080E010F009F081E08F93A881B9810C9145
:101FC0000A3381E008F080E09F918923882311F48F
:101FD0000C94EE0F81E0AA81BB818C93A881B9811A
:101FE0000C91053011F00C94F90F81E0AA81BB81AE
:101FF0008C93089580E0AA81BB818C93A881B981DC
:102000000C91023011F00C940B1080E3AA81BB817B
:102010008C930C941711093011F00C94151081E376
:10202000AA81BB818C930C9417110A3011F00C9487
:102030001F1082E3AA81BB818C930C9417110C3082
:1020400011F00C94291083E3AA81BB818C930C942A
:102050001711013111F00C94331084E3AA81BB8174
:102060008C930C941711023111F00C943D1085E300
:10207000AA81BB818C930C941711043111F00C943C
:10208000471086E3AA81BB818C930C941711093108
:1020900011F00C94511087E3AA81BB818C930C94AE
:1020A00017110A3111F00C945B1088E3AA81BB81EF
:1020B0008C930C9417110C3111F00C94651089E37A
:1020C000AA81BB818C930C941711013011F00C94F0
:1020D0006F1085E0AA81BB818C930C941711083393
:1020E00011F00C94791086E0AA81BB818C930C943A
:1020F0001711083011F00C94831081E0AA81BB8184
:102100008C930C941711003111F00C948D1082E017
:10211000AA81BB818C930C941711083111F00C9497
:10212000971083E0AA81BB818C930C941711003225
:1021300011F00C94A11084E0AA81BB818C930C94C3
:102140001711093211F00C94AB1080E8AA81BB8101
:102150008C930C9417110A3211F00C94B51087E08F
:10216000AA81BB818C930C9417110C3211F00C9442
:10217000BF1088E0AA81BB818C930C9417110233A5
:1021800011F00C94C91089E0AA81BB818C930C9446
:102190001711013211F00C94D3108AE0AA81BB818F
:1021A0008C930C941711023211F00C94DD108BE01B
:1021B000AA81BB818C930C941711043211F00C94FA
:1021C000E7108CE0AA81BB818C930C941711083224
:1021D00011F00C94F1108DE0AA81BB818C930C94CA
:1021E0001711003311F00C94FB108EE0AA81BB8113
:1021F0008C930C941711043011F00C9405118FE09E
:10220000AA81BB818C930C941711013311F00C94AB
:102210000F1180E1AA81BB818C930C9417110433B8
:1022200011F00C94171181E1AA81BB818C93089560
:1022300081E00E946F2481E00E946F2481E00E946F
:102240006F2481E0AA81BB818C9380E0AE81BF8145
:102250008C9380E0AC81BD818C93AC81BD810C916D
:10226000063018F011F00C947111AA81BB81E5E2DF
:10227000F0E08C9180958083A881B98186B18C93A0
:10228000A881B9818C9180958C93A881B9818C911A
:102290008F708C93A881B9810C91003018F011F0E7
:1022A0000C9454110C946411AC81BD810C9148E0E4
:1022B000049F0C92A881B9810C91AC81BD814C9195
:1022C000040FAE81BF810C9391E0AA81BB810E9473
:1022D0008C24AC81BD818C918F5F8C9310F40C9415
:1022E0002D1183E0481A80E0580A2696089581E06F
:1022F0000E946F2480E0A881B9818C9380E0AC813A
:10230000BD818C93AA81BB810C91003810F40C9490
:10231000921181E0A881B9818C93AA81BB818C91B3
:1023200080588C93AA81BB810C91003011F00C94E1
:102330009F118EE7AC81BD818C930C946F1201309C
:1023400011F00C94A91180E3AC81BD818C930C94A5
:102350006F12023011F00C94B3118DE6AC81BD8187
:102360008C930C946F12033011F00C94BD1189E71B
:10237000AC81BD818C930C946F12043011F00C94DD
:10238000C71183E3AC81BD818C930C946F1205302F
:1023900011F00C94D1118BE5AC81BD818C930C9420
:1023A0006F12063011F00C94DB118FE5AC81BD810A
:1023B0008C930C946F12073011F00C94E51180E7A8
:1023C000AC81BD818C930C946F12083011F00C9489
:1023D000EF118FE7AC81BD818C930C946F120930A3
:1023E00011F00C94F9118BE7AC81BD818C930C94A6
:1023F0006F120A3011F00C94031281E0AC81BD81A0
:102400008C930C946F120B3011F00C940D1288E029
:10241000AC81BD818C930C946F120D3011F00C9433
:10242000171280E0AC81BD818C930C946F120E303A
:1024300011F00C94211283E6AC81BD818C930C9435
:102440006F12043111F00C942B1287E7AC81BD811F
:102450008C930C946F12053111F00C9435128FE4AB
:10246000AC81BD818C930C946F12063111F00C94E9
:102470003F1285E0AC81BD818C930C946F120731C3
:1024800011F00C9449128DE1AC81BD818C930C94B8
:102490006F12083111F00C94531287E1AC81BD81A9
:1024A0008C930C946F12093111F00C945D128DE035
:1024B000AC81BD818C930C946F120A3111F00C9495
:1024C000671287E6AC81BD818C930C946F120B313F
:1024D00011F00C946F1285E1AC81BD818C93A881C1
:1024E000B9810C91013011F00C948012AC81BD8146
:1024F0008C9180588C93AA81BB818C9180588C934D
:1025000081E0481A80E0580A2296089581E00E94EE
:102510006F2481E0A881B9818C93A881B9810C9145
:10252000083018F011F00C94AF12A881B981AD9069
:10253000BB24A3E4B1E0AA0DBB1D8C91A881B98195
:10254000AD90BB24ABE4B1E0AA0DBB1D8C93A88178
:10255000B9818C918F5F8C9310F40C948D1281E073
:10256000481A80E0580A2296089581E00E946F245C
:102570000E94861281E0A881B9818C93A881B981DB
:102580000C91083018F011F00C94D8128DE0A8814D
:10259000B981AD90BB24A3E4B1E0AA0DBB1D8C931F
:1025A000A881B9818C918F5F8C9310F40C94BE122A
:1025B000A4E4B1E08C9180588C930E948C1381E04C
:1025C000481A80E0580A2296089581E00E946F24FC
:1025D00081E0A881B9818C93A881B9810C910830E0
:1025E00018F011F00C940E13A881B981AD90BB24A2
:1025F000ABE4B1E0AA0DBB1D8C91A881B981AD906F
:10260000BB24A3E4B1E0AA0DBB1D8C93A881B981C2
:102610008C918F5F8C9310F40C94EC1281E0481A2B
:1026200080E0580A229608950E94E5120E948C13B9
:102630000895F8940E94B51284E690E00E948B16EB
:102640000E94141378940895E1E5F0E0A0E1B0E071
:102650000E945F25083011F00C943913E1E5F0E099
:10266000A0E1BB2781E08C937BE70E944E250C9470
:102670004213E1E5F0E0A0E1BB2788E08C937BE723
:102680000E944E258AE080935401E1E5F0E0A5E543
:10269000B1E00E945F255A98539A559A5D98A4E537
:1026A000B1E0119698E08E91983018F4392F99275F
:1026B00002C038E09850881F5B9808F45B9A0000CD
:1026C00000005D9A000000005D98000000003A954F
:1026D00091F7992341F7539A559A5D98A5E5B1E092
:1026E000119698E08E91983018F4392F992702C0EE
:1026F00038E09850881F5B9808F45B9A000000004F
:102700005D9A000000005D98000000003A9591F786
:10271000992341F75A9A089581E00E946F2481E03D
:102720000E946F2481E00E946F2481E0AA81BB8116
:102730008C93AA81BB810C91083018F011F00C9495
:102740000C1409E0AA81BB814C91041BA881B981BA
:102750000C93AC81BD81BA93AA93AA81BB81AD9041
:10276000BB24A3E4B1E0AA0DBB1DBA93AA930E94B7
:1027700077112496AA81BB818C9180935401AC81FE
:10278000BD818C91809355015A98539A559A5D98C2
:10279000A4E5B1E0119698E08E91983018F4392FA5
:1027A000992702C038E09850881F5B9808F45B9A1C
:1027B000000000005D9A000000005D98000000002D
:1027C0003A9591F7992341F7539A559A5D98A5E563
:1027D000B1E0119698E08E91983018F4392F99272E
:1027E00002C038E09850881F5B9808F45B9A00009C
:1027F00000005D9A000000005D98000000003A951E
:1028000091F7992341F75A9AAA81BB818C918F5FE6
:102810008C9310F40C94991383E0481A80E0580AC2
:10282000269608958CE08093540180E080935501B2
:102830005A98539A559A5D98A4E5B1E0119698E09C
:102840008E91983018F4392F992702C038E09850AB
:10285000881F5B9808F45B9A000000005D9A0000F6
:1028600000005D98000000003A9591F7992341F728
:10287000539A559A5D98A5E5B1E0119698E08E912E
:10288000983018F4392F992702C038E09850881FE3
:102890005B9808F45B9A000000005D9A000000005D
:1028A0005D98000000003A9591F7992341F75A9AF4
:1028B00089E08093540180E0809355015A98539A9F
:1028C000559A5D98A4E5B1E0119698E08E91983004
:1028D00018F4392F992702C038E09850881F5B9868
:1028E00008F45B9A000000005D9A000000005D980B
:1028F000000000003A9591F7992341F7539A559AB1
:102900005D98A5E5B1E0119698E08E91983018F4A5
:10291000392F992702C038E09850881F5B9808F437
:102920005B9A000000005D9A000000005D980000C6
:1029300000003A9591F7992341F75A9A8AE08093DB
:102940005401E1E5F0E0A5E5B1E00E945F255A9869
:10295000539A559A5D98A4E5B1E0119698E08E914E
:10296000983018F4392F992702C038E09850881F02
:102970005B9808F45B9A000000005D9A000000007C
:102980005D98000000003A9591F7992341F7539A1A
:10299000559A5D98A5E5B1E0119698E08E91983032
:1029A00018F4392F992702C038E09850881F5B9897
:1029B00008F45B9A000000005D9A000000005D983A
:1029C000000000003A9591F7992341F75A9A8BE05D
:1029D0008093540187E0809355015A98539A559AF1
:1029E0005D98A4E5B1E0119698E08E91983018F4C6
:1029F000392F992702C038E09850881F5B9808F457
:102A00005B9A000000005D9A000000005D980000E5
:102A100000003A9591F7992341F7539A559A5D989A
:102A2000A5E5B1E0119698E08E91983018F4392F11
:102A3000992702C038E09850881F5B9808F45B9A89
:102A4000000000005D9A000000005D98000000009A
:102A50003A9591F7992341F75A9A8FE08093540160
:102A600080E0809355015A98539A559A5D98A4E551
:102A7000B1E0119698E08E91983018F4392F99278B
:102A800002C038E09850881F5B9808F45B9A0000F9
:102A900000005D9A000000005D98000000003A957B
:102AA00091F7992341F7539A559A5D98A5E5B1E0BE
:102AB000119698E08E91983018F4392F992702C01A
:102AC00038E09850881F5B9808F45B9A000000007B
:102AD0005D9A000000005D98000000003A9591F7B3
:102AE000992341F75A9A8CE08093540181E08093B6
:102AF00055015A98539A559A5D98A4E5B1E01196FC
:102B000098E08E91983018F4392F992702C038E058
:102B10009850881F5B9808F45B9A000000005D9A4B
:102B2000000000005D98000000003A9591F799239D
:102B300041F7539A559A5D98A5E5B1E0119698E052
:102B40008E91983018F4392F992702C038E09850A8
:102B5000881F5B9808F45B9A000000005D9A0000F3
:102B600000005D98000000003A9591F7992341F725
:102B70005A9A08958C9181508C9308950D911D91CE
:102B80002D913C910F5F1F4F2F4F3F4F3C932E9342
:102B90001E930E930895ED91FC91EF5FFF4FFC9310
:102BA000EE93089515E000E0009364011093650131
:102BB000089540916401509165010DEF13E40E9466
:102BC0007C240D53114600936401109365015991C3
:102BD000499127D0089509D00E947C2400FC10D090
:102BE000089503D01ED001F8F9CF0024E89457FFD0
:102BF00002C009D0689400F80BD010F801240895A1
:102C000002D009D00895509540954F5F5F4F0895C9
:102C1000E89417FF0895009510950F5F1F4F689473
:102C20000895352F242FE894452B11F468940895C6
:102C3000512F402F0027112780E1440F551F001FFF
:102C4000111F021B130B416018F4020F131F4E7F5C
:102C50008A9599F7089500FC05D0089530D005D0E5
:102C600001F8F9CF37D03FD00895842F952FA62FA4
:102C7000B72FE894452B462B472B11F46894089501
:102C8000402F512F622F732F002711272227332720
:102C9000F0E2440F551F661F771F001F111F221FF0
:102CA000331F081B190B2A0B3B0B416028F4080F3C
:102CB000191F2A1F3B1F4E7FFA9559F708950024CC
:102CC000E89477FF02C006D0689400F809D010F8A5
:102CD0000124089512D04F5F5F4F6F4F7F4F0895CB
:102CE000E89437FF089500951095209530950F5F73
:102CF0001F4F2F4F3F4F6894089540955095609512
:102D0000709508953197F1F70895689462F80895E1
:102D1000E89462F80895EF93FF93EE27E82BE92BF0
:102D200031F0EAEFF0E03197F1F70197D1F7FF9139
:102D3000EF9108954E414E00496E66696E6974794F
:102D40000000302E30008A930E94FF21FD01A6D59D
:102D5000888187F98883FA93EA93E0EDF9E30E948A
:102D6000B921A8F188E2ABD0FA93EA93AA85BB8592
:102D7000E8E9FCE394E00ED6AA85BB85EC85FD85E9
:102D80000E94C21EAA85BB85FD010E94B41FACE053
:102D9000BB27EA85FB850E9476239C2D97708E8544
:102DA000890F8E87969520F4AA85BB850E940D20F9
:102DB000A885B9850FD0AE81BF810CD0AC81BD8113
:102DC00009D0EC85FD856AD52A960E945D248A810A
:102DD00023960895EA81FB81E883F983EA85FB85E0
:102DE0000E94C21EAA81BB81EC85FD85E883F98320
:102DF0000C94721EBA93AA930E9494240A920E9481
:102E000094240A92FA93EA93BA93AA9307FC09C00E
:102E1000EC85FD85E883F983E885F985DF010E946B
:102E2000C21E8C8180FD3CC0AE81BF81EA81FB81E6
:102E30000E94E021EA83FB838D818A958D83AE8198
:102E4000BF81A883B983AC85BD85E881F9810E94E3
:102E5000C21EEA81FB81AA85BB850E94E021EA832C
:102E6000FB83E881F9810E94871E8D818A958D837D
:102E700051F78C8181FD1DD08C8182FD1AD08C810F
:102E800083FF03C0A885B98516D08C8184FF06C056
:102E9000A885B985E881F9810E94871E2896089542
:102EA000AE81BF81A883B983EC85FD850E94FF2197
:102EB000D0CFAC85BD85E881F9810C94C21E8F937B
:102EC0000E9450248F91885021F01896BA93AA93AB
:102ED000FACF08950E94731F82E003C00E94731FFF
:102EE00080E48F930CE05BD58F9109F008958F9368
:102EF000C2D48F9108F03DC58A93BA93AA9323DF79
:102F000082FB839582F98A8388E1D9DFDF01EE8134
:102F1000FF81FA93EA938A85B1D481FD06C008F453
:102F200034C0EAE2FAE3F6D418C0B0F1E8EFF9E30E
:102F3000F1D4EC81FD81C3D482F0B5D4AE81BF81E0
:102F4000A883B9830E94871EA885B985C7D4A885A0
:102F5000B985EE81FF810E94871EEE81FF810E946C
:102F600007228A8531FD06C082FBA2D486FF02C0FB
:102F700087FD8FD4EE81FF81A885B9850E94FF214E
:102F800026960E945D2423960895E885F985AE81F2
:102F9000BF810E94FF21E1CFAE81BF819FD4DDCFF1
:102FA0000E94731F0EE0FBD409F0089564D408F06A
:102FB000E0C4882737FB86F98A93BA93AA93C3DEC5
:102FC00081FB839582F98A8380E279DFA885B985C0
:102FD000BA93AA93DF01EA85FB8550D478F0ECEB35
:102FE000FBE3ADD4E6EDFBE39CD4B7D4EA85FB85E7
:102FF000E883F983A885B9850E94871E8C8581FFA7
:103000000BC0A885B9856AD4AA85BB85A883B98376
:10301000E885F9850E942E1FEA85FB858C8582FB59
:1030200047D487FD36D428960E945D2423960895C0
:103030000E94731F06E0B3D409F008951FD408F46A
:1030400008952CD487F98A93BA93AA935BD440F05D
:1030500019F02396FD0189C4A881B98147D422C003
:1030600080E22DDFE885F985FA93EA931FE304EE09
:1030700008D4E8F4ECE5FAE362D4EEE8FAE351D4DC
:103080006CD4E885F985AA85BB850E94C21EEA85B5
:10309000FB85E883F983A885B9850E94871E289659
:1030A0000E945D24E991F991899187FB01C4AA816D
:1030B000BB8114D4AC81BD81A883B983EA81FB8133
:1030C000AA85BB850E94721EE8EBFAE338D4E2EED3
:1030D000FAE327D442D4EC81FD81F9D3DF0113D187
:1030E000AA81BB810BD4AE81BF81A883B983AC8197
:1030F000BD81EA81FB810E94721EEC81FD81E88323
:10310000F983A885B9850E94C21EA885B985E4E027
:10311000FBE30E94E021A885B985E881F9810E943E
:10312000721EEE81FF81E883F983AC81BD810E942C
:10313000721EEA85FB85E883F983EE81FF81AA810F
:10314000BB810E94871EABCF0E94731F0CE027D467
:1031500009F00895B1D387F98A93BA93AA93D2D389
:1031600078F019F02396FD0100C48A81882322F0AB
:10317000E881F981FED323C0A881B981BBD31FC0E8
:103180000E944F24AA93BA938E8187FD06C0EC81DA
:10319000FD811FE300EE75D3A0F4EC81FD81DF011A
:1031A00049DFAA81BB81A2D3AC81BD81A883B98349
:1031B000EA81FB810E94721E22960E945D24239662
:1031C0000895EC81FD81E883F98379D3AA81BB81DD
:1031D00089D3EA81FB81AC81BD810E94721EEC81A2
:1031E000FD81DF0190D0EC81FD81DF0123DFEC81E7
:1031F000FD816DD3E1CF0E94731F06E0D0D309F0AB
:1032000008953CD308F4089549D3882787F98A9311
:10321000BA93AA9380E253DEE885F985FA93EA939C
:103220001FE305EE2ED380E048F110E403E0AC810B
:10323000BD8127D3C8F452D3E885F985E883F983A3
:10324000EA85FB850E94871EEA85FB85E883F98372
:10325000AC81BD810E94721EEA85FB85A885B98577
:103260000E942E1F81E00AC039D3FD0112D3AA8526
:10327000BB85A883B9830E942E1F82E09C85982B72
:103280009C87ECE0FBE35BD3E6E3FBE34AD365D347
:10329000E885F985AA85BB85A883B9830E94871E26
:1032A0008C858F7719F1AE81BF81E4E0FBE30E944A
:1032B000E0218C8580FF06C0EE81FF8100D3E0ED28
:1032C000F9E304C081FF02C0E8EDF9E3AA81BB8104
:1032D0000E94E021E881F981AE81BF810E94871EB2
:1032E000E881F981AA81BB810E94871E8C8587FFB6
:1032F00003C0EA85FB85CDD228960E945D242396E3
:1033000008950E94731F07E14AD309F00895BA9304
:10331000AA930E942C2280E1D2DDFA93EA934150D5
:103320005C4F40FB569547950695F79403F98F2D12
:10333000902F93FF04C0809590958F5F9F4F9F7053
:103340002ED02DD0006166270E949122EC81FD8154
:103350000E94E72183E08F93AA81BB81A883B98370
:10336000EE81FF81AC81BD810E942E1FAC81BD81A9
:10337000A883B983EA81FB810E94871EEC81FD81CD
:103380009ED28F918A9539F7EC81FD81AE81BF8104
:103390000E94FF2124960E945D242296089533E026
:1033A000969587953A95E1F7F81A090B08950E94CA
:1033B000731F04E0F4D209F0089531FDE6C230FF36
:1033C00003C037FF0895D5C2BA93AA9388E277DD88
:1033D000AA85BB85BA93AA93ECEAFBE30E94B921C4
:1033E00020F0EC85FD85CBD26DC018970E94B921E5
:1033F00020F4EC85FD85BDD265C0AA85BB85E0EED5
:10340000F9E30E94E021A883B983EC85FD850E9441
:10341000C21EAA85BB85FD010E94ED1FA885B98546
:10342000ECE9FBE392E0B6D2A885B98550D0AE8135
:10343000BF814DD0E0E6FBE389D2EAE7FBE378D237
:10344000EE81FF81E883F983A885B9850E94721E09
:10345000EC85FD85E883F983E885F985AE81BF8138
:103460000E942E1FEC85FD8532D2A885B985EEE538
:10347000F8E40E94E021EC85FD850E94871EEA8524
:10348000FB850E94072231FD1DC0F58006811127B2
:103490000F7000618F5F9340A8F031F0FF0C001FA8
:1034A000111F81509040D1F7007FEC85FD8586810A
:1034B000978137FD03C0800F911F02C0801B910BC5
:1034C000868397832A960E945D2422960895EC8134
:1034D000FD81E883F983EA85FB850E94C21EAC81E9
:1034E000BD81EC85FD85E883F9830C94721E0E94F2
:1034F000731F05E154D209F0089531FD3EC28A934D
:10350000BA93AA93AC0186818F70806E86838FE315
:10351000878388E2D4DCFA93EA934E5F53403327E3
:10352000CA01992322F4809590958F5F9F4F835015
:103530009040331FAC85BD85E8EEF9E30E94B921C8
:10354000331F3E87832F8170480B504069F03068ED
:103550003E87C42ED52EEE24D7FCE0940000FE2C2E
:10356000EE81FF810E944D238E8581FD3BC0AC81A1
:10357000BD81B8D1EA85FB85E883F983AC81FD8103
:10358000EC85FD850E94721EEA85FB858E858695F9
:1035900040F0AC81BD81EA85FB850E94721EEC85FE
:1035A000FD85A885B9850E94FF21FD0188D1A885E8
:1035B000B985A883B983AC81BD810E94871EEC8543
:1035C000FD85E883F983EA85FB85A885B9850E9496
:1035D0002E1FAA85BB85E8EFFBE30CDCE2E1FCE3F0
:1035E000B5D139C0AC81BD8179D18E8580FF09C04C
:1035F000EC85FD85AA85BB850E94FF21EA85FB85B8
:1036000066D1EC85FD85E883F983AC81BD818E852B
:1036100080FF02C0EA85FB850E94721EEC85FD8555
:10362000AC81BD810E94FF21AA85BB85ECE2FCE351
:10363000E1DBEEE5FCE38AD1EC81FD81E883F983EF
:10364000DF010E94C21EEA85FB85E883F983AC8115
:10365000BD810E94C21EEA85FB85E883F983A885A7
:10366000BF810E942E1F8E8581FF07C0EC81FD81E6
:1036700026D1A885B9850E94FF218E8587FF16C0B7
:10368000E8E8FCE3AC81BD8192E084D1AC81BD81EE
:10369000A883B983EE81FF810E94C21EEA85FB8563
:1036A000E883F983AC81BD810E94721E8E8581FF03
:1036B00008C0EA85FB85E883F983A885F9850E941F
:1036C000721EEC85FD85E883F983AA85BB850E947F
:1036D000871E8E8587FF10C0EA81FB81E883F9830E
:1036E000AE81BF810E94C21EEC85FD85E883F9830F
:1036F000AA81BB810E94871E2A960E945D24239680
:1037000008950E94731FBF93AF93F3DEAF91BF91F3
:10371000E0EFF9E30C943220A881B981EA81FB81C2
:10372000249602D024970895FA93EA93BA93AA9321
:103730000E9407223F93E881F9810E9407229F910E
:10374000892F832B877079F0EC81FD8182FD5BC02E
:1037500080FD59C0892F832381FD55C031FD59C09B
:1037600037FD54C05BC0A881B981EEE5F8E40E9442
:10377000B92109F456C0AA81BB81EEE5F8E40E94A4
:10378000B92109F446C00E944F24EA81FB810E94BE
:10379000FF21EC81FD81AE81BF810E94FF21EE817E
:1037A000FF817CD0AEF4E881F981DF010E94B41F73
:1037B000E881F981AA81BB810E94C42129F0EE81B0
:1037C000FF810E94B51C1BC0E881F9810E94181C72
:1037D000882787F98F93EE81FF81DF018ADEA88138
:1037E000B981EE81FF810E94C21EE881F981AE811C
:1037F000BF81DFDD8F91EE81FF8187FB59D00E9471
:103800005D24249608950E94B51CFBCF0E94BF1C26
:10381000F8CFEC81FD810E94C51CF3CF0E94B91C3A
:10382000F0CFAC81BD81EA81FB810E94FF21E9CF0D
:103830000E940722AC0199273F77D1F44F5F534094
:10384000C2F05523A9F44533A0F441954C5C992767
:10385000483018F031964850FBCF71E08081442306
:1038600019F0770F4A95FBCFE894782309F0689414
:103870000895E89408950FEC11E403C006E41EE3F4
:1038800000C03681301737810FB63F770FBE310742
:103890000895178130E8132717830895178117FBC0
:1038A0001F7717830895178117FB106817830895F2
:1038B000178117F917830895178117FB089506815B
:1038C00017810051104010F0068317830895068178
:1038D0001781005F1F4F068317830895EEE5F8E414
:1038E0000C94E021E6E6F8E40C94E021E8EDF9E33D
:1038F0000C94E021E8ECF9E30C94E021E0EDF9E32D
:103900000C94E021EEE5F8E40E94B9218FB71897F6
:103910008FBF0895A885B985A883B983AE81BF817B
:1039200069CAAA85BB85A883B983AE81BF8162CAF3
:10393000AC85BD85A883B983AE81BF815BCAAA85EA
:10394000BB85A883B983A885B98554CAAC85BD85D4
:10395000A883B983A885B9854DCAE885F985E88328
:10396000F983AE81BF810C942E1F0E94F3220C9428
:10397000E7210E94E4220C94E721689401C0E894B6
:103980000E94EB2217F90C94E7210E94EF220C947D
:10399000E72118960E94E0219A95D9F708950E9490
:1039A000FF21FD010E94072204FF02C037FD09C06C
:1039B00003FF02C030FD05C00770032319F4AC01FA
:1039C0000895D3DF98940895182D4454FB2109409D
:1039D000182D4454FB21E93F182D4454FB21F93F95
:1039E000FE822B654715F73FCD3B7F669EA0E63FE5
:1039F0000EE526157BCBDB3F0606D43888BEE9FAF8
:103A0000A8BDC4B1B4BD9EEE213EAD529C804F7E98
:103A100092BE9015CB19A001FA3E7751C1166CC128
:103A200056BF4C5555555555A53F061A7CD5CF5A0E
:103A30003AD9E53DEB9C2B8AE6E55ABE7DFEB157AF
:103A4000E31DC73ED561C119A0012ABFA6F8101118
:103A50001111813F495555555555C5BF0602D38AA9
:103A6000D40B9B6B713F165C3E334143E3BFD92DB2
:103A70008A174BC715407B9027DE314330C05992DF
:103A800077DA07903340D5AFCE066C6520C005814C
:103A9000AB0E5E0B597B2DC05490FE25C09F51404C
:103AA000D776356DBB6562C09DBFFF84567061409F
:103AB000AC07360A229848C00582089F8E98C34FEB
:103AC000683F0F29F9599207E2BF6A3EF3BAF5DF62
:103AD0001B4068AB01ACAA9139C01D08F340628954
:103AE0003C4004818C5DBFB6A2F235C0427F6AAF14
:103AF00019626240EE63909508FE77C0BE44B6B08E
:103B000009677540075C143326A6913C050A942585
:103B1000F7A17F00ECBF7A806B5B542830C0730242
:103B200088368CC052C025BA052DBFB85EC08EEC59
:103B300028FD693650C005813C60145BC4DB384009
:103B400025FAB843DDA064403BBEE2D2180E7B40AC
:103B5000EA49B0133F567E40EC62BDFB9E5168407F
:103B60000308E84BE4D5CD89203F7E2CCA0CD10652
:103B70009F3F000000000000F03F0480A05F36BCC3
:103B8000B62EC93EC0B608B539AE643F74E087981A
:103B90000917CD3F000000000000004000000000B9
:103BA000402EE63FCAAB79CFD1F7B73EEF39FAFEE8
:103BB000422E8640D2BC7ADD2B2386C0030A383FD2
:103BC0004FD2D892C9C0DD9DFCA5EC9931417691C8
:103BD00029D3EA1F71C104817265B3EEA5B8CA404A
:103BE00096BC2A58BC2734C1EFD8EAC28FD9774196
:103BF000315ABE3CE0AF89C1030A840E6CDC3D44FF
:103C0000E9BF6B7B0273FC623040202A2211060957
:103C100050C003810A6DEC430DD641C00EE42A1159
:103C2000808173403B3FB319890D88C00682B01B69
:103C3000C393C2B41A3FF252563FF5D6DF3F116923
:103C400092EDBAD212402EEB3EC672FF2C404DC808
:103C50004B92D6EF3140F8DC7E7D63D51E40058166
:103C60008EEF97AE2093264033C0194E2C9D4640D0
:103C7000BDBD26A333BF544021AE5EEBE2C9514027
:103C8000B2251F9E0A203740A80C615C10D02B3F44
:103C9000000000000030E63F83C8C96D305FF43F8C
:103CA00000000040FB21E93F000000002D44643E7D
:103CB0007051CC989846E83C88276681778177FBDD
:103CC00087F97F776050704011F4826007C0605FB1
:103CD0007F4722F011F4816001C0846008956ED4A2
:103CE00004D087C30F0101D087C3FD01FF93EF9379
:103CF00087818F9390E889278783F0010BD08F917C
:103D0000EF91FF918783089559D404D072C30F01B6
:103D100001D072C300E06DD409F008959A01281B08
:103D2000390B1AF4D0010F01F5CF002727333007E4
:103D300008F092C4822F90D3A4D3B2D3372F362762
:103D40000AF4D6D3F0018081A80E8181B81E828149
:103D5000C81E8381D81E8481E81E8581F81E868155
:103D60008F708061081F1AF4C3D380E8682705FFAD
:103D700002C081E093D304FD01C0F6D3ABC31ED4CF
:103D800004D037C30F0101D037C308E132D409F0A2
:103D90000895480F591F4F5F534067276F935F93F4
:103DA0004F9312D42227F00162D393E0110F331FF7
:103DB000441F551F661F771F881F9A95B9F7FD018D
:103DC000A7E0BB279191A13011F49F7090619923D6
:103DD00001F1939FA00CB11CBB1F959FB695C01C11
:103DE000D11CBB1F979FB695E01CF11C0B1F919F28
:103DF000200DA11CBB1F949FB695B01CC11CBB1FFE
:103E0000969FB695D01CE11CBB1F989FB695F01CE1
:103E1000011DAA9549F02A2DAB2CBC2CCD2CDE2CF3
:103E2000EF2CF02E0027CECF4F915F916F9104FBC6
:103E300016F047D302C04F5F5F4F4CC3FF9309900A
:103E40001124F8E0069408F4190E17940794FA95D3
:103E5000D1F7FF910895B2D304D0CBC20F0101D0A6
:103E6000CBC204E2C6D309F00895481B590B415058
:103E70005C4F67276F935F934F93F001EDD22FEF65
:103E8000FD01F5D2ADE3BA2FB77019F420952F9349
:103E90002FEFA116B306C406D506E606F7060807F7
:103EA00038F0A11AB30AC40AD50AE60AF70A080BC1
:103EB000221FAA0CBB1CCC1CDD1CEE1CFF1C001F0F
:103EC000AA9509F72095AF90BF90CF90DF90EF9023
:103ED000FF900F914F915F916F9104FB1EF0F1D213
:103EE00041505040F7C2E881F981AA81BB81089511
:103EF000FADF76D21F77FD016AC2F5DF02D0FD013D
:103F000066C285D2A9D2AC01632F61FD5DC360FD9D
:103F10005BC362FD68C34E5F534022F119F1552324
:103F2000A9F7463398F7483048F00F2DFE2CED2CBA
:103F3000DC2CCB2CBA2CAA244850A8F7413048F0EE
:103F4000AA0CBB1CCC1CDD1CEE1CFF1C001F41502E
:103F5000A9F7702F707E0F714EEF53E005D322D377
:103F6000A9F2DFC23DC2BFDF4AD2FD0150D2AC018F
:103F700099273F7711F54F5F53401AF425D39FEFF0
:103F800026C25523D1F44533C0F441954C5C9927A2
:103F9000483030F08081982B882781934850F8CFA3
:103FA0007FEF8081442319F0770F4A95FBCF672F6D
:103FB00060956823962B87238083089594DF8781FB
:103FC00087FFD2CFBF93AF93CFDFEF91FF919923BC
:103FD00011F0DF0128C0089586DF11D2FD0117D24C
:103FE000AC013F77C9F48E5F934012F4EDD2EFC17C
:103FF000992391F4863380F487818F938F77878319
:10400000FF93EF930DD0EF91FF9187819F9190786F
:10401000892B8783DF01A8CF0895EEE5F8E406C079
:10402000E6E6F8E403C0EEE5F8E40EC05D01FF93B8
:10403000EF930E944F24EF91FF91C2D1F501FA93C3
:10404000EA9365DE229639C45D01FF93EF930E94E7
:104050004F24EF91FF91B4D1F501FA93EA9342DE38
:1040600022962BC45D01FF93EF930E944F24EF91A2
:10407000FF91A6D1F501FA93EA9384DE22961DC43E
:10408000BA93AA93FA93EA9388278A930A9322977A
:1040900002D028960895BBD18C013323E9F0AE817C
:1040A000BF8137FF02C08DE28D9331FF05C080E3F1
:1040B0008D9388278D93089530FF05C0E8E3FDE2D6
:1040C0000E948624F6CF32FF05C0E4E3FDE20E94A1
:1040D0008624EFCFAE83BF8380E10E9450242497D3
:1040E000AA83BB833896E883F983EA85FB8587D169
:1040F000EC81FD8187818F7787832FEF33E0021773
:10410000130738F5E0E2F8E487E099279B878A8770
:10411000AC81BD812ED19B8501F4991F9B8790FFB7
:104120000BC0B097B097A881B9814AD1F896EE83B9
:10413000FF8325DEEE81FF818A858A9541F7A8817C
:10414000B981B097B0973CD11ADE9B859395919534
:104150001DC0E8EEF7E487E09FEF9B878A87AC817C
:10416000BD8107D19B85991F9B8790FD0AC0F09662
:10417000A881B98125D1F897EE83FF8300DEEE8117
:10418000FF818A858A9551F79B8590959B878C85C1
:104190009D858A839B83EC81FD8139D1AC015CD103
:1041A00011274D5F5340483048F0102F0F2DFE2C43
:1041B000ED2CDC2CCB2CBA2CAA244850442351F0F3
:1041C000AA0CBB1CCC1CDD1CEE1CFF1C001F111F0D
:1041D0004A95F4CFAC85BD851196AC87BD87AA837F
:1041E000BB83AFE8AF8330E8E8E5F7E43E83B3D1C3
:1041F000BFEFA4E0A216B306C406D506E606F7068E
:104200000807190740F0A21AB30AC40AD50AE60A39
:10421000F70A080B190BBB1F96958795779567953D
:10422000579547953795279548F40024201D301D54
:10423000401D501D601D701D801D901DAA95D1F65A
:10424000B0952B2F20633E814F8133231AF4203306
:1042500009F060D0AC85BD852D93AC87BD873395C3
:104260004317B0F430D015D08B85882371F095E4D6
:104270009D931AF481959DE29D93982F880F890F45
:104280009927991F8A879B8754D024960C945D2484
:10429000ADCFAA81BB81FD01119793E081919A95E1
:1042A00011F08033D9F3939501C081918D939A9544
:1042B000E1F78081882309F08EE28D938823819134
:1042C000E1F7119708959885992309F090E38827DD
:1042D00032508E93253350F49923D9F432508E9175
:1042E0008033B9F49C933A95D1F708958E918395D4
:1042F0008A3311F08C9308959C933A95323009F4E7
:1043000090E33F3F99F781E312968C938B858395D9
:104310008B8708953F774885442311F04F3008F08C
:104320004EE04D5F532F515F451708F0452F4F83E7
:104330000895E8E5F8E4689423E004E01FEF659150
:1043400075918617970710F0861B970B111F7695AE
:1043500067950A95B1F710951EF4112319F0E894AA
:1043600010631D932A9549F711271C930895A8817E
:10437000B981661778E06FB78D9195917A9599F02C
:104380006FBF89076FB7F8CFE881F981AA81BB8138
:10439000661778E06FB78D9191917A9521F06FBF94
:1043A00089076FB7F8CF70E8872797276FBF89070E
:1043B00031F06FB7892B12F071E067276FBF089556
:1043C00088E005900D928A95E1F718970895A082EC
:1043D000B182C282D382E482F58206831783089574
:1043E000A080B180C280D380E480F58006811781EF
:1043F0000895EC81FD81EBCFE881F981E8CF88E079
:1044000091919D938A95E1F7189738970895868141
:104410009781332797FB37F988949F7721F4882376
:1044200011F4326008952FEE28172FE7290740F482
:104430002FE02823089411F4316008953460089522
:10444000807F96958795969587959695879596956D
:104450008795989488940895A080B180C280D38075
:10446000E480F58006810F70006122270895108195
:104470003181428153816481758186818F70806131
:104480000895883050F02A2DAB2CBC2CCD2CDE2C7E
:10449000EF2CF02E00278850F4CF0895689401C0C7
:1044A000E894882369F00595F794E794D794C79426
:1044B000B794A794279516F44F5F5F4F8A95F1CF75
:1044C0000895220FAA1CBB1CCC1CDD1CEE1CFF1C7B
:1044D000001F089501D025C0203848F011F4A0FE37
:1044E00006C0089412D005FF089581E0D7CF089543
:1044F0002095A094B094C094D094E094F09400954A
:104500000F9200240894201D0F9050F40F92002465
:10451000A01CB01CC01CD01CE01CF01C001D0F9087
:1045200008955523B2F0352F342B99F03FEF431700
:1045300037E0530778F4440F551F440F551F440FBD
:10454000551F440F551F0F7E042B152F67FB17F9BE
:1045500008953AC040C02591359145915591659196
:10456000759185919591089587E03F2D303230E027
:10457000030778F40F2DFE2CED2CDC2CCB2CBA2C61
:10458000A22E2227485050408A9579F74427552774
:104590001BC088E004FD05C094DF415050408A955F
:1045A000C9F708950F9200240A280B280C280D281B
:1045B0000E280F28002A00200F900895EA81FB8121
:1045C000A881B9810F010895AA24BB246501750152
:1045D000850198940895F8DF00EF1FE70895F4DF50
:1045E00000EF1FE308958FEFA82EB82EEFDF1F779F
:1045F00008950DDF632FAC01FD0109DF732F00C0AB
:10460000372F362B3F7709F4089532FDECCF262F54
:104610002727372F60FB32F961FB33F93F70EEE655
:10462000F8E4002311F427FD3C96030FE00F002768
:10463000F01F849187FDD7CF86FDCDDF85FDC4DFD8
:1046400084FD0AD083FD0AD082FD0AD081FD0BD003
:1046500080FD0BD098940895F001C2CEFD01C0CE2C
:1046600067FB17F9089577FBFCCF27FBFACFCD90B6
:10467000DD2402C0CD90DD90EE24FF24D7FA6EF445
:104680008FEFE82EF82E09C0CD90DD90EE24FF24A8
:1046900017C0CD90DD90ED90FD90AA24BB2400279B
:1046A000112722276627FF2012F415D0606843E205
:1046B00054E05ADF36DF8BCECD90DD90ED90FD904B
:1046C000AA24BB24002711272227662743E254E0AF
:1046D0004BDF27DF7CCEC094D094E094F09481E04F
:1046E000C80E8827D81EE81EF81E089590DE31FDFA
:1046F00019C032FD17C030FD2AC08E5F934092F082
:10470000992329F5803238F4A7DE81958B5DB9DED7
:10471000E894C6DE0CC0CC24C094DC2CEC2CFC2C21
:10472000F69412C0CC24DD24EE24FF2410C080E8CF
:10473000B81650F031F4BA28B22AB81611F4C0FCF9
:1047400003C0CDDFF7FCE7CF37FF01C0C4DFCD9258
:10475000DD92ED92FD92089500000000000000C877
:104760000000000000000014000000000000000233
:1047700033333333333333001F85EB51B81E050019
:10478000508D976E12830000228E75711B0D0000F4
:10479000378E588B4F0100006C41EF8D21000000D7
:1047A0005853FE5A03000000893BE6550000000004
:1047B000F405970800000000FFE6DB0000000000A1
:1047C00080FD150000000000F33202000000000030
:1047D0004C38000000000000A105000000000000AF
:1047E0009000000000000000EB24A7F11E0ECC6733
:1047F00063B3D86275F6DD5373C8A1A031E5E5490E
:10480000B49DD9794378EA44000000A2941A6D421D
:104810000000000080842E410000000000408F4016
:104820007A84EA6EF03F1218AAAEFF5E8016012C61
:10483000D82F768A4F62F735A78EA899C257F33AD8
:1048400011EA2D819997713D8DEDB5A0F7C6B03E67
:10485000FCA9F1D24D62503F200350000800000037
:1048600000000000F03F000000000000E03F0008F2
:104870001000101010000808200000081000108020
:1048800010000808200000412000414180002080E5
:10489000200000204400418044002020800088E067
:1048A0000FB6F8945A924A92E42DF52DA42DB52D09
:1048B000480E8827581E0FBE08950FB6F8944990E9
:1048C00059900FBE08950191119121913081089561
:1048D000481A590A0895481A8827580A08959927A6
:1048E0005A924A92480E591E0895AA0CBB1CAA0C53
:1048F000BB1CAA0CBB1C08950F92B801469F8001F7
:10490000479F100D569F100D0F9008950E949424FC
:104910000D920020D9F70895903029F08C91880FDE
:104920009A95E9F78C930895C895319600200895DB
:10493000040F151F261F371F089504171507260794
:1049400037070895000F111F221F331F0895009588
:104950001095209530950F5F1F4F2F4F3F4F0895B3
:10496000019110810FC00E9463240EC00E94632435
:1049700010C00191108117FF05C03FEF2FEF04C059
:10498000008111272227332737FF03C0E0DF8DE2A4
:104990008D93CF92DF92EF92AA24BB24CC24DD2406
:1049A000EE2440E2EAE0FF2755E093E38081890F9F
:1049B00087FD9F7083FD907F891B81935A95A9F78E
:1049C000C1DFAA1CBB1CCC1CDD1CEE1C4A9551F798
:1049D000E894EFE0FF2782910CD0EB30E0F71EF077
:1049E00068948A2D0AD088278D93EF90DF90CF901E
:1049F0000895982F829501D0892F8F70805D26F0C1
:104A0000803309F4089568948D9308950027112741
:104A1000222733271DD08A3328F4803318F005D09D
:104A200015D0F9CF0EF493CF089580538F93402F74
:104A3000512F622F732F86DF85DF7ADF83DF8F911F
:104A40009927080F191F291F391F08958D9108955F
:104A5000E894FCDF8032E9F38B32D9F38930C9F373
:104A60008D3211F46894F2CF089588278D930895BC
:104A700009919191992359F08A95D9F7319700239B
:104A800031F081918D930A958823C9F70895EDCF70
:104A9000F999FECFE1BDF2BD3196089591E001C0D4
:104AA00092E07B3751F47FB7F894F2DF8D9180BDAF
:104AB000FA9AF99A9A95C9F77FBF7727089591E0F6
:104AC00001C092E0E5DFF89A80B58D939A95D1F711
:104AD0000895FF93881BF9E0001FFA9511F4FF91E8
:104AE0000895881F841B18F4840F8894F5CF0894C8
:104AF000F3CF8FEF83959D919923E1F70895689403
:104B000001C0E894AF93BF938D9116F0919103C0CB
:104B10000E949424902D891718F011F48823A1F78E
:104B2000BF91AF9108950000000000000000182D13
:104B30004454FB2109400000000000806640000052
:104B400000000000F03F333333333333E33F0000E2
:104B500000000088C3400000000000002440B3288B
:104B6000ECA2E881D33F6F1283C0CAA1FD3F666605
:104B700066666666394000000000006AF8C0000002
:104B8000000080842E410000000000408FC0000023
:104B9000000000005940000000000000E03F00005D
:104BA0000000D0126341F168E388B5F8E43E0000EC
:104BB000000000004E409A9999999999B93F0000D8
:104BC000000000C05F4000000000000060402D00B9
:104BD00045002E0030003900342E312E31340000D3
:00000001FF
