:100000000C94340018950000189500001895000015
:10001000189500001895000018950000189500002C
:10002000189500001895000018950000189500001C
:10003000189500001895000018950000189500000C
:100040000C940802189500001895000018950000FF
:1000500018950000189500001895000018950000EC
:1000600018950000189500008FEF8DBFCCE3E0E9F4
:100070004E2E88E08EBFD8E0F6E05F2EA89584B7BC
:10008000082E877F84BF88E1992780936000909332
:100090006000EEEFF7E0A0E0B1E088278D933197A4
:1000A000E9F78CE08093C40080E08093C50088E18C
:1000B0008093C10072E07093C0000E948C1E662481
:1000C00076E5709366007FE774B97FEF75B970E0ED
:1000D00077B97FEF78B9539A559A529AABE0B1E06D
:1000E000ECE8FCE50E94932AA3E1B1E0ECE8FCE532
:1000F0000E94932AABE1B1E0ECE8FCE50E94932A70
:10010000A3E2B1E0ECE8FCE50E94932AABE2B1E0A7
:10011000ECE8FCE50E94932A80E08093570180E0A0
:1001200090E0A1E0B1E08D939C93709100017F7D00
:1001300070930001709100017F7E709300017091B7
:1001400000017F7770930001709100017F7B7093B5
:100150000001ADECB1E0E4E9FCE50E94932AE0E5A2
:10016000F0E0A0E1B0E00E94122E013081E009F43D
:1001700080E08F93E0E5F0E0A0E1B0E00E94122E75
:10018000023081E009F480E09F9189238F93E0E5BC
:10019000F0E0A0E1B0E00E94122E033081E009F40B
:1001A00080E09F918923882311F40C94E000E0E51E
:1001B000F0E0A0E1BB2780E08C937BE70E94012E5A
:1001C000EAE1F1E0A0E1B0E00E94122E013011F46A
:1001D0000C941601EAE1F1E0A0E1BB2781E08C93E9
:1001E0007BE70E94012E81E0809359010091590123
:1001F000043618F011F00C941601E9E5F1E0A19035
:10020000BB24E0E5F0E0AA0CBB1CEA0DFB1D00E0FE
:1002100010E0A0E1BB277BE70E94032EA9E5B1E037
:100220008C918F5F8C9310F40C94F60081E0809396
:100230005901009159010A3018F011F00C946C0129
:10024000ABE0B1E0E9E5F1E0A190BB24E8EFFFEF1E
:100250000E94282DEA0DFB1D98E00E94152EEBE070
:10026000F1E00E941D27A5E6B1E08C9300916501A5
:1002700045E00423A6E6B1E00C930091660100304E
:1002800018F011F00C9446010C944C01ABE0B1E075
:10029000ECE8FCE50E94932AEBE0F1E0A9E5B1E08F
:1002A000AD90BB24A3E6B1E00E94282DAA0DBB1D92
:1002B0000E94B22A80E0A9E5B1E0AD90BB24AAEB90
:1002C000B1E0AA0DBB1D8C93A9E5B1E08C918F5FC5
:1002D0008C9310F40C941901ABE0B1E0ECE8FCE570
:1002E0000E94932AE1E5F0E0A0E1B0E00E94122E26
:1002F000013011F40C948501E1E5F0E0A0E1BB27A9
:1003000088E08C937BE70E94012EE5ECF1E00E94EF
:100310001D27A5E6B1E08C930091650145E004231B
:10032000A6E6B1E00C9300916601003018F011F0E0
:100330000C949C010C94AB01A5ECB1E0BA93AA9388
:10034000ECE9FCE5A3E0B1E00E94932AEDECF1E0DA
:100350000E94EF272296A5ECB1E0ECE8FCE50E94B4
:100360006C2A11F00C94C301A5ECB1E0BA93AA93E6
:10037000ECE9FCE5A3E0B1E00E94932AEDECF1E0AA
:100380000E94EF27229680E08093D50181E0809340
:10039000E50180E08093E60170910001777F709322
:1003A0000001709100017B7F7093000180E08093D9
:1003B000E70185E085BD80E084BD77EE76BD709174
:1003C0006E00716070936E0078940E9407060E9420
:1003D000D0050E9426150E947E1B0E94F81A88EE06
:1003E00093E00E945B1F0E946A0E0E94F81A88EE3A
:1003F00093E00E945B1FA0ECB0E00C9107FB16F0AD
:100400000C9404020E94321E0C94F701F894FFCF62
:100410000F921F922F923F924F925F927F92AF92D4
:10042000BF920F931F932F933F934F935F936F93BD
:100430007F938F939F93AF93BF93CF93DF93EF936C
:10044000FF938FB78F9381E00E94222D81E00E945D
:10045000222D81E00E94222D82E00E94222D81E047
:100460000E94222D81E00E94222D81E00E94222DF7
:100470000091E60141E0040FA881B9810C93AC859D
:10048000BD85BA93AA930E94E8172296A6E5B1E02B
:10049000BA93AA93AE85BF85BA93AA930E94CA164F
:1004A0002496A0E0B1E08C9182FB16F00C94E90256
:1004B00000915601003011F40C9469027091000112
:1004C0007B7F709300010E946A0E0E94F81A0C94C0
:1004D000CA04709100017F7B70930001E881F9816B
:1004E000A190BB24E0E5F0E0AA0CBB1CEA0DFB1DCB
:1004F000AE81BF810E94142EAE81BF8111968C9176
:10050000ACE5B1E08C93AE81BF818C91ABE5B1E0FD
:100510008C938091E601AC81BD818C93AA85BB85CB
:10052000BA93AA93ACE5B1E0BA93AA930E94F804F7
:100530002496AA85BB850C91013011F00C94A80279
:1005400080915C01809356010E9452060C94B8027F
:10055000AA81BB81BA93AA930E949A072296AA8184
:10056000BB810C91003011F40C94B8020C94CA04B5
:100570004091E601AC81BD810C91041711F00C94FF
:10058000C602A6EEB1E08C918F5F8C930091E601DC
:10059000033618F011F00C94CF020C94DD028AE1BE
:1005A000D2018C9381E00E94222D0E940415229694
:1005B00081E00E941E2D0C94CA040E946A0E0E94C3
:1005C000F81A80E090E0A1E0B1E08D939C930C9448
:1005D0009C0400915601003080E010F009F081E0A9
:1005E0008F93A1E0B1E00D911C91003B54E0150701
:1005F00080E014F009F081E09F918923882311F4B1
:100600000C940F0380E08093560180E090E0A1E01D
:10061000B1E08D939C930E942A1A0C94CA04009115
:100620005601003011F00C9417030C949E040091B5
:100630005601003811F00C942E03A0E0B1E08C912B
:1006400085FB882780F9809580FBA0E0B1E08C9144
:1006500085F98C930E942E060E94F81A009156018B
:10066000003811F00C9436030C94CA04A0E0B1E0F9
:100670008C9185FB81E00EF080E08F930091560114
:10068000003080E010F009F081E09F9189238823F9
:1006900011F40C945503A6E5B1E08C91805C8C9329
:1006A000709100017F7D70930001AA85BB85BA938C
:1006B000AA93A6E5B1E0BA93AA930E94F8042496FF
:1006C000AA85BB850C91013011F00C94A303009115
:1006D0005A01003011F00C94740380E080935B01A8
:1006E0000E9452060C949C0300915601053011F4AF
:1006F0000C949C03ABE5B1E00C914AE0049F0C9292
:1007000000915B0140915601040FABE5B1E00C9301
:10071000ABE5B1E08C9180538C9380915A0181506C
:1007200080935A0100915A01003011F00C949C03FF
:1007300080E0AA85BB858C93709100017F7B7093CC
:1007400000010C94EF0300915601073011F00C9456
:10075000AE03709100017064709300010091560126
:10076000013081E008F480E08F930091560104305D
:1007700081E010F009F080E09F918923882311F433
:100780000C94D503A0E0B1E08C9186FB16F00C949C
:10079000D50301E140915601040FA6E5B1E00C93A9
:1007A000709100017F7B70930001AAE5B1E0BA93DC
:1007B000AA93A6E5B1E0BA93AA930E9422052496D3
:1007C00000915A01003011F40C94E8030E942F1A92
:1007D00080E080935B018091560180935C010091E1
:1007E0005A01003011F40C94F7030C94CA04A88544
:1007F000B985BA93AA93A6E5B1E0BA93AA930E94E9
:10080000AA052496A0E0B1E08C9183FB81E00EF470
:1008100080E08F93A885B9850C91013081E009F0C3
:1008200080E09F91892B882311F40C943004AA85D1
:10083000BB850C91003011F00C942E04AA81BB8171
:10084000BA93AA930E949A072296AA81BB810C911F
:10085000003011F40C942E040C94CA040C949404EB
:10086000AA85BB850C91003011F00C945C040091BA
:100870005C010F3411F00C94400480E080935C0123
:10088000ACE5B1E00D91112740E051E00E942F2D21
:10089000AE81BF810D931C93AE81BF810D911C91E0
:1008A000ABE5B1E04D915527040F151FAE81BF8117
:1008B0000D931C930C946804A6E5B1E00D911127EB
:1008C00040E051E00E942F2DAE81BF810D931C931B
:1008D000E881F981A190BB24E0E5F0E0AA0CBB1C03
:1008E000EA0DFB1DAE81BF817BE70E94032EF894C9
:1008F0000E946A0E0E94F81A8CEB92E00E945B1F25
:10090000A6EEB1E08C918F5F8C930091E6010336E7
:1009100018F011F00C948E040C94910483E68093EB
:10092000E60178940E946A0E0E94F81A80E090E036
:10093000A1E0B1E08D939C930C94CA040E94A91A83
:10094000A0E0B1E08C9185FB16F40C94CA04A1E000
:10095000B1E00D911C91003B54E0150711F00C948F
:10096000B3040E94CB19A1E0B1E00E94851EA1E072
:10097000B1E00D911C91003B54E015071CF011F003
:100980000C94C4040C94CA0481EB94E0A1E0B1E09F
:100990008D939C93A0E0B1E08C9182FB16F00C94B7
:1009A000D5047DEF76BD0C94D70477EE76BD88E054
:1009B000481A80E0580A2E968F918FBFFF91EF91D1
:1009C000DF91CF91BF91AF919F918F917F916F9167
:1009D0005F914F913F912F911F910F91BF90AF90D9
:1009E0007F905F904F903F902F901F900F901895A1
:1009F00080E0AA81BB818C93A881B9810C910F32D0
:100A000080E010F009F081E08F93A881B9810C910A
:100A10000A3381E008F080E09F918923882311F454
:100A20000C94160581E0AA81BB818C93A881B981C1
:100A30000C91053011F00C94210581E0AA81BB8155
:100A40008C93089580E0AA81BB818C93A881B981A1
:100A50000C91073011F00C94330581E0AA81BB8121
:100A60008C930C94A905083011F00C943D0581E09D
:100A7000AA81BB818C930C94A905023111F00C94CE
:100A8000470581E0AA81BB818C930C94A9050331B1
:100A900011F00C94510581E0AA81BB818C930C94D8
:100AA000A905043111F00C945B0581E0AA81BB819A
:100AB0008C930C94A905053111F00C94650581E027
:100AC000AA81BB818C930C94A9050A3011F00C9477
:100AD0006F0582E0AA81BB818C930C94A9050B3031
:100AE00011F00C94790582E0AA81BB818C930C945F
:100AF000A9050C3411F00C94830582E0AA81BB8116
:100B00008C930C94A9050B3411F00C948D0582E0A4
:100B1000AA81BB818C930C94A9050A3411F00C9422
:100B2000970582E0AA81BB818C930C94A9050534BA
:100B300011F00C94A10581E0AA81BB818C930C94E7
:100B4000A905003711F00C94A90581E0AA81BB81A9
:100B50008C93089580E0AA81BB818C93A881B98190
:100B60000C91073411F00C94B90581E0AA81BB8186
:100B70008C93A881B9810C91083411F00C94C405B0
:100B800081E0AA81BB818C93A881B9810C910E343C
:100B900011F00C94CF0581E0AA81BB818C9308955C
:100BA00081E00E94222D81E0A881B9818C93A881E7
:100BB000B9810C91003118F011F00C94F10580E02E
:100BC000A881B981AD90BB24A2E3B1E0AA0DBB1D01
:100BD0008C93A881B9818C918F5F8C9310F40C94C5
:100BE000D70581E08093550180E08093580180E330
:100BF000A5E5B1E0AD90BB24A2E3B1E0AA0DBB1D19
:100C00008C9381E0481A80E0580A2296089581E08A
:100C10000E94222D81E0A881B9818C93A881B9819D
:100C20000C91083018F011F00C9428068DE0A88182
:100C3000B981AD90BB24A2E4B1E0AA0DBB1D8C9399
:100C4000A881B9818C918F5F8C9310F40C940E065F
:100C500081E0481A80E0580A22960895A0E0B1E0A9
:100C60008C9185FB16F00C944F060E949C190E94F3
:100C700007068DE880934A01A5ECB1E0E4EAFCE5C3
:100C80000E946C2A11F00C944A068DE8809346016C
:100C90000C944D068DE8809347010C9451060E94F8
:100CA000FB19089581E00E94222D70910001706867
:100CB0007093000100915501023081E009F080E05D
:100CC0008F9300913301003081E009F080E09F9123
:100CD00089238F9300915601053080E010F009F0D0
:100CE00081E09F918923882311F40C947A0681E096
:100CF0008093550100915501093010F00C94CB06FA
:100D000000915601053011F00C94B90680915501FF
:100D1000D2018C9381E00E94222D0E94230722960B
:100D200081E00E941E2D00915501013011F00C94BC
:100D3000A30680E880933301A5E5B1E08C918F5F35
:100D40008C930C94B706A5E5B1E0AD90BB24A1E36C
:100D5000B1E0AA0DBB1D0C9140E8040FA5E5B1E080
:100D6000AD90BB24A1E3B1E0AA0DBB1D0C930C9484
:100D7000CB060091560140E3041BA5E5B1E0AD9020
:100D8000BB24A2E3B1E0AA0DBB1D0C93A5E5B1E025
:100D90008C918F5F8C93A0E0B1E08C9183FB16F473
:100DA0000C941B0781E0A881B9818C934091550177
:100DB000A881B9810C91041718F011F00C94FA066F
:100DC000A881B981AD90BB24A2E3B1E0AA0DBB1DFF
:100DD0008C91A881B981AD90BB24ABE4B1E0AA1994
:100DE000BB098C93A881B9818C918F5F8C9310F48F
:100DF0000C94D60680915501A881B9818C93A88165
:100E0000B9810C91083018F011F00C9419078DE09D
:100E1000A881B981AD90BB24ABE4B1E0AA19BB09AC
:100E20008C93A881B9818C918F5F8C9310F40C9472
:100E3000FF060C941D070E942F1A81E0481A80E0DB
:100E4000580A2296089581E00E94222D81E0A8810F
:100E5000B9818C93AA81BB814C91A881B9810C91F5
:100E6000041718F011F00C945507A881B981AD90C2
:100E7000BB24A2E3B1E0AA0DBB1D0C91003810F415
:100E80000C944D07A881B981AD90BB24A2E3B1E0D9
:100E9000AA0DBB1D8C9180588C93A881B9818C912F
:100EA0008F5F8C9310F40C942A0781E0481A80E03D
:100EB000580A2296089588E00E94222DEDE5F1E07F
:100EC000ABE0B1E00E94B22AE0E5F0E0A0E1B0E0E2
:100ED0000E94122E033011F00C949407EBE0F1E025
:100EE000A881B9810E943F28EBE0F1E0ABE0B1E0DE
:100EF0000E94A028A881B981BA93AA93ECEAFCE5E4
:100F0000A3E0B1E00E94932AEA81FB810E94EF27CF
:100F10002296ABE0B1E0BA93AA93AA81BB81EBE041
:100F2000F1E00E944827229688E0481A80E0580A9B
:100F30002296089581E00E94222D81E00E94222DB8
:100F400082E00E94222D81E00E94222D81E00E94F9
:100F5000222D88E00E94222D80E0AC85BD858C93F7
:100F600000915B0141E0040FA885B9850C93A0E0D6
:100F7000B1E08C9187FB16F00C94D40700915C01D2
:100F80000F3011F00C94CE070E94D0050E94070686
:100F90000E94F81A0C94360E0C94D4070E94F71590
:100FA0000E944A0E0E945B0700915C01013011F023
:100FB0000C94EF07EBE0F1E0ABE2B1E00E94B22A63
:100FC000ABE0B1E0BA93AA93A3E1B1E0EBE0F1E0CA
:100FD0000E94482722960E945D0E0C94300E013428
:100FE00011F00C94F7070E94411A0C94300E023055
:100FF00011F00C941008EBE0F1E0ABE2B1E00E94DC
:10100000B22AABE0B1E0BA93AA93ABE0B1E0E3E17E
:10101000F1E00E94332722960E945D0E0C94300E60
:10102000023411F00C942D08EBE0F1E0ABE2B1E0FA
:101030000E94B22AABE0B1E0BA93AA93ECE8FCE5D7
:10104000A3E0B1E00E94932AE3E0F1E0ABE0B1E07D
:101050000E94332722960C94300E033011F00C942A
:101060004608EBE0F1E0ABE2B1E00E94B22AABE06F
:10107000B1E0BA93AA93ABE0B1E0E3E1F1E00E9402
:10108000832722960E945D0E0C94300E033411F0DB
:101090000C948508EBE0F1E0ABE2B1E00E94B22AEB
:1010A000A0E0B1E08C9184FB16F40C946408A1E0FC
:1010B000B1E08D919C91A7E6B1E08D939C937091E6
:1010C000000170617093000180E197E28A939A9326
:1010D0000E94931EA9E6B1E00D931C93A9E6B1E02E
:1010E000EBE0F1E00E94F72BABE0B1E0BA93AA93FA
:1010F000E4EBFCE5A3E0B1E00E94932AEBE0F1E031
:101100000E94EF2722960C94300E043011F00C94BC
:101110009E08EBE0F1E0ABE2B1E00E94B22AABE066
:10112000B1E0BA93AA93ABE0B1E0E3E1F1E00E9451
:10113000EF2722960E945D0E0C94300E043411F0BD
:101140000C94BB08EBE0F1E0ABE2B1E00E94B22A04
:10115000ABE0B1E0BA93AA93E4EAFCE5A3E0B1E026
:101160000E94932AE3E0F1E0ABE0B1E00E94EF27B8
:1011700022960C94300E063011F00C94CC08A0E0AE
:10118000B1E08C9187FB16F40C94C8080E944A0EBB
:101190000E942F1A0C94300E053411F00C94E708BD
:1011A00000915B01033018F011F00C94D9080C94F5
:1011B000DC0880E080935B01E0E5F0E0ABE5B1E0C6
:1011C0007BE70E94012E0E942F1A0C94300E0634E9
:1011D00011F00C940B09EBE0F1E0ABE2B1E00E94FE
:1011E000B22AE3E1F1E0ABE0B1E00E94B22AEBE128
:1011F000F1E0A3E1B1E00E94B22AE3E2F1E0ABE169
:10120000B1E00E94B22AEBE2F1E0A3E2B1E00E9479
:10121000B22A0C94300E073011F00C945309A885B3
:10122000B9850C91003080E010F009F081E08F93D7
:10123000A885B9850C910B3081E008F080E09F9182
:101240008923882311F40C943F09EBE0F1E0A88591
:10125000B985AD90BB24A3E6B1E00E94282DAA0D6C
:10126000BB1D0E94B22A81E0A885B985AD90BB2440
:10127000AAEBB1E0AA0DBB1D8C930C944F0984E13D
:10128000D2018C9381E00E94222D0E9404152296A7
:1012900081E00E941E2D81E0AC85BD858C930E946B
:1012A0002F1A0C94300E023111F00C94AE09A8855F
:1012B000B9850C91003080E010F009F081E08F9347
:1012C000A885B9850C910B3081E008F080E09F91F2
:1012D0008923882311F40C949A09A881B981BA93BF
:1012E000AA93ABE0B1E0EA85FB85A190BB24E3E6DD
:1012F000F1E00E94282DEA0DFB1D0E94482722964E
:10130000E881F981A885B985AD90BB24A3E6B1E059
:101310000E94282DAA0DBB1D0E94B22A81E0A8853B
:10132000B985AD90BB24AAEBB1E0AA0DBB1D8C938F
:101330000C94AA0984E1D2018C9381E00E94222DB1
:101340000E940415229681E00E941E2D81E0AC854A
:10135000BD858C930E942F1A0C94300E033111F02E
:101360000C94090AA885B9850C91003080E010F032
:1013700009F081E08F93A885B9850C910B3081E04D
:1013800008F080E09F918923882311F40C94F509DB
:10139000A881B981BA93AA93ABE0B1E0EA85FB8555
:1013A000A190BB24E3E6F1E00E94282DEA0DFB1D8D
:1013B0000E9433272296E881F981A885B985AD90EE
:1013C000BB24A3E6B1E00E94282DAA0DBB1D0E94FC
:1013D000B22A81E0A885B985AD90BB24AAEBB1E023
:1013E000AA0DBB1D8C930C94050A84E1D2018C9349
:1013F00081E00E94222D0E940415229681E00E9425
:101400001E2D81E0AC85BD858C930E942F1A0C9413
:10141000300E043111F00C94640AA885B9850C9142
:10142000003080E010F009F081E08F93A885B98545
:101430000C910B3081E008F080E09F918923882394
:1014400011F40C94500AA881B981BA93AA93ABE025
:10145000B1E0EA85FB85A190BB24E3E6F1E00E94C0
:10146000282DEA0DFB1D0E9483272296E881F98131
:10147000A885B985AD90BB24A3E6B1E00E94282DD4
:10148000AA0DBB1D0E94B22A81E0A885B985AD9046
:10149000BB24AAEBB1E0AA0DBB1D8C930C94600A8F
:1014A00084E1D2018C9381E00E94222D0E940415D8
:1014B000229681E00E941E2D81E0AC85BD858C9333
:1014C0000E942F1A0C94300E053111F00C94BF0AB3
:1014D000A885B9850C91003080E010F009F081E01A
:1014E0008F93A885B9850C910B3081E008F080E0DE
:1014F0009F918923882311F40C94AB0AA881B981A8
:10150000BA93AA93ABE0B1E0EA85FB85A190BB2436
:10151000E3E6F1E00E94282DEA0DFB1D0E94EF2773
:101520002296E881F981A885B985AD90BB24A3E610
:10153000B1E00E94282DAA0DBB1D0E94B22A81E0B5
:10154000A885B985AD90BB24AAEBB1E0AA0DBB1D5F
:101550008C930C94BB0A84E1D2018C9381E00E94AD
:10156000222D0E940415229681E00E941E2D81E00A
:10157000AC85BD858C930E942F1A0C94300E0830D8
:1015800011F00C94FF0AA885B9850C91003080E019
:1015900010F009F081E08F93A885B9850C910B308C
:1015A00081E008F080E09F918923882311F40C9456
:1015B000EB0A0E944A0EE885F985A190BB24E3E678
:1015C000F1E00E94282DEA0DFB1DABE0B1E00E9486
:1015D000B22A0C94FB0A84E1D2018C9381E00E9430
:1015E000222D0E940415229681E00E941E2D81E08A
:1015F000AC85BD858C930E942F1A0C94300E093057
:1016000011F00C94110BEBE0F1E0ABE2B1E00E94C1
:10161000B22AEBE0F1E0ABE0B1E00E9453220C947F
:10162000300E093411F00C94280BEBE0F1E0ABE242
:10163000B1E00E94B22AABE0B1E0BA93AA93ABE06A
:10164000B1E0EBE0F1E00E94832722960C94300E8B
:10165000073711F00C94450BEBE0F1E0ABE2B1E0A1
:101660000E94B22AABE0B1E0BA93AA93A5ECB1E034
:10167000EBE0F1E00E9483272296EBE0F1E0ABE0A3
:10168000B1E00E9440200C94300E043711F00C940D
:10169000620BEBE0F1E0ABE2B1E00E94B22AEBE0DA
:1016A000F1E0ABE0B1E00E94EA20ABE0B1E0BA9338
:1016B000AA93A5ECB1E0EBE0F1E00E94EF272296BF
:1016C0000C94300E083711F00C947F0BEBE0F1E036
:1016D000ABE2B1E00E94B22AABE0B1E0BA93AA93C8
:1016E000A5ECB1E0EBE0F1E00E9483272296EBE06D
:1016F000F1E0ABE0B1E00E943C200C94300E0537E5
:1017000011F00C949C0BEBE0F1E0ABE2B1E00E9435
:10171000B22AEBE0F1E0ABE0B1E00E947621ABE071
:10172000B1E0BA93AA93A5ECB1E0EBE0F1E00E943E
:10173000EF2722960C94300E093711F00C94B90B58
:10174000EBE0F1E0ABE2B1E00E94B22AABE0B1E045
:10175000BA93AA93A5ECB1E0EBE0F1E00E948327F5
:101760002296EBE0F1E0ABE0B1E00E94A2200C9405
:10177000300E063711F00C94D60BEBE0F1E0ABE243
:10178000B1E00E94B22AEBE0F1E0ABE0B1E00E94F0
:10179000CD21ABE0B1E0BA93AA93A5ECB1E0EBE0C8
:1017A000F1E00E94EF2722960C94300E0D3011F0DC
:1017B0000C94E80BEBE0F1E0ABE2B1E00E94B22A5E
:1017C000EBE0F1E0ABE0B1E00E9449230C94300E75
:1017D0000D3411F00C94FA0BEBE0F1E0ABE2B1E068
:1017E0000E94B22AEBE0F1E0ABE0B1E00E94A92256
:1017F0000C94300E0F3011F00C94150CA0E0B1E0F9
:101800008C9187FB16F40C94130CEBE0F1E0ABE247
:10181000B1E00E94B22AABE0B1E0ECE8FCE50E9446
:10182000932A0E942F1A0C94300E003111F00C9460
:101830002E0CEBE0F1E0ABE2B1E00E94B22AABE0AB
:10184000B1E0BA93AA93A3E1B1E0EBE0F1E00E942A
:10185000592422960E945D0E0C94300E013111F035
:101860000C94460CEBE0F1E0ABE2B1E00E94B22A4E
:10187000E3E1F1E0ABE0B1E00E94B22AEBE2F1E09B
:10188000A3E1B1E00E94B22A0C94300E013511F0B0
:101890000C945A0C0E944A0EEBE2F1E0ABE0B1E08E
:1018A0000E94B22AE3E1F1E0ABE2B1E00E94B22A89
:1018B0000C94300E003711F00C948B0C00915B01EE
:1018C000013018F011F00C94670C0C946A0C80E055
:1018D00080935B0100915B01003011F00C94810C4E
:1018E000A5ECB1E0BA93AA93ECE9FCE5A3E0B1E082
:1018F0000E94932AEDECF1E00E94EF2722960C94CF
:10190000870CA5ECB1E0E4EAFCE50E94932A0E9472
:101910002F1A0C94300E003511F00C949F0C0E947D
:101920004A0EEBE0F1E0ABE2B1E00E94B22AEDEC4E
:10193000F1E0ABE0B1E00E94B22A0C94300E013726
:1019400011F00C94B10CEBE0F1E0ABE2B1E00E94DD
:10195000B22AEBE0F1E0ABE0B1E00E94A0280C94E9
:10196000300E023711F00C94C30CEBE0F1E0ABE267
:10197000B1E00E94B22AEBE0F1E0ABE0B1E00E94FE
:101980003F280C94300E033711F00C94D50CEBE08B
:10199000F1E0ABE2B1E00E94B22AEBE0F1E0ABE0B3
:1019A000B1E00E943A280C94300E0E3411F00C94E1
:1019B000E80CA0E0B1E08C9183FB882780F980954A
:1019C00080FBA0E0B1E08C9183F98C930C94300EF5
:1019D000073411F00C94050D0091E601003011F070
:1019E0000C94F50C84E68093E6010091E60100304A
:1019F00018F011F00C94FE0C0C94030D8091E6018C
:101A000081508093E6010C94300E083411F00C9450
:101A10001C0DA6EEB1E08C918F5F8C930091E601D6
:101A2000033618F011F00C94170D0C941A0D80E089
:101A30008093E6010C94300E0A3011F00C94280DBE
:101A400080915B018093E6010E942F1A0C94300E66
:101A50000B3011F00C945F0D0091E501003110F096
:101A60000C94480DA5EEB1E08C918F5F8C93809122
:101A7000E601A5EEB1E0AD90BB24A4EDB1E0AA0D66
:101A8000BB1D8C9380915B018093E6010C945B0DF0
:101A90008CE1D2018C9381E00E94222D0E940415DA
:101AA000229681E00E941E2D81E08093E50181E075
:101AB000AC85BD858C930E942F1A0C94300E0C308F
:101AC00011F00C94970DA5EEB1E0AD90BB24A4ED00
:101AD000B1E0AA0DBB1D8C918093E601A6EEB1E0AA
:101AE0008C918F5F8C930091E501013018F011F01B
:101AF0000C947C0D0C94830D8091E50181508093B2
:101B0000E5010C94930D8CE1D2018C9381E00E944D
:101B1000222D0E940415229681E00E941E2D81E054
:101B2000AC85BD858C930E942F1A0C94300E0C341A
:101B300011F00C94AA0DABE0B1E0ECE8FCE50E94DA
:101B40006C2A10F00C94A80D80915B018093E60143
:101B50000C94300E0B3411F00C94BD0DABE0B1E0E1
:101B6000ECE8FCE50E946C2A11F00C94BB0D80910E
:101B70005B018093E6010C94300E0A3411F00C9452
:101B8000D30DABE0B1E0ECE8FCE50E946C2A18F064
:101B900011F00C94CD0D0C94D10D80915B018093CC
:101BA000E6010C94300E0E3011F00C94220EA0E0E1
:101BB000B1E08C9182FB882780F9809580FBA0E0C2
:101BC000B1E08C9182F98C93A0E0B1E08C9182FB22
:101BD00016F00C941E0E0091E60141E0040FAA815C
:101BE000BB810C93EA81FB81A190BB24E0E5F0E08E
:101BF000AA0CBB1CEA0DFB1DAE81BF810E94142EF6
:101C0000AE81BF8111968C91AC81BD818C93AC81EA
:101C1000BD810C910E3011F00C941B0EA6EEB1E0BC
:101C20008C918F5F8C930E946A0E81E0AC85BD859C
:101C30008C930C941E0E81E08093E5010E942F1A74
:101C40000C94300E003011F00C942A0E0E942F1AC2
:101C50000C94300E0F3411F00C94300E0E942F1A99
:101C600080E080935C018FEF80935B010E946A0E9D
:101C7000709100017F7770930001709100017F7B6C
:101C8000709300010E94D0058EE0481A80E0580A47
:101C90002C960895EBE1F1E0A3E2B1E00E94B22AB4
:101CA000E3E1F1E0ABE1B1E00E94B22AEBE0F1E068
:101CB000A3E1B1E00E94B22A0895EBE1F1E0A3E1D3
:101CC000B1E00E94B22AE3E2F1E0ABE1B1E00E94B0
:101CD000B22A089581E00E94222D81E00E94222DE7
:101CE00081E20E94222D81E00E94222D82E00E944A
:101CF000222D81E00E94222D88E00E94222D84E086
:101D00000E94222D84E00E94222D88E00E94222D34
:101D100088E00E94222D84E00E94222D84E00E940F
:101D2000222D81E00E94222D82E00E94222D82E05D
:101D30000E94222D81E00E94222D81E00E94222D0E
:101D400081E00E94222D81E0ACA1BDA18C93ACA1C9
:101D5000BDA10C91083018F011F00C94C10E8DE06B
:101D6000ACA1BDA1AD90BB24A2E4B1E0AA0DBB1D06
:101D70008C93ACA1BDA18C918F5F8C9310F40C94CB
:101D8000A70EA0E0B1E08C9182FB16F40C943D13F9
:101D9000A0E0B1E08C9183FB16F40C94A212EBE06E
:101DA000F1E00E941D27A5E6B1E08C93009165014A
:101DB00045E00423A6E6B1E00C93E0E5F0E0A0E105
:101DC000B0E00E94122E013011F00C94040FABE031
:101DD000B1E0ECEBFCE50E946C2A18F011F00C94D9
:101DE000F60EA6E6B1E08C918F5F8C93ABE0B1E08C
:101DF000E4ECFCE50E946C2A10F40C94040FA6E6B7
:101E0000B1E08C918F5F8C93E0E5F0E0A0E1B0E071
:101E10000E94122E033011F00C942B0FABE0B1E0B6
:101E2000ECECFCE50E946C2A18F011F00C941D0FEC
:101E3000A6E6B1E08C918F5F8C93ABE0B1E0E4EB70
:101E4000FCE50E946C2A10F40C942B0FA6E6B1E07E
:101E50008C918F5F8C9300916601003011F00C948F
:101E60009412EBE0F1E0A889B9890E943A28E0E5F4
:101E7000F0E0A0E1B0E00E94122E013011F00C94CD
:101E8000F00FA889B989BA93AA93E4EDFCE5A3E021
:101E9000B1E00E94932AE3E0F1E0AA89BB890E94A5
:101EA00083272296E889F989A88DB98D0E94A028F8
:101EB000E88DF98DAE89BF890E94292CAA89BB893A
:101EC000BA93AA93AA8DBB8DEA89FB890E94332716
:101ED0002296AA89BB89ECEDFCE50E946C2A18F0D9
:101EE00011F00C94750F0C94790FAE89BF890E9484
:101EF000781E81E0ACA1BDA18C93ACA1BDA10C91D9
:101F0000083018F011F00C94DF0FAE89BF890D91E5
:101F10001D912D913C914AE050E060E070E00E94FC
:101F2000FE1EAC89BD890D931D932D933D93AC8905
:101F3000BD898C91ACA1BDA1AD90BB24A2E4B1E060
:101F4000AA0DBB1D8C93AE89BF890D911D912D915A
:101F50003C914AE050E060E070E00E94FE1EAE89D5
:101F6000BF894D935D936D937D9340E050E060E0B9
:101F700070E0AE89BF890D911D912D913C910E9419
:101F8000502D81E009F080E08F93ACA1BDA10C91B0
:101F9000023080E010F009F081E09F9189238823CE
:101FA00011F40C94D70F88E0ACA1BDA18C93ACA127
:101FB000BDA18C918F5F8C9310F40C947D0FA5E4E0
:101FC000B1E08C9180588C93ABE0B1E0ECE8FCE59B
:101FD0000E946C2A10F00C94F00F8AE080934A0162
:101FE000E0E5F0E0A0E1B0E00E94122E003011F038
:101FF0000C947211ABE0B1E0ECE8FCE50E946C2AB5
:1020000010F00C94091087E0AAA1BBA18C930C944A
:102010000D1088E0AAA1BBA18C93A889B989E4EE30
:10202000FCE50E946C2A81E008F080E08F93A8898B
:10203000B989ECEEFCE50E946C2A80E010F009F012
:1020400081E09F918923882311F40C944C11A88975
:10205000B989BA93AA93EA89FB89D2010E94B22A6C
:1020600088E00E94222DAEA1BFA1BA93AA930E943C
:102070006514269688E00E941E2DE889F989A88DAE
:10208000B98D0E94A028E88DF98DAE89BF890E9484
:10209000292CAA89BB89BA93AA93AA8DBB8DEA89F8
:1020A000FB890E943327229640E050E060E070E018
:1020B000AE89BF890D911D912D913C910E94502DAB
:1020C0001CF011F00C9466100C94E010EE89FF895E
:1020D000A8A1B9A10E94662DA8A1B9A10E942C2E89
:1020E000AE8DBF8D8C93AAA1BBA10C91AE8DBF8D7F
:1020F0004C91041BAE8DBF8D0C93AE8DBF8D8C911A
:102100008F5F8C93AE8DBF8D8C91ACA1BDA18C9354
:10211000AAA1BBA14C91ACA1BDA10C91041718F0D0
:1021200011F00C94CB10AE89BF890D911D912D91AA
:102130003C914AE050E060E070E00E94FE1EAC89F5
:10214000BD890D931D932D933D93AC89BD898C91D1
:10215000ACA1BDA1AD90BB24A2E4B1E0AA0DBB1D12
:102160008C93AE89BF890D911D912D913C914AE0D0
:1021700050E060E070E00E94FE1EAE89BF894D9382
:102180005D936D937D93ACA1BDA18C918F5F8C937A
:1021900010F40C948810AE8DBF8DAD90BB24A2E4DA
:1021A000B1E0AA0DBB1D8C9180588C93AE8DBF8D74
:1021B0000C9141E0041BAAA1BBA10C930C94F91053
:1021C00080E0AAA1BBA1AD90BB24A2E4B1E0AA0D1E
:1021D000BB1D8C93AAA1BBA1AD90BB24A2E4B1E02E
:1021E000AA0DBB1D8C9180588C93AAA1BBA10E9403
:1021F000741EAAA1BBA10C91003080E010F009F080
:1022000081E08F93AA89BB89ECE8FCE50E946C2AE7
:1022100080E010F009F081E09F918923882311F478
:102220000C944A11AA89BB89BA93AA93E4EFFCE5FE
:10223000A3E0B1E00E94932AEC89FD890E948327E4
:102240002296EA89FB89A88DB98D0E94A028E88D85
:10225000F98DAE89BF890E94292CAE89BF898C91E6
:10226000AAA1BBA1AD90BB24A2E4B1E0AA0DBB1D05
:102270008C93AA89BB89BA93AA93AA8DBB8DEC894A
:10228000FD890E9433272296AAA1BBA10E94741E39
:102290000C94F9100C945A11E889F989D2010E9422
:1022A000B22A88E00E94222D0E948813229688E09C
:1022B0000E941E2DABE0B1E0ECE8FCE50E946C2A28
:1022C00010F00C9466118AE080934A01ABE0B1E013
:1022D000ECE8FCE50E946C2A11F00C94721180E885
:1022E00080934A01E0E5F0E0A0E1B0E00E94122E08
:1022F000023011F00C94A211E889F989D2010E94F0
:10230000B22A88E00E94222D0E948813229688E03B
:102310000E941E2DABE0B1E0ECE8FCE50E946C2AC7
:1023200010F00C9496118AE080934A01ABE0B1E082
:10233000ECE8FCE50E946C2A11F00C94A21180E8F4
:1023400080934A01E0E5F0E0A0E1B0E00E94122EA7
:10235000033011F00C949212A889B989BA93AA9308
:10236000ECEFFCE5A3E0B1E00E94932AEA89FB8947
:102370000E9483272296E889F989A88DB98D0E9449
:10238000A028E88DF98DAE89BF890E94292CAA89E1
:10239000BB89BA93AA93AA8DBB8DEA89FB890E9457
:1023A00033272296AA89BB89ECEDFCE50E946C2AB2
:1023B00018F011F00C94DE110C94E211AE89BF8973
:1023C0000E94781EAE89BF890D911D912D913C917F
:1023D0004CE350E060E070E00E94FE1EAE85BF85D9
:1023E0004D935D936D937D93AE89BF890D911D9142
:1023F0002D913C914CE350E060E070E00E94FE1EA5
:10240000AC85BD850D931D932D933D93AC85BD8506
:102410000C914AE00E941C2EA3E4B1E08C93AC85A1
:10242000BD850C914AE00E941C2EA4E4B1E00C93FF
:1024300083E0ACA1BDA18C93ACA1BDA10C910630F1
:1024400018F011F00C947E12AE85BF850D911D9190
:102450002D913C914AE050E060E070E00E94FE1E49
:10246000AC89BD890D931D932D933D93AC89BD8996
:102470008C91ACA1BDA1AD90BB24A2E4B1E0AA0DAA
:10248000BB1D8C93AE85BF850D911D912D913C9107
:102490004AE050E060E070E00E94FE1EAE85BF851D
:1024A0004D935D936D937D9340E050E060E070E06C
:1024B000AE85BF850D911D912D913C910E94502DAF
:1024C00081E009F080E08F93ACA1BDA10C910330B5
:1024D00080E010F009F081E09F918923882311F4B6
:1024E0000C94761288E0ACA1BDA18C93ACA1BDA1E7
:1024F0008C918F5F8C9310F40C941C12A5E4B1E0C6
:102500008C9180588C93ABE0B1E0ECE8FCE50E9444
:102510006C2A10F00C948F128AE08093490188E1B4
:1025200080934A010C94A0128DE0D2018C9381E03B
:102530000E94222D0E940415229681E00E941E2DE9
:102540000C943B130091E601033618F011F00C9443
:10255000AB120C94AE1280E08093E6010091E6018C
:1025600041E0040FA9E5B1E00C93E9E5F1E0A190A9
:10257000BB24E0E5F0E0AA0CBB1CEA0DFB1DAE811C
:10258000BF810E94142EAE81BF8111968C91AC81C7
:10259000BD818C930091E6014AE00E941C2EAAE4C2
:1025A000B1E00C930091E6014AE00E941C2EA9E4E0
:1025B000B1E08C938DE080934801AC81BD810C919A
:1025C0004AE00E941C2EA5E4B1E08C93AC81BD8151
:1025D0000C914AE00E941C2EAA85BB850C93AA850B
:1025E000BB850C914AE00E941C2EA6E4B1E08C93BE
:1025F000AA85BB850C914AE00E941C2EA7E4B1E09D
:102600000C93AA81BB81BA93AA93AE81BF81BA937E
:10261000AA930E9422052496AA81BB810C910030C6
:1026200018F011F00C9416130C943513AE81BF8181
:102630008C91AA81BB818C93A5E4B1E08C918058E8
:102640008C93AA81BB810C914AE00E941C2EA4E4C9
:10265000B1E00C93AA81BB810C914AE00E941C2E30
:10266000A3E4B1E08C930C943B138DE08093440180
:102670008DE0809343010C948213A7EEB1E08C911E
:102680008F5F8C930091E7010F3318F011F00C94D9
:102690004B130C944E1380E08093E7010091E70107
:1026A00048E00E941C2EA881B9810C93A881B981B1
:1026B0008C918F5F8C938DE0A881B981AD90BB2404
:1026C000A2E4B1E0AA0DBB1D8C93A881B9818C91C5
:1026D0008F5F8C93A881B9810C91083018F011F0AC
:1026E0000C9474130C94781381E0A881B9818C93B5
:1026F0008DE8A881B981AD90BB24A2E4B1E0AA0D18
:10270000BB1D8C9387E5481A80E0580AA696089569
:1027100081E00E94222D81E00E94222D81E20E9410
:10272000222D81E00E94222D82E00E94222D81E054
:102730000E94222DEC85FD850027AE81BF810E947D
:10274000F328AE81BF810E942C2EAC81BD818C9379
:10275000ABE0B1E0ECE8FCE50E946C2A10F00C94D0
:10276000B71387E0A885B9858C930C94BB1388E0D8
:10277000A885B9858C9381E0AA85BB858C93AC81B3
:10278000BD814C91AA85BB850C91041718F011F0FE
:102790000C945F14AA85BB858C91EE81FF8101E0CA
:1027A0000A93AB81BC810E94EB2DAA81BB81ECE135
:1027B000FDE50E94322E11F00C94E4138AE0A8810A
:1027C000B9818C930C943D14EEE1FDE50E94322E0C
:1027D00011F00C94001485E1A881B9818C93AC812F
:1027E000BD810C91AA85BB854C91041BA885B98538
:1027F0000C93A885B9858C918F5F8C930C943D14B4
:10280000E0E2FDE50E94322E11F00C941C14A88524
:10281000B9858C918F5F8C93A885B985AD90BB24C9
:10282000A2E4B1E0AA0DBB1D0C9140E8040FA88101
:10283000B9810C930C943D14AA81BB81E2E2FDE5C1
:102840000E94322E81E008F480E08F93AA81BB8140
:10285000E4E2FDE50E94322E81E010F009F080E014
:102860009F918923882311F40C943D14AA81BB8184
:102870000E94B92DA881B9810C93A885B9850C91C6
:10288000003018F011F00C9447140C945714A881E0
:10289000B9818C91A885B985AD90BB24A2E4B1E043
:1028A000AA0DBB1D8C93A885B9850E94741EAA85AC
:1028B000BB858C918F5F8C9310F40C94BF1387E2CF
:1028C000481A80E0580A2C96089581E20E94222D31
:1028D00088E00E94222D84E00E94222D81E00E9447
:1028E000222D88E00E94222D81E00E94222D81E08D
:1028F0000E94222D81E00E94222DEA89FB89AC856D
:10290000BD850E94A028EC85FD85AA85BB850E9417
:10291000292CEA85FB85AE85BF850E94662DAE8594
:10292000BF850E942C2EAC81BD818C93A889B9896A
:102930000C91AC81BD814C91041BAA81BB810C938D
:10294000EA89FB89AE81BF810E94B22A81E0A88119
:10295000B9818C93AA81BB814C91A881B9810C91DA
:10296000041718F011F00C94CC14AE81BF81BA9307
:10297000AA93E4EFFCE5A3E0B1E00E94932AE88586
:10298000F9850E9483272296A881B9818C918F5F57
:102990008C9310F40C94AA14EE81FF81AE81BF8158
:1029A0000E94AE2881E0A881B9818C93AA81BB8165
:1029B0004C91A881B9810C91041718F011F00C9476
:1029C000F814AE81BF81BA93AA93E4E0FDE5A3E0D9
:1029D000B1E00E94932AE885F9850E948327229618
:1029E000A881B9818C918F5F8C9310F40C94D614CC
:1029F000EE81FF81AC89BD890E94B22A89E3481A21
:102A000080E0580A609608958DE080934A0185E140
:102A10008093490186E18093480186E180934701D4
:102A200087E18093460186E1809345018DE08093A4
:102A30004401A881B9818C91809343017091000178
:102A40007B7F709300010E94F81A089581E20E9432
:102A5000222D81E00E94222D81E00E94222D82E021
:102A60000E94222D81E00E94222D81E00E94222DD1
:102A7000AA85BB85E6E2FDE50E94392D89E18093B8
:102A80004A0185E0AE81BF818C93AA85BB850E94F7
:102A90002C2EA881B9818C9381E0A885B9858C936F
:102AA000A881B9814C91A885B9850C91041718F0BB
:102AB00011F00C94F115A885B9858C91EA85FB85F8
:102AC00001E00A93AD81BE810E94EB2DAC81BD81F6
:102AD000ECE1FDE50E94322E11F00C9475158AE0B0
:102AE000AA81BB818C930C94CE15EEE1FDE50E948A
:102AF000322E11F00C94911585E1AA81BB818C9343
:102B0000A881B9810C91A885B9854C91041BAE812F
:102B1000BF810C93AE81BF818C918F5F8C930C949D
:102B2000CE15E0E2FDE50E94322E11F00C94AD15B9
:102B3000AE81BF818C918F5F8C93AE81BF81AD9050
:102B4000BB24A2E4B1E0AA0DBB1D0C9140E8040F28
:102B5000AA81BB810C930C94CE15AC81BD81E2E2BD
:102B6000FDE50E94322E81E008F480E08F93AC8175
:102B7000BD81E4E2FDE50E94322E81E010F009F013
:102B800080E09F918923882311F40C94CE15AC81A9
:102B9000BD810E94B92DAA81BB810C93AE81BF81FA
:102BA0000C91003018F011F00C94D8150C94E91524
:102BB000AA81BB818C91AE81BF81AD90BB24A2E480
:102BC000B1E0AA0DBB1D8C93AE81BF818C91815069
:102BD0008C93A885B9858C918F5F8C9310F40C949D
:102BE000501587E2481A80E0580A2C96089588E02C
:102BF0000E94222D88E00E94222D81E00E94222D39
:102C000081E00E94222D81E00E94222DADE5B1E0FD
:102C1000ECE8FCE50E94932AAE81BF81ECE8FCE57C
:102C20000E94932A80E0AC81BD818C9381E00E9458
:102C3000222D0091550141E0041BA881B9810C931C
:102C400081E0AC81BD818C93A881B9814C91AC812C
:102C5000BD810C91041718F011F00C94BF16AC81D3
:102C6000BD81AD90BB24A2E3B1E0AA0DBB1DEA85F6
:102C7000FB850E94EA2B80E0AA81BB818C93AA8508
:102C8000BB85ECE0FDE50E946C2A18F011F00C9475
:102C90004B160C945E16AA85BB85BA93AA93E4E101
:102CA000FDE5A3E0B1E00E94932AEC85FD850E943A
:102CB0003327229681E0AA81BB818C93AE81BF81AC
:102CC0000C91003011F00C948116ADE5B1E0BA938F
:102CD000AA93E4EFFCE5A3E0B1E00E94932AEDE5BE
:102CE000F1E00E9483272296ADE5B1E0BA93AA9362
:102CF000AC85BD85EDE5F1E00E94482722960C9455
:102D0000A616A885B985BA93AA93E4EFFCE5A3E0DB
:102D1000B1E00E94932AEA85FB850E94EF27229664
:102D2000AA85BB85BA93AA93AA85BB85EC85FD8548
:102D30000E9483272296ADE5B1E0BA93AA93AC85B1
:102D4000BD85EDE5F1E00E9448272296AA81BB816E
:102D50000C91013011F00C94B716A885B985E4EAFE
:102D6000FCE50E94932A81E0AE81BF818C93AC8107
:102D7000BD818C918F5F8C9310F40C94241681E0AC
:102D8000481A80E0580A229683E1481A80E0580ADF
:102D90002A96089580E0AA81BB818C93A881B9818D
:102DA0000C91023011F00C94DB1680E3AA81BB81F8
:102DB0008C930C94E717093011F00C94E51681E31D
:102DC000AA81BB818C930C94E7170A3011F00C9404
:102DD000EF1682E3AA81BB818C930C94E7170C3029
:102DE00011F00C94F91683E3AA81BB818C930C94A7
:102DF000E717013111F00C94031784E3AA81BB811A
:102E00008C930C94E717023111F00C940D1785E3A5
:102E1000AA81BB818C930C94E717043111F00C94B8
:102E2000171786E3AA81BB818C930C94E7170931AD
:102E300011F00C94211787E3AA81BB818C930C9429
:102E4000E7170A3111F00C942B1788E3AA81BB8194
:102E50008C930C94E7170C3111F00C94351789E31F
:102E6000AA81BB818C930C94E717013011F00C946C
:102E70003F1785E0AA81BB818C930C94E717083338
:102E800011F00C94491786E0AA81BB818C930C94B5
:102E9000E717083011F00C94531781E0AA81BB8129
:102EA0008C930C94E717003111F00C945D1782E0BD
:102EB000AA81BB818C930C94E717083111F00C9414
:102EC000671783E0AA81BB818C930C94E7170032CB
:102ED00011F00C94711784E0AA81BB818C930C943F
:102EE000E717093211F00C947B1780E8AA81BB81A7
:102EF0008C930C94E7170A3211F00C94851787E035
:102F0000AA81BB818C930C94E7170C3211F00C94BE
:102F10008F1788E0AA81BB818C930C94E71702334A
:102F200011F00C94991789E0AA81BB818C930C94C1
:102F3000E717013211F00C94A3178AE0AA81BB8134
:102F40008C930C94E717023211F00C94AD178BE0C0
:102F5000AA81BB818C930C94E717043211F00C9476
:102F6000B7178CE0AA81BB818C930C94E7170832C9
:102F700011F00C94C1178DE0AA81BB818C930C9445
:102F8000E717003311F00C94CB178EE0AA81BB81B8
:102F90008C930C94E717043011F00C94D5178FE044
:102FA000AA81BB818C930C94E717013311F00C9428
:102FB000DF1780E1AA81BB818C930C94E71704335F
:102FC00011F00C94E71781E1AA81BB818C930895DD
:102FD00081E00E94222D81E00E94222D81E00E944A
:102FE000222D81E0AA81BB818C9380E0AE81BF81DC
:102FF0008C9380E0AC81BD818C93AC81BD810C91C0
:10300000063018F011F00C944118AA81BB81E5E25A
:10301000F0E08C9180958083A881B98186B18C93F2
:10302000A881B9818C9180958C93A881B9818C916C
:103030008F708C93A881B9810C91003018F011F039
:103040000C9424180C943418AC81BD810C9148E088
:10305000049F0C92A881B9810C91AC81BD814C91E7
:10306000040FAE81BF810C9391E0AA81BB810E94C5
:103070003F2DAC81BD818C918F5F8C9310F40C94AB
:10308000FD1740915701AE81BF810C91041711F0DB
:103090000C94501880E0AE81BF818C930C9455182D
:1030A000AE81BF818C918093570183E0481A80E004
:1030B000580A2696089581E00E94222D80E0A8817A
:1030C000B9818C9380E0AC81BD818C93AA81BB8156
:1030D0000C91003810F40C94761881E0A881B98125
:1030E0008C93AA81BB818C9180588C93AA81BB81DF
:1030F0000C91003011F00C9483188DE1AC81BD81EE
:103100008C930C948519013011F00C948D1880E388
:10311000AC81BD818C930C948519023011F00C9414
:1031200097188DE6AC81BD818C930C948519033082
:1031300011F00C94A11889E7AC81BD818C930C949B
:103140008519043011F00C94AB1883E3AC81BD8178
:103150008C930C948519053011F00C94B5188BE5FF
:10316000AC81BD818C930C948519063011F00C94C0
:10317000BF188FE1AC81BD818C930C948519073009
:1031800011F00C94C91880E7AC81BD818C930C942C
:103190008519083011F00C94D3188FE7AC81BD81EC
:1031A0008C930C948519093011F00C94DD1883E789
:1031B000AC81BD818C930C9485190A3011F00C946C
:1031C000E71881E0AC81BD818C930C9485190B309C
:1031D00011F00C94F11888E0AC81BD818C930C94B3
:1031E00085190D3011F00C94FB1880E0AC81BD8185
:1031F0008C930C9485190E3011F00C94051983E60C
:10320000AC81BD818C930C948519043111F00C9420
:103210000F1987E7AC81BD818C930C94851905311A
:1032200011F00C9419198FE4AC81BD818C930C942E
:103230008519063111F00C94231985E0AC81BD810C
:103240008C930C948519073111F00C942D198DE194
:10325000AC81BD818C930C948519083111F00C94CC
:10326000371987E1AC81BD818C930C9485190931A4
:1032700011F00C9441198DE0AC81BD818C930C94BC
:1032800085190A3111F00C944B1987E6AC81BD8188
:103290008C930C9485190B3111F00C94551985E120
:1032A000AC81BD818C930C9485190C3111F00C9478
:1032B0005F198BE5AC81BD818C930C9485190E311F
:1032C00011F00C9469198EE4AC81BD818C930C943F
:1032D00085190F3111F00C9473198EE0AC81BD810A
:1032E0008C930C9485190D3111F00C947D198DE39C
:1032F000AC81BD818C930C948519013211F00C9432
:1033000085198EE3AC81BD818C93A881B9810C9124
:10331000013011F00C949619AC81BD818C918058CC
:103320008C93AA81BB818C9180588C9381E0481A40
:1033300080E0580A2296089581E00E94222D81E0C3
:10334000A881B9818C93A881B9810C91083018F0BB
:1033500011F00C94C519A881B981AD90BB24A2E4E9
:10336000B1E0AA0DBB1D8C91A881B981AD90BB24A1
:10337000AAE4B1E0AA0DBB1D8C93A881B9818C9100
:103380008F5F8C9310F40C94A31981E0481A80E0AD
:10339000580A2296089581E00E94222D0E949C19CD
:1033A00081E0A881B9818C93A881B9810C91083002
:1033B00018F011F00C94EE198DE0A881B981AD9050
:1033C000BB24A2E4B1E0AA0DBB1D8C93A881B981F6
:1033D0008C918F5F8C9310F40C94D419A3E4B1E01A
:1033E0008C9180588C930E94F81A81E0481A80E0F2
:1033F000580A2296089581E00E94222D81E0A8813A
:10340000B9818C93A881B9810C91083018F011F022
:103410000C94241AA881B981AD90BB24AAE4B1E030
:10342000AA0DBB1D8C91A881B981AD90BB24A2E4EB
:10343000B1E0AA0DBB1D8C93A881B9818C918F5FDF
:103440008C9310F40C94021A81E0481A80E0580A18
:10345000229608950E94FB190E94F81A0895A0E090
:10346000B1E08C9182FB16F40C94401AF8940E94FF
:10347000CB1984E690E00E945B1F0E942A1A789480
:103480000895E1E5F0E0A0E1B0E00E94122E0830DE
:1034900011F00C94561AE1E5F0E0A0E1BB2781E0C1
:1034A0008C937BE70E94012E0C945F1AE1E5F0E01B
:1034B000A0E1BB2788E08C937BE70E94012E8AE085
:1034C00080935301E1E5F0E0A4E5B1E00E94122E03
:1034D0005A98539A559A5D98A3E5B1E0119698E0F1
:1034E0008E91983018F4392F992702C038E09850FF
:1034F000881F5B9808F45B9A000000005D9A00004A
:1035000000005D98000000003A9591F7992341F77B
:10351000539A559A5D98A4E5B1E0119698E08E9182
:10352000983018F4392F992702C038E09850881F36
:103530005B9808F45B9A000000005D9A00000000B0
:103540005D98000000003A9591F7992341F75A9A47
:10355000089588E00E94222D81E00E94222D81E0C2
:10356000A881B9818C93A881B9810C910A3018F097
:1035700011F00C94F21AA881B981AD90BB24AAEB8A
:10358000B1E0AA0DBB1D0C91013011F00C94EA1AA8
:10359000E881F981A190BB24E8EFFFEF0E94282D7C
:1035A000EA0DFB1DA881B981AD90BB24A3E6B1E073
:1035B0000E94282DAA0DBB1D98E07BE70E94042ED7
:1035C00080E0A881B981AD90BB24AAEBB1E0AA0D3F
:1035D000BB1D8C93A881B9818C918F5F8C9310F463
:1035E0000C94B31A89E0481A80E0580A249608958A
:1035F00081E00E94222D81E00E94222D81E00E9424
:10360000222D81E0AA81BB818C93AA81BB810C9180
:10361000083018F011F00C94781B09E0AA81BB81E6
:103620004C91041BA881B9810C93AC81BD81BA93E4
:10363000AA93AA81BB81AD90BB24A2E4B1E0AA0DFC
:10364000BB1DBA93AA930E945B182496AA81BB81E2
:103650008C9180935301AC81BD818C9180935401F6
:103660005A98539A559A5D98A3E5B1E0119698E05F
:103670008E91983018F4392F992702C038E098506D
:10368000881F5B9808F45B9A000000005D9A0000B8
:1036900000005D98000000003A9591F7992341F7EA
:1036A000539A559A5D98A4E5B1E0119698E08E91F1
:1036B000983018F4392F992702C038E09850881FA5
:1036C0005B9808F45B9A000000005D9A000000001F
:1036D0005D98000000003A9591F7992341F75A9AB6
:1036E000AA81BB818C918F5F8C9310F40C94051B85
:1036F00083E0481A80E0580A269608958CE080936B
:10370000530180E0809354015A98539A559A5D98DA
:10371000A3E5B1E0119698E08E91983018F4392F16
:10372000992702C038E09850881F5B9808F45B9A8C
:10373000000000005D9A000000005D98000000009D
:103740003A9591F7992341F7539A559A5D98A4E5D4
:10375000B1E0119698E08E91983018F4392F99279E
:1037600002C038E09850881F5B9808F45B9A00000C
:1037700000005D9A000000005D98000000003A958E
:1037800091F7992341F75A9A89E08093530180E099
:10379000809354015A98539A559A5D98A3E5B1E0E5
:1037A000119698E08E91983018F4392F992702C01D
:1037B00038E09850881F5B9808F45B9A000000007E
:1037C0005D9A000000005D98000000003A9591F7B6
:1037D000992341F7539A559A5D98A4E5B1E0119663
:1037E00098E08E91983018F4392F992702C038E06C
:1037F0009850881F5B9808F45B9A000000005D9A5F
:10380000000000005D98000000003A9591F79923B0
:1038100041F75A9A8AE080935301E1E5F0E0A4E58C
:10382000B1E00E94122E5A98539A559A5D98A3E5DA
:10383000B1E0119698E08E91983018F4392F9927BD
:1038400002C038E09850881F5B9808F45B9A00002B
:1038500000005D9A000000005D98000000003A95AD
:1038600091F7992341F7539A559A5D98A4E5B1E0F1
:10387000119698E08E91983018F4392F992702C04C
:1038800038E09850881F5B9808F45B9A00000000AD
:103890005D9A000000005D98000000003A9591F7E5
:1038A000992341F75A9A8BE08093530187E08093E4
:1038B00054015A98539A559A5D98A3E5B1E0119630
:1038C00098E08E91983018F4392F992702C038E08B
:1038D0009850881F5B9808F45B9A000000005D9A7E
:1038E000000000005D98000000003A9591F79923D0
:1038F00041F7539A559A5D98A4E5B1E0119698E086
:103900008E91983018F4392F992702C038E09850DA
:10391000881F5B9808F45B9A000000005D9A000025
:1039200000005D98000000003A9591F7992341F757
:103930005A9A8FE08093530180E0809354015A9803
:10394000539A559A5D98A3E5B1E0119698E08E914F
:10395000983018F4392F992702C038E09850881F02
:103960005B9808F45B9A000000005D9A000000007C
:103970005D98000000003A9591F7992341F7539A1A
:10398000559A5D98A4E5B1E0119698E08E91983033
:1039900018F4392F992702C038E09850881F5B9897
:1039A00008F45B9A000000005D9A000000005D983A
:1039B000000000003A9591F7992341F75A9A8CE05C
:1039C0008093530181E0809354015A98539A559AF9
:1039D0005D98A3E5B1E0119698E08E91983018F4C7
:1039E000392F992702C038E09850881F5B9808F457
:1039F0005B9A000000005D9A000000005D980000E6
:103A000000003A9591F7992341F7539A559A5D989A
:103A1000A4E5B1E0119698E08E91983018F4392F12
:103A2000992702C038E09850881F5B9808F45B9A89
:103A3000000000005D9A000000005D98000000009A
:103A40003A9591F7992341F75A9A08958EE1809318
:103A50004A0187E1809349018BE1809348010E94EC
:103A6000F81A08958FE180934A0180E0809349011C
:103A700084E1809348018DE1809347010E94F81A08
:103A800008958CE180934A0184E18093490181E2A9
:103A90008093480185E1809347010E94F81A0895B8
:103AA00081E00E94222D82E00E94222D81E00E946E
:103AB000222D0E94411D81E0AC81BD818C93AC819F
:103AC000BD810C91043618F011F00C94941DEC811A
:103AD000FD81A190BB24E0E5F0E0AA0CBB1CEA0D3F
:103AE000FB1DAA81BB810E94142EAA81BB81119665
:103AF0008C91A881B9818C9331E0A881B9810E9411
:103B0000EC1EAA81BB818C91A881B9818C9331E094
:103B1000A881B9810E94EC1EAC81BD818C918F5F20
:103B20008C9310F40C945F1D84E0481A80E0580ACE
:103B30002696089581E00E94222D82E00E94222D87
:103B400081E00E94222D0E94321D81E0AC81BD8166
:103B50008C93AC81BD810C91043618F011F00C945B
:103B6000FB1DA0ECB0E00C9107FB16F00C94B11D0E
:103B7000A881B9818091C6008C93A881B9810D91EB
:103B8000112740E051E00E942F2DAA81BB810D93A7
:103B90001C93A0ECB0E00C9107FB16F00C94C91D2F
:103BA000A881B9818091C6008C93AA81BB810D91B7
:103BB0001C91A881B9814D915527040F151FAA8129
:103BC000BB810D931C93AA81BB818D919C91AC818B
:103BD000BD81AD90BB24A6EEB1E0AA0CBB1CAA0D22
:103BE000BB1D8D939C93AC81BD818C918F5F8C9319
:103BF00010F40C94A91D81E0AC81BD818C93AC8143
:103C0000BD810C91043618F011F00C94261EEC8145
:103C1000FD81A190BB24E0E5F0E0AA0CBB1CEA0DFD
:103C2000FB1DAC81BD81AD90BB24A6EEB1E0AA0C1A
:103C3000BB1CAA0DBB1D7BE70E94032EAC81BD817E
:103C40008C918F5F8C9310F40C94FF1DEEE2FDE5D8
:103C50000E94E51E0E94F11E84E0481A80E0580A86
:103C60002696089581E00E94222DF8940E949C19C6
:103C7000A881B9818091C6008C93A881B9810C91EB
:103C80000A3A11F00C94691EE6E2FDE50E94E51E79
:103C90000E94F11E0E94261DA0ECB0E00C9107FBD3
:103CA00016F00C944C1EA881B9818091C6008C93AB
:103CB000A881B9810C91033511F00C94631E0E9408
:103CC0009A1D0C94691E023511F00C94691E0E9415
:103CD000501D0E94FB190E94F81A789481E0481A3E
:103CE00080E0580A229608958C9181508C93089513
:103CF0000D911D912D913C910F5F1F4F2F4F3F4F05
:103D00003C932E931E930E930895ED91FC91EF5FDB
:103D1000FF4FFC93EE93089515E000E000936701D8
:103D200010936801089540916701509168010DEF6B
:103D300013E40E942F2D0D53114600936701109339
:103D400068015991499127D0089509D00E942F2DDB
:103D500000FC10D0089503D01ED001F8F9CF002444
:103D6000E89457FF02C009D0689400F80BD010F80F
:103D70000124089502D009D00895509540954F5FD1
:103D80005F4F0895E89417FF0895009510950F5F11
:103D90001F4F68940895352F242FE894452B11F474
:103DA00068940895512F402F0027112780E1440F78
:103DB000551F001F111F021B130B416018F4020F47
:103DC000131F4E7F8A9599F708950E94472D802DE5
:103DD00011F00AD0FACF08958D9106D03A95E1F707
:103DE00008958DE001D08AE00090C00005FEFCCF70
:103DF0008093C600089500FC05D0089530D005D00A
:103E000001F8F9CF37D03FD00895842F952FA62FF2
:103E1000B72FE894452B462B472B11F4689408954F
:103E2000402F512F622F732F00271127222733276E
:103E3000F0E2440F551F661F771F001F111F221F3E
:103E4000331F081B190B2A0B3B0B416028F4080F8A
:103E5000191F2A1F3B1F4E7FFA9559F7089500241A
:103E6000E89477FF02C006D0689400F809D010F8F3
:103E70000124089512D04F5F5F4F6F4F7F4F089519
:103E8000E89437FF089500951095209530950F5FC1
:103E90001F4F2F4F3F4F6894089540955095609560
:103EA000709508953197F1F70895689462F8089530
:103EB000E89462F80895EF93FF93EE27E82BE92B3F
:103EC00031F0EAEFF0E03197F1F70197D1F7FF9188
:103ED000EF9108954E414E00496E66696E6974799E
:103EE0000000302E30008A930E94B22AFD019BD53B
:103EF000888187F98883FA93EA93EAE5FBE40E94D4
:103F00006C2AA8F188E2ABD0FA93EA93AA85BB8524
:103F1000EAE1FEE494E003D6AA85BB85EC85FD8545
:103F20000E948327AA85BB85FD010E947528ACE00D
:103F3000BB27EA85FB850E94292C9C2D97708E85D6
:103F4000890F8E87969520F4AA85BB850E94CE287E
:103F5000A885B9850FD0AE81BF810CD0AC81BD8161
:103F600009D0EC85FD855FD52A960E94102D8A81A7
:103F700023960895EA81FB81E883F983EA85FB852E
:103F80000E948327AA81BB81EC85FD85E883F983A4
:103F90000C943327BA93AA930E94472D0A920E9449
:103FA000472D0A92FA93EA93BA93AA9307FC09C0A1
:103FB000EC85FD85E883F983E885F985DF010E94BA
:103FC00083278C8180FD3CC0AE81BF81EA81FB816B
:103FD0000E94932AEA83FB838D818A958D83AE812B
:103FE000BF81A883B983AC85BD85E881F9810E9432
:103FF0008327EA81FB81AA85BB850E94932AEA83F5
:10400000FB83E881F9810E9448278D818A958D8301
:1040100051F78C8181FD1DD08C8182FD1AD08C815D
:1040200083FF03C0A885B98516D08C8184FF06C0A4
:10403000A885B985E881F9810E94482728960895C6
:10404000AE81BF81A883B983EC85FD850E94B22A29
:10405000D0CFAC85BD85E881F9810C9483278F93FF
:104060000E94032D8F91885021F01896BA93AA933D
:10407000FACF08950E94342882E003C00E943428B9
:1040800080E48F930CE050D58F9109F008958F93C1
:10409000B7D48F9108F032C58A93BA93AA9323DFDD
:1040A00082FB839582F98A8388E1D9DFDF01EE8183
:1040B000FF81FA93EA938A85A6D481FD06C008F4AD
:1040C00034C0ECEAFBE4EBD418C0B0F1EAE7FBE45F
:1040D000E6D4EC81FD81B8D482F0AAD4AE81BF8150
:1040E000A883B9830E944827A885B985BCD4A88530
:1040F000B985EE81FF810E944827EE81FF810E94F1
:10410000BA2A8A8531FD06C082FB97D486FF02C099
:1041100087FD84D4EE81FF81A885B9850E94B22AEB
:1041200026960E94102D23960895E885F985AE8184
:10413000BF810E94B22AE1CFAE81BF8194D4DDCF8E
:104140000E9434280EE0F0D409F0089559D408F004
:10415000D5C4882737FB86F98A93BA93AA93C3DE1E
:1041600081FB839582F98A8380E279DFA885B9850E
:10417000BA93AA93DF01EA85FB8545D478F0EEE394
:10418000FDE4A2D4E8E5FDE491D4ACD4EA85FB8556
:10419000E883F983A885B9850E9448278C8581FF2B
:1041A0000BC0A885B9855FD4AA85BB85A883B983D0
:1041B000E885F9850E94EF27EA85FB858C8582FBDF
:1041C0003CD487FD2BD428960E94102D2396089569
:1041D0000E94342806E0A8D409F0089514D408F405
:1041E000089521D487F98A93BA93AA9350D440F0C2
:1041F00019F02396FD017EC4A881B9813CD422C068
:1042000080E22DDFE885F985FA93EA931FE304EE57
:10421000FDD3E8F4EEEDFBE457D4E0E1FCE446D452
:1042200061D4E885F985AA85BB850E948327EA8544
:10423000FB85E883F983A885B9850E9448272896DD
:104240000E94102DE991F991899187FBF6C3AA810B
:10425000BB8109D4AC81BD81A883B983EA81FB818C
:10426000AA85BB850E943327EAE3FCE42DD4E4E66B
:10427000FCE41CD437D4EC81FD81EED3DF0113D1F3
:10428000AA81BB8100D4AE81BF81A883B983AC81F0
:10429000BD81EA81FB810E943327EC81FD81E883A7
:1042A000F983A885B9850E948327A885B985E6E8A2
:1042B000FCE40E94932AA885B985E881F9810E94CF
:1042C0003327EE81FF81E883F983AC81BD810E94B1
:1042D0003327EA85FB85E883F983EE81FF81AA8194
:1042E000BB810E944827ABCF0E9434280CE01CD42D
:1042F00009F00895A6D387F98A93BA93AA93C7D3EE
:1043000078F019F02396FD01F5C38A81882322F005
:10431000E881F981F3D323C0A881B981B0D31FC04C
:104320000E94022DAA93BA938E8187FD06C0EC816C
:10433000FD811FE300EE6AD3A0F4EC81FD81DF0173
:1043400049DFAA81BB8197D3AC81BD81A883B983A2
:10435000EA81FB810E94332722960E94102D23962A
:104360000895EC81FD81E883F9836ED3AA81BB8136
:104370007ED3EA81FB81AC81BD810E943327EC8131
:10438000FD81DF0190D0EC81FD81DF0123DFEC8135
:10439000FD8162D3E1CF0E94342806E0C5D309F045
:1043A000089531D308F408953ED3882787F98A9376
:1043B000BA93AA9380E253DEE885F985FA93EA93EB
:1043C0001FE305EE23D380E048F110E403E0AC8165
:1043D000BD811CD3C8F447D3E885F985E883F98308
:1043E000EA85FB850E944827EA85FB85E883F983F7
:1043F000AC81BD810E943327EA85FB85A885B985FC
:104400000E94EF2781E00AC02ED3FD0107D3AA85C1
:10441000BB85A883B9830E94EF2782E09C85982BF7
:104420009C87EEE8FCE450D3E8EBFCE43FD35AD39E
:10443000E885F985AA85BB85A883B9830E944827AA
:104440008C858F7719F1AE81BF81E6E8FCE40E948C
:10445000932A8C8580FF06C0EE81FF81F5D2EAE5C4
:10446000FBE404C081FF02C0E2E6FBE4AA81BB8159
:104470000E94932AE881F981AE81BF810E9448277A
:10448000E881F981AA81BB810E9448278C8587FF3A
:1044900003C0EA85FB85C2D228960E94102D239680
:1044A00008950E94342807E13FD309F00895BA9394
:1044B000AA930E94DF2A80E1D2DDFA93EA93415069
:1044C0005C4F40FB569547950695F79403F98F2D61
:1044D000902F93FF04C0809590958F5F9F4F9F70A2
:1044E0002ED02DD0006166270E94442BEC81FD81E7
:1044F0000E949A2A83E08F93AA81BB81A883B98303
:10450000EE81FF81AC81BD810E94EF27AC81BD812E
:10451000A883B983EA81FB810E944827EC81FD8151
:1045200093D28F918A9539F7EC81FD81AE81BF815D
:104530000E94B22A24960E94102D2296089533E0FC
:10454000969587953A95E1F7F81A090B08950E9418
:10455000342804E0E9D209F0089531FDDBC230FFD0
:1045600003C037FF0895CAC2BA93AA9388E277DDE1
:10457000AA85BB85BA93AA93EEE2FDE40E946C2A59
:1045800020F0EC85FD85C0D26DC018970E946C2A82
:1045900020F4EC85FD85B2D265C0AA85BB85EAE62C
:1045A000FBE40E94932AA883B983EC85FD850E94D1
:1045B0008327AA85BB85FD010E94AE28A885B98501
:1045C000EEE1FDE492E0ABD2A885B98550D0AE8192
:1045D000BF814DD0E2EEFCE47ED2ECEFFCE46DD284
:1045E000EE81FF81E883F983A885B9850E9433278E
:1045F000EC85FD85E883F983E885F985AE81BF8187
:104600000E94EF27EC85FD8527D2A885B985E4ECCB
:10461000F9E50E94932AEC85FD850E944827EA85EA
:10462000FB850E94BA2A31FD1DC0F5800681112745
:104630000F7000618F5F9340A8F031F0FF0C001FF6
:10464000111F81509040D1F7007FEC85FD85868158
:10465000978137FD03C0800F911F02C0801B910B13
:10466000868397832A960E94102D22960895EC81C6
:10467000FD81E883F983EA85FB850E948327AC816D
:10468000BD81EC85FD85E883F9830C9433270E9476
:10469000342805E149D209F0089531FD33C28A93E7
:1046A000BA93AA93AC0186818F70806E86838FE364
:1046B000878388E2D4DCFA93EA934E5F5340332732
:1046C000CA01992322F4809590958F5F9F4F835064
:1046D0009040331FAC85BD85E2E7FBE40E946C2A65
:1046E000331F3E87832F8170480B504069F030683C
:1046F0003E87C42ED52EEE24D7FCE0940000FE2C7D
:10470000EE81FF810E94002C8E8581FD3BC0AC8133
:10471000BD81ADD1EA85FB85E883F983AC81FD815C
:10472000EC85FD850E943327EA85FB858E8586957D
:1047300040F0AC81BD81EA85FB850E943327EC8582
:10474000FD85A885B9850E94B22AFD017DD1A88585
:10475000B985A883B983AC81BD810E944827EC85C7
:10476000FD85E883F983EA85FB85A885B9850E94E4
:10477000EF27AA85BB85EAE7FDE40CDCE4E9FDE46C
:10478000AAD139C0AC81BD816ED18E8580FF09C0B0
:10479000EC85FD85AA85BB850E94B22AEA85FB854A
:1047A0005BD1EC85FD85E883F983AC81BD818E8585
:1047B00080FF02C0EA85FB850E943327EC85FD85DA
:1047C000AC81BD810E94B22AAA85BB85EEEAFDE4D8
:1047D000E1DBE0EEFDE47FD1EC81FD81E883F9834C
:1047E000DF010E948327EA85FB85E883F983AC819A
:1047F000BD810E948327EA85FB85E883F983A8852C
:10480000BF810E94EF278E8581FF07C0EC81FD816B
:104810001BD1A885B9850E94B22A8E8587FF16C054
:10482000EAE0FEE4AC81BD8192E079D1AC81BD814A
:10483000A883B983EE81FF810E948327EA85FB85E7
:10484000E883F983AC81BD810E9433278E8581FF87
:1048500008C0EA85FB85E883F983A885F9850E946D
:104860003327EC85FD85E883F983AA85BB850E9403
:1048700048278E8587FF10C0EA81FB81E883F98392
:10488000AE81BF810E948327EC85FD85E883F98393
:10489000AA81BB810E9448272A960E94102D239648
:1048A0000895A881B981EA81FB81249602D02497DA
:1048B0000895FA93EA93BA93AA930E94BA2A3F936F
:1048C000E881F9810E94BA2A9F91892F832B8770F2
:1048D00079F0EC81FD8182FD5BC080FD59C0892F9C
:1048E000832381FD55C031FD59C037FD54C05BC0E5
:1048F000A881B981E4ECF9E50E946C2A09F456C05C
:10490000AA81BB81E4ECF9E50E946C2A09F446C057
:104910000E94022DEA81FB810E94B22AEC81FD8176
:10492000AE81BF810E94B22AEE81FF817CD0AEF4BD
:10493000E881F981DF010E947528E881F981AA8167
:10494000BB810E94772A29F0EE81FF810E947A259F
:104950001BC0E881F9810E94DD24882787F98F93A5
:10496000EE81FF81DF0195DEA881B981EE81FF81B3
:104970000E948327E881F981AE81BF81EADD8F91B2
:10498000EE81FF8187FB59D00E94102D2496089557
:104990000E947A25FBCF0E948425F8CFEC81FD810F
:1049A0000E948A25F3CF0E947E25F0CFAC81BD8185
:1049B000EA81FB810E94B22AE9CF0E94BA2AAC01A7
:1049C00099273F77D1F44F5F5340C2F05523A9F4A4
:1049D0004533A0F441954C5C9927483018F0319646
:1049E0004850FBCF71E08081442319F0770F4A953E
:1049F000FBCFE894782309F068940895E89408952B
:104A00000FEC11E403C006E41EE300C0368130174A
:104A100037810FB63F770FBE31070895178130E811
:104A2000132717830895178117FB1F77178308959E
:104A3000178117FB106817830895178117F91783DB
:104A40000895178117FB08950681178100511040C2
:104A500010F006831783089506811781005F1F4FAA
:104A6000068317830895E4ECF9E50C94932AECECA3
:104A7000F9E50C94932AE2E6FBE40C94932AE2E530
:104A8000FBE40C94932AEAE5FBE40C94932AE4EC0F
:104A9000F9E50E946C2A8FB718978FBF0895A885F3
:104AA000B985A883B983AE81BF8174CAAA85BB8545
:104AB000A883B983AE81BF816DCAAC85BD85A8834B
:104AC000B983AE81BF8166CAAA85BB85A883B98335
:104AD000A885B9855FCAAC85BD85A883B983A8853B
:104AE000B98558CAE885F985E883F983AE81BF8125
:104AF0000C94EF270E94A62B0C949A2A0E94972BC5
:104B00000C949A2A689401C0E8940E949E2B17F98D
:104B10000C949A2A0E94A22B0C949A2A18960E940E
:104B2000932A9A95D9F708950E94B22AFD010E940E
:104B3000BA2A04FF02C037FD09C003FF02C030FDDE
:104B400005C00770032319F4AC010895D3DF9894CE
:104B50000895182D4454FB210940182D4454FB217D
:104B6000E93F182D4454FB21F93FFE822B65471580
:104B7000F73FCD3B7F669EA0E63F0606D43888BE51
:104B8000E9FAA8BDC4B1B4BD9EEE213EAD529C80F1
:104B90004F7E92BE9015CB19A001FA3E7751C116F7
:104BA0006CC156BF4C5555555555A53F061A7CD579
:104BB000CF5A3AD9E53DEB9C2B8AE6E55ABE7DFEFD
:104BC000B157E31DC73ED561C119A0012ABFA6F8A0
:104BD00010111111813F495555555555C5BF060254
:104BE000D38AD40B9B6B713F165C3E334143E3BFCA
:104BF000D92D8A174BC715407B9027DE314330C033
:104C0000599277DA07903340D5AFCE066C6520C055
:104C10000581AB0E5E0B597B2DC05490FE25C09FC5
:104C20005140D776356DBB6562C09DBFFF8456701D
:104C30006140AC07360A229848C00582089F8E98CA
:104C4000C34F683F0F29F9599207E2BF6A3EF3BA92
:104C5000F5DF1B4068AB01ACAA9139C01D08F340D9
:104C600062893C4004818C5DBFB6A2F235C0427FB0
:104C70006AAF19626240EE63909508FE77C0BE4449
:104C8000B6B009677540075C143326A6913C050A47
:104C90009425F7A17F00ECBF7A806B5B542830C06D
:104CA000730288368CC052C025BA052DBFB85EC0CD
:104CB0008EEC28FD693650C005813C60145BC4DB76
:104CC000384025FAB843DDA064403BBEE2D2180E5E
:104CD0007B40EA49B0133F567E40EC62BDFB9E51DB
:104CE00068400308E84BE4D5CD89203F7E2CCA0CF0
:104CF000D1069F3F000000000000F03F0480A05F4D
:104D000036BCB62EC93EC0B608B539AE643F74E0B5
:104D100087980917CD3F0000000000000040000008
:104D20000000402EE63FCAAB79CFD1F7B73EEF394E
:104D3000FAFE422E8640D2BC7ADD2B2386C0030ABF
:104D4000383F4FD2D892C9C0DD9DFCA5EC993141C6
:104D5000769129D3EA1F71C104817265B3EEA5B8BB
:104D6000CA4096BC2A58BC2734C1EFD8EAC28FD9B2
:104D70007741315ABE3CE0AF89C1030A840E6CDC36
:104D80003D44E9BF6B7B0273FC623040202A221154
:104D9000060950C003810A6DEC430DD641C00EE4F4
:104DA0002A11808173403B3FB319890D88C0068268
:104DB000B01BC393C2B41A3FF252563FF5D6DF3F41
:104DC000116992EDBAD212402EEB3EC672FF2C4012
:104DD0004DC84B92D6EF3140F8DC7E7D63D51E4046
:104DE00005818EEF97AE2093264033C0194E2C9D3F
:104DF0004640BDBD26A333BF544021AE5EEBE2C9A1
:104E00005140B2251F9E0A203740A80C615C10D08B
:104E10002B3F000000000030E63F83C8C96D305FC3
:104E2000F43F00000040FB21E93F000000002D445A
:104E3000643E7051CC989846E83C8827668177811B
:104E400077FB87F97F776050704011F4826007C06C
:104E5000605F7F4722F011F4816001C08460089593
:104E600060D404D079C30F0101D079C3FD01FF9351
:104E7000EF9387818F9390E889278783F0010BD088
:104E80008F91EF91FF91878308954BD404D064C331
:104E90000F0101D064C300E05FD409F008959A01C6
:104EA000281B390B1AF4D0010F01F5CF0027273347
:104EB000300708F084C4822F82D396D3A4D3372F2F
:104EC00036270AF4C8D3F0018081A80E8181B81E6C
:104ED0008281C81E8381D81E8481E81E8581F81EC8
:104EE00086818F708061081F1AF4B5D380E8682727
:104EF00005FF02C081E085D304FD01C0E8D39DC356
:104F000010D404D029C30F0101D029C308E124D44F
:104F100009F00895480F591F4F5F534067276F935B
:104F20005F934F9304D42227F00154D393E0110FE1
:104F3000331F441F551F661F771F881F9A95B9F7A7
:104F4000FD01A7E0BB279191A13011F49F70906102
:104F5000992301F1939FA00CB11CBB1F959FB6959F
:104F6000C01CD11CBB1F979FB695E01CF11C0B1FEA
:104F7000919F200DA11CBB1F949FB695B01CC11C16
:104F8000BB1F969FB695D01CE11CBB1F989FB69582
:104F9000F01C011DAA9549F02A2DAB2CBC2CCD2C60
:104FA000DE2CEF2CF02E0027CECF4F915F916F912A
:104FB00004FB16F039D302C04F5F5F4F3EC3FF932F
:104FC00009901124F8E0069408F4190E1794079438
:104FD000FA95D1F7FF910895A4D304D0BDC20F0173
:104FE00001D0BDC204E2B8D309F00895481B590BA3
:104FF00041505C4F67276F935F934F93F001DFD26F
:105000002FEFFD01E7D2ADE3BA2FB77019F4209569
:105010002F932FEFA116B306C406D506E606F706B2
:10502000080738F0A11AB30AC40AD50AE60AF70A33
:10503000080B221FAA0CBB1CCC1CDD1CEE1CFF1C89
:10504000001FAA9509F72095AF90BF90CF90DF90F1
:10505000EF90FF900F914F915F916F9104FB1EF0C5
:10506000E3D241505040E9C2E881F981AA81BB8175
:105070000895FADF68D21F77FD015CC2F5DF02D028
:10508000FD0158C277D29BD2AC01632F61FD4FC3A3
:1050900060FD4DC362FD5AC34E5F534022F119F1CA
:1050A0005523A9F7463398F7483048F00F2DFE2CCA
:1050B000ED2CDC2CCB2CBA2CAA244850A8F741307C
:1050C00048F0AA0CBB1CCC1CDD1CEE1CFF1C001FF6
:1050D0004150A9F7702F707E0F714EEF53E0F7D259
:1050E00014D3A9F2D1C22FC2BFDF3CD2FD0142D2FC
:1050F000AC0199273F7711F54F5F53401AF417D34E
:105100009FEF18C25523D1F44533C0F441954C5C50
:105110009927483030F08081982B88278193485018
:10512000F8CF7FEF8081442319F0770F4A95FBCFAA
:10513000672F60956823962B87238083089594DFDB
:10514000878187FFD2CFBF93AF93CFDFEF91FF91DE
:10515000992311F0DF0128C0089586DF03D2FD01F5
:1051600009D2AC013F77C9F48E5F934012F4DFD2CD
:10517000E1C1992391F4863380F487818F938F77EF
:105180008783FF93EF930DD0EF91FF9187819F91DC
:105190009078892B8783DF01A8CF0895E4ECF9E5A7
:1051A00006C0ECECF9E503C0E4ECF9E50EC05D01E6
:1051B000FF93EF930E94022DEF91FF91B4D1F5017F
:1051C000FA93EA9365DE22962BC45D01FF93EF9379
:1051D0000E94022DEF91FF91A6D1F501FA93EA9377
:1051E00042DE22961DC4BA93AA93FA93EA938827C3
:1051F0008A930A93229702D028960895BBD18C01F6
:105200003323E9F0AE81BF8137FF02C08DE28D9379
:1052100031FF05C080E38D9388278D93089530FF7B
:1052200005C0E8EDFEE30E94392DF6CF32FF05C040
:10523000E4EDFEE30E94392DEFCFAE83BF8380E122
:105240000E94032D2497AA83BB833896E883F983B1
:10525000EA85FB8587D1EC81FD8187818F77878304
:105260002FEF33E00217130738F5E6E8F9E587E09A
:1052700099279B878A87AC81BD812ED19B8501F4BC
:10528000991F9B8790FF0BC0B097B097A881B981F9
:105290004AD1F896EE83FF8333DEEE81FF818A8563
:1052A0008A9541F7A881B981B097B0973CD128DEA3
:1052B0009B85939591951DC0EEE4F9E587E09FEFFE
:1052C0009B878A87AC81BD8107D19B85991F9B876E
:1052D00090FD0AC0F096A881B98125D1F897EE8398
:1052E000FF830EDEEE81FF818A858A9551F79B85CB
:1052F00090959B878C859D858A839B83EC81FD811E
:1053000039D1AC015CD111274D5F5340483048F092
:10531000102F0F2DFE2CED2CDC2CCB2CBA2CAA241C
:105320004850442351F0AA0CBB1CCC1CDD1CEE1CC5
:10533000FF1C001F111F4A95F4CFAC85BD85119647
:10534000AC87BD87AA83BB83AFE8AF8330E8EEEBC1
:10535000F8E53E83B3D1BFEFA4E0A216B306C406BE
:10536000D506E606F7060807190740F0A21AB30AA1
:10537000C40AD50AE60AF70A080B190BBB1F969553
:10538000879577956795579547953795279548F46D
:105390000024201D301D401D501D601D701D801DEE
:1053A000901DAA95D1F6B0952B2F20633E814F8199
:1053B00033231AF4203309F060D0AC85BD852D93DA
:1053C000AC87BD8733954317B0F430D015D08B85AB
:1053D000882371F095E49D931AF481959DE29D9345
:1053E000982F880F890F9927991F8A879B8754D0F8
:1053F00024960C94102DADCFAA81BB81FD0111978D
:1054000093E081919A9511F08033D9F3939501C07F
:1054100081918D939A95E1F78081882309F08EE23E
:105420008D9388238191E1F71197089598859923A9
:1054300009F090E3882732508E93253350F4992356
:10544000D9F432508E918033B9F49C933A95D1F7C8
:1054500008958E9183958A3311F08C9308959C93CF
:105460003A95323009F490E33F3F99F781E3129681
:105470008C938B8583958B8708953F77488544234C
:1054800011F04F3008F04EE04D5F532F515F45173C
:1054900008F0452F4F830895EEEBF9E5689423E07B
:1054A00004E01FEF659175918617970710F0861B32
:1054B000970B111F769567950A95B1F710951EF415
:1054C000112319F0E89410631D932A9549F71127C9
:1054D0001C930895A881B981661778E06FB78D9104
:1054E00095917A9599F06FBF89076FB7F8CFE881EA
:1054F000F981AA81BB81661778E06FB78D91919190
:105500007A9521F06FBF89076FB7F8CF70E88727CA
:1055100097276FBF890731F06FB7892B12F071E0C1
:1055200067276FBF089588E005900D928A95E1F78F
:1055300018970895A082B182C282D382E482F58254
:10554000068317830895A080B180C280D380E48051
:10555000F580068117810895EC81FD81EBCFE8810C
:10556000F981E8CF88E091919D938A95E1F71897AA
:105570003897089586819781332797FB37F9889468
:105580009F7721F4882311F4326008952FEE2817B5
:105590002FE7290740F42FE02823089411F4316005
:1055A000089534600895807F9695879596958795A0
:1055B0009695879596958795989488940895A08058
:1055C000B180C280D380E480F58006810F700061D5
:1055D0002227089510813181428153816481758130
:1055E00086818F7080610895883050F02A2DAB2C11
:1055F000BC2CCD2CDE2CEF2CF02E00278850F4CFC5
:105600000895689401C0E894882369F00595F7949B
:10561000E794D794C794B794A794279516F44F5F4F
:105620005F4F8A95F1CF0895220FAA1CBB1CCC1C9A
:10563000DD1CEE1CFF1C001F089501D025C0203882
:1056400048F011F4A0FE06C0089412D005FF08959A
:1056500081E0D7CF08952095A094B094C094D094C1
:10566000E094F09400950F9200240894201D0F9070
:1056700050F40F920024A01CB01CC01CD01CE01CD5
:10568000F01C001D0F9008955523B2F0352F342BD8
:1056900099F03FEF431737E0530778F4440F551F55
:1056A000440F551F440F551F440F551F0F7E042BE9
:1056B000152F67FB17F908953AC040C02591359121
:1056C000459155916591759185919591089587E0E2
:1056D0003F2D303230E0030778F40F2DFE2CED2CF7
:1056E000DC2CCB2CBA2CA22E2227485050408A9575
:1056F00079F7442755271BC088E004FD05C094DFD7
:10570000415050408A95C9F708950F9200240A2805
:105710000B280C280D280E280F28002A00200F9097
:105720000895EA81FB81A881B9810F010895AA2417
:10573000BB2465017501850198940895F8DF00EF99
:105740001FE70895F4DF00EF1FE308958FEFA82E01
:10575000B82EEFDF1F7708950DDF632FAC01FD0139
:1057600009DF732F00C0372F362B3F7709F40895D8
:1057700032FDECCF262F2727372F60FB32F961FB54
:1057800033F93F70E4EDF9E5002311F427FD3C9671
:10579000030FE00F0027F01F849187FDD7CF86FD10
:1057A000CDDF85FDC4DF84FD0AD083FD0AD082FDF4
:1057B0000AD081FD0BD080FD0BD098940895F001A4
:1057C000C2CEFD01C0CE67FB17F9089577FBFCCF71
:1057D00027FBFACFCD90DD2402C0CD90DD90EE24E2
:1057E000FF24D7FA6EF48FEFE82EF82E09C0CD9083
:1057F000DD90EE24FF2417C0CD90DD90ED90FD905C
:10580000AA24BB240027112722276627FF2012F491
:1058100015D0606843E254E05ADF36DF8BCECD907E
:10582000DD90ED90FD90AA24BB24002711272227AC
:10583000662743E254E04BDF27DF7CCEC094D09450
:10584000E094F09481E0C80E8827D81EE81EF81E68
:10585000089590DE31FD19C032FD17C030FD2AC019
:105860008E5F934092F0992329F5803238F4A7DEB9
:1058700081958B5DB9DEE894C6DE0CC0CC24C09463
:10588000DC2CEC2CFC2CF69412C0CC24DD24EE2471
:10589000FF2410C080E8B81650F031F4BA28B22ABC
:1058A000B81611F4C0FC03C0CDDFF7FCE7CF37FF1B
:1058B00001C0C4DFCD92DD92ED92FD92089500000B
:1058C0000000000000C800000000000000140000FC
:1058D00000000000000233333333333333001F85BD
:1058E000EB51B81E0500508D976E12830000228E7A
:1058F00075711B0D0000378E588B4F0100006C41F5
:10590000EF8D210000005853FE5A03000000893B30
:10591000E65500000000F405970800000000FFE6CF
:10592000DB000000000080FD150000000000F332E5
:105930000200000000004C38000000000000A1053B
:105940000000000000009000000000000000EB24B8
:10595000A7F11E0ECC6763B3D86275F6DD5373C82A
:10596000A1A031E5E549B49DD9794378EA44000026
:1059700000A2941A6D420000000080842E410000B5
:10598000000000408F407A84EA6EF03F1218AAAE01
:10599000FF5E8016012CD82F768A4F62F735A78ECE
:1059A000A899C257F33A11EA2D819997713D8DED6F
:1059B000B5A0F7C6B03EFCA9F1D24D62503F20031E
:1059C00050000800000000000000F03F0000000050
:1059D0000000E03F00081000101010000808200030
:1059E000000810001080100008082000004120006E
:1059F000414180002080200000204400418044007C
:105A00002020800088E00FB6F8945A924A92E42D44
:105A1000F52DA42DB52D480E8827581E0FBE0895CC
:105A20000FB6F894499059900FBE089501911191C5
:105A3000219130810895481A590A0895481A8827F3
:105A4000580A089599275A924A92480E591E089565
:105A5000AA0CBB1CAA0CBB1CAA0CBB1C08950F9261
:105A6000B801469F8001479F100D569F100D0F9063
:105A700008950E94472D0D920020D9F70895903087
:105A800029F08C91880F9A95E9F78C930895C89521
:105A9000319600200895040F151F261F371F089503
:105AA00004171507260737070895000F111F221F37
:105AB000331F089500951095209530950F5F1F4F67
:105AC0002F4F3F4F0895019110810FC00E94162D56
:105AD0000EC00E94162D10C00191108117FF05C045
